:020000040800F2
:1000000070FD0120D5300008093300080B330008CB
:100010000F330008133300081733000800000000F6
:100020000000000000000000000000001B3300087A
:100030001D330008000000001F33000821330008B2
:10004000EF300008EF300008EF300008EF30000814
:10005000EF300008EF300008EF300008EF30000804
:10006000EF0200080B0300082F030008EF30000820
:10007000EF300008EF300008EF3000088D0700086F
:10008000EF300008EF300008EF300008EF300008D4
:10009000EF300008EF300008EF300008D30200080E
:1000A000EF300008EF300008EF300008EF300008B4
:1000B000EF300008EF300008EF300008EF300008A4
:1000C000EF300008EF300008EF300008EF30000894
:1000D000EF300008EF300008EF300008EF30000884
:1000E000EF300008EF300008EF300008EF30000874
:1000F000EF300008EF300008EF300008EF30000864
:10010000EF30000805260008EF300008EF30000847
:10011000EF300008EF300008EF300008EF30000843
:10012000EF300008EF300008EF300008EF30000833
:10013000EF300008EF300008EF300008EF30000823
:10014000EF300008EF300008EF300008EF30000813
:10015000EF300008EF300008EF300008EF30000803
:10016000EF300008EF300008EF300008EF300008F3
:10017000EF300008EF300008EF300008EF300008E3
:10018000EF300008EF300008DFF80CD008F006FE72
:1001900000480047A501000870FD012072B67047B5
:1001A00062B670474FF4A06003F0BEF800F012F999
:1001B00000F0B6F900F066F900F0CCF802F0BCFBF4
:1001C0002821084602F0F1FC322002F005FD074923
:1001D0000122086806A106F089FA4FF47A7000F04F
:1001E0002EF901E008F02CFDFCE70000CCBC01205A
:1001F000303A00000EB500F0ADF80121880303F09D
:1002000055FE0221042004F08AFA0321042004F0A0
:1002100086FA0421084604F082FA0621032004F03D
:100220007EFA4020009000208DF8040008208DF810
:10023000050001208DF80600684604F0E1FC1C2052
:10024000009000208DF804000C208DF8050001209E
:100250008DF80600684604F0D3FC17208DF80800DE
:1002600001208DF8090002208DF80A0001208DF888
:100270000B0002A803F05DF808208DF808000220AA
:100280008DF809008DF80A0001208DF80B0002A8F6
:1002900003F04FF809208DF8080003208DF80900BD
:1002A00002208DF80A0001208DF80B0002A803F04F
:1002B00040F80A208DF8080004208DF8090002207B
:1002C0008DF80A0001208DF80B0002A803F031F828
:1002D0000EBD10B50A2000F0C5F800F05AF801284C
:1002E00001D100F0FAF8402004F0FBFC10BD10B57D
:1002F0000A2000F0B7F800F04CF8022801D100F015
:10030000ECF8042004F0EDFC10BD10B50A2000F05C
:10031000A9F800F03EF8042805D1012000F0DDF82E
:10032000022000F0DAF8082004F0DBFC10BD10B564
:100330000A2000F097F800F02CF8082805D10120D9
:1003400000F0DAF8022000F0D7F8102004F0C9FC21
:1003500010BD00001CB50121082003F04DFD012156
:10036000102003F049FD4020009000208DF804008B
:1003700001208DF8070003208DF805006946134819
:1003800003F09CFA1C2000906946114803F096FA8D
:100390001CBD70B5002410210D4803F0F1FAC50012
:1003A00008210B4803F0ECFA45EA800504210848CF
:1003B00003F0E6FA45EA40054021044803F0E0FA7C
:1003C00045EA00040F20A04370BD0000000C02406D
:1003D0000010024030B526480068264AB0FBF2F112
:1003E000481EB0F1807F01D301201BE0481E4FF072
:1003F000E022506150170F22002807DA13071D0E64
:100400001D4B00F00F04241F1D5503E013071C0EA5
:100410001A4B1C5400BF00204FF0E02290610720CF
:100420001061002008B100BFFEE730BD144800682D
:1004300020B113480068401E1149086070474FF40E
:100440007A7141430E4A116000BF0D4909680029C5
:10045000FBD170470A49086000BF094909680029B3
:10046000FBD1704700B503461846FFF7E8FF00BD13
:100470009000002040420F0018ED00E000E400E092
:10048000000000201CB50121084603F0B5FC012145
:10049000022003F0B1FC4FF48070009001208DF831
:1004A000040000208DF8060001208DF807000320CD
:1004B0008DF805006946184803F000FA69461748A8
:1004C00003F0FCF94FF48071134803F073FA4FF412
:1004D0008071124803F06EFA1CBD10B50446012C61
:1004E00003D101020C4803F067FA022C03D1E101A9
:1004F0000A4803F061FA10BD10B50446012C03D17F
:100500000102054803F056FA022C03D1E101034829
:1005100003F050FA10BD0000000002400004024049
:1005200000B587B00121084603F066FC01211020C8
:1005300003F0BCFC072209212E4803F04AFA0722E7
:100540000A212C4803F045FA00208DF81A000120FA
:100550008DF81B0002208DF8180000020590022083
:100560008DF8190005A9234803F0A8F902208DF899
:1005700018004002059005A91E4803F09FF94FF4AA
:10058000E13001900020ADF80800ADF80A00ADF8A8
:100590000C00ADF810000C20ADF80E0001A91648B3
:1005A00004F05DF90121144804F0E1F940211248FA
:1005B00004F0C5FA07B000BD70B504460D46E1B2BF
:1005C0000D4804F0FFF900BF40210B4804F0AAFADF
:1005D0000028F9D0204670BD10B5044600BF202188
:1005E000054804F09FFA0028F9D0034804F0EEF91A
:1005F00010BD000000000240001001402DE9FF4145
:1006000004460F4615461E460121880303F03DFCB3
:100610000121880303F08EFC00214FF4804003F099
:1006200089FCADF80070ADF80240ADF80460002020
:10063000ADF8060002200290ADF80C506946614802
:1006400003F086FE012202215E4803F0FCFF012137
:100650005C4803F065FFBDE8FF8170B505460024E6
:1006600000260A20B5FBF0F500BF09E004EB84008A
:10067000554931F81000A84200D103E0601CC4B213
:100680000B2CF3D300BF002003F087FA0B2C01D111
:10069000012070BD04EB84024B4B03EB42029188B6
:1006A00004EB840203EB4202508803F06FFA4748E0
:1006B000006840F080604549086000BF434800681A
:1006C00000F000600028F9D004EB84003E4901EB03
:1006D0004000C68804EB840001EB4000C08846EA75
:1006E000002646F40076374920310E800020D0E7FE
:1006F00070B590B004460E4615460121480503F03A
:100700007BFB334802F080FE00BF314802F0A5FFBA
:100710000028FAD100902B480C3001900294402020
:1007200003900495002005904FF4806006904000EF
:100730000790800008904011099040020A90002024
:100740000B900C900D900E906946214802F0FEFE31
:10075000002231461E4802F05AFF01211C4802F0D7
:1007600062FF012210211A4802F0B7FF0F208DF816
:100770003C0000208DF83D008DF83E0001208DF8F2
:100780003F000FA802F0D5FD10B070BD10B51149A3
:100790000F4802F0BFFF012806D10E490C4802F0B5
:1007A000E3FF0D480068804710BD10B501210848DF
:1007B00002F006FF10BD10B50021054802F000FF51
:1007C00010BD000000380040FC90000800380240D6
:1007D0007060024020800020040000201CB5012130
:1007E000022003F009FBC020009001208DF80400D6
:1007F00000208DF8060003208DF8050001208DF8FB
:1008000007006946964803F059F84021944803F0E0
:10081000D1F88021924803F0CDF81CBD10B5904866
:10082000006820F440408E4908600846006840F4A3
:100830008040086080218A4803F0BCF84021884845
:1008400003F0B8F80420FFF705FE8021844803F088
:10085000B3F80420FFF7FEFD4021814803F0ACF817
:1008600010BD10B57E48006820F440407C49086007
:100870000846006840F4804008604021784803F052
:100880009BF88021764803F097F80420FFF7E2FDFB
:100890004021734803F08EF88021714803F08AF8F4
:1008A0000420FFF7D7FD10BD10B500246C48006888
:1008B00020F440406A4908600846006808608021CA
:1008C000674803F077F80120FFF7C4FD4021644832
:1008D00003F070F80120FFF7BDFD07E0601CC4B213
:1008E000FA2C03DDFFF7BDFF012010BD80215C481D
:1008F00003F046F80028F1D14021594803F05CF894
:100900000020F2E710B54021554803F055F854484F
:10091000006820F44040524908600846006840F4EE
:100920008040086080214E4803F046F80220FFF71F
:1009300091FD40214A4803F03DF80220FFF78AFD6F
:100940004021474803F038F810BD10B54021444815
:1009500003F032F84248006820F440404049086003
:100960000846006840F48040086080213C4803F05D
:1009700021F80220FFF76EFD4021394803F01AF8F4
:100980000220FFF767FD4021354803F015F810BD40
:1009900070B504463248006820F440403049086091
:1009A0000846006840F48040086040212C4803F06D
:1009B00003F800251FE0E00920B18021284802F05B
:1009C000F9FF03E08021264802F0F6FF6006040EDE
:1009D0000220FFF73FFD4021214802F0EBFF0220FB
:1009E000FFF738FD40211E4802F0E6FF0220FFF726
:1009F00031FD681CC5B2082DDDDB70BD70B5054644
:100A000000241748006820F4404015490860084653
:100A100000680860002618E04021114802F0CCFF71
:100A20000220FFF717FD40210D4802F0C3FF6006CA
:100A3000040E80210A4802F0A3FF08B1601CC4B272
:100A40000120FFF707FD701CC6B2082EE4DB15B9C4
:100A5000FFF77BFF01E0FFF755FF204670BD000068
:100A6000000402400020FE490860091D0860091DBD
:100A70000860091D0860FA4924310860091D0860F2
:100A8000091D0860F748F649383108600020091D43
:100A90000860704701460020012900D011B9F24BCF
:100AA000197000E0262070470146ED4A121D1068BB
:100AB00020F0FF0008431060704770B5044606E060
:100AC000E7483430056805F0450000B100E0F7E77D
:100AD00000BF042003F0ACFB20B1042003F0B3FB03
:100AE000032070BD012003F0A3FB20B1012003F01F
:100AF000AAFB0120F5E7DA4810300068A04201D0D7
:100B00001020EEE740F2FF5003F09DFBD448143074
:100B1000006808210840C0B2E3E72DE9FC41074620
:100B20000D46002600240020009001900820CF49A7
:100B3000086010204860402088600020C8604FF4A2
:100B400080600861084603F0E0FA1020FFF7B5FF67
:100B5000044614B12046BDE8FC81C5480088000465
:100B6000C249086037204860402088600020C86083
:100B70004FF480600861084603F0C7FA3720FFF79A
:100B80009CFF04460CB12046E5E74FF0FF30B94921
:100B9000086008204860302088600220C86000207B
:100BA000086101204861084603F0DBFA0020AF49E4
:100BB000086033204860402088600020C8604FF4FF
:100BC00080600861084603F0A0FA3320FFF775FF44
:100BD00004460CB12046BEE70DE04FF4001003F0D0
:100BE00027FB40B19E48803000684DF82600761CF7
:100BF000022E00D307E09A483430006840F22A61A0
:100C000008400028E9D000BF082003F011FB20B104
:100C1000082003F018FB04209DE7022003F008FBE6
:100C200020B1022003F00FFB022094E7202003F004
:100C3000FFFA20B1202003F006FB06208BE74FF4DB
:100C4000007003F0F5FA28B14FF4007003F0FBFADE
:100C5000072080E740F2FF5003F0F5FA0098000605
:100C6000009901F47F4140EA0120009901F47F01DD
:100C700040EA1120009940EA11606860019800067E
:100C8000019901F47F4140EA0120019901F47F01BB
:100C900040EA1120019940EA1160286020465AE795
:100CA0007CB50546002400200090019000260DB17F
:100CB000022600E000266A481430006800F0007048
:100CC00008B10E207CBD6A49098888B26946FFF7E1
:100CD00024FF04460CB12046F4E7019800F480207C
:100CE00060B36348008800046049086037204860AA
:100CF000402088600020C8604FF48060086108468A
:100D000003F003FA3720FFF7D8FE04460CB1204663
:100D1000D8E756480660062054494860402088605D
:100D20000020C8604FF480600861084603F0EDF9C8
:100D30000620FFF7C2FE04462046C3E72520C1E790
:100D400070B5044600254C480078032802D12725B9
:100D5000284670BD4848007838B1474800780128D7
:100D600003D045480078022819D1B4F5805F02D13C
:100D700027252846EDE7E0B2FFF792FF054675B953
:100D80003748001D006820F4C0503549091D08602F
:100D90000846006820430860084600680860284646
:100DA000D7E710B504463148046007202F49486052
:100DB000402088600020C8604FF4806008610846C9
:100DC00003F0A3F90720FFF778FE10BDF0B5014648
:100DD00000200022284B1B7881F85630244B1B88BA
:100DE000A1F85430254B1B681A0E93090B70C2F3FF
:100DF00083034B7002F003038B70204B1B68C3F31B
:100E00000742CA701D4B1B88C3F307220A711B4B94
:100E10001A784A715B681A0E1301CB80174B5B6816
:100E2000C3F30742CB8843EA1213CB8002F00F03CF
:100E30000B72124B9B88C3F30722D3094B72C2F388
:100E400080138B72C2F34013CB72C2F300130B7387
:100E500000234B73084B1B78C3B1074B1B780FE083
:100E6000002C0140FF07C0001000002010010020EE
:100E70000C00002024010020080000203C0100207C
:100E8000012B03D0FE4B1B78032B4FD193071B0D77
:100E90000B61FC4B1A790B6943EA82030B61F94B36
:100EA0009B681A0E0B6943EA92130B61C2F3C203EB
:100EB0000B7502F007034B75F24B9B68C3F30742B7
:100EC00053098B75C2F38203CB7593075B0F0B76C7
:100ED000EC4B1B89C3F307220B7E43EAD2130B763C
:100EE0000B695B1C0024C1E912340B7E9B1C01249E
:100EF00004FA03F3DC17D1E91256A5FB037C06FBC9
:100F000003C305FB0433C1E912730C7A0123A34028
:100F10000B650024D1E912650B6DA6FB037C05FB74
:100F200003C306FB0433C1E912732EE0D44B1B78D4
:100F3000022B2AD1D34B1A7993069B0A0B61D14B12
:100F40009B681A0E0B6943EA02230B61CD4B9B6829
:100F5000C3F307420B6913430B61CA4B1B89C3F3ED
:100F600007220B695B1C4FF40074A3FB04464FF48B
:100F700080630025A4FB037C06FB03C304FB05334D
:100F8000C1E912734FF400730B65C2F3801301F8CB
:100F9000193F93065B0E4B70BA4B1A7A4B7843EAB3
:100FA000D2134B7002F07F038B70B64BDB681A0EC6
:100FB000D309CB70C2F341130B71C2F382034B719F
:100FC00093071B0F8B71AF4BDB68C3F307428B7921
:100FD00043EA92138B71C2F34013CB7100230B725F
:100FE00002F001034B72A74B9B89C3F30722D3097D
:100FF0008B72C2F38013CB72C2F340130B73C2F334
:1010000000134B73C2F381038B7302F00303CB73A2
:101010009C4B1A7B53080B7401234B749A4B1B682F
:101020001A0ECA741939984B1B68C3F3074214028D
:10103000CC85954B1B88C3F30722CB8D1343CB85FF
:10104000914B1A7814060C635B681A0E0B6B43EA1B
:1010500002440C638C4B5B68C3F307420B6B43EA9F
:1010600002240C63884B9B88C3F307220B6B13434A
:101070000B63854B1A7934235A54834B9B681A0EA1
:1010800035235A54804B9B68C3F3074214068C6384
:101090007D4B1B89C3F307228B6B43EA02448C63AD
:1010A000794B1A7A8B6B43EA02248C63764BDB68AC
:1010B0001A0E8B6B13438B63734BDB68C3F30742CE
:1010C0003C235B5C43EA12143C235C5413071C0D65
:1010D000CC876D4B9B89C3F30722CB8F1343CB8700
:1010E000694B1A7B540840235C54012441235C540F
:1010F000F0BD70B500264FF4803505E06348046804
:1011000004F0450000B103E02800A5F10105F5D188
:1011100000BF15B104F0040028B10326042003F039
:1011200092F8304670BD012003F082F818B1012614
:10113000012003F088F840F2FF5003F084F83046B5
:10114000F0E72DE9F04105460E464FF0000805E0B6
:101150004E48076807F0450000B100E0F8E700BF1F
:10116000042003F065F828B1042003F06CF8032094
:10117000BDE8F081012003F05BF820B1012003F00D
:1011800062F80120F4E7414824380068A84201D001
:101190001020EDE740F2FF5003F055F83B482038AF
:1011A000046804F4604018B9200C30804046DFE742
:1011B00004F4005008B11320DAE704F4804008B1C9
:1011C0001020D5E704F4004008B10F20D0E74046D6
:1011D000CEE738B500240120009002F090FF10B94E
:1011E0002524204638BD26480078042825D0002034
:1011F0002749086002204860C02088600020C8603D
:101200004FF480600861084602F07FFFFFF771FF2E
:1012100004460CB12046E5E71C48203800681A490E
:1012200008601A481C380068486018481838006878
:101230008860164814380068C8601148007858B1B2
:101240000F480078012807D00D480078062803D001
:101250000B480078022821D100200D4908600320A6
:101260004860402088600020C8604FF480600861BA
:10127000084602F04AFF69460320FFF762FF09E0D3
:10128000080000203C0100204C010020342C0140CB
:101290001001002004460CB12046A3E7FE48007868
:1012A000032816D1BDF800000004FC4908600320A3
:1012B0004860402088600020C8604FF4806008616A
:1012C000084602F022FFFFF714FF04460CB1204647
:1012D00088E7F148007804282AD0BDF80000F049DA
:1012E0000860BDF800000004EC490860092048606F
:1012F000C02088600020C8604FF480600861084604
:1013000002F003FFFFF7F5FE04460CB1204669E743
:10131000E4480068E4490860E248001D006848604D
:10132000E048083000688860DE480C300068C8601B
:10133000002057E710B506E0DA482030046804F0D2
:10134000450000B100E0F7E700BF042002F070FFA5
:1013500020B1042002F077FF032010BD40F2FF50BF
:1013600002F071FF0020F8E770B500264FF48035D9
:1013700006E0CC482030046804F0450000B103E0EA
:101380002800A5F10105F4D100BF15B104F0040057
:1013900028B10326042002F056FF304670BD04F049
:1013A000400018B10026402002F04DFF3046F5E71E
:1013B00070B500254FF4803404E0802002F038FF3F
:1013C00000B103E02000A4F10104F6D100BF0CB984
:1013D000032070BD40F2FF5002F035FF2846F8E7C9
:1013E0002DE9F0470027002400260025A046A1464D
:1013F0007620AE4908750020086048608860C860A3
:101400000861084602F057FE032002F074FEA5486A
:101410001038006840F48070A2491039086000BF9D
:1014200012E000209D49086048608860C8604FF461
:1014300080600861084602F068FEFFF7B9FF0446C5
:1014400004B903E0781CC7B24A2FEADB00BF14B12D
:101450002046BDE8F0874FF4D57090490860082019
:101460004860402088600020C8604FF480600861B8
:10147000084602F04AFEFFF777FF044624B9012030
:10148000854908704FF08049002084490860372062
:101490004860402088600020C8604FF48060086188
:1014A000084602F032FE3720FFF707FB0446002C07
:1014B0004BD134E000207949086037204860402053
:1014C00088600020C8604FF480600861084602F020
:1014D0001CFE3720FFF7F1FA04460CB12046B8E7AE
:1014E000734849EA00006D4908602920486040209F
:1014F00088600020C8604FF480600861084602F0F0
:1015000004FEFFF717FF04460CB12046A1E765482B
:101510000668012080EAD67080F001086D1CB8F1E1
:10152000000F03D14FF6FF708542C3D34FF6FF7013
:10153000854202D31B2420468BE706F0804006003C
:1015400032D00220544908702EE01CE0594853491B
:10155000086001204860402088600020C8604FF487
:1015600080600861084602F0D0FDFFF7E3FE044604
:101570000CB120466DE74B480668012080EAD67022
:1015800080F001086D1CB8F1000F03D14FF6FF7019
:101590008542DBD34FF6FF70854202D31B242046E1
:1015A00057E703203C490870204652E73EB5002427
:1015B00000250121404802F01FFC0121C80202F071
:1015C00075FC0121C80202F0C6FC4FF4F8500190EE
:1015D00002208DF808008DF8090000208DF80A001F
:1015E00001208DF80B0001A9344802F067F90420AE
:1015F000019001A9324802F061F90C2208212F481C
:1016000002F0E7F90C2209212C4802F0E2F90C2241
:101610000A212A4802F0DDF90C220B21274802F0AA
:10162000D8F90C221146254802F0D3F90C220221E8
:10163000234802F0CEF900214FF4006002F08BFC49
:10164000FFF710FA31208DF8000000208DF801001E
:101650008DF8020001208DF80300684601F069FE54
:10166000FFF7BEFE044614B9FFF7B3FD04461CB9EC
:101670001448FFF7ABFB044634B91249B1F85410D3
:101680000804FFF78EFB044624B94FF40060FFF70F
:1016900057FB0446E4B117E00800002010010020C9
:1016A0000C000020142C01403C010020F800002018
:1016B000000010800080FF800C0040000008024005
:1016C000000C024060010020FE480078032812D17F
:1016D000FD4890F8560020B1FB4890F856000128CC
:1016E00001D1022500E000252846FFF7DDF90020A2
:1016F000FFF7D0F9044620463EBD10B5002002F0A9
:10170000FAFC002010BD70B590B004460E46154698
:1017100000BFEE4801F0A1FF0028FAD1EB4801F02C
:1017200073FE4FF000600190E94802900394049525
:101730000020059006904FF480600790800008908C
:101740008000099000200A904FF440300B90042054
:101750000C9003200D904FF400000E9080100F901D
:1017600001A9DA4801F0F2FE2021D84801F03EFF3D
:101770000121D64801F024FF10B070BD01460020C1
:1017800002E04910421CD0B20129FAD170472DE97C
:10179000F84F8146174698460A9C4FF0000AD346F8
:1017A0004D464FF0FF36B9F1000F02D12620BDE8BB
:1017B000F88F0020C64954390860C24800780228D2
:1017C00005D10402780A40EAC8574FEA6828002089
:1017D000C04988604860401E0860012048610020C0
:1017E000C8600861084602F0BCFCB9486C38006863
:1017F00000F0007008B10E20D9E7002C21DDB4F50F
:10180000006F1EDC601E2040D8B92046FFF7B6FFEF
:101810000090B14804601020AF49486040208860C3
:101820000020C8604FF480600861084602F06DFC3B
:101830001020FFF742F98246BAF1000F03D050465C
:10184000B5E72620B3E700980001A2498860084662
:1018500044604FF0FF300860012048610220C860FA
:1018600000200861084602F07CFC9B4807601120BC
:1018700099494860402088600020C8604FF480602B
:101880000861084602F041FC1120FFF716F9824674
:10189000BAF1000F01D0504689E79048007800283F
:1018A0005AD1FEF77BFC17E04FF4004002F0C0FC79
:1018B00070B14FF0000B05E08548006845F82B003B
:1018C0000BF1010BBBF1080FF6D32035844E03E07A
:1018D0000EB904206BE7761E7D484C38006840F254
:1018E0002A6108400028DFD0082002F0A1FC20B1C6
:1018F000082002F0A8FC042059E7022002F098FC1E
:1019000020B1022002F09FFC022050E7202002F0CC
:101910008FFC20B1202002F096FC062047E74FF410
:10192000007002F085FC28B14FF4007002F08BFCCF
:1019300007203CE703E06648006828602D1D4FF44F
:10194000001002F075FC0028F5D1FEF729FC40F2EA
:10195000FF5002F078FC39E060480078012835D16A
:101960000020604908706049087060490870584854
:101970004438006840F22A31084355494439086028
:1019800053485438006840F0080051495439086001
:10199000002221464846FFF7B6FE00E0761E4B487F
:1019A0005838006800F0006038B95048007820B915
:1019B0004C48007808B9002EF0D10EB90420F6E6A4
:1019C0004848007810B1474890F800A05046EEE62D
:1019D0002DE9FF5F17469846DDE90E464FF00009F6
:1019E000CA464FF0FF354249009808600020384948
:1019F0005439086033480078022805D10402780A77
:101A000040EAC8574FEA6828002032498860486099
:101A1000401E0860012048610020C8600861084637
:101A200002F09FFB2A486C38006800F0007018B183
:101A30000E2004B0BDE8F09F002C21DDB4F5006F4E
:101A40001EDC601E2040D8B92046FFF797FE834673
:101A50002148046010202049486040208860002010
:101A6000C8604FF480600861084602F04EFB102009
:101A7000FFF723F88146B9F1000F03D04846D8E7B5
:101A80002620D6E7012E6ED906FB04F0B0F1007FC8
:101A900001D32620CDE74FEA0B100E49886006FBE4
:101AA00004F048604FF0FF300860012048610220D8
:101AB000C86000200861084602F053FB0648076032
:101AC000122017E008000020600100205864024046
:101AD000802C014024010020100100201000002073
:101AE000FFFF7F00120000201100002013000020E3
:101AF00014000020F9494860402088600020C86038
:101B00004FF480600861084602F0FFFA1220FEF7E9
:101B1000D4FF8146B9F1000F01D0484689E7F0486B
:101B2000007800287ED1FEF739FB1EE04FF400401C
:101B300002F07EFBA0B14FF0000A07E0E948006820
:101B4000E949096841F82A000AF1010ABAF1080FC7
:101B5000F4D3E54800682030E3490860E34D04E031
:101B600015B9042065E7AEE06D1EDE484C3800680C
:101B700040F22A3108400028D8D0082002F058FB53
:101B800020B1082002F05FFB042052E7022002F09F
:101B90004FFB20B1022002F056FB022049E7202033
:101BA00002F046FB20B1202002F04DFB062040E76A
:101BB0004FF4007002F03CFB28B14FF4007002F0CB
:101BC00042FB072035E709E0C6480068C6490968B6
:101BD0000860C5480068001DC34908604FF4001044
:101BE00002F026FB0028EFD14FF4807002F020FBBA
:101BF00020B3BF48007838B1BD480078012803D031
:101C0000BB480078022819D10020B44908600C2094
:101C10004860402088600020C8604FF48060086100
:101C2000084600E011E002F070FA0C20FEF745FFD4
:101C30008146B9F1000F01D04846FAE6FEF7B0FA46
:101C400040F2FF5002F0FFFA3DE0A548007801287D
:101C500039D10020A74908700120A7490870002049
:101C6000A64908709F484438006840F22A3108436A
:101C70009C49443908609B485438006840F008008B
:101C800098495439086006FB04F100220098FFF7D8
:101C90003AFD00E06D1E9A48006800F0006008B947
:101CA000002DF7D10DB90420C3E600BF934800789A
:101CB00018B9904800780028F8D08E48007810B104
:101CC0008C4890F800904846B3E61CB504460020C6
:101CD000019000908B4800880004804908600D2026
:101CE0004860402088600020C8604FF48060086130
:101CF000084602F00AFA7B484C380068009003E07E
:101D000078484C3800680090009800F045000028A2
:101D1000F6D0012002F08CFA20B1012002F093FAF3
:101D200001201CBD042002F083FA20B1042002F03F
:101D30008AFA0320F5E76B48703800680D2801D057
:101D40001020EEE740F2FF5002F07DFA65486C3853
:101D5000006801900198C0F3432020700020E0E764
:101D60002DE9FF5F86B017469846149D0026002097
:101D700005900490002481460390824602900195CC
:101D8000DDF818B0DDF818B0BBF1000F03D1262044
:101D90000AB0BDE8F09F00205249543908605A4902
:101DA00088604860401E0860012048610020C860CB
:101DB0000861084602F0D5F94A486C38006800F01E
:101DC000007008B10E20E3E749480078022805D1E9
:101DD0000502780A40EAC8574FEA6828002D1FDD3F
:101DE000B5F5006F1CDC681E2840C8B92846FFF70F
:101DF000C5FC0590394805601020384948604020EE
:101E000088600020C8604FF480600861084602F0D6
:101E10007CF91020FEF751FE06461EB13046B7E7AA
:101E20002620B5E73748008800042C4908600D20BB
:101E30004860402088600020C8604FF480600861DE
:101E4000084602F062F90D20FEF737FE06460EB195
:101E500030469DE723486C38006803904FF0FF340C
:101E60001CE0641E2748008800041C4908600D20FF
:101E70004860402088600020C8604FF4806008619E
:101E8000084602F042F90D20FEF717FE06460EB195
:101E900030467DE713486C3800680390039800F4DF
:101EA000807008B9002CDCD10CB9292070E70B48F0
:101EB0000760182009494860402088600020C860F9
:101EC0004FF480600861084602F01FF91820FEF701
:101ED000F4FD0646D6B130465AE700001001002056
:101EE00010000020802C014014000020FFFF7F0024
:101EF0000800002012000020110000201300002024
:101F0000006402400C000020240100200020F84959
:101F1000087005980001F7498860084645604FF051
:101F2000FF300860012048610020C8600861084651
:101F300002F017F94FF0FF34EF48007800287CD109
:101F4000FEF72CF943E04FF4804002F071F9C8B37A
:101F50000198A0EB0900202821D20198A0EB0900EC
:101F600000F0030020B90198A0EB0900800804E00C
:101F70000198A0EB09008008401C02904FF0000A75
:101F800009E0DE49DBF8000008600AF1010A0BF104
:101F9000040B09F1040902988245F2D30FE04FF0D7
:101FA000000A05E05BF82A00D44908600AF1010A3A
:101FB000BAF1080FF6D30BF1200B09F120096FF0ED
:101FC000404404E0FFE70CB90420E1E6641ECB487E
:101FD0004C38006840F21A6108400028B3D008204D
:101FE00002F026F920B1082002F02DF90420CFE6F6
:101FF000022002F01DF920B1022002F024F9022093
:10200000C6E6102002F014F920B1102002F01BF9EE
:102010000520BDE64FF4007002F00AF930B14FF42C
:10202000007002F010F90720B2E606E0FEF7B8F8FB
:1020300040F2FF5002F007F943E0AF480078012872
:102040003FD10020AE490870A9490870AD49087019
:10205000AA484438006840F21A310843A749443975
:102060000860402229460698FFF74DFBA3485438E4
:10207000006840F00800A1495439086000E0641E7F
:10208000A148006800F0006008B9002CF7D11CB925
:10209000FFF78CFA04207BE64FF0FF3400E0641E6B
:1020A0009848007820B99648007808B9002CF6D1F5
:1020B0000CB904206CE69248007810B19048007882
:1020C00066E640F2FF5002F0BEF804A8FFF7FDFDFF
:1020D000064603E004A8FFF7F8FD06463EB99DF862
:1020E00010000728F6D09DF810000628F2D03046E0
:1020F0004EE62DE9FF5F84B0DDE91247002600209F
:1021000003900290002580468146019007FB04FB66
:10211000DDF810A0DDF810A0BAF1000F03D12620E1
:1021200008B0BDE8F09F0020744954390860714937
:1021300088604860401E0860012048610020C86037
:102140000861084602F00DF86C486C38006800F031
:10215000007008B10E20E3E76C480078022808D12F
:102160000402DDE90601400A40EAC1504912CDE906
:102170000601002C1FDDB4F5006F1CDC601E204042
:10218000C8B92046FFF7FAFA0390614804601020AE
:102190005F494860402088600020C8604FF480603C
:1021A0000861084601F0B1FF1020FEF786FC0646E4
:1021B0001EB13046B4E72620B2E7012F6FD907FBE6
:1021C00004F0B0F1007F01D32620A9E74F48007842
:1021D00038B14E480078012803D04C4800780228D6
:1021E0002DD14C48008800044949086037204860D8
:1021F000402088600020C8604FF480600861084675
:1022000001F083FF3720FEF758FC06460EB130463A
:1022100086E73F48076017203D49486040208860B6
:102220000020C8604FF480600861084601F06DFF2F
:102230001720FEF742FC06460EB1304670E73449DF
:102240000698086019204860402088600020C86017
:102250004FF480600861084601F057FF1920FEF72F
:102260002CFC06460EB130465AE70398000121497E
:10227000886007FB04F048604FF0FF3008600120E1
:1022800048610020C8600861084601F06AFF1A48EA
:102290000078002872D1451EFDF780FF54E0F8E079
:1022A0004FF4804001F0C4FFB0B3ABEB080020282E
:1022B00033D2ABEB080000F0030018B9ABEB080019
:1022C000800803E0ABEB08008008401C01904FF051
:1022D000000909E00949DAF80000086009F101097C
:1022E0000AF1040A08F1040801988145F2D324E0B8
:1022F000110000202401002010000020802C01404B
:10230000120000201300002000640240080000209A
:10231000100100200C00002012E04FF0000905E041
:102320005AF82900F849086009F10109B9F1080FC4
:10233000F6D30AF1200A08F120086FF0404503E0C7
:102340000DB90420ECE66D1EEF484C38006840F2F1
:102350001A3108400028A3D0082001F069FF20B1FD
:10236000082001F070FF0420DAE6022001F060FF8F
:1023700028B1022001F067FF0220D1E640E01020E2
:1023800001F056FF20B1102001F05DFF0520C7E6E7
:102390004FF4007001F04CFF28B14FF4007001F0D1
:1023A00052FF0720BCE64FF4807001F041FF00B3FC
:1023B000D648007838B1D5480078012803D0D348F2
:1023C0000078022815D10020D14908600C2048600F
:1023D000402088600020C8604FF480600861084693
:1023E00001F093FE0C20FEF768FB06460EB1304666
:1023F00096E6FDF7D5FE40F2FF5001F024FF48E0DD
:10240000C4480078012844D10020C3490870012045
:10241000C24908700020C2490870BB4844380068AF
:1024200040F21A310843B8494439086007FB04F107
:1024300040220498FFF767F9B3485438006840F029
:102440000800B149543908604FF0FF3500E06D1EB7
:10245000B448006800F0006008B9002DF7D11DB93C
:10246000FFF7A4F804205BE64FF0FF3500E06D1E97
:10247000AB48007820B9A848007808B9002DF6D1FB
:102480000DB904204CE6A448007810B1A2480078A9
:1024900046E640F2FF5001F0D6FE02A8FFF715FC19
:1024A000064603E002A8FFF710FC06463EB99DF879
:1024B00008000728F6D09DF808000628F2D030461C
:1024C0002EE610B54FF4807001F0B2FE88B3934849
:1024D0000078012814D100208D4908600C20486044
:1024E000402088600020C8604FF480600861084682
:1024F00001F00BFE0C20FEF7E0FA8749087002E0BD
:1025000000208549087080484838006840F4807091
:102510007D4948390860081D00684CF23A3188430B
:1025200079494439086001207D4908707A4800786B
:1025300010BDFFE7022001F07BFE78B1022001F020
:1025400082FE7148443800684CF23A3188436E4943
:1025500044390860022070490870E9E7082001F05A
:1025600067FE78B1082001F06EFE674844380068C5
:102570004CF23A3188436449443908600420664982
:102580000870D5E7202001F053FE78B1202001F03B
:102590005AFE5D48443800684CF23A3188435A4943
:1025A0004439086006205C490870C1E7102001F03A
:1025B0003FFE78B1102001F046FE534844380068D1
:1025C0004CF23A3188435049443908600520524959
:1025D0000870ADE74FF4007001F02AFE80B14FF4AF
:1025E000007001F030FE4848443800684CF23A313F
:1025F000884345494439086007204749087097E7F0
:10260000002095E710B5FFF75CFF10BD70B50446DC
:10261000002514B92625284670BD434800880004CB
:102620003B4908600D204860402088600020C86059
:102630004FF480600861084601F067FD0D20FEF749
:102640003CFA05460DB12846E6E72F486C3800688D
:1026500020602846E0E708B5002000906846FFF7B4
:10266000D5FF08B1FF2008BD0098C0F34320FAE76A
:102670002DE9FE4F83460E4691460020029000252C
:1026800034462248007818B1680240EAD455640202
:102690000BF00300F0B14FF0000A18E04FF40070A7
:1026A00000904FEA4A20071945EBE0733A461F486D
:1026B000FFF76DF802904FF400721C49584606F07F
:1026C00012FB0BF5007B0AF1010000F0FF0ACA457E
:1026D000E4DB16E0B9F1010F09D14FF40070224696
:1026E0002B4600905846FFF752F8029009E04FF44D
:1026F000007022462B46CDE900095846FFF768F9DD
:1027000002900298BDE8FE8F802C01400800002056
:1027100010010020100000201200002011000020F5
:1027200013000020006402400C000020B8010020CB
:102730002DE9FE4F0646894692460020029000256C
:102740004C462148007818B1680240EAD45564022A
:1027500006F00300F0B14FF0000B18E04FF40072E8
:1027600031461A4806F0BFFA4FF4007000904FEA65
:102770004B20071945EBE0733A461448FFF7F0FA8F
:10278000029006F500760BF1010000F0FF0BD34537
:10279000E4DB16E0BAF1010F09D14FF400702246D4
:1027A0002B4600903046FFF7DBFA029009E04FF429
:1027B000007022462B46CDE9000A3046FFF799FC0F
:1027C00002900298BDE8FE8F08000020B8010020AA
:1027D00010B5044600BF0221414801F05FFF002808
:1027E000F9D021463E4801F010FF00BF01213C48CE
:1027F00001F054FF0028F9D0394801F003FFC0B2BE
:1028000010BD00B587B00121084601F0F5FA01219D
:10281000080301F04BFB3820059002208DF81800CA
:1028200000208DF81A0003208DF8190001208DF882
:102830001B0005A92B4801F041F805220321294876
:1028400001F0C7F805220421264801F0C2F805224C
:102850001146244801F0BDF80121080301F07BFB7B
:1028600000214FF4805001F076FB0020ADF800000D
:102870004FF48270ADF802000020ADF80400022091
:10288000ADF806000120ADF808004002ADF80A00DE
:102890003820ADF80C000020ADF80E000720ADF890
:1028A000100069460E4801F035FD01210C4801F089
:1028B0002BFEFF20FFF78CFF07B000BD10B50446CC
:1028C000074800884FF6C771084005490880084648
:1028D0000088204308800121014801F015FE10BD49
:1028E000003001400004024070B505460C46FDF77B
:1028F00095FF3420FEF74CF8FDF7D6FF08B1012014
:1029000070BDC4F3002141EA4501C8B2FEF740F8AA
:10291000FDF7CAFF08B10220F2E7E0B2FEF738F88F
:10292000FDF7C2FF08B10320EAE7FDF79AFFF4487C
:1029300020F815400020E3E71CB50121062001F036
:102940005BFA4FF44640009002208DF8040000200E
:102950008DF8060003208DF8050001208DF8070092
:102960006946E84800F0AAFF4020009002208DF858
:10297000040000208DF8060003208DF805000120DA
:102980008DF807006946E04800F098FF052209210C
:10299000DC4801F01EF805220A21DA4801F019F896
:1029A00005220F21D74801F014F805220621D64848
:1029B00001F00FF806220E21D24801F00AF8FDF7C7
:1029C0000DFF00210846FFF78FFF04460CB10120E0
:1029D0001CBD1B210120FFF787FF4FF4D871022097
:1029E000FFF782FF6C210320FFF77EFF0021062006
:1029F000FFF77AFF10212B20FFF776FF4FF480714D
:102A00002F20FFF771FF4FF480713020FFF76CFF2C
:102A100002213120FFF768FF08210A20FFF764FF39
:102A200008210E20FFF760FF0020D1E70146B448DF
:102A300030F81100704770B505460E460320FFF7C9
:102A4000F5FF044615B144F0030401E024F003044B
:102A500021460320FFF748FF0220FFF7E7FF044667
:102A600016B144F0030401E024F0030421460220DF
:102A7000FFF73AFF70BD70B5044604F007042F203D
:102A8000FFF7D4FF054625F0070545EA04012F208E
:102A9000FFF72AFF3020FFF7C9FF054625F007059D
:102AA00045EA04013020FFF71FFF70BD70B50446F2
:102AB00004F007042F20FFF7B9FF054625F0700545
:102AC00045EA04112F20FFF70FFF3020FFF7AEFF7C
:102AD000054625F0700545EA04113020FFF704FF94
:102AE00070BD2DE9F04105460E4617460220FFF75E
:102AF0009DFF044615B144F00C0401E024F00C04E1
:102B000021460220FFF7F0FE2C20FFF78FFF04463E
:102B100015B144F0330401E024F0330421462C20A5
:102B2000FFF7E2FE1EB10520FFF7C0FF02E0002024
:102B3000FFF7BCFF1FB10720FFF79DFF02E0002059
:102B4000FFF799FFBDE8F08170B506460D460024F9
:102B50000EB144F001041DB144F0020444F0140429
:102B600021463220FFF7C0FE21463320FFF7BCFE8E
:102B700070BD10B5044604F03F0421462D20FFF738
:102B8000B3FE44F480712E20FFF7AEFE10BD70B589
:102B900004460D4604F0030405F00305E00040EA96
:102BA00045110420FFF7A0FE70BD70B504460D4628
:102BB00004F03F0405F03F050CB944F040040DB9A2
:102BC00045F0400521463420FFF78EFE45F4807124
:102BD0003520FFF789FE70BD10B5044604F03F04B0
:102BE0000CB944F0400421463620FFF77DFE44F442
:102BF00080713720FFF778FE10BD10B5044604F051
:102C00000F0421462920FFF76FFE10BD70B5054661
:102C10001220FFF70BFF044615B144F4807401E065
:102C200024F4807421461220FFF75EFE70BD70B55B
:102C300006460C4606F00306182C00DD1824C4F1E5
:102C40001800C4B21220FFF7F1FE054605F48075A6
:102C500045EA4615254329461220FFF745FE70BD7B
:102C600070B505460C46002605F00305182C00DD5E
:102C70001824C4F11800C4B246EA4516264331466A
:102C80001320FFF731FE70BD70B505460C460026D7
:102C900005F00305182C00DD1824C4F11800C4B297
:102CA00046EA4516264331461420FFF71DFE70BD47
:102CB00070B505460C46002605F00305182C00DD0E
:102CC0001824C4F11800C4B246EA4516264331461A
:102CD0001520FFF709FE70BD70B505460C460026AD
:102CE00005F00305182C00DD1824C4F11800C4B247
:102CF00046EA4516264331461620FFF7F5FD70BD1E
:102D000018000020000402400008024010B5002412
:102D10004FF48041E94800F04FFE9020FFF758FD46
:102D20000020FFF755FD0020FFF752FD0020FFF7C0
:102D30004FFDFF20FFF74CFD44EA0024FF20FFF782
:102D400047FD04434FF48041DC4800F033FE204649
:102D500010BD1CB50121022001F04EF801214020D8
:102D600001F04AF84FF48040009001208DF80400F3
:102D700000208DF8060003208DF8050001208DF855
:102D800007006946CD4800F099FD80200090694613
:102D9000CB4800F093FD8021C94800F00BFE4FF4B2
:102DA0008041C64800F006FEFFF72BFD0020FFF72C
:102DB00085FDFFF7ABFFC34908801CBD10B500249B
:102DC0004FF48041BD4800F0F7FD0520FFF700FDFE
:102DD000FF20FFF7FDFC04464FF48041B74800F0A8
:102DE000E9FD204610BD10B504464FF48041B348BC
:102DF00000F0E2FD0120FFF7EBFC2046FFF7E8FCC6
:102E00004FF48041AD4800F0D5FD10BD10B54FF432
:102E10008041AA4800F0D0FD0620FFF7D9FC4FF40E
:102E20008041A64800F0C6FD10BD10B54FF48041AA
:102E3000A24800F0C1FD0420FFF7CAFC4FF4804116
:102E40009E4800F0B7FD10BD2DE9F04106460C4646
:102E500017464FF48041994800F0AEFD0320FFF77C
:102E6000B7FCC4F30740FFF7B3FCC4F30720FFF738
:102E7000AFFCE0B2FFF7ACFC002505E0FF20FFF758
:102E8000A7FC7055681C85B2BD42F7DB4FF480414A
:102E90008A4800F08FFDBDE8F08110B500BFFFF754
:102EA0008DFF00F001000028F9D110BD2DE9F0419F
:102EB00006460C461746FFF7A9FF4FF480417F48AE
:102EC00000F07AFD0220FFF783FCC4F30740FFF710
:102ED0007FFCC4F30720FFF77BFCE0B2FFF778FC30
:102EE000002504E0705DFFF773FC681C85B2BD42ED
:102EF000F8DB4FF48041714800F05CFDFFF7CDFF37
:102F0000BDE8F0812DE9F04107460E461446F0B2C7
:102F1000C0F58075AC4200DC254612E02A463146F9
:102F20003846FFF7C3FFAC4200D10BE02F442E44DC
:102F3000601B84B2B4F5807F02DD4FF4807500E041
:102F40002546EBE700BFBDE8F08110B504462146F9
:102F50005DA005F055FF2403FFF758FFFFF79DFF25
:102F60004FF48041554800F027FD2020FFF730FC4A
:102F7000C4F30740FFF72CFCC4F30720FFF728FC3D
:102F8000E0B2FFF725FC4FF480414C4800F012FD01
:102F9000FFF783FF10BD2DE9F05F81460F4616460F
:102FA000DFF82CB14FEA1738C7F30B0ACAF5805483
:102FB000A64200DC344644E04FEA08314FF4805228
:102FC0005846FFF741FF002508E00AEB05001BF813
:102FD0000000FF2800D003E0681C85B2A542F4DBA6
:102FE00000BFA54216DA4046FFF7AFFF002507E015
:102FF00019F8050005EB0A010BF80100681C85B201
:10300000A542F5DB4FEA08314FF480525846FFF7EE
:1030100079FF04E0224639464846FFF773FFA6428F
:1030200000D10FE008F101084FF0000AA144274445
:10303000301B86B2B6F5805F02DD4FF4805400E0AD
:103040003446B9E700BFBDE8F09F10B5FFF7DEFEDC
:10305000FFF723FF4FF48041184800F0ADFCC72074
:10306000FFF7B6FB4FF48041144800F0A3FCFFF7D4
:1030700014FF10BD10B54FF48041104800F09CFCC7
:10308000B920FFF7A5FB4FF480410C4800F092FCFB
:103090000320FDF7DFF910BD10B54FF4804107485C
:1030A00000F08AFCAB20FFF793FB4FF4804103480C
:1030B00000F080FC0320FDF7CDF910BD00040240B4
:1030C000001802408C00002066653A25780D0A0041
:1030D000B80300200648804706480047FEE7FEE7A1
:1030E000FEE7FEE7FEE7FEE7FEE7FEE7FEE7FEE7B8
:1030F000D5310008890100080CB50020019000902E
:103100007648006840F480307449086000BF734816
:10311000006800F4003000900198401C0190009875
:1031200018B90198B0F5A04FF1D16C48006800F4CF
:10313000003010B10120009001E0002000900098C4
:10314000012846D165484030006840F0805063490E
:10315000403108606248006840F4404060490860BF
:103160005E48083000685D4908310860084600681C
:1031700040F4004008600846006840F4A050086031
:103180005848091F0860081F006840F08070091F38
:10319000086000BF5148006800F000700028F9D0B6
:1031A00040F20570504908604C480830006820F033
:1031B00003004A49083108600846006840F00200F0
:1031C000086000BF45480830006800F00C0008287F
:1031D000F8D10CBD10B54548006840F47000434973
:1031E00008603E48006840F001003C49086000204B
:1031F0003A4908310860394800683D490840374974
:1032000008603C48091D0860081F006820F4802001
:10321000091F0860002031490C310860FFF76CFF7E
:103220004FF0006031498039086010BD70B5002052
:103230000022022300240221284D08352D6805F0C4
:103240000C0020B1042806D0082834D107E02A4D0C
:103250002A4E356033E02A4D284E35602FE01F4D51
:103260002D1D2D68C5F380541C4D2D1D2D6805F0B6
:103270003F0154B1224DB5FBF1F5184E361D3668AD
:10328000C6F3881605FB06F209E01B4DB5FBF1F508
:10329000124E361D3668C6F3881605FB06F20F4D32
:1032A0002D1D2D68C5F301456D1C6B00B2FBF3F5B8
:1032B000124E356003E0104D104E356000BF00BF68
:1032C000064D08352D68C5F303150E4E705D0B4D88
:1032D0002D68C540094E356070BD000000380240C1
:1032E0000070004008544007003C024088ED00E0B8
:1032F000FFFFF6FE103000240024F40090000020B0
:1033000000127A0094000020704700BFFEE700BF63
:10331000FEE700BFFEE700BFFEE77047704770475B
:1033200010B5FDF783F810BD32490143324A1160F0
:10333000704770B5002100230F22C4781CB32E4CB7
:10334000246804F4E064C4F5E064C4F30721C1F127
:103350000404E3B20A4144789C40E1B2847814400A
:1033600021430C07210E254C05786155047804F0A3
:103370001F050124AC4005786D11AD0005F1E02575
:10338000C5F8004109E0047804F01F050124AC40B1
:103390001B4D0678761145F8264070BD194A0A4043
:1033A0000243154B1B1F1A60704739B1124A121D98
:1033B00012680243104B1B1D1A6006E00E4A121DD4
:1033C000126882430C4B1B1D1A607047042808D1F9
:1033D0004FF0E021096941F004014FF0E022116152
:1033E00007E04FF0E021096921F004014FF0E022ED
:1033F000116170470000FA050CED00E000E400E008
:1034000080E100E080FFFF1F016821F00101016001
:103410000021016041608160C16001612121416141
:10342000DB49884204D13D21D94A103A91608CE0B1
:10343000D7491831884205D14FF47461D44A103A03
:10344000916082E0D2493031884205D14FF4741145
:10345000CF4A103A916078E0CD494831884205D191
:103460004FF07461CA4A103A91606EE0C849603109
:10347000884204D1C749C64A103AD16065E0C449C0
:103480007831884204D1C449C14A103AD1605CE025
:10349000BF499031884204D1C049BD4A103AD16039
:1034A00053E0BB49A831884205D14FF03D51B84A9D
:1034B000103AD16049E0BA49884204D13D21B84A66
:1034C000083A116041E0B6491831884205D14FF4FD
:1034D0007461B34A083A116037E0B149303188422B
:1034E00005D14FF47411AE4A083A11602DE0AC4991
:1034F0004831884205D14FF07461A94A083A1160F9
:1035000023E0A7496031884204D1A249A44A121F8E
:1035100011601AE0A2497831884204D19E49A04A3C
:10352000121F116011E09E499031884204D19B49DD
:103530009B4A121F116008E09949A831884204D1C2
:103540004FF03D51964A121F1160704710B500228E
:103550000268944B1A40CC680B6823434C692343A0
:103560008C692343CC6923430C6A23434C6A23436D
:103570008C6A23434C6B23438C6B23431A430260B6
:10358000426922F00702D1E90B3423431A43426116
:103590000B6943604B6883608B68C36010BD00217A
:1035A000016041608160C160016141618161C1610F
:1035B000016241628162C16201634163816370475C
:1035C00021B1026842F00102026003E0026822F0C9
:1035D00001020260704721B1026842F400420260B9
:1035E00003E0026822F400420260704721B10268E1
:1035F00042F02002026003E0026822F02002026032
:103600007047416070470146486880B2704722B1F8
:10361000036843F40023036003E0036823F40023FA
:1036200003600161704721B1026842F480220260A8
:1036300003E0026822F48022026070470AB101614F
:1036400000E0C1607047014600200A6802F40022D1
:103650000AB1012000E000207047014600200A68FE
:1036600002F001020AB1012000E00020704701468B
:1036700000204A6902F03800704730B503460A4618
:1036800000200024464DAB4202D24149103901E0EE
:103690004349103902F000550DB14C6800E00C6848
:1036A000414D2C4004EA02050DB1012000E000204C
:1036B00030BD02463A4B9A4202D23548103801E0FA
:1036C0003748103801F000531BB1374B0B40C36033
:1036D00002E0354B0B408360704710B501F080036A
:1036E0004BB122B1436943F08003436103E0436976
:1036F00023F08003436180290BD02AB1036801F0D5
:103700001E042343036004E0036801F01E04A34386
:10371000036010BD70B50246002000240025204E35
:10372000B24202D21A4B103B01E01D4B103B1F4E20
:103730000E4036B11E2606EAD124166806EA0405B4
:1037400002E0566906F0800501F000560EB15C6893
:1037500000E01C68144E344004EA010616B10DB1B5
:10376000012000E0002070BD02460D4B9A4202D2BB
:103770000748103801E00A48103801F000531BB127
:10378000094B0B40C36002E0074B0B40836070475E
:10379000106002403D000020400F002000003D204E
:1037A000106402403F801CF07D0F7D0F3C0F3C0FEA
:1037B00010B504469848844208D10121084600F01B
:1037C00086FB0021012000F082FB76E093488442D2
:1037D00008D10121022000F07AFB0021022000F034
:1037E00076FB6AE08E48844208D10121042000F073
:1037F0006EFB0021042000F06AFB5EE089488442F1
:1038000008D10121082000F062FB0021082000F00F
:103810005EFB52E08448844208D10121102000F070
:1038200056FB0021102000F052FB46E07F48844206
:1038300008D10121202000F04AFB0021202000F0C7
:1038400046FB3AE07A48844208D10121402000F04A
:103850003EFB0021402000F03AFB2EE075488442F8
:1038600008D10121802000F032FB0021802000F0EF
:103870002EFB22E07048844208D10121801500F01F
:1038800026FB0021A01500F022FB16E06B488442C5
:1038900008D10121401500F01AFB0021601500F04D
:1038A00016FB0AE06648844207D10121001500F0AA
:1038B0000EFB0021201500F00AFB10BDF0B50A46F2
:1038C00000210023002400BF3DE0012505FA01F39B
:1038D000156805EA03049C4234D105684F000326AD
:1038E000BE40B543056015794E00B54006683543C6
:1038F00005601579012D02D01579022D16D1856844
:103900004F000326BE40B543856055794E00B54053
:10391000866835438560456801268E40B54345601D
:10392000456896798E40B6B235434560C5684F000C
:103930000326BE40B543C560D5794E00B540C66884
:103940003543C560491C1029BFD3F0BD4FF6FF7148
:1039500001600021017141718171C171704708B529
:103960004FF480320092009A0A430092009AC2619A
:10397000C161009AC261C2690092C269009208BD29
:103980000246002013690B400BB1012000E000202B
:1039900070470146086980B27047024600205369AB
:1039A0000B400BB1012000E0002070470146486940
:1039B00080B2704701837047418370470AB1018329
:1039C00000E0418370474161704742694A4042616B
:1039D0007047F0B5002300244D07ED0E02FA05F301
:1039E000CE1000F1200555F826504E07F70E0F2691
:1039F000BE40B543CF1000F1200646F82750CE1048
:103A000000F1200555F8265045EA0304CE1000F1D8
:103A1000200545F82640F0BD0000024000040240A9
:103A200000080240000C0240001002400014024056
:103A300000180240001C0240002002400024024006
:103A400000280240F948006840F00100F74908608A
:103A50000020F64908310860F4480068F44908403D
:103A6000F2490860F348091D0860F348EF498431C2
:103A70000860F0481038091D0860EC48006820F420
:103A80008020EA4908600020E8490C310860E749D5
:103A90008C31086070470021E44A921C1170114675
:103AA0000870704710B501460022002300204A111B
:103AB000012A02D1DD4C236808E0022A03D1DB4C45
:103AC0007034236802E0D94C7434236801F01F027B
:103AD000012494401C400CB1012000E0002010BDE6
:103AE00038B5002000900024002500BF3120FFF7EA
:103AF000D9FF05460098401C00900098B0F5A04FF3
:103B000001D0002DF2D03120FFF7CCFF08B1012405
:103B100000E00024204638BD01460020C34A10685A
:103B200020F0F80040EAC10010607047C349086007
:103B300070470021BD4A703211701170012802D007
:103B400004280AD104E00121B84A7032117005E05E
:103B50000521B64A7032117000E000BF00BF704707
:103B6000B7490860704770B5049C41EA8215012688
:103B7000C6EB530645EA0645054345EA0465AB4EE8
:103B8000361D356070BDAD4908667047820142EA56
:103B90000172A64B84331A607047A8498866704743
:103BA00010B5830143EA016343EA02739F4C8834F2
:103BB000236010BDA14908677047A049C8647047D9
:103BC00002460020994B0833186820F0EC6042EA66
:103BD00001031843954B08331860704702460020D4
:103BE000924B0833186820F0784042EA01031843EA
:103BF0008E4B083318607047014600208B4A08320C
:103C0000106820F0030008431060704787480830B0
:103C1000006800F00C00704701460020834A08321B
:103C2000106820F0F0000843106070470146002043
:103C30007E4A0832106820F4E05008431060704754
:103C400001460020794A0832106820F4604040EABA
:103C5000C10010607047F0B5002100220024022549
:103C600000260223714F08373F6807F00C0121B18D
:103C7000042905D0082937D105E0724F076036E0E6
:103C8000714F076033E0694F3F1D3F68C7F38056AF
:103C9000664F3F1D3F6807F03F036EB16A4FB7FBA9
:103CA000F3F7DFF888C10CF1040CDCF800C0CCF3AA
:103CB000881C07FB0CF40CE0624FB7FBF3F7DFF84E
:103CC0006CC10CF1040CDCF800C0CCF3881C07FBC1
:103CD0000CF4564F3F1D3F68C7F301477F1C7D0022
:103CE000B4FBF5F7076002E0564F076000BF00BF66
:103CF0004E4F08373F6807F0F0010909534F7A5CCF
:103D00000768D7404760494F08373F6807F4E051DC
:103D1000890A4E4F7A5C4768D7408760434F08371F
:103D20003F6807F46041490B484F7A5C4768D740C9
:103D3000C760F0BD002100F44072B2F5407F0AD1A7
:103D40003A4A0832116821F4F811414A02401143FD
:103D5000364A08321160354A70321268C0F30B03DC
:103D60001A43324B70331A60704735494439086042
:103D700070473349403908607047364908607047DA
:103D800001460020294A8C32106820F44010084374
:103D90001060704701460020244A8C32106820F4DD
:103DA0004000084310607047014600201F4A8C32D3
:103DB000106820F01F004A1E10431C4A8C3210600D
:103DC000704701460020194A8C32106820F4F850E0
:103DD0004A1E40EA0220154A8C32106070470146A4
:103DE0000020124A8C32106820F4403008431060E2
:103DF000704719490860704739B10C4A303212686F
:103E000002430A4B30331A6006E0084A3032126827
:103E10008243064B30331A607047F9B1034A34329B
:103E200012680243014B34331A601CE00038024030
:103E3000FFFFF6EA10300024003000200000474267
:103E4000800E47420024F40000127A00A4000020F3
:103E5000FFFCFF0F5C014742E01147428F4A1268A6
:103E600082438E4B1A60704739B18C4A121D12681A
:103E700002438A4B1B1D1A6006E0884A121D126815
:103E80008243864B1B1D1A60704739B1834A0C323E
:103E900012680243814B0C331A6006E07F4A0C32F1
:103EA000126882437D4B0C331A60704739B17B4AEC
:103EB000103212680243794B10331A6006E0774AD9
:103EC000103212688243754B10331A60704739B153
:103ED000724A243A12680243704B243B1A6006E08F
:103EE0006E4A243A126882436C4B243B1A60704736
:103EF00039B16A4A203A12680243684B203B1A6083
:103F000006E0664A203A12688243644B203B1A60FE
:103F1000704739B1614A1C3A126802435F4B1C3B3F
:103F20001A6006E05D4A1C3A126882435B4B1C3BF8
:103F30001A60704739B1594A143A12680243574B14
:103F4000143B1A6006E0554A143A12688243534BF8
:103F5000143B1A60704739B1504A103A1268024354
:103F60004E4B103B1A6006E04C4A103A12688243EE
:103F70004A4B103B1A60704739B1484A1C321268EC
:103F80000243464B1C331A6006E0444A1C32126856
:103F90008243424B1C331A60704739B13F4A20328A
:103FA000126802433D4B20331A6006E03B4A203240
:103FB00012688243394B20331A60704739B1374A4F
:103FC000243212680243354B24331A6006E0334A28
:103FD000243212688243314B24331A60704739B15E
:103FE0002E4A2C32126802432C4B2C331A6006E006
:103FF0002A4A2C3212688243284B2C331A607047AD
:1040000039B1264A303212680243244B30331A60E9
:1040100006E0224A303212688243204B30331A6065
:104020007047012808D11D493C31096841F0080159
:104030001A4A3C32116007E018493C31096821F006
:104040000801164A3C321160704739B1134A273AC9
:1040500012780243114B273B1A7006E00F4A273AA9
:10406000127882430D4B273B1A7070470B48403043
:10407000006840F08070094940310860704701468F
:104080000020064A283A12680A400AB1012000E0DE
:1040900000207047014926390870704734380240C3
:1040A00010B50121C802FFF756FF00214FF4006050
:1040B000FFF751FF10BD00216C4A116847F6FF62FF
:1040C0009143027D83681A4343681A43C3681A43C5
:1040D00003681A4303691A431143644A1160704725
:1040E00000210175016041608160C160016170471C
:1040F0005F49086070475D49091F086070475B4869
:10410000001F006800F0030070470021574B1B1D83
:1041100002681A601A1D11686FF30A01D0E90123C1
:104120001A43C3681A4303691A4311434F4A0832BA
:10413000116070470021016041608160C1600161D0
:1041400070474A480C300068C0B2704708B5014655
:104150000020009045481030084400900098006806
:1041600008BD0021414B203302681A601B1D4268C4
:104170001A601A1D116821F0F701D0E902231A43D1
:1041800003691A4343691A431143384A28321160BC
:1041900070474FF0FF310160002141608160C160D4
:1041A00001614161704731482C30006870472F48E9
:1041B0007C30006870472D497C31086070472B487F
:1041C0004430006870472B49086070472949091D31
:1041D00008607047274908310860704725490C314D
:1041E000086070472449086070472349091D08602A
:1041F000704701218143204A0832116070471E49EF
:104200000C31086070471B4914390860704739B198
:10421000164A383212680243144B38331A6006E0EB
:10422000124A383212688243104B38331A60704792
:10423000014600200D4A303212680A400AB10120BE
:1042400000E000207047094934310860704701469A
:104250000020064A303212680A400AB1012000E00C
:10426000002070470149343108607047042C014038
:10427000A0802542A0852542AC81254210B5044688
:10428000FB48844208D101218014FFF764FE00211D
:10429000A014FFF760FE3CE0F648844208D10121FB
:1042A0000014FFF747FE00212014FFF743FE30E023
:1042B000F148844208D10121C013FFF73BFE0021E1
:1042C000E013FFF737FE24E0EC48844208D10121D7
:1042D0004014FFF740FE00216014FFF73CFE18E099
:1042E000E748844209D101210805FFF734FE002187
:1042F0004FF48010FFF72FFE0BE0E248844208D114
:1043000001214805FFF727FE00214FF40010FFF7B9
:1043100022FE10BD10B50022028802F441520B8823
:104320004C8823438C882343CC8823430C89234324
:104330004C8923438C892343CC8923431A4302802D
:10434000838B4FF2FF74234083830B8A038210BD5B
:104350002DE9F04F0025022300244FF0010900222F
:104360000026002794469046B0F81CA04FF2400B60
:104370000AEA0B0AA0F81CA04FF0020AA0F820A03D
:10438000858BD1F808A0BAF1020F01D100BF82E0FD
:10439000B1F804A0BAF1000F02D14FF0010901E019
:1043A0004FF00209DFF8E0A2DAF800A00AF4000AF0
:1043B000BAF1000F09D0DFF8D0A2DAF800A02AF491
:1043C000000ADFF8C4B2CBF800A0DFF8BCA20AF103
:1043D0007C0ADAF800A0CAF3881CDFF8ACA20AF164
:1043E0007C0ADAF800A0CAF30278DFF89CA2AAF1EE
:1043F000040ADAF800A00AF03F07DFF88CA2AAF15D
:10440000040ADAF800A00AF4800ABAF5800F08D18D
:10441000DFF878A2BAFBF7FA0AFB0CFABAFBF8F657
:1044200007E0DFF86CA2BAFBF7FA0AFB0CFABAFB5A
:10443000F8F6B1F806A0BAF5007F0ED14FEA162AB9
:104440000AEB8A0A4FEA4A0AD1F808B0BAFBFBFA2B
:104450000AF1050A1FFA8AF20FE04FEA491AB6FB81
:10446000FAFA0AEB8A0A4FEA4A0AD1F808B0BAFB0C
:10447000FBFA0AF1050A1FFA8AF24FF00A0AB2FBA8
:10448000FAF202F00104A2EB040ACAF34F034FF65A
:10449000FF7A0AEA0424022B01DBFF2B01DD022351
:1044A0000024B1F806A04AEA040A4AEA030AA0F87E
:1044B00020A0B1F804A0B1F80CB04AEA0B0AB1F898
:1044C00002B04AEA0B0AB1F800B04AEA0B0A4AF411
:1044D000006A4AEA05058583BDE8F08F0021018066
:1044E00041808180C180018141818181C181072119
:1044F000018270470021018041808180C1800221BA
:10450000816000218181704721B1028842F0400220
:10451000028004E002884FF6BF731A4002807047A1
:1045200021B1828B42F48062828304E0828B4FF659
:10453000FF331A408283704702884FF2FF731A409C
:10454000028002880A4302807047B1F5804F04D18F
:10455000028842F48042028004E002884BF6FF7336
:104560001A40028070474FF6FF62914204D00288E1
:1045700042F48072028004E002884FF6FF631A4022
:104580000280704721B1828842F00402828004E0F8
:1045900082884FF6FB731A408280704721B182886F
:1045A00042F01002828004E082884FF6EF731A40D6
:1045B0008280704730B500220023848B4FF2400583
:1045C0002C40848302240484828B0C88B4F5007F01
:1045D00001D00C8814B94FF4807308E00C88B4F54E
:1045E000407F03D00C88B4F5807F00D100238C88F5
:1045F0008D892C434D882C431C4344F40064224392
:10460000828330BD0146888970478181704721B11E
:10461000028842F40052028004E002884DF6FF73E3
:104620001A4002807047018841F480510180704730
:1046300002460020012901D0108B00E0908A7047CB
:104640000146088A70471AB183880B43838002E0D1
:1046500083888B438380704730B5002400230C117E
:104660000125A540ABB2AAB185881D43858014E021
:104670000030014000380040003C00400034014060
:1046800000500140005401400838024000127A00F6
:104690000024F40085889D43858030BD02460020BB
:1046A00013890B400BB1012000E000207047CA4382
:1046B00002817047F0B50246002000240023002547
:1046C00001F00F070126BE40B4B20B1101269E4037
:1046D000B3B2968806EA03051689264016B10DB1D5
:1046E000012000E00020F0BD10B5002201F00F0411
:1046F0000123A3409AB2D343038110BD10B5012119
:104700008803FFF728FC00214FF48040FFF723FCCB
:1047100010BD1C49086070471B490862704730B5DE
:1047200000228B071C0F0F2303FA04F2154B0833EA
:104730008C1053F824309343124C08348D1044F8F5
:10474000253023468C1053F824308C07240F00FAB0
:1047500004F423430B4C08348D1044F8253030BD4D
:104760000949DC310860704708490860704700203B
:1047700004492031096801F4807109B1012000E089
:104780000020704700380140000027420004274203
:1047900010B50446FA48844208D101211020FFF7E1
:1047A000DAFB00211020FFF7D6FB57E0F5488442E2
:1047B00009D101214804FFF7BDFB00214FF400306F
:1047C000FFF7B8FB4AE0F048844209D10121880490
:1047D000FFF7B0FB00214FF48020FFF7ABFB3DE07B
:1047E000EA48844209D10121C804FFF7A3FB002154
:1047F0004FF40020FFF79EFB30E0E548844209D1EA
:1048000001210805FFF796FB00214FF48010FFF708
:1048100091FB23E0DF48844208D101212020FFF7EB
:104820009AFB00212020FFF796FB17E0DA4884422C
:1048300009D101218807FFF77DFB00214FF080405F
:10484000FFF778FB0AE0D548844207D101214005F3
:10485000FFF770FB00216005FFF76CFB10BD2DE931
:10486000FF4705460E460024A14600BFA046B0897A
:1048700000B100BF2C8A24F44054F08804432C82F9
:10488000AC8941F20C608443B08831890843718956
:1048900008430443AC81AC8A24F44074B0890443D7
:1048A000AC826846FFF7D7F9B548854202D0B948CF
:1048B000854202D1DDF80C9001E0DDF80890A8896E
:1048C00000F4004040B109EBC90000EB0910316869
:1048D0004900B0FBF1F707E009EBC90000EB091054
:1048E00031688900B0FBF1F76420B7FBF0F00401F8
:1048F0002009642101FB1078A88900F4004040B130
:10490000322000EBC800B0FBF1F000F007000443D8
:1049100008E0322000EB08106421B0FBF1F000F059
:104920000F0004432C81BDE8FF874FF4165101604E
:1049300000218180C18001810C2141810021818180
:10494000704710B502460020108A20F470600B8872
:104950004C8823438C882343CC88234318431082FC
:1049600010BD0021018041808180C180704721B14C
:10497000828942F40052828104E082894DF6FF73FD
:104980001A4082817047028B02F47F420283028BBD
:104990000A430283704721B1828942F40042828136
:1049A00003E08289C2F30E028281704721B1828ABC
:1049B00042F40062828204E0828A4FF2FF731A405E
:1049C00082827047C1F3080282807047014688885E
:1049D000C0F308007047028A4FF6F0731A40028253
:1049E000028A0A430282704721B1828942F00202A0
:1049F000828104E082894FF6FD731A4082817047FC
:104A000082894FF2FF731A40828182890A43828130
:104A10007047028A4FF6DF731A400282028A0A4305
:104A20000282704721B1028A42F48042028204E08D
:104A3000028A4BF6FF731A4002827047818941F067
:104A400001018181704721B1828A42F0080282828D
:104A500004E0828A4FF6F7731A4082827047028B15
:104A6000D2B20283028B42EA01220283704721B153
:104A7000828A42F02002828204E0828A4FF6DF734B
:104A80001A408282704721B1828A42F010028282EB
:104A900004E0828A4FF6EF731A4082827047828A5E
:104AA0004FF6FB731A408282828A0A4382827047E1
:104AB00021B1828A42F00202828204E0828A4FF6A9
:104AC000FD731A40828270471AB1838A0B43838236
:104AD00002E0838A8B4383827047F0B5034600244B
:104AE00000260025002040F66A17B94200D100BF19
:104AF0001846C1F3421401F01F06012707FA06F514
:104B0000012C01D10C3004E0022C01D1103000E066
:104B100014301AB107682F43076002E00768AF43FB
:104B20000760F0BD02460020B1F5007F00D100BF54
:104B300013880B400BB1012000E00020704701F406
:104B40000072B2F5007F00D100BFCA4302807047F7
:104B500070B50246002400230025002040F66A16A6
:104B6000B14200D100BFC1F3421501F01F0301267D
:104B700006FA03F3012D13D19689334017E00000A4
:104B8000001001400044004000480040004C00403C
:104B9000005000400014014000780040007C0040BC
:104BA000022D02D1168A334001E0968A33400C125E
:104BB000012606FA04F41688344013B10CB1012022
:104BC00000E0002070BD10B50022002340F66A14FA
:104BD000A14200D100BF0A1201249440A3B2DC43D9
:104BE000048010BD002041490860091D0860091DAE
:104BF0000860091D08603E483C4914310860704750
:104C000000213A498279002A3AD00A46126803689C
:104C10009A430B461A600A1D126803689A430B1DDB
:104C20001A60027911440A6803681A430A602F4A1D
:104C30000832126803689A432C4B08331A601A1D15
:104C4000126803689A43294B0C331A604279102A80
:104C50000ED11A1F126803681A43244B08331A60D6
:104C60001A1D126803681A43204B0C331A600DE0BA
:104C70001E49427911440A6803681A430A6005E034
:104C8000027911440A6803689A430A607047002158
:104C9000016001710C21417100218171704713493C
:104CA000103109680143114A103211607047014602
:104CB00000200E4A143212680A400AB1012000E0B6
:104CC00000207047094914310860704701460020F0
:104CD000064A143212680A400AB1012000E000209E
:104CE000704702491431086070470000003C0140E1
:104CF000FFFF7F0070B503460C4603E014F8015B2C
:104D000003F8015B1500A2F10102F7D170BD30B5C7
:104D1000034601E003F8011B1400A2F10102F9D1DE
:104D200030BD10B504467A4951F824104A0079493B
:104D300051F824000021FFF7EAFF774951F82420B9
:104D400074490C3951F824000021FFF7E0FF0121DC
:104D500070480C30015510BD10B5014600230022EB
:104D600007E06C4850F8210030F8120000B15B1CDD
:104D7000521C674850F821009042F2D864205843F2
:104D8000634C54F82140B0FBF4F0C0B210BD2DE9E3
:104D9000F04704460F460025A9465E480C30005DEA
:104DA00020B95C4814380168204688471FB94FF085
:104DB000FF30BDE8F087594850F82400B7FBF0F603
:104DC000564850F82400B7FBF0F100FB117000B119
:104DD000761C4F4850F82400451E20E04D4850F8FE
:104DE000240030F8150010B909F1010901E04FF075
:104DF0000009B14512D14FF0000808E0454850F8CD
:104E0000240005EB080220F8126008F10108B04503
:104E1000F4D3424850F824006843CAE76D1E002DC1
:104E2000DCDA4FF0FF30C4E72DE9F04104460E46CE
:104E300038480C30005D38B93648143801682046CF
:104E400088470120BDE8F081334850F82400B04283
:104E500017D9324850F82400B6FBF0F12D4850F82D
:104E6000240030F81120002507E00023294850F8DD
:104E700024004F1920F817306D1C9542F5DB0020F7
:104E8000E0E70220DEE770B505460C4604B970BDC8
:104E900020480C3850F82500261A31462846FFF7DE
:104EA000C3FF00BFF3E770B504460E463146204607
:104EB000FFF76DFF0546681C08B9002070BD154856
:104EC0000C3850F824002844F8E72DE9F041044656
:104ED0000F46164631462046FFF759FF0546681C27
:104EE00010B90020BDE8F0810A490C3951F82410AE
:104EF000481932463946FFF7FDFE39462046FFF78E
:104F0000C2FF04480C3850F824002844EAE70000A7
:104F10006C910008C8000020849100087891000876
:104F200070B50446002514B1012C0BD103E0FCF749
:104F30003DFB054608E0FDF70CFF4FF4C040764905
:104F4000088001E0012500BF00BF0DB1012070BD48
:104F50000020FCE70146002070472DE9F04107469C
:104F60000E4615461C464FF0000814B90420BDE853
:104F7000F08117B1012F22D112E0E2B2294630466A
:104F8000FDF776FB804607E0FCF710FBE2B229460E
:104F90003046FDF76DFB8046B8F1000FF4D111E00B
:104FA00009E069024FF400723046FDF74DFF6D1CB9
:104FB00006F50076641E002CF3D1A04602E04FF007
:104FC000010800BF00BFB8F1000F01D10020CEE7FB
:104FD0000120CCE72DE9F04107460E4615461C4658
:104FE0004FF0000814B90420BDE8F08117B1012F7B
:104FF00022D112E0E2B229463046FDF799FB804605
:1050000007E0FCF7D3FAE2B229463046FDF790FB01
:105010008046B8F1000FF4D111E009E069024FF4C5
:1050200000723046FDF7B7FF6D1C06F50076641E72
:10503000002CF3D1A04602E04FF0010800BF00BFF2
:10504000B8F1000F01D10020CEE70120CCE72DE917
:10505000F04706468946154646BBB9F1000F09D010
:10506000B9F1010F13D0B9F1020F05D0B9F1030F57
:1050700019D106E0002418E04FF4007028600024E5
:1050800013E02648B0F85000288000240DE02348A3
:105090004FF400720023D0E91271384603F0F6FD98
:1050A0002860002401E0042400BF22E0012E1FD16B
:1050B000B9F1000F09D0B9F1010F11D0B9F1020F08
:1050C00005D0B9F1030F10D106E000240FE04FF432
:1050D0000070288000240AE008202880002406E0D0
:1050E0000D4800882860002401E0042400BF00E08F
:1050F00001242046BDE8F0870020704710B5044623
:1051000021460020FFF7CFFE10BD10B50446214612
:105110000020FFF7B8FE10BDD8000020600100207D
:1051200070B503460C4603E014F8015B03F8015B1D
:105130001500A2F10102F7D170BD30B5034601E0C0
:1051400003F8011B1400A2F10102F9D130BDF0B542
:1051500003461C460D46002000BF1600A2F10102C6
:1051600007D014F8017B15F801CBA7EB0C06300033
:10517000F3D0F0BD024600E0521C107810B1107858
:105180008842F9D11078704770B504462079F8B19B
:10519000E56A607801232A4604F13001FFF71AFF1F
:1051A00008B1012070BD00202071206A281AA16971
:1051B00088420DD2E67809E0A069054460780123B1
:1051C0002A4604F13001FFF705FF761E022EF3D2C6
:1051D0000020E7E770B504460D46E06AA84210D00B
:1051E0002046FFF7D1FF08B1012070BD6078012390
:1051F0002A4604F13001FFF7B0FE08B10120F4E7C0
:10520000E5620020F1E770B504462046FFF7BCFFD9
:105210000546002D59D1207803284FD16079012807
:105220004CD14202002104F13000FFF786FF5521E6
:1052300084F82E12AA2184F82F12522084F830000C
:105240005221312001556121322001554121332065
:105250000155722184F8141284F81512412184F842
:105260001612612184F81712217C84F81812208A02
:10527000010A84F819122069010C84F81A122069B5
:10528000010E84F81B12217B84F81C12A089010AEC
:1052900084F81D12E068010C84F81E12E068010E0B
:1052A00084F81F12E069401CE0626078012304F179
:1052B0003001E26AFFF78EFE002060716078002204
:1052C0001146FFF7C4FE00B10125284670BD024615
:1052D000891E5069801E884201D80020704793784B
:1052E000906A01FB0300F9E72DE9F04105460C4601
:1052F000022C02D36869A04202D80120BDE8F081E7
:105300002878012804D002282CD003285AD13DE067
:10531000274607EB5707286A00EB57212846FFF777
:1053200059FF00B150E0C7F3080105F1300010F853
:1053300001807F1C286A00EB57212846FFF74AFFAF
:1053400000B141E0C7F3080105F13000405C48EAD4
:10535000002804F0010010B14FEA1810CEE7C8F39E
:105360000B00CBE7286A00EB14212846FFF732FF39
:1053700000B129E040F2FF1000EA440105F13000DD
:105380000E183078717840EA0120B7E7286A00EB00
:10539000D4112846FFF71EFF00B115E040F2FF10C0
:1053A00000EA840105F130000E18F0780006B178AB
:1053B00040EA0140717840EA01203178084320F04A
:1053C00070409BE7012099E700BF4FF0FF3095E761
:1053D0002DE9F04705460E461746022E02D36869AE
:1053E000B04202D84FF002088AE02878012804D0A1
:1053F000022841D003287DD154E0B14609EB590978
:10540000286A00EB59212846FFF7E4FE8046B8F1F0
:10541000000F00D071E0C9F3080105F130000C184D
:1054200006F0010020B1F9B2207861F31F1000E00E
:105430003846207009F1010901202871286A00EB23
:1054400059212846FFF7C6FE8046B8F1000F00D06C
:1054500053E0C9F3080105F130000C1806F0010013
:1054600010B1C7F3071005E0207800F0F000C7F393
:1054700003210843207040E0286A00EB16212846EB
:10548000FFF7A8FE8046B8F1000F00D035E040F2EB
:10549000FF1000EA460105F130000C182770380AA9
:1054A00060702AE0286A00EBD6112846FFF792FECA
:1054B0008046B8F1000F00D01FE040F2FF1000EA74
:1054C000860105F130000C18E0780006A17840EA6A
:1054D0000140617840EA01202178084300F07040E3
:1054E00007432770380A6070380CA070380EE070DF
:1054F00003E0FFE74FF0020800BF00BF0120287162
:105500004046BDE8F0872DE9F04104460E46022EE4
:1055100002D36069B04201D8022727E0002721E0CA
:1055200031462046FFF7E0FE054605B91DE0012D96
:1055300001D1022719E0681C08B9012715E00022F3
:1055400031462046FFF744FF074607B10DE02069CA
:10555000401C30B12069401C2061607940F001009E
:1055600060712E466069B042DAD800BF3846BDE8A7
:10557000F0812DE9F04704468946B9F1000F06D1C4
:10558000E76817B16069B84215D8012713E04946AA
:105590002046FFF7A9FE0646022E02D20120BDE8F2
:1055A000F087701C08B93046F9E76069B04201D94C
:1055B0003046F4E74F463D4600BF6D1C6069A84287
:1055C00004D80225BD4201D90020E8E7294620463B
:1055D000FFF78AFE064606B909E0701C08B1012EE5
:1055E00001D13046DBE7BD42E7D10020D7E700BF5D
:1055F0006FF0704229462046FFF7EAFE8046B8F178
:10560000000F08D1B9F1000F05D02A4649462046BF
:10561000FFF7DEFE8046B8F1000F0BD1E560206990
:10562000401C78B12069401E2061607940F0010083
:10563000607107E0B8F1010F02D14FF0FF3000E0D8
:10564000012005462846AAE770B503460D46586A6C
:10565000021D680A1E68B678B0FBF6F400BF02CAE5
:1056600009B9002070BD8C4200D202E0641A121DFC
:10567000F5E700BF10682044F4E72DE9F041044647
:105680000E46E680A568012D03D020684069A84237
:1056900002D80220BDE8F0812DB9206800780328E7
:1056A00001D12068456A45B920680089B04201D817
:1056B0000220EFE72068476A1EE0206880784FEA02
:1056C000001812E029462068FFF70EFE0546681C08
:1056D00008B90120DEE7022D03D320684069A84203
:1056E00001D80220D6E7A6EB08064645EAD22946AD
:1056F0002068FFF7ECFD0746E5600FB90220C9E717
:1057000007EB161020612068303006F00F0100EB27
:10571000411060610020BDE72DE9F0410446884654
:10572000E088461CB0B208B1206910B90420BDE879
:10573000F08106F00F0000286CD12069401C206128
:10574000E06828B920680089B04263D80420EEE7F9
:1057500020688078401E00EA161000285AD1E168BF
:105760002068FFF7C1FD0546012D01D80220DEE7C4
:10577000681C08B90120DAE720684069A84243D8CC
:10578000B8F1000F01D10420D1E7E1682068FFF7EC
:10579000F0FE05460DB90720C9E7012D01D1022011
:1057A000C5E7681C08B90120C1E72068FFF7ECFCD9
:1057B00008B10120BBE7216801F130004FF400720D
:1057C0000021FFF7BAFC29462068FFF780FD216819
:1057D000C86200270EE00120216808712068FFF7E9
:1057E000D3FC08B10120A2E72068C06A401C2168F0
:1057F000C8627F1C20688078B842ECD82068C06AF4
:10580000C01B2168C86200BFE56029462068FFF719
:105810005EFD2061E6802068303006F00F0100EB6D
:1058200041106061002082E72DE9F04104460E46F8
:1058300000212046FFF721FF0546EDB9002700BFF4
:1058400021692068FFF7C6FC054605B113E06069D1
:105850000078E52802D06069007820B9781C0746F6
:10586000B04201D107E0002701212046FFF754FF95
:105870000546002DE4D000BF042D00D107252846A1
:10588000BDE8F08110B502468C7ECB7E44EA032051
:105890001378032B05D10C7D4B7D44EA032340EAAA
:1058A000034010BD81760B0AC3760A0C02750B0EFD
:1058B000437570472DE9F04705460C46207820F0E7
:1058C0004000401E00EB800101EBC00600274FF0B6
:1058D000010800BFF848C05D205CF749C95D21445C
:1058E000497840EA0129B8F1000F10D0484602F08B
:1058F00074FE8046FF2E07D23146761C35F8110023
:1059000002F06BFE404508D00020BDE8F0874FF65E
:10591000FF70814501D00020F7E7781C07460D286D
:10592000D8D3207800F0400038B1B8F1000F04D08F
:1059300035F8160008B10020E7E70120E5E7F0B5EB
:105940000346087800F03F00401E00EB800707EB9D
:10595000C0020025012600BFD748405D085CD64F35
:105960007F5D0F447F7840EA07244EB1FF2A01D3C0
:105970000020F0BD26461046521C23F8104005E0DA
:105980004FF6FF70844201D00020F2E7681C054604
:105990000D28E1D3087800F0400030B1FF2A01D390
:1059A0000020E6E7002023F812000120E1E7F0B52F
:1059B00004461D464D730F27CF7200270F738F7655
:1059C000BC4681F81BC0571E07EB870C0CEBC706C3
:1059D000002738463B4600BF4FF6FF77B84203D05A
:1059E0003746761C34F81700DFF8CCC21CF803C029
:1059F00001F80C000712DFF8C0C21CF803C08C4489
:105A00008CF8017008B94FF6FF705F1C3B460D2FF4
:105A1000E2D34FF6FF77B84202D034F816700FB9D0
:105A200042F040020A70F0BD2DE9FC4707468A4665
:105A300090461E460B2251463846FFF771FB052E55
:105A400018D9304610E038F8021B00250AE00A4653
:105A500060F35F021046491000F480320AB1974AA1
:105A600050406D1C102DF2D3B8F80020002AEAD166
:105A7000064600BF072500BF06F00F0000F1300901
:105A8000B9F1390F03DD09F1070000F0FF092846DD
:105A90006D1E0DF800903609002EEDD17E200DF818
:105AA000050000240BE0385D812807DB385DFE2807
:105AB00004DC681EA04200D106E0641C641CAC42F9
:105AC00002D2385D2028EED100BF00BF082D04D2DD
:105AD00028466D1C1DF8001000E020212046641CA3
