:020000040800F2
:1000000040040020D5290008B90E0008BB0E0008E6
:10001000BD0E0008BF0E0008C10E00080000000061
:10002000000000000000000000000000C30E0008F7
:10003000C50E000800000000C70E0008C90E000829
:10004000EF290008EF290008EF290008EF29000830
:10005000EF290008EF290008EF290008EF29000820
:10006000EF290008EF290008EF290008EF29000810
:10007000EF290008EF290008EF290008EF29000800
:10008000EF290008EF290008EF290008EF290008F0
:10009000EF290008EF290008EF290008EF290008E0
:1000A000EF290008EF290008EF290008EF290008D0
:1000B000EF290008EF290008EF290008EF290008C0
:1000C000EF290008EF290008EF290008EF290008B0
:1000D000EF2900080D020008EF290008EF290008A9
:1000E000D7060008EF290008EF290008EF290008CB
:1000F000EF290008EF290008EF290008EF29000880
:10010000EF290008EF290008EF290008EF2900086F
:10011000EF290008EF290008EF290008EF2900085F
:10012000EF290008EF290008EF290008EF2900084F
:10013000EF290008EF290008EF290008EF2900083F
:10014000EF290008EF290008EF290008EF2900082F
:10015000EF290008EF290008EF290008EF2900081F
:10016000EF290008EF290008EF290008EF2900080F
:10017000EF290008EF290008EF290008EF290008FF
:10018000EF290008EF290008DFF80CD002F06CFF1F
:10019000004800479D0100084004002010B500F011
:1001A00047F809A002F0A4FF00F09AF800F0C1FAA5
:1001B00000F052FE00F0D5FB1F2000F0D7FC01F04C
:1001C000E7F8002010BD00000D0A2A2A2A2A2A2A50
:1001D0002A2A2A2A2A2A2A2A2A2A2A2A2A2A2A2A7F
:1001E0002A2A2A2A2A2A2A2A2A2A2A2A2A2A2A2A6F
:1001F0002A0D0A0070B5384C0546C1B2204602F0FF
:1002000019FB20880006FCD5284670BD10B5324C7D
:100210002021204602F09FFB012808D1204602F051
:100220000DFBC1B22046BDE8104002F003BB10BD7B
:1002300010B588B04FF4A06001F0CEF903208DF81E
:10024000110002248DF8124025208DF810000120A5
:100250008DF8130004A801F0C4F90121102002F068
:1002600020F90121084602F0F4F88DF818408DF8C5
:1002700019404FF4C060194C059005A9204601F0C3
:1002800035FD07220921204601F0A4FD07220A219D
:10029000204601F09FFD4FF4E13000900020ADF8C2
:1002A0000400ADF80600ADF80800ADF80C000C2015
:1002B000094CADF80A006946204602F024FA0122F2
:1002C00040F22551204602F02EFB0121204602F08B
:1002D0008BFA08B010BD0000001001400000024081
:1002E00030B587B00121022002F0B3F801210220CD
:1002F00002F0AFF80121480502F0C9F89C4D042234
:100300000721284601F066FD04220621284601F057
:1003100061FDC020022104908DF8141001208DF899
:1003200016008DF8151000248DF8174004A92846F2
:1003300001F0DCFC8F4D284601F072FDADF8044061
:100340004BF6FF70ADF80600ADF808402815ADF883
:100350000A000001ADF80C00874800906946284665
:1003600001F07AFD0121284601F0DBFD012128463C
:1003700001F00FFE07B030BD10B580A002F0B8FE4E
:1003800042F21070401E80B2FCD2874802F0B0FEEC
:10039000854802F0ADFE012010BD2DE9F0411D465B
:1003A000069C0F4680464CB34FF40036314640461B
:1003B00001F0AFFE0028F9D10121404601F0E9FD2E
:1003C0000121404601F0C9FD784E4046314601F01A
:1003D0008DFE0028F9D001223946404601F0D1FDBA
:1003E000724E761C3146404601F080FE0028F9D05E
:1003F0006E4E3F36DCB1012C03D00AE00120BDE88F
:10040000F0810021404601F0C4FD0121404601F089
:10041000AEFD3146404601F069FE0028F9D0404665
:1004200001F01EFE641E05F8010BA4B2E2E70121F3
:10043000404601F0AEFD0020E1E72DE9F0411E4607
:100440000F4680465A4C4FF4003507E02068411EA5
:10045000216003D2FFF790FFC0B2D0E729464046A3
:1004600001F057FE0028F1D1424C0121204601F055
:1004700074FD4E4D2046294601F038FE0028F9D083
:1004800000223946204601F07CFD4A4D204629468F
:1004900001F02CFE0028F9D00021404601F079FD42
:1004A0003146204601F0DAFD424DAD1C294620467A
:1004B00001F01CFE0028F9D00121204601F057FD73
:1004C0004FF47A70401E80B2FCD2002097E72DE9ED
:1004D000F0471F461446884681460025089E0BE0DB
:1004E0002246641C3B78A4B241464846FFF7A5FF6C
:1004F00008B16D1CEDB27F1C761EB6B2F0D215B1FC
:100500000120BDE8F0870020FBE770B5194E0024FC
:100510007514FF23224690213046FFF78EFF641C9E
:10052000A4B2AC42F5D370BD38B50020ADF80000E0
:10053000104C0121204601F010FD1421204601F04D
:10054000C8FDADF8000000229021204601F019FD01
:100550001421204601F0BDFD8007EAD5164920464A
:1005600001F0ECFD2046BDE83840012101F0FFBC60
:100570000004024000540040A08601000D0A2054EF
:1005800068652049324320636F6D6D756E696361E4
:1005900074696F6E20697320636F72727570746511
:1005A00064200D0A00000000103A0008010003005A
:1005B0000000002082000700000400107748282176
:1005C00001700121417081700021C17001F009B8F2
:1005D000724828210170012141708170C17001F0C1
:1005E00000B8FEB50446002001900290FFF7E6FF38
:1005F000FFF776FECC206A4F8DF80400012501AB91
:100600000022902138460095FFF761FF022602ABD9
:100610000022902138460096FFF7BFFEBDF8080083
:1006200001AB40BA00092080DC208DF804000022D4
:10063000902138460095FFF74AFF02AB0022902137
:1006400038460096FFF7A9FEBDF8080001AB40BA96
:1006500000096080E0208DF80400002290213846D7
:100660000095FFF734FF02AB002290213846009638
:10067000FFF793FEBDF8080040BA0009A080FFF71D
:10068000A7FFFEBD2DE9FF4188460746164601211A
:10069000082001F0DEFE00258DF80C5001248DF8B5
:1006A0000F4002A93F48029701F020FB8DF804504B
:1006B0000C208DF80500CDF800808DF806406846C6
:1006C00000F0F0FF3548067044708470C57000F08B
:1006D00088FFBDE8FF812DE9F0414FF48056304698
:1006E00001F030F8002822D02C4D00242846EC7070
:1006F00000F077FF4CF25030401E80B2FCD23746FB
:100700003146284801F043FB2449091F012660B106
:100710000C60384601F012F8384601F01CF8EE7013
:10072000BDE8F0411D4800F05CBF0E60F1E7BDE898
:10073000F0817CB500200190C820194D8DF804008F
:10074000012401AB0022902128460094FFF7BFFE50
:100750000221009101AB002290212846FFF71DFEE7
:100760000A20401E80B2FCD24FF480552946282230
:100770000846FFF787FF0121880301F092FE0C2154
:10078000032001F04FFF284600F0D8FF284600F074
:10079000E2FF0248C47000F024FF7CBD0800002086
:1007A00000540040000C02407CB50121182001F0EB
:1007B00050FE4CF6B370009002208DF80400032028
:1007C0008DF805000025FD4C8DF806508DF807507A
:1007D0006946204601F08AFA0C220021204601F0E9
:1007E000F9FA0C220121204601F0F4FA0C2204212E
:1007F000204601F0EFFA0C220521204601F0EAFA2A
:100800000C220721204601F0E5FA0C22082120469F
:1008100001F0E0FA0C220921204601F0DBFA0C225B
:100820000A21204601F0D6FA0C220B21204601F0C5
:10083000D1FA0C220E21204601F0CCFA0C220F2115
:10084000204601F0C7FA4FF68070DD4E00906946F1
:10085000304601F04BFA0C220721304601F0BAFA7B
:100860000C220821304601F0B5FA0C22092130464D
:1008700001F0B0FA0C220A21304601F0ABFA0C224A
:100880000B21304601F0A6FA0C221146304601F049
:10089000A1FA0C220D21304601F09CFA0C220E2107
:1008A000304601F097FA0C220F21304601F092FAFF
:1008B00001208DF804008DF806504FF400568DF895
:1008C000055000968DF807506946204601F00EFA53
:1008D0003146204601F06FFA082000906946204614
:1008E00001F004FA0821204601F067FAB54800211A
:1008F000491C8142FCDB0821204601F05CFA7CBDEA
:1009000000B5012197B0084601F0B7FD0520019020
:1009100000200921CDE90201059006901021CDE9C2
:100920000A0104900790089009900C900D900E9089
:1009300009020F90CDE9100112901390149001A8B4
:100940001590169008A800F022FF0121002000F069
:10095000A4FF17B000BD4FF0C04210809A4801803C
:10096000704710B5FFF720FFFFF7CAFF0A2000F01D
:100970008EFA02211A20FFF7EEFF88211B20FFF7D5
:10098000EAFF00212320FFF7E6FF64212420FFF780
:10099000E2FF15212520FFF7DEFF03212D20FFF7C1
:1009A000DAFF0A2000F073FA6021E820FFF7D3FF96
:1009B00004211820FFF7CFFF01211920FFF7CBFFFB
:1009C00000210120FFF7C7FF88211F20FFF7C3FF89
:1009D0000A2000F05CFA80211F20FFF7BCFF0A20EC
:1009E00000F055FA90211F20FFF7B5FF0A2000F014
:1009F0004EFAD0211F20FFF7AEFF0A2000F047FA81
:100A000005211720FFF7A7FF03213620FFF7A3FFDB
:100A100031212920FFF79FFF1A217120FFF79BFF4B
:100A200000214020FFF797FF45214120FFF793FF6A
:100A300045214220FFF78FFF04214320FFF78BFF62
:100A400000214420FFF787FF08214520FFF783FF9F
:100A500023214620FFF77FFF23214720FFF77BFF5D
:100A600077214820FFF777FF40214920FFF773FFE8
:100A700004214A20FFF76FFF00214B20FFF76BFF97
:100A800088214C20FFF767FF88214D20FFF763FF87
:100A900088214E20FFF75FFF00210220FFF75BFF58
:100AA00000210320FFF757FF00210420FFF753FF29
:100AB000EF210520FFF74FFF00210620FFF74BFF36
:100AC00000210720FFF747FF01210820FFF743FF20
:100AD0008F210920FFF73FFF38212820FFF73BFF38
:100AE000282000F0D4F93F212820FFF734FF4FF0F1
:100AF000C0412220088010BD40F2731107202AE770
:100B00000021072027E710B50B460446010A022002
:100B1000FFF721FFE1B20320FFF71DFF190A0620AE
:100B2000FFF719FFBDE81040D9B2072013E710B551
:100B30001446B1F5C87F0DD200280BDBEF2809DC85
:100B400089B280B2FFF7DFFF4FF0C041222008805A
:100B50001D48048010BD10B51446FFF7D4FF4FF0B8
:100B6000C041222008801848048010BD30B5002400
:100B7000054621462046FFF7C6FF4FF0C041222020
:100B8000088011491148641C0D808442FBD330BD9C
:100B90002DE9F0471D4617460E4682460024DDF833
:100BA00020C0FFF7B0FF2220DFF81C804FF0C041CB
:100BB000BCF1000F0CD081468C461DE0000C0240B9
:100BC0000010024040420F00000002600077010068
:100BD000088002E0A8F80050641CBC42FAD3BDE8CB
:100BE000F087ACF80090761CB6B2A8F800503146F9
:100BF0005046FFF788FF641CBC42F2D3EFE72DE9B3
:100C0000FC4F84460027A2EB0C000C46002801DCB8
:100C1000ACEB020001B2181B002800DCE01A00B2A5
:100C20000FFA8CF625B24FF0FF38624503D34FF030
:100C3000010BDA4601E0C346DA46A34203D34FF084
:100C40000109C84600E0C14681424FF0000208DBBE
:100C50009346904601EBD1728C465410CDE90001C9
:100C600024E09246CDE9001000EBD0724FF000096D
:100C7000844654101AE0294630460B9AFFF757FF76
:100C80000098204404B2644508DBA4EB0C0004B2D5
:100C900006EB0B0006B205EB090005B206EB0A00F5
:100CA00006B205EB08007F1C05B23FB201988742EF
:100CB000E1DDBDE8FC8F2DE9F8479846DDF824A07A
:100CC000144601270D468146534642460097FFF7DA
:100CD00096FF002653462246294648460096FFF7CF
:100CE0008EFF281981B25346424648460097FFF7C7
:100CF00086FF09EB080080B253462246294600963B
:100D0000FFF77DFFBDE8F8872DE9FE4F83460320FE
:100D10001E468A46A0EB42070024154671E00AEB06
:100D2000050081B202900BEB0400019080B2FFF746
:100D3000EAFE4FF0C0484FF0220CA8F800C0DFF8E0
:100D40001491AAEB050081B2A9F800600090019807
:100D500080B2FFF7D8FEA8F800C0A9F8006002989A
:100D600081B2ABEB0400019080B2FFF7CCFEA8F893
:100D700000C0A9F80060009881B2019880B2FFF726
:100D8000C2FEA8F800C00AEB0400A9F8006081B216
:100D900002900BEB0500019080B2FFF7B4FEA8F8BB
:100DA00000C0AAEB0400A9F8006081B2009001988D
:100DB00080B2FFF7A8FEA8F800C0A9F8006002986A
:100DC00081B2ABEB0500019080B2FFF79CFEA8F862
:100DD00000C0A9F80060009881B2019880B2FFF7C6
:100DE00092FEA8F800C0A9F80060002F03DA07EB14
:100DF0008407BF1D04E0601B07EB80076D1E0A37E8
:100E0000641CAC428BD9BDE8FE8F2DE9F04F0E4635
:100E1000834600244FF022094FF0C04ADFF83480A7
:100E2000A2EB0B059F1BDDF824C00FE0301981B247
:100E30005846FFF768FEAAF800900020414602E0FD
:100E4000A1F800C0401C8542FAD8641CA742EDD826
:100E5000BDE8F08F00000260144801684FF47A701A
:100E6000B1FBF0F0401EB0F1807F0FD24FF0E021D7
:100E700048610F4AF02082F8140D00208861072095
:100E80000861086920F0010008617047FEE701B5BC
:100E90000848009901604FF0E0210A6942F0010220
:100EA0000A6101680029FCD108BD0000280000206B
:100EB0000FE000E00C0000207047FEE7FEE7FEE7D1
:100EC000FEE770477047704703480168002902D069
:100ED0000168491E016070470C0000202DE9F041B7
:100EE0002DED0E8B84B00446DFEDF6AADFEDF6DAC9
:100EF0000027B7EE00BAB0EE6D8AB0EE489AB0EEB9
:100F000048CAB0EE48AAF0EE488AF0EE489A04EBE0
:100F10008708D8F8280001F02DFE05460E4654F843
:100F2000270001F027FE41EC100BCDE9005653ECF1
:100F3000102BE6A002F0DCF854F82700D8F82810AF
:100F400000EE100A00FB00F24843B8EEC00A79EE4A
:100F50008B9A7F1C052F70EE288A00EE101AB8EECF
:100F6000C00A30EE088A00EE102A01FB01F2B8EE4A
:100F7000C00A30EE0AAA00EE102AB8EEC00A30EE1F
:100F80000CCA00EE100AB8EEC00A30EE099ABEDBB9
:100F90006AEE0C1A29EE081A68EE890ACD4949EE64
:100FA000491A08EECC1A48EE4A0A21EEA90A08EEC0
:100FB000810A08EE200A10EE100A884215DA10EEB7
:100FC000100AC549884210D210EE100A01F0E3FD64
:100FD00041EC100BC1A053EC102B02F089F800205B
:100FE00004B0BDEC0E8BBDE8F08180EE80BA69EEF6
:100FF0008C0A002048EE480A80EE80CA68EE880A13
:10100000B0EE6D8A49EEC90A80EE80DA69EE8A0A8E
:1010100048EEE80AC1EE80CAC1EE00BA80EE80EA6E
:10102000B0EE480AF0EE409AB0EE40AA04EB80021F
:1010300054F820305169926A00EE901A4B435143A4
:10104000F8EEE00A401C052830EE8AAA00EE903A3D
:10105000F8EEE00A30EE800A00EE901AF8EEE00AB0
:1010600070EEA99AE2DB6CEE8A8A2BEE8A9A4BEE3E
:10107000808A0CEE009A4BEE298A0DEE299A68EED2
:10108000AA0AFDEEE00AC4ED140A69EE2A0AFDEE92
:10109000E00AC4ED150A6BEE0A0A4DEE000A4EEEA8
:1010A000290A10EE900A20EEAA0ABDEEC00A84EDCD
:1010B000160A01F070FD0746884619EE100A01F085
:1010C0006AFD05460E4618EE900A01F064FD8DE8B3
:1010D000E00141EC100B8DA053EC102B02F008F84E
:1010E000B0EE489AF0EE488A002004EB800254F8F3
:1010F0002030D16B926A00EE101A4B435143B8EE88
:10110000C00A401C052830EE088A00EE103AB8EEFE
:10111000C00A70EE288A00EE101AB8EEC00A30EE4F
:10112000099AE2DB6CEE889A2BEE88AA4BEEA89A1D
:101130000CEE28AA4BEE099A0DEE09AA29EEAA0A8E
:10114000BDEEC00A84ED170A2AEE2A0ABDEEC00AD7
:1011500084ED180A2BEE080A0DEE280A0EEE090A95
:1011600010EE100A60EE2A0AFDEEE00AC4ED190A3C
:1011700001F011FD074688461AEE100A01F00BFD3A
:1011800005460E4619EE900A01F005FD8DE8E001D6
:1011900041EC100B5DA053EC102B01F0A9FFBDEE4C
:1011A000EA0A012084ED1A0A1AE72DE9FC5F0546D8
:1011B00096B21746801E82B20C468BB2A5F10A0089
:1011C00089B280B20096FFF71AFD05F10A0082B2DB
:1011D000A81CA3B2A1B280B20096FFF710FDA01E1A
:1011E00083B2083881B2AAB2A8B20096FFF707FD11
:1011F00004F10A0083B2A01C81B2AAB2A8B2009680
:10120000FFF7FDFC7F1CBEB2A4F10909A5F1090797
:10121000A5F1060A1FFA89F3BAB21FFA89F11FFA7B
:101220008AF00096FFF7EBFCA01FCDE9006083B2C7
:10123000801E81B2BAB2B8B2FFF7E1FC04F109082E
:1012400004F1060B1FFA88F3BAB21FFA8BF1B8B299
:101250000096FFF7D4FC781C1FFA88F31FFA8AF275
:101260001FFA88F180B20096FFF7C9FC1FFA88F3D5
:101270001FFA88F1123705F10608BAB21FFA88F092
:101280000096FFF7BCFC08341FFA8BF3BAB2A1B288
:10129000B8B20096FFF7B3FC01981FFA89F381B248
:1012A000BAB20096B8B2FFF7AAFC08351FFA89F364
:1012B0001FFA88F21FFA89F1A8B20096FFF79FFC87
:1012C000BDE8FC9F000080470000000025662C253B
:1012D000660D0A00CDCCCC3DCDCCCCBD74735F6324
:1012E000616C6962726174653A2064657465726DDF
:1012F000696E616E7420697320746F6F20736D6105
:101300006C6C202D2D2025660A0000002566202506
:10131000662025660A0000002DE9FC4790460D4630
:1013200006464FF6FE791F464A4619464046DDF806
:1013300028A0FFF73AFF674C20680028FCD06846D9
:10134000FFF74FF900202060BDF9000046F82500A6
:1013500006EB8504BDF90200A0624A4639464046C4
:10136000FFF723FF5C48C4F814804246C0F80080B1
:10137000E76347603B46514658A001F0B9FE56F876
:10138000252051465CA0A36A01F0B2FEBDE8FC87AF
:10139000E2B01F20FFF7EAFB5DA0322300901A465F
:1013A000002105A8FFF7B8FF5CA000903223BE2201
:1013B000012105A8FFF7B0FF5BA04FF4AF740090C8
:1013C0002346BE22022105A8FFF7A6FF59A00090E0
:1013D00023463222032105A8FFF79EFF58A0009064
:1013E000C8237822042105A8FFF796FF05A8FFF778
:1013F00075FD00282FD054A001F07AFE002405AD21
:1014000005EB8400016D56A001F072FE641C072CF0
:10141000F6D338A001F06CFE0DF1700C9CE80F00C3
:101420000DF1040C8CE80F001B980090DDE91923E6
:101430004CA120A801F06CFE0DF1700C9CE80F008F
:1014400003930091CDE90120DDE91A1245A0199B13
:1014500001F04EFE02E049A001F04AFE1D4D286851
:101460000028FCD060A8FFF7BCF84FF6FF70FFF72C
:101470007DFB00202860BDF980010590BDF9820147
:101480000F90024643A0059901F032FEDDE91913E1
:10149000059A0F9803FB02111B9B03FB00111F9B76
:1014A00091FBF3F4DDE91C1303FB02111E9A02FB0E
:1014B00000101F9990FBF1F6324621463EA001F044
:1014C00017FEB1B2E0B24FF478430522FFF71CFCDF
:1014D000C5E7000004000020100000202573203A1A
:1014E000204C43442058203D202534642059203D81
:1014F000202534640A0D00002573203A2058203D31
:10150000202534642059203D202534640A0D000034
:10151000546F70206C65667400000000546F70207A
:101520007269676874000000426F742072696768AE
:1015300074000000426F74206C6566740000000047
:1015400043656E746572000043616C696272617418
:10155000696F6E20636F6E7374616E74733A2000EE
:10156000256420002564202564202564202564202E
:1015700025642025642025640000000043616C6917
:1015800062726174696F6E206661696C65642E0AAF
:101590000D0000006265666F72652043616C6962D0
:1015A000726174696F6E2078203D20256420793D3A
:1015B00025640A0D000000006166746572204361B5
:1015C0006C6962726174696F6E2078203D202564B9
:1015D00020793D25640A0D00284908432849086000
:1015E000704730B50F23C27801780125FAB1244A3B
:1015F000126801F1E02102F4E062C2F5E062C2F398
:101600000722C2F10404D3404278A24084781C40EF
:101610001443220181F80024007800F01F018D405E
:101620004009800000F1E020C0F8005130BD01F019
:101630001F0085404809800000F1E020C0F880517B
:1016400030BD104A114001430D48001F0160704732
:101650000B4A121D0029116801D0014300E08143AB
:10166000116070474FF0E0210428086903D020F092
:1016700004000861704740F00400FAE70000FA0532
:101680000CED00E080FFFF1F354900200860091DB8
:101690000860091D0860091D08603149314814318E
:1016A0000860704730B52E4A8379016853B31368D8
:1016B0008B431360111D0B680468A3430B60017911
:1016C00011440B68046823430B60254B08331968E9
:1016D0000468A14319601C1D21680568A9432160A5
:1016E0004179102905D011440A68006802430A6054
:1016F00030BD196802681143196021680068014310
:10170000216030BD0079104402688A43026030BD18
:101710000021016001710C224271817170471049F2
:1017200010310A6802430A60704701460C4A0020E3
:10173000143212680A4200D001207047084914315F
:10174000086070470146064A0020143212680A42B7
:1017500000D0012070470249143108607047000032
:10176000003C0140FFFF7F008100A1F1C04140B17A
:1017700043F2D20008606FF070404860C1F8040185
:1017800070474FF0204243F2DB001060F3E770B582
:1017900001688900A1F1C0410B68F74A1340D0E904
:1017A00001242243D0E903452C43224344692243C8
:1017B00084692243C4692243046A2243446A22435F
:1017C000846A2243C46A2243046B22431A430A6098
:1017D0008168082907D101688900A1F1C0410A6820
:1017E00042F040020A6001688A00A2F1C0425168DA
:1017F00001F04043416BD1E9004544EA05148D688E
:101800008E892D0245EA06452C430D8A44EA05548B
:101810000D7D896944EA05640C431C435460C16A28
:10182000B1F5804F08D000686FF070418000A0F1E2
:10183000C040C0F8041170BD01688900A1F1C04129
:10184000D1F80421806B02F04042D0E9003443EA31
:1018500004138468058A240244EA05542343047D62
:10186000806943EA046303431343C1F8043170BD44
:1018700000210222C0E900128160C1600161416162
:101880008161D202C161C0E908125200C0E90A2197
:101890000163BA494163816370478000A0F1C04091
:1018A0000029016802D041F0010101E0B44A114071
:1018B0000160704710B5182340244FF020414FF0CD
:1018C000FC32102805D041F8803F4C608A60CA6025
:1018D00010BD0B664C668A66CA6610BD30B50268DC
:1018E0004FF02041102A1BD0D1F88020A54B02EAEE
:1018F0000302D0E9013443EA0403D0E9034544EA92
:10190000050443EA0403446943EA4423846943EA3F
:10191000443343EA020343F0080403D18A6E03E030
:101920000A6EE3E7D1F88820C269D2E9003543EABC
:1019300005231589127B4FEA054545EA026243EA11
:101940000203CA6E006AD0E9002542EA0522058931
:10195000007B4FEA054545EA006042EA000203D1F8
:101960000C668B66CA6630BD41F8804F8B60CA60DA
:1019700030BD10210160002141608160C1600161C2
:1019800041618161C269FC211160C2695160C26913
:101990009160C269D160026A1160026A5160026A94
:1019A0009160006AC16070474FF0204251B1102829
:1019B00004D052F8800F40F004000AE0106E40F0AE
:1019C00004000AE06E49C91E102804D052F8800FA6
:1019D000084010607047106E0840106670474FF066
:1019E000204251B1102804D052F8800F40F040003E
:1019F0000AE0106E40F040000AE061493F391028CB
:101A000004D052F8800F084010607047106E0840F4
:101A1000106670474FF02041102802D0D1F8940092
:101A20007047486F70474FF02040182140F8A01FC2
:101A3000002141604FF0FC318160C160016170475D
:101A400010B54FF0204151F8A02F4F4B84681A4039
:101A500043685B0243EA443304681443234343F07E
:101A600010020A608A68C268D2E9003443EA04239B
:101A70001489127B240444EA026213438B60CA680F
:101A80000269D2E9003443EA04231489127B240456
:101A900044EA02621343CB600A694069D0E900233B
:101AA00042EA03220389007B1B0443EA00600243ED
:101AB0000A6110BD0021016041608160C268FC21A3
:101AC0001160C2685160C2689160C268D1600269E9
:101AD000116002695160026991600269D1604269D6
:101AE000116042695160426991604069C16070470C
:101AF0004FF02041002851F8A00F02D040F0040020
:101B000002E01F4AD21E10400860704710B54FF423
:101B100080744FF0204372B1102804D0A04205D148
:101B200053F8840F04E0586E08430DE053F8A40FF7
:101B30000843186010BD102804D0A04206D153F805
:101B4000840F05E0586E8843586610BD53F8A40F03
:101B50008843EEE7034600204FF02042102B08D0C8
:101B6000B3F5807F12D0D2F8A4200A4200D0012021
:101B70007047526EF9E700008000F7FFF439000863
:101B8000FEFF0F008101F0FFCD01FEFFD2F884209F
:101B9000EBE74FF02042102807D0B0F5807F08D047
:101BA00052F8A40F884310607047506E8843506607
:101BB000704752F8840FF5E7034600204FF02042AB
:101BC000102B0CD0B3F5807F0BD0D2F8A4200A42A2
:101BD00002EAD10102D0002900D001207047526EE4
:101BE000F5E7D2F88420F2E74FF02042102808D021
:101BF000B0F5807F0AD052F8A40F20EAD10010601F
:101C00007047506E20EAD1005066704752F8840F3A
:101C1000F3E70000774910B5884206D10121084654
:101C200000F049FC002101205BE07349884206D1A5
:101C30000121022000F03FFC0021022051E06F4909
:101C4000884206D10121042000F035FC0021042047
:101C500047E06B49884206D10121082000F02BFCA7
:101C6000002108203DE06749884206D1012110206B
:101C700000F021FC0021102033E06349884206D1A6
:101C80000121202000F017FC0021202029E05F49DD
:101C9000884206D10121402000F00DFC00214020A7
:101CA0001FE05B49884206D10121802000F003FC3F
:101CB0000021802015E05749884202D10121841576
:101CC0000AE05549884202D10121441504E05349F4
:101CD00088420AD101210415204600F0ECFB0021C6
:101CE0002046BDE8104000F0E6BB10BDF0B5002274
:101CF00001274FF0030C0B6807FA02F52B40AB42AB
:101D00002CD1066853000CFA03F4A64306600E7942
:101D1000D0F800E09E4046EA0E0606600E79012EDD
:101D200001D0022E12D18668A64386604E79D0F883
:101D300008E09E4046EA0E0686604668AE4346606E
:101D400045688E799640B6B235434560C568A5436F
:101D5000C560CC799C40C3681C43C460521C102AE7
:101D6000C9D3F0BD4FF6FF710160002101714171CF
:101D70008171C171704708B541F480320092C2612F
:101D8000C1610099C161C169C069009008BD024686
:101D9000002012690A4200D001207047006980B219
:101DA00070470246002052690A4200D00120704765
:101DB000406980B2704701837047418370470AB120
:101DC00001837047418370474161704742694A40CF
:101DD000426170474B07DB0E9A40C90810B500EB13
:101DE0008100016A0F249C40A1430162016A1143F2
:101DF000016210BD000002400004024000080240E1
:101E0000000C024000100240001402400018024082
:101E1000001C024000200240002402400028024032
:101E2000D24910B5884202D101214C050AE0D049BF
:101E3000884202D101218C0504E0CE4988420AD1B2
:101E40000121CC05204600F054FB2046BDE810409F
:101E5000002100F04EBB10BD7FB5044680880D46C2
:101E600020F03F06684600F05FFAC3490298B0FBD5
:101E7000F1F189B20E43A680228822F0010222806D
:101E8000BE4B2A689A421BD85200B0FBF2F080B2D7
:101E9000042800D20420491C2184A083208840F01B
:101EA0000100208020884FF6F5310840A9886A8912
:101EB000114301432180A8892989084320817FBDDE
:101EC000EB88A3F53F46FF3E0BD002EBC20303EBCA
:101ED0000212B0FBF2F080B240F48040020506D05E
:101EE00007E002EB4202B0FBF2F080B2F6E740F00E
:101EF00001004FF4967251434FF47A72B1FBF2F144
:101F000040F40040C7E741F2883101600021818040
:101F10004BF6FF72C280018141814FF48041818183
:101F200070470029018802D041F0010101E021F051
:101F30000101018070470029818C02D021F010013D
:101F400001E041F0100181847047828C01F00F01A3
:101F500022F00F021143818470470029018802D0CA
:101F600041F4807101E021F4807101807047002903
:101F7000018802D041F4007101E021F40071018078
:101F8000704712B141F0010101E001F0FE01018250
:101F900070470029018802D041F4806101E021F4FA
:101FA000806101807047828901F0FE0122F0FE020B
:101FB0001143818170470029818902D041F00101DC
:101FC00001E021F00101818170470029018802D0E0
:101FD00041F0400101E021F04001018070470029FB
:101FE000018802D041F4004101E0C1F30E010180FB
:101FF00070470029018803D021F0800101807047DB
:1020000041F08001FAE7B1F5804F818B02D021F4D5
:10201000804101E041F4804181837047B1F5006F58
:10202000018803D021F400610180704741F4006110
:10203000FAE7B1F5005F018803D021F40051018077
:10204000704741F40051FAE70029018802D041F0BD
:10205000100101E021F010010180704701827047FA
:10206000008AC0B270470029018802D041F4805133
:1020700001E021F4805101807047B1F5006F0188C3
:1020800003D021F400610180704741F40061FAE758
:102090000029018802D041F0200101E021F0200157
:1020A00001807047008B000A70470029818802D0A8
:1020B00041F4006101E021F4006181807047002952
:1020C000818802D041F4805101E021F48051818067
:1020D000704708B508440090008808BD002A82882F
:1020E00001D00A4300E08A43828070470346002003
:1020F0009A8A1B8B42EA034222F07F42914300D12D
:1021000001207047818A008B41EA004121F07F4025
:1021100070470CB50246002000920A0F21F07F4163
:10212000019202D0009A143202E0009A090C18328F
:10213000009212680A4200D001200CBDC94381827E
:10214000704710B5034600209A884FF4E06404EA13
:1021500011449B8A224021F07F410B4202D0002A89
:1021600000D0012010BDC943818270470054004057
:1021700000580040005C004040420F00A086010073
:10218000F848016841F001010160F64A0021083277
:1021900011600268F44B1A400260031DF34A1A6092
:1021A000F04BF34A84331A60F04A103A1B1D1A6050
:1021B000026822F480220260EA480C300160181D97
:1021C00001607047E7490022891C0A700870704757
:1021D00002460020510901290CD002290CD0E14906
:1021E0007431096802F01F02012393400B4200D0B2
:1021F00001207047DB49F4E7DA497031F1E718B59F
:1022000000204FF4A04400903120FFF7E1FF009937
:10221000491C0091A14201D00028F5D03120FFF7E0
:10222000D7FF002800D0012018BDCE4A116821F048
:10223000F80141EAC00010607047CE49086070475D
:10224000C849002270310A700A70012802D004289F
:1022500001D1052008707047C7490860704741EAFE
:1022600082115A0810B5C54B029C03EB0242114380
:10227000014341EA0460BB49091D086010BDBD4926
:1022800008667047800140EA0170B64984310860F1
:102290007047B84988667047800140EA0160B149DB
:1022A00040EA0270883108607047B2490867704799
:1022B000B049C8647047AB4B08331A68084322F032
:1022C000EC62104318607047A64B08331A68084345
:1022D00022F07842104318607047A24A0832116811
:1022E00021F003010143116070479E4808300068E7
:1022F00000F00C0070479B4A0832116821F0F00191
:10230000014311607047974A0832116821F4E05187
:10231000014311607047934A0832116821F460410B
:1023200041EAC0001060704770B58E4B08331968E1
:10233000934C11F00C0104D06610042903D0082935
:1023400003D004601BE0066019E0864A121D116884
:10235000C1F38055116801F03F0115B1B6FBF1F1F1
:1023600001E0B4FBF1F114681268C4F3881461430E
:10237000C2F30142521C5200B1FBF2F10160196834
:102380000F2202EA11117F4A545C0168E14041606A
:102390001C68072505EA9424145D21FA04F484607E
:1023A0001B6805EA5333D25CD140C16070BDC0F3F5
:1023B0000121032908D16B4B08331968724A21F4B3
:1023C000F81102400A431A60664970310A68C0F386
:1023D0000B0002430A607047674944390860704740
:1023E00065494039086070476249C1F85C0170472F
:1023F0005C4A8C32116821F440110143116070472E
:10240000584A8C32116821F4400101431160704731
:10241000544A8C321168401E21F01F0101431160A3
:102420007047504A8C3211686FF0FF0321F4F85165
:1024300003EB00200843106070474A4A8C32116851
:1024400021F440310143116070475049C1F8E00167
:102450007047444A30320029116801D0014300E03E
:102460008143116070473F4A34320029116801D01E
:10247000014300E08143116070473A4A3832002935
:10248000116801D0014300E0814311607047354A73
:1024900040320029116801D0014300E081431160FE
:1024A0007047304A44320029116801D0014300E0EE
:1024B0008143116070472B4A10320029116801D006
:1024C000014300E0814311607047264A143200291D
:1024D000116801D0014300E0814311607047214A37
:1024E00018320029116801D0014300E081431160D6
:1024F00070471C4A20320029116801D0014300E0D6
:10250000814311607047174A24320029116801D0B5
:10251000014300E0814311607047124A50320029A4
:10252000116801D0014300E08143116070470D4AFA
:1025300054320029116801D0014300E08143116049
:102540007047084A58320029116801D0014300E061
:10255000814311607047034A60320029116817D027
:10256000014316E000380240FFFFF6EA1030002475
:102570000030002000004742800E47420000FFFF6D
:102580000024F40018000020FFFCFF0F0010474259
:10259000814311607047194A0029116801D0014335
:1025A00000E081431160704714490C31012808682C
:1025B00003D020F008000860704740F00800FAE7F8
:1025C0000E4A573A0029117801D0014300E08143B7
:1025D0001170704709481030016841F08071016046
:1025E00070470146054A0020583A12680A4200D056
:1025F000012070470149563908707047643802401D
:1026000010B501218C032046FFF77DFF2046BDE871
:1026100010400021FFF777BF144908607047144944
:102620000862704710B58A0721F003041149120FA0
:1026300021440F23D1F8084893409C43C1F808482F
:10264000D1F8083890400343C1F8083810BD084954
:10265000C1F8DC0070470849086070470349002052
:1026600020310968C90500D50120704700380140B4
:10267000000027420030014000042742CD4910B538
:10268000884206D101211020FFF73DFF00211020D4
:1026900020E0C949884202D101214C0429E0C74900
:1026A000884202D101218C0423E0C549884202D12D
:1026B0000121CC041DE0C349884202D101210C054F
:1026C00017E0C149884209D101212020FFF71BFFF3
:1026D00000212020BDE81040FFF715BFBB4988420C
:1026E00002D101218C0704E0B94988420AD10121B5
:1026F00044052046FFF7FDFE2046BDE810400021BE
:10270000FFF7F7BE10BD7FB50446008A0D46C988A5
:1027100020F4405001432182A08941F20C6188439A
:10272000A9882A8911436A8902431143A181A08A99
:1027300020F44071A8890843A0826846FFF7F4FDA1
:102740009C48844202D0A048844201D1039800E012
:102750000298A189090400EBC00101EB001029686F
:1027600001D5490000E08900B0FBF1F06422B0FB24
:10277000F2F109010B096FF018056B4300EB8300C0
:10278000A3891D044FF0320306D503EBC000B0FB54
:10279000F2F000F0070005E003EB0010B0FBF2F0F0
:1027A00000F00F00084320817FBD4FF416510160F7
:1027B00000218180C18001810C224281818170478A
:1027C00010B5028A4C8822F470630A8822438C88F0
:1027D000C9880C4322431A43028210BD00210180A4
:1027E00041808180C18070470029818902D041F4F5
:1027F000005101E021F4005181817047028B02F405
:102800007F420283028B0A43028370470029818939
:1028100002D041F4004101E0C1F30E018181704713
:102820000029818A02D041F4006101E021F40061B5
:1028300081827047C1F30801818070478088C0F3AE
:1028400008007047028A22F00F020282028A0A43BD
:10285000028270470029818902D041F0020101E023
:1028600021F0020181817047828922F40062828115
:1028700082890A4382817047028A22F02002028202
:10288000028A0A43028270470029018A02D041F479
:10289000804101E021F4804101827047818941F04B
:1028A0000101818170470029818A02D041F008012D
:1028B00001E021F0080181827047028BD2B20283CD
:1028C000028B42EA0121018370470029818A02D0EC
:1028D00041F0200101E021F02001818270470029B0
:1028E000818A02D041F0100101E021F010018182C3
:1028F0007047828A22F004028282828A0A4382829C
:1029000070470029818A02D041F0020101E021F0E4
:10291000020181827047002A828A01D00A4300E0C6
:102920008A438282704710B5C1F3421301F01F043D
:102930000121A140012B07D0022B07D01430002A1F
:10294000026805D00A4304E00C30F8E71030F6E7DF
:102950008A43026010BD0246002012880A4200D05D
:1029600001207047C9430180704770B501F01F0511
:1029700001260024C1F3421306FA05F2012B0FD001
:10298000022B0FD0838A4FEA11210088134206FAE6
:1029900001F600EA060001D000B10124204670BD16
:1029A0008389F0E7038AEEE70A0A01219140C943CF
:1029B0000180704700100140004400400048004082
:1029C000004C0040005000400014014000780040DE
:1029D000007C00400648804706480047FEE7FEE7C7
:1029E000FEE7FEE7FEE7FEE7FEE7FEE7FEE7FEE7BF
:1029F0009B2A0008890100080CB500225449009266
:102A00000192086840F4803008604FF4A0430868E1
:102A100000F4003001900098401C0090019810B91B
:102A200000989842F3D10868800334D501200190C2
:102A300047484030026842F08052026045480268D0
:102A400042F4404202604248083002680260026874
:102A500042F400420260026842F4A0520260031F86
:102A60003D4A1A600A6842F080720A600A68920160
:102A7000FCD53A4940F205720A60016821F0030171
:102A80000160016841F0020101600168C1F3810148
:102A90000229FAD10CBD01920CBD314810B5016874
:102AA00041F4700101602A48016841F001010160B0
:102AB000274A00210832116002682A4B1A4002603E
:102AC000031D294A1A60026822F48022026020480D
:102AD0000C300160FFF790FF21494FF00060803912
:102AE000086010BD70B51A4D083528681F4B204985
:102AF00010F00C0004D05E10042803D0082803D086
:102B00000B601BE00E6019E0114A121D1068C0F343
:102B10008054106800F03F0014B1B6FBF0F001E003
:102B2000B3FBF0F013681268C3F388135843C2F381
:102B30000142521C5200B0FBF2F0086028680C4AB7
:102B4000C0F30310121D105C0A68C2400A6070BD19
:102B50000038024000700040085A4007003C024024
:102B600088ED00E0FFFFF6FE103000240024F400A2
:102B7000280000200EB5C10F80EAE0700844CA07A3
:102B8000002140F233438DE80E000A460B4600F068
:102B900069F803B000BD00F0004230F000400AD0F8
:102BA000C10D01F56071C0F3160042EA0151C2087F
:102BB00040071143704700200146704730B50B466F
:102BC000014600202022012409E021FA02F59D425D
:102BD00005D303FA02F5491B04FA02F52844151E31
:102BE000A2F10102F1DC30BD2DE9F05F05460020C5
:102BF00092469B4688460646814640241BE028466E
:102C000041464746224600F050FA53465A46C01AFB
:102C1000914110D311461846224600F037FA2D1A7A
:102C200067EB01084F4622460120002100F02EFAF2
:102C300017EB00094E41201EA4F10104DFDC4846D9
:102C400031462A464346BDE8F09F10B5002B08DA0E
:102C5000401C41F1000192185B411A4301D120F060
:102C6000010010BD2DE9F04D92469B4611B1B1FA1D
:102C700081F202E0B0FA80F22032904600F006FACB
:102C800004460F4640EA0A0041EA0B0153465A4601
:102C9000084313D0114653EA010019D0C8F140028D
:102CA000504600F002FA05460E4650465946424646
:102CB00000F0ECF9084305D0012004E02046394635
:102CC000BDE8F08D0020054346EAE0762C4337430B
:102CD0000A986305E40AA0EB08000022FD0A44EA12
:102CE00047540A3002D500200146E9E701051019D2
:102CF0006941DDE9084500196941BDE8F04DA4E7E7
:102D00002DE9FE4F804681EA0300C00F0C4600907B
:102D100021F0004123F00045B8EB0200A94105D2A3
:102D20004046214690461C460B46024623F0004092
:102D3000104347D0270DC7F30A00C3F30A5102908E
:102D4000401A019040286BDAC3F3130040F4801B53
:102D50000098924620B10023D2EB030A63EB0B0BE1
:102D600001985946C0F14002504600F08FF90646DE
:102D70000D4650465946019A00F0A7F910EB08009D
:102D80006141002487EA115284EAE7731A4340D074
:102D9000009A62B3019A012A4FEA075215DC001B20
:102DA00061EB02014FF0004202EA0752CDE9004216
:102DB000001C41F5801132462B46FFF753FF03B04C
:102DC000BDE8F08F40462146F9E7001B61EB0201A8
:102DD000001C41F5801300185B412018A2F5001774
:102DE00047EB030140EAD570B6196D4111E06D085B
:102DF0004FEA360645EAC0754FEA0752001B61EB01
:102E00000201001C41F5801149084FEA3000001909
:102E1000514132462B4603B0BDE8F04FFFF715BFD6
:102E20000098012240000023D0EB020263EBE07324
:102E3000009821464FEAE074B8EB000061EB040112
:102E4000E9E783F000435BE781F0004158E72DE9B3
:102E5000FE4F81EA030404F0004421F00041009495
:102E60004FF0000B23F0004350EA01045ED052EA19
:102E700003045BD0C3F30A54C1F30A552C44A4F2F3
:102E8000F3340194A0FB0254C1F3130141F4801107
:102E9000C3F3130343F4801301FB024400FB034E0E
:102EA000840A970A44EA815447EA8357A4FB0768D7
:102EB00002958D0A05FB07854FEA932C04FB0C5401
:102EC0002705029D4FEA065847EA1637B5EB080575
:102ED0006EEB070C870E920E47EA811742EA8312C7
:102EE000A7FB0201B6EB0B0164EB00042B0D43EAD8
:102EF0000C335E1844EB1C50DA465146E7FB0201E6
:102F0000C5F313044FEA0B3343EA14534FEA043278
:102F1000019C43EA0603A4F10C040294009CCDE951
:102F200000B4FFF79FFE03B0BDE8F08F002001461C
:102F3000F9E72DE9F04D81EA030404F0004B21F09C
:102F4000004514464FF0000A23F0004150EA050204
:102F500020D054EA01021DD0C5F30A570246C5F33A
:102F60001303C1F31300C1F30A5640F4801543F470
:102F70008013A7EB0608101BD64608F2FD3873EB4A
:102F8000050002D308F1010801E092185B41B8F195
:102F9000000F03DA00200146BDE8F08D00204FF459
:102FA0008011064684460EE0171B73EB050705D318
:102FB000121B63EB050306434CEA010C49084FEA78
:102FC000300092185B4150EA0107EDD152EA03004C
:102FD00012D082EA040083EA0501084305D0101BE1
:102FE000AB4106D20122002306E000224FF000434D
:102FF00002E06FF0010253101AEB06004CEB08518F
:1030000010EB0A0041EB0B01BDE8F04DFFF71DBED0
:10301000C1F30A52C1F3130140F2FF3341F48011AE
:103020009A4202DA00200146704740F233439A4246
:10303000A2F2334202DC524200F037B800F026B868
:1030400030B5002904DB4FF00044404264EB01013D
:10305000002B04DB4FF00044524264EB030399421F
:1030600008BF904230BD0000064C074D06E0E06806
:1030700040F0010394E8070098471034AC42F6D3BF
:10308000FDF786F86C3A00088C3A0008202A04DB29
:10309000203A00FA02F1002070479140C2F120036B
:1030A00020FA03F3194390407047202A04DB203AAA
:1030B00021FA02F00021704721FA02F3D040C2F158
:1030C00020029140084319467047202A06DBCB179F
:1030D000203A41FA02F043EAE07306E041FA02F3D3
:1030E000D040C2F1200291400843194670470000C9
:1030F0000FB4054B10B503A9044A029800F0DEF89E
:1031000010BC5DF814FB0000F50100083C00002035
:103110000FB4084B10B504A902AA039800F0CEF82A
:10312000044602A9002000F060FC204610BC5DF8B7
:1031300014FB0000EB39000802E008C8121F08C1A8
:10314000002AFAD170477047002001E001C1121F28
:10315000002AFBD1704700002DE9FF5FDDE9022066
:10316000010DDDF838B0024318D044F61050A1F23A
:10317000FF3141430D140F98012820D0A5EB0B001F
:10318000401C5FEA000A4FF00004474EDFF81C9134
:10319000A046504616D5CAF1000728E00F98012432
:1031A00043A2012808D0002100980F9BC0E900210C
:1031B000C0E90243BDE8FF9F6FEA0B01F4E7CBF1E2
:1031C0000000DEE7074612E0F80707D02246334644
:1031D00040464946FFF73BFE804689462246334635
:1031E00010461946FFF733FE04460E467F10002FA7
:1031F000EAD1DDE90201BAF1000F42464B4602DA9C
:10320000FFF725FE01E0FFF794FE04460E4600227C
:10321000284BFFF715FF03D84FF0FF30014607E0BA
:103220000022254B20463146FFF76AFDFFF7F0FEEE
:10323000102409E0002C0ADB0A220023FFF7D4FC4B
:10324000019B30321A55641E50EA0102F2D1641C0F
:10325000019AC4F1110314440F9A012A03D00122E8
:1032600008430DD10AE0084304D000204FF0110BB1
:103270000F9080E7A3EB0B056D1E0DE05B4504DDB1
:103280004FF0000205F1010504E003DA4FF00002FF
:10329000A5F10105002AECD000980F99C0E9023190
:1032A000C0E9004586E70000000024400000F03F30
:1032B000300000000000F0430000E03F2DE9FF4F28
:1032C00095B09B468946064600250FE2252877D112
:1032D00000242746F84A0121059400E0044316F82B
:1032E000013F203B01FA03F01042F7D130782A2841
:1032F00011D06FF02F033078A0F13002092A16D8D0
:10330000059A44F0020402EB820203EB42021044ED
:10331000761C0590EFE759F8042B0592002A03DA92
:10332000504244F40054059044F00204761C307876
:103330002E2816D116F8010F44F004042A280DD0C7
:103340006FF02F023078A0F13003092B09D807EB7A
:10335000870302EB4303C718761CF3E759F8047B95
:10336000761C30786C280FD006DC4C2817D06828E3
:103370000DD06A2814D104E0742810D07A280FD117
:103380000DE044F400140AE044F4801401E044F435
:1033900040147278824202D104F58014761C761CA7
:1033A000307866280BD013DC582877D009DC002849
:1033B00075D04528F6D04628F4D047281AD19DE18B
:1033C00018E0632835D0642879D0652812D195E1BA
:1033D000702873D008DC6728F1D069286FD06E2878
:1033E0000DD06F2806D1B5E073282CD0752875D084
:1033F000782874D05A46179990476D1C75E1C4F32C
:103400000250022809D003280DD0D9F80010042852
:103410000DD00D6009F1040967E1D9F80010EA1731
:10342000C1E90052F6E7D9F800100D80F2E70D70FF
:10343000F0E719F8041B8DF8001000208DF801004A
:10344000EA46012003E059F804AB4FF0FF30610772
:103450004FF0000102D40DE008F101018846B942A5
:103460000FDA8045F8DB1AF808100029F4D108E0DB
:1034700008F1010188468142FADB1AF80810002998
:10348000F6D105985B46A0EB080721463846179A07
:1034900000F094FA284400EB080507E04DE029E12C
:1034A0000DE01AF8010B5A4617999047B8F1010838
:1034B000F7D25B4621463846179A13E142E00A22CA
:1034C0000092C4F302524FF0000A022A08D059F8C1
:1034D00004CB032A4FEAEC710AD00DE029E02AE080
:1034E00009F1070121F00702F2E802C1914609E063
:1034F0000FFA8CFC4FEAEC71042A03D14FFA8CFCD2
:103500004FEAEC71002907DA0A460021DCF1000CD1
:1035100061EB02012D2202E0220504D52B228DF859
:103520000420012203E0E20701D02022F7E79046C1
:1035300059E00A2102E010220DE010214FF0000AAC
:1035400000910BE010224FF0000A44F00404082719
:10355000009203E008224FF0000A0092C4F30252E6
:10356000022A05D059F804CB0021032A08D009E02B
:1035700009F1070121F00702F2E802C1914605E0D6
:103580001FFA8CFC042A01D10CF0FF0C4FF000084C
:10359000220728D5702806D0009B83F0100353EA39
:1035A0000A0305D00EE040228DF80420012208E035
:1035B0005CEA010206D030228DF804208DF8050067
:1035C00002229046009B83F0080353EA0A030AD1C3
:1035D0005CEA010201D1620705D530228DF8042092
:1035E0004FF001087F1E582804D034A003900EA885
:1035F00002900DE036A0F9E753466046009AFFF7C7
:10360000F3FA84460398825C0298401E029002708E
:103610005CEA0100F0D1029806A9081A00F1200A1C
:10362000600702D524F4803400E00127574502DD0D
:10363000A7EB0A0000E0002000EB0A0100900598CB
:103640004144401A0590E00306D45B462146179A90
:10365000059800F0B3F90544002706E001A85A4692
:10366000C05D179990476D1C7F1C4745F6DBE00352
:103670000CD55B462146179A059800F09FF9054442
:1036800004E030205A46179990476D1C0099481E57
:1036900000900029F5DC08E0029802995A4600786B
:1036A000491C0291179990476D1CBAF10001AAF1CB
:1036B000010AF1DC65E100000928010030313233F4
:1036C000343536373839616263646566000000005E
:1036D0003031323334353637383941424344454648
:1036E0000000000000F058F90544761C30780028EE
:1036F0007FF4ECAD19B02846BDE8F08F620700D426
:10370000062709F1070222F0070CFCE80223E14634
:1037100003F000485FEA080C02D00FF2702C0DE0B5
:103720005FEA045C02D50FF2682C07E05FEAC47C14
:1037300002D00FF2602C01E0AFF2700C4FF0FF38B6
:1037400023F00043CDF850C065280CD006DC452896
:1037500009D046281DD047283DD13DE0662818D025
:1037600067287ED138E00021112F01DB112000E015
:10377000781CCDE9000106A90EA8FFF7EDFCDDE9F4
:103780000F010E9A03910021009207F1010A0491A2
:103790004DE04FF000400097CDE9011006A90EA8BA
:1037A000FFF7DAFCDDE90F0203920E9B119900226C
:1037B000DDF80CA00093049211B9791C00EB010A0A
:1037C000B7EB0A0004D4C0F1FF3007F1010A0490FE
:1037D000AAEB0700019044E0012F00DA0127002145
:1037E000112F01DD112000E03846CDE9000106A9C6
:1037F0000EA8FFF7B1FCDDE90F010E9A039100213D
:1038000004910092BA4621070CD40399514500DA7D
:103810008A46BAF1010F05DD009AAAF10101515C57
:10382000302908D0B84202DA10F1040F06DA01217B
:10383000CDE9011015E0AAF10101E9E7002805DC56
:10384000049901440491AAEB000102E0411C514596
:1038500000DD8A460499401A401C01904FF0004058
:103860000290200704D40198504501DBCDF8048074
:1038700000208DF84F0002980DF14F07B0F1004F76
:1038800025D02B200E9002984FF0020800280CDA69
:10389000404202902D200E9007E00A210298FFF787
:1038A0008DF93031029007F8011DB8F10001A8F13F
:1038B0000108F2DC02980028EFD1791E0E980870FA
:1038C000307800F0200040F0450007F8020D12A803
:1038D000C01B00F107081498007800B1012000EB2C
:1038E0000A01019801EBE07105984144401A401E1D
:1038F0000590E00306D45B462146179A059800F030
:103900005DF805441498007818B15A461799904705
:103910006D1CE00324D55B462146179A059800F0FC
:103920004DF805441CE00498002807DBDDE903019D
:10393000884203DD0098405C179901E01799302018
:103940005A469047049805F10105401C04900198DF
:10395000401E019004D12E205A46179990476D1CA5
:10396000BAF10001AAF1010ADDDC05E017F8010B4C
:103970005A46179990476D1CB8F10001A8F101084B
:10398000F4DC5B462146179A0598ABE62D00000053
:103990002B000000200000002DE9F0410446002526
:1039A0001E461746880404D405E039462020B04757
:1039B0006D1C641EF9D52846BDE8F0812DE9F04163
:1039C000044600251E469046C80301D5302700E076
:1039D0002027880404D505E041463846B0476D1CD1
:1039E000641EF9D52846BDE8F0810A68531C0B60B7
:1039F000107070470F0000000F000000FF00000073
:103A00000F0000000F0000000F0000000000000089
:103A100074727920726573746172742D2D2D2D2D41
:103A20002D2D2D2D2D2D2D2D2D2D2D2D2D2D2D2DC6
:103A30002D2D2D2D2D2D2D2D2D2D2D2D2D2D2D2DB6
:103A40002D2D2D2D2D2D2D2D2D2D2D2D2D2D2D2DA6
:103A50002D2D2D2D2D2D2D2D2D2D2D2D2D2D2D2D96
:103A60002D2D2D2D2D2D2D2D2D0D0A008C3A0008DC
:103A7000000000204000000038310008CC3A000867
:103A8000400000200004000048310008004006000B
:103A9000000000000000000000000000FFFFFFFF2A
:103AA0000000000000000000010203040102030402
:103AB00006070809007A030A000000000000000061
:0C3AC000010203040607080900000000D2
:040000050800018965
:00000001FF
