:020000040800F2
:10000000380400209D010008C1010008C301000858
:10001000C7010008CB010008CF0100080000000064
:10002000000000000000000000000000D3010008F4
:10003000D501000800000000D7010008D901000820
:10004000B7010008B7010008B7010008B7010008B0
:10005000B7010008B7010008B7010008B7010008A0
:10006000B7010008B7010008B7010008B701000890
:10007000B7010008B7010008B7010008B701000880
:10008000B7010008B7010008B7010008B701000870
:10009000B7010008B7010008B7010008B701000860
:1000A000B7010008B7010008B7010008B701000850
:1000B000B7010008B7010008B7010008B701000840
:1000C000B7010008B7010008B7010008B701000830
:1000D000B7010008B7010008B7010008B701000820
:1000E000B7010008B7010008B7010008B701000810
:1000F000B7010008B7010008B7010008B701000800
:10010000B7010008B7010008B7010008B7010008EF
:10011000B7010008B7010008B7010008B7010008DF
:10012000B7010008B7010008B7010008B7010008CF
:10013000B7010008B7010008B7010008B7010008BF
:10014000B7010008B7010008B7010008B7010008AF
:10015000B7010008B70100083B160008B701000806
:10016000B7010008B7010008B7010008B70100088F
:10017000B7010008B7010008B7010008B70100087F
:10018000B7010008B7010008DFF80CD001F0CAFB86
:10019000004800471517000838040020064880472B
:1001A00006480047FEE7FEE7FEE7FEE7FEE7FEE75C
:1001B000FEE7FEE7FEE7FEE7BD0200088901000852
:1001C000704700BFFEE700BFFEE700BFFEE700BFCD
:1001D000FEE770477047704710B501F07CFA10BD1C
:1001E0000CB50020019000907648006840F4803003
:1001F0007449086000BF7348006800F40030009044
:100200000198401C0190009818B90198B0F5A04FD2
:10021000F1D16C48006800F4003010B1012000906A
:1002200001E0002000900098012846D16548403048
:10023000006840F0805063494031086062480068BF
:1002400040F44040604908605E48083000685D49FD
:10025000083108600846006840F40040086008461D
:10026000006840F4A05008605848091F0860081F43
:10027000006840F08070091F086000BF51480068A6
:1002800000F000700028F9D040F205705049086075
:100290004C480830006820F003004A4908310860E3
:1002A0000846006840F00200086000BF454808307A
:1002B000006800F00C000828F8D10CBD10B54548C6
:1002C000006840F47000434908603E48006840F010
:1002D00001003C49086000203A490831086039486B
:1002E00000683D490840374908603C48091D0860DE
:1002F000081F006820F48020091F08600020314991
:100300000C310860FFF76CFF4FF000603149803915
:10031000086010BD70B500200022022300240221D5
:10032000284D08352D6805F00C0020B1042806D0B2
:10033000082834D107E02A4D2A4E356033E02A4D93
:10034000284E35602FE01F4D2D1D2D68C5F38054BC
:100350001C4D2D1D2D6805F03F0154B1224DB5FBFC
:10036000F1F5184E361D3668C6F3881605FB06F201
:1003700009E01B4DB5FBF1F5124E361D3668C6F38C
:10038000881605FB06F20F4D2D1D2D68C5F301459E
:100390006D1C6B00B2FBF3F5124E356003E0104D9F
:1003A000104E356000BF00BF064D08352D68C5F3FF
:1003B00003150E4E705D0B4D2D68C540094E35601E
:1003C00070BD00000038024000700040085A40072D
:1003D000003C024088ED00E0FFFFF6FE10300024F4
:1003E0000024F4000000002000127A000400002025
:1003F00010B504469848844208D10121084600F00F
:1004000086FB0021012000F082FB76E093488442C5
:1004100008D10121022000F07AFB0021022000F027
:1004200076FB6AE08E48844208D10121042000F066
:100430006EFB0021042000F06AFB5EE089488442E4
:1004400008D10121082000F062FB0021082000F003
:100450005EFB52E08448844208D10121102000F064
:1004600056FB0021102000F052FB46E07F488442FA
:1004700008D10121202000F04AFB0021202000F0BB
:1004800046FB3AE07A48844208D10121402000F03E
:100490003EFB0021402000F03AFB2EE075488442EC
:1004A00008D10121802000F032FB0021802000F0E3
:1004B0002EFB22E07048844208D10121801500F013
:1004C00026FB0021A01500F022FB16E06B488442B9
:1004D00008D10121401500F01AFB0021601500F041
:1004E00016FB0AE06648844207D10121001500F09E
:1004F0000EFB0021201500F00AFB10BDF0B50A46E6
:1005000000210023002400BF3DE0012505FA01F38E
:10051000156805EA03049C4234D105684F000326A0
:10052000BE40B543056015794E00B54006683543B9
:1005300005601579012D02D01579022D16D1856837
:100540004F000326BE40B543856055794E00B54047
:10055000866835438560456801268E40B543456011
:10056000456896798E40B6B235434560C5684F0000
:100570000326BE40B543C560D5794E00B540C66878
:100580003543C560491C1029BFD3F0BD4FF6FF713C
:1005900001600021017141718171C171704708B51D
:1005A0004FF480320092009A0A430092009AC2618E
:1005B000C161009AC261C2690092C269009208BD1D
:1005C0000246002013690B400BB1012000E000201F
:1005D00070470146086980B270470246002053699F
:1005E0000B400BB1012000E0002070470146486934
:1005F00080B2704701837047418370470AB101831D
:1006000000E0418370474161704742694A4042615E
:100610007047F0B5002300244D07ED0E02FA05F3F4
:10062000CE1000F1200555F826504E07F70E0F2684
:10063000BE40B543CF1000F1200646F82750CE103B
:1006400000F1200555F8265045EA0304CE1000F1CC
:10065000200545F82640F0BD00000240000402409D
:1006600000080240000C024000100240001402404A
:1006700000180240001C02400020024000240240FA
:1006800000280240F948006840F00100F74908607E
:100690000020F64908310860F4480068F449084031
:1006A000F2490860F348091D0860F348EF498431B6
:1006B0000860F0481038091D0860EC48006820F414
:1006C0008020EA4908600020E8490C310860E749C9
:1006D0008C31086070470021E44A921C1170114669
:1006E0000870704710B501460022002300204A110F
:1006F000012A02D1DD4C236808E0022A03D1DB4C39
:100700007034236802E0D94C7434236801F01F026E
:10071000012494401C400CB1012000E0002010BDD9
:1007200038B5002000900024002500BF3120FFF7DD
:10073000D9FF05460098401C00900098B0F5A04FE6
:1007400001D0002DF2D03120FFF7CCFF08B10124F9
:1007500000E00024204638BD01460020C34A10684E
:1007600020F0F80040EAC10010607047C3490860FB
:1007700070470021BD4A703211701170012802D0FB
:1007800004280AD104E00121B84A7032117005E052
:100790000521B64A7032117000E000BF00BF7047FB
:1007A000B7490860704770B5049C41EA821501267C
:1007B000C6EB530645EA0645054345EA0465AB4EDC
:1007C000361D356070BDAD4908667047820142EA4A
:1007D0000172A64B84331A607047A8498866704737
:1007E00010B5830143EA016343EA02739F4C8834E6
:1007F000236010BDA14908677047A049C8647047CD
:1008000002460020994B0833186820F0EC6042EA59
:1008100001031843954B08331860704702460020C7
:10082000924B0833186820F0784042EA01031843DD
:100830008E4B083318607047014600208B4A0832FF
:10084000106820F0030008431060704787480830A4
:10085000006800F00C00704701460020834A08320F
:10086000106820F0F0000843106070470146002037
:100870007E4A0832106820F4E05008431060704748
:1008800001460020794A0832106820F4604040EAAE
:10089000C10010607047F0B500210022002402253D
:1008A00000260223714F08373F6807F00C0121B181
:1008B000042905D0082937D105E0724F076036E0DA
:1008C000714F076033E0694F3F1D3F68C7F38056A3
:1008D000664F3F1D3F6807F03F036EB16A4FB7FB9D
:1008E000F3F7DFF888C10CF1040CDCF800C0CCF39E
:1008F000881C07FB0CF40CE0624FB7FBF3F7DFF842
:100900006CC10CF1040CDCF800C0CCF3881C07FBB4
:100910000CF4564F3F1D3F68C7F301477F1C7D0015
:10092000B4FBF5F7076002E0564F076000BF00BF59
:100930004E4F08373F6807F0F0010909534F7A5CC2
:100940000768D7404760494F08373F6807F4E051D0
:10095000890A4E4F7A5C4768D7408760434F083713
:100960003F6807F46041490B484F7A5C4768D740BD
:10097000C760F0BD002100F44072B2F5407F0AD19B
:100980003A4A0832116821F4F811414A02401143F1
:10099000364A08321160354A70321268C0F30B03D0
:1009A0001A43324B70331A60704735494439086036
:1009B00070473349403908607047364908607047CE
:1009C00001460020294A8C32106820F44010084368
:1009D0001060704701460020244A8C32106820F4D1
:1009E0004000084310607047014600201F4A8C32C7
:1009F000106820F01F004A1E10431C4A8C32106001
:100A0000704701460020194A8C32106820F4F850D3
:100A10004A1E40EA0220154A8C3210607047014697
:100A20000020124A8C32106820F4403008431060D5
:100A3000704719490860704739B10C4A3032126862
:100A400002430A4B30331A6006E0084A303212681B
:100A50008243064B30331A607047F9B1034A34328F
:100A600012680243014B34331A601CE00038024024
:100A7000FFFFF6EA1030002400300020000047425B
:100A8000800E47420024F40000127A001400002077
:100A9000FFFCFF0F5C014742E01147428F4A12689A
:100AA00082438E4B1A60704739B18C4A121D12680E
:100AB00002438A4B1B1D1A6006E0884A121D126809
:100AC0008243864B1B1D1A60704739B1834A0C3232
:100AD00012680243814B0C331A6006E07F4A0C32E5
:100AE000126882437D4B0C331A60704739B17B4AE0
:100AF000103212680243794B10331A6006E0774ACD
:100B0000103212688243754B10331A60704739B146
:100B1000724A243A12680243704B243B1A6006E082
:100B20006E4A243A126882436C4B243B1A60704729
:100B300039B16A4A203A12680243684B203B1A6076
:100B400006E0664A203A12688243644B203B1A60F2
:100B5000704739B1614A1C3A126802435F4B1C3B33
:100B60001A6006E05D4A1C3A126882435B4B1C3BEC
:100B70001A60704739B1594A143A12680243574B08
:100B8000143B1A6006E0554A143A12688243534BEC
:100B9000143B1A60704739B1504A103A1268024348
:100BA0004E4B103B1A6006E04C4A103A12688243E2
:100BB0004A4B103B1A60704739B1484A1C321268E0
:100BC0000243464B1C331A6006E0444A1C3212684A
:100BD0008243424B1C331A60704739B13F4A20327E
:100BE000126802433D4B20331A6006E03B4A203234
:100BF00012688243394B20331A60704739B1374A43
:100C0000243212680243354B24331A6006E0334A1B
:100C1000243212688243314B24331A60704739B151
:100C20002E4A2C32126802432C4B2C331A6006E0F9
:100C30002A4A2C3212688243284B2C331A607047A0
:100C400039B1264A303212680243244B30331A60DD
:100C500006E0224A303212688243204B30331A6059
:100C60007047012808D11D493C31096841F008014D
:100C70001A4A3C32116007E018493C31096821F0FA
:100C80000801164A3C321160704739B1134A273ABD
:100C900012780243114B273B1A7006E00F4A273A9D
:100CA000127882430D4B273B1A7070470B48403037
:100CB000006840F080700949403108607047014683
:100CC0000020064A283A12680A400AB1012000E0D2
:100CD00000207047014926390870704734380240B7
:100CE00010B50446FA48844208D101211020FFF7CC
:100CF00052FF00211020FFF74EFF57E0F5488442D5
:100D000009D101214804FFF735FF00214FF40030DD
:100D1000FFF730FF4AE0F048844209D101218804FE
:100D2000FFF728FF00214FF48020FFF723FF3DE06D
:100D3000EA48844209D10121C804FFF71BFF0021C2
:100D40004FF40020FFF716FF30E0E548844209D158
:100D500001210805FFF70EFF00214FF48010FFF777
:100D600009FF23E0DF48844208D101212020FFF75A
:100D700012FF00212020FFF70EFF17E0DA4884421F
:100D800009D101218807FFF7F5FE00214FF08040CF
:100D9000FFF7F0FE0AE0D548844207D10121400563
:100DA000FFF7E8FE00216005FFF7E4FE10BD2DE926
:100DB000FF4705460E460024A14600BFA046B08965
:100DC00000B100BF2C8A24F44054F08804432C82E4
:100DD000AC8941F20C608443B08831890843718941
:100DE00008430443AC81AC8A24F44074B0890443C2
:100DF000AC826846FFF74FFDB548854202D0B9483E
:100E0000854202D1DDF80C9001E0DDF80890A88958
:100E100000F4004040B109EBC90000EB0910316853
:100E20004900B0FBF1F707E009EBC90000EB09103E
:100E300031688900B0FBF1F76420B7FBF0F00401E2
:100E40002009642101FB1078A88900F4004040B11A
:100E5000322000EBC800B0FBF1F000F007000443C3
:100E600008E0322000EB08106421B0FBF1F000F044
:100E70000F0004432C81BDE8FF874FF41651016039
:100E800000218180C18001810C214181002181816B
:100E9000704710B502460020108A20F470600B885D
:100EA0004C8823438C882343CC88234318431082E7
:100EB00010BD0021018041808180C180704721B137
:100EC000828942F40052828104E082894DF6FF73E8
:100ED0001A4082817047028B02F47F420283028BA8
:100EE0000A430283704721B1828942F40042828121
:100EF00003E08289C2F30E028281704721B1828AA7
:100F000042F40062828204E0828A4FF2FF731A4048
:100F100082827047C1F30802828070470146888848
:100F2000C0F308007047028A4FF6F0731A4002823D
:100F3000028A0A430282704721B1828942F002028A
:100F4000828104E082894FF6FD731A4082817047E6
:100F500082894FF2FF731A40828182890A4382811B
:100F60007047028A4FF6DF731A400282028A0A43F0
:100F70000282704721B1028A42F48042028204E078
:100F8000028A4BF6FF731A4002827047818941F052
:100F900001018181704721B1828A42F00802828278
:100FA00004E0828A4FF6F7731A4082827047028B00
:100FB000D2B20283028B42EA01220283704721B13E
:100FC000828A42F02002828204E0828A4FF6DF7336
:100FD0001A408282704721B1828A42F010028282D6
:100FE00004E0828A4FF6EF731A4082827047828A49
:100FF0004FF6FB731A408282828A0A4382827047CC
:1010000021B1828A42F00202828204E0828A4FF693
:10101000FD731A40828270471AB1838A0B43838220
:1010200002E0838A8B4383827047F0B50346002435
:1010300000260025002040F66A17B94200D100BF03
:101040001846C1F3421401F01F06012707FA06F5FE
:10105000012C01D10C3004E0022C01D1103000E051
:1010600014301AB107682F43076002E00768AF43E6
:101070000760F0BD02460020B1F5007F00D100BF3F
:1010800013880B400BB1012000E00020704701F4F1
:101090000072B2F5007F00D100BFCA4302807047E2
:1010A00070B50246002400230025002040F66A1691
:1010B000B14200D100BFC1F3421501F01F03012668
:1010C00006FA03F3012D13D19689334017E000008F
:1010D000001001400044004000480040004C004027
:1010E000005000400014014000780040007C0040A7
:1010F000022D02D1168A334001E0968A33400C1249
:10110000012606FA04F41688344013B10CB101200C
:1011100000E0002070BD10B50022002340F66A14E4
:10112000A14200D100BF0A1201249440A3B2DC43C3
:10113000048010BD016821F00101016000210160FF
:1011400041608160C160016121214161DB498842C8
:1011500004D13D21D94A103A91608CE0D749183129
:10116000884205D14FF47461D44A103A916082E00C
:10117000D2493031884205D14FF47411CF4A103A28
:10118000916078E0CD494831884205D14FF07461D3
:10119000CA4A103A91606EE0C8496031884204D171
:1011A000C749C64A103AD16065E0C44978318842DF
:1011B00004D1C449C14A103AD1605CE0BF499031C2
:1011C000884204D1C049BD4A103AD16053E0BB49BE
:1011D000A831884205D14FF03D51B84A103AD1604C
:1011E00049E0BA49884204D13D21B84A083A116021
:1011F00041E0B6491831884205D14FF47461B34AD1
:10120000083A116037E0B1493031884205D14FF4D6
:101210007411AE4A083A11602DE0AC494831884259
:1012200005D14FF07461A94A083A116023E0A7493B
:101230006031884204D1A249A44A121F11601AE009
:10124000A2497831884204D19E49A04A121F1160F8
:1012500011E09E499031884204D19B499B4A121F5C
:10126000116008E09949A831884204D14FF03D51FE
:10127000964A121F1160704710B500220268944B05
:101280001A40CC680B6823434C6923438C69234381
:10129000CC6923430C6A23434C6A23438C6A23435F
:1012A0004C6B23438C6B23431A430260426922F048
:1012B0000702D1E90B3423431A4342610B694360AF
:1012C0004B6883608B68C36010BD00210160416082
:1012D0008160C160016141618161C16101624162FE
:1012E0008162C162016341638163704721B1026819
:1012F00042F00102026003E0026822F00102026093
:10130000704721B1026842F40042026003E00268C3
:1013100022F400420260704721B1026842F02002CC
:10132000026003E0026822F0200202607047416020
:1013300070470146486880B2704722B1036843F4A1
:101340000023036003E0036823F4002303600161CA
:10135000704721B1026842F48022026003E0026813
:1013600022F48022026070470AB1016100E0C1608E
:101370007047014600200A6802F400220AB10120E9
:1013800000E000207047014600200A6802F00102D8
:101390000AB1012000E000207047014600204A69A0
:1013A00002F03800704730B503460A46002000249A
:1013B000464DAB4202D24149103901E04349103950
:1013C00002F000550DB14C6800E00C68414D2C4016
:1013D00004EA02050DB1012000E0002030BD024604
:1013E0003A4B9A4202D23548103801E0374810385B
:1013F00001F000531BB1374B0B40C36002E0354B8B
:101400000B408360704710B501F080034BB122B1EF
:10141000436943F08003436103E0436923F08003A1
:10142000436180290BD02AB1036801F01E042343D5
:10143000036004E0036801F01E04A343036010BDD1
:1014400070B50246002000240025204EB24202D290
:101450001A4B103B01E01D4B103B1F4E0E4036B1A6
:101460001E2606EAD124166806EA040502E056693B
:1014700006F0800501F000560EB15C6800E01C68C3
:10148000144E344004EA010616B10DB1012000E00B
:10149000002070BD02460D4B9A4202D20748103818
:1014A00001E00A48103801F000531BB1094B0B4012
:1014B000C36002E0074B0B4083607047106002403E
:1014C0003D000020400F002000003D20106402403D
:1014D0003F801CF07D0F7D0F3C0F3C0F00B587B0A7
:1014E00001210846FFF7A8FA01211020FFF7FEFAB4
:1014F000072209215E48FFF78CF807220A215C4881
:10150000FFF787F800208DF81A0001208DF81B00E6
:1015100002208DF818000002059002208DF81900B5
:1015200005A95348FEF7EAFF02208DF81800400293
:10153000059005A94E48FEF7E1FF4FF4E130019018
:101540000020ADF80800ADF80A00ADF80C00ADF8C9
:1015500010000C20ADF80E0001A94648FFF727FC4B
:1015600001214448FFF7ABFC40214248FFF78FFDC3
:1015700007B000BD70B504460D46E1B23D48FFF727
:10158000C9FC00BF40213B48FFF774FD0028F9D09B
:10159000204670BD10B5044600BF20213548FFF736
:1015A00069FD0028F9D03348FFF7B8FC10BD70B5CD
:1015B00090B005460E464FF47A70009000212E48F8
:1015C000FFF794FE00BF2C48FFF7DDFE0028FAD19C
:1015D000059604200C9003200D9000200E90099099
:1015E0004FF48060079000200A902248001D02906E
:1015F00000200F90089006904FF400300B9080026E
:10160000019040200490039501A91B48FFF734FE88
:1016100001211948FFF76AFE4FF47A70009000BF6D
:101620001548FFF7B0FE012804D0009C601E009012
:10163000002CF5D100BF10B070BD10B54FF0205197
:101640000D48FFF7B0FE012804D14FF020510A48A1
:10165000FFF720FF10BD0848B838006800F02050A0
:1016600020B14FF020500449B039086070470000A5
:101670000000024000100140B864024030B521482B
:1016800000684FF47A72B0FBF2F1481EB0F1807F2F
:1016900001D301201BE0481E4FF0E022506150179B
:1016A0000F22002807DA13071D0E174B00F00F0456
:1016B000241F1D5503E013071C0E144B1C5400BFC0
:1016C00000204FF0E022906107201061002008B157
:1016D00000BFFEE730BD0E48006820B10C4800682E
:1016E000401E0B49086070470949086000BF08495F
:1016F00009680029FBD1704700B502461046FFF784
:10170000F3FF00BD0000002018ED00E000E400E061
:1017100024000020BCB0E822244902A800F068F8A8
:10172000FFF7ACFFFFF7DAFE012280212048FFF728
:1017300073FC042102A8FFF73AFF00BF4FF02051CD
:101740001C48FFF730FE0028F8D04FF02051194810
:10175000FFF745FE40211648FFF799FC24E00A20D8
:10176000FFF7C2FF14A000F0C7FA01A913A000F010
:1017700051F89DF80400B8B19DF80400682802D023
:10178000772808D103E00EA000F0B6FA0BE00FA016
:1017900000F0B2FA07E010A000F0AEFA02A913A020
:1017A00000F0AAFA00BF00BFD9E700004C1E0008F5
:1017B00000100140B86402402300000025630000CF
:1017C00068656C6C6F200D0A00000000776F726C0A
:1017D00064200D0A00000000636F6D6D616E64206F
:1017E0006572726F72200D0A000000002573000000
:1017F00040EA01039B0703D009E008C9121F08C093
:10180000042AFAD203E011F8013B00F8013B521E12
:10181000F9D270470FB400B589B00BA800906A46A2
:1018200003480A9900F074F809B05DF814FB000051
:10183000280000202DE9FF5FD2E901A74FF0000842
:10184000916999461446DDF838B0464601988847B4
:10185000054659EA0B0005D009E0A169761C0198FC
:1018600088470546216A284688470028F5D1681C24
:1018700003D05FEACA7005D015E04FF0FF3004B026
:10188000BDE8F09F2068011D2160D0F800800AE0CB
:101890005FEACA7001D108F8015BA169761C7F1E5E
:1018A000019888470546002F1ADD681C18D0B9F149
:1018B000000F0DD0E81705EBD060421120F01F009B
:1018C00059F822102A1A012090400142E0D107E085
:1018D000BBF1000FDCD1216A284688470028D7D009
:1018E000E169019888470AF0010050EA0B0002D133
:1018F000002188F80010A068B84203DDBBF1000F9A
:1019000003D017B16FF00100B9E73046B7E7000028
:10191000024B9361024BD36100F032B89515000879
:1019200065190008064C074D06E0E06840F0010329
:1019300094E8070098471034AC42F6D3FEF728FC31
:10194000341F0008541F0008094910B508784C1CC2
:1019500018B1401E0870205C10BD00210720ABBEEE
:10196000207010BD02490878421C0A7070470000C0
:101970003000002002681144137801601846704757
:10198000D16004495161044911620021116111467D
:1019900000F00AB8751900089D190008C0B24FF48C
:1019A000F05100F095B900002DE9F34F8BB04FF0E6
:1019B000000801F10C000C464FF0010B46460DF1FA
:1019C000080A0190626901210198904705002DD015
:1019D000252D2CD0216A8847C0B162690121019868
:1019E0009047216A88470028F7D1411E6269019813
:1019F000904700E0761CA1690B988847216A8847C8
:101A00000028F7D1E1690B988847DBE7A1690B98BB
:101A100088470746A84201D1761CD3E7E1690B98B5
:101A200088477F1C02D1B8F1000F6FD043E1002737
:101A300062693D463946019890472A2804D1626977
:101A40000121019890470125DFF880926269012108
:101A500001989047A0F130010A290AD24F45E5DCF0
:101A600007EB870100EB4107303FDFD445F010055D
:101A7000ECE7E90601D46FF000476C280AD04C2847
:101A800014D0682815D06A280DD074281CD07A2864
:101A90001AD01DE062690121019890476C2802D09C
:101AA00045F0040514E045F002050DE045F0200581
:101AB0000AE06269012101989047682802D045F048
:101AC000080505E045F40065626901210198904729
:101AD000C4E9015765283DD019DC582877D00CDCC3
:101AE000452837D004DC252826D0412831D131E0E3
:101AF00046282FD047282CD12CE05B287DD06128A8
:101B000028D0632879D0642823D157E0CDE06F280E
:101B100045D008DC66281DD067281BD0692821D055
:101B20006E2816D127E0702842D0732865D075281A
:101B300044D078280DD14AE0A1690B988847054622
:101B400025283FF469AFE1690B9888476D1C3FF485
:101B50006AAFB0E023466A466FF001000B99AFF31D
:101B600000809BE045F040006060A80723464FF0EE
:101B7000000233D43BE02068011D21600068290584
:101B800001D506701EE7290701D506801AE7A907C7
:101B900003D5F117C0E9006114E7066012E745F0CC
:101BA00040006060A80723464FF0080216D41EE0EC
:101BB00040F60E0125EA0100606016E045F04000A5
:101BC0006060A80723464FF00A0207D40FE045F0F3
:101BD00040006060A80708D5234610226FF001007E
:101BE0000B99AFF3008059E007E0234610226FF015
:101BF00001000B99AFF3008050E04FF000094F4611
:101C00004B46632802D05B2806D040E0E80601D4AA
:101C10000120A06001273AE0626901210198904704
:101C20005E2805D14FF00109626949460198904745
:101C3000216939B900210B46524642F82130491C2E
:101C40000829FADBB0B3216969B9C11700EBD1618A
:101C50004B110AEB830221F01F01411A0120136886
:101C600088400343136062690121019890475D2811
:101C7000E8D1B9F1000F09D00020514651F82020D9
:101C8000D24341F82020401C0828F7DB02AB224653
:101C900000976FF001000B99FFF7CCFD00280CDADC
:101CA000401C08D1BBF1000F05D04FF0FF300DB044
:101CB000BDE8F08FFFE74046F9E7E90701D108F1F9
:101CC000010806444FF0000B7CE60000CCCCCC0CA5
:101CD0007F2801D9002208E0064A02EB5002C00723
:101CE000127800D1120902F00F0201209040084042
:101CF000704700000C1E00080FB4054B10B503A977
:101D0000044A029800F017F810BC5DF814FB0000BC
:101D1000751500082C00002002E008C8121F08C139
:101D2000002AFAD170477047002001E001C1121F5C
:101D3000002AFBD170472DE9F84F99469246884614
:101D40000546002706E025280AD051464A46904716
:101D50006D1C7F1C28780028F5D13846BDE8F88F27
:101D6000002315F8011F18462E2915D115F8011F5B
:101D700004232A290DD06FF02F022978A1F1300415
:101D8000092C09D800EB800002EB400008446D1CD0
:101D9000F3E758F8040B6D1C2A78002ADDD0632A7B
:101DA00007D0732A0FD0104651464A4690477F1CF1
:101DB0002AE018F8042B8DF8002000218DF801107E
:101DC0006E46012103E058F8046B4FF0FF315A07CB
:101DD0004FF0000401D409E0641C84420BDA8C4209
:101DE000FADB325D002AF7D105E0641C8C42FCDB93
:101DF000305D0028F9D1274404E016F8010B514664
:101E00004A469047641EF8D26D1CA3E7DDDDDDDD98
:101E1000DCBBBBDDDDDDDDDDDDDDDDDD988888887B
:101E20008888888877777777778888888555555622
:101E30006666666666666666666888888333333279
:101E400022222222222222222228888D202D2D2D7C
:101E50002D2D2D2D2D2D2D2D2D2D2D2D2D2D2D2DB2
:101E60002D2D2D2D2D2D2D2D2D2D2D0D0A207C20B0
:101E70002020202020202020202020202020202062
:101E800020202020202020202020207C0D0A207CC3
:101E900020202020202068656C6C6F776F726C6446
:101EA000202E76312E302020202020207C0D0A206C
:101EB0007C20202020202027682720202D2D3E2038
:101EC0002768656C6C6F272020202020207C0D0A5D
:101ED000207C20202020202027772720202D2D3E09
:101EE0002027776F726C64272020202020207C0D13
:101EF0000A207C202020202020202020202020209C
:101F00002020202020202020202020202020207C75
:101F10000D0A202D2D2D2D2D2D2D2D2D2D2D2D2D41
:101F20002D2D2D2D2D2D2D2D2D2D2D2D2D2D2D2DE1
:101F30002D0D0A00541F000800000020340000008E
:101F4000181D0008881F0008340000200404000049
:101F5000281D0008007A030A0000000000000000AD
:101F6000010203040607080900000000010203043F
:101F70000102030406070809000000000000000039
:081F8000000000000000000059
:040000050800018965
:00000001FF
