:020000040800F2
:10000000304000209D010008070A0008FF09000891
:10001000030A000887020008CD0D00080000000058
:10002000000000000000000000000000350B000888
:100030006107000800000000090A0008250C0008FC
:10004000B7010008B7010008B7010008B7010008B0
:10005000B7010008B7010008B7010008B7010008A0
:10006000630700087F070008A3070008B70100081E
:10007000B7010008B7010008B7010008B701000880
:10008000B7010008B7010008B7010008B701000870
:10009000B7010008B7010008B7010008C70700084A
:1000A000B7010008B7010008B7010008B701000850
:1000B000B7010008B7010008B7010008B701000840
:1000C000B7010008B7010008B7010008B701000830
:1000D000B7010008B7010008B7010008B701000820
:1000E000B7010008B7010008B7010008B701000810
:1000F000B7010008B7010008B7010008B701000800
:10010000B7010008B7010008B7010008B7010008EF
:10011000B7010008B7010008B7010008B7010008DF
:10012000B7010008B7010008B7010008B7010008CF
:10013000B7010008B7010008B7010008B7010008BF
:10014000B7010008B7010008B7010008B7010008AF
:10015000B7010008B7010008B7010008B70100089F
:10016000B7010008B7010008B7010008B70100088F
:10017000B7010008B7010008B7010008B70100087F
:10018000B7010008B7010008DFF80CD000F04AF80A
:10019000004800474D1300083040002006488047C3
:1001A00006480047FEE7FEE7FEE7FEE7FEE7FEE75C
:1001B000FEE7FEE7FEE7FEE72D0C000889010008D8
:1001C0002DE9F05F0546002092469B46884606468C
:1001D000814640241BE0284641464746224600F01F
:1001E00042F853465A46C01A914110D31146184658
:1001F000224600F029F82D1A67EB01084F462246E7
:100200000120002100F020F817EB00094E41201ECC
:10021000A4F10104DFDC484631462A464346BDE8E6
:10022000F09F0000064C074D06E0E06840F0010337
:1002300094E8070098471034AC42F6D3FFF7A8FFC4
:1002400098140008B8140008202A04DB203A00FAA9
:1002500002F1002070479140C2F1200320FA03F31D
:10026000194390407047202A04DB203A21FA02F01B
:100270000021704721FA02F3D040C2F120029140E0
:1002800008431946704700BFFEE700002DE9FC4314
:1002900004460D4617461E46DDF824904FF0000830
:1002A00014B10DB107B116B90120BDE8FC83601E81
:1002B000C4B2681EC5B2781EC7B2701E86B25F484F
:1002C000006840F001005D49086001200221002320
:1002D0000A46CDE900104FF4C051594800F01EFB0A
:1002E00009220B21564800F083FA09220C215448B8
:1002F00000F07EFA51481030006840F000704F491D
:100300001031086000204F4908600846006840F03E
:100310000100086008E008F101001FFA80F8B8F158
:10032000640F01DD0220C0E74648001D006800F0B0
:1003300001000028EFD043480068424908600846A1
:10034000006808600846006808600846006840F0D9
:1003500010000860084600680860084600680860E9
:10036000002038491C3108600846006840EA89705E
:1003700008600846006840EA0460086008460068B3
:1003800040EA055008600846006840EA07400860F7
:1003900008460068304308602A48006820F00100E1
:1003A0002849086009E008F101001FFA80F84FF6BB
:1003B000F070804501DD032077E72248001D0068CA
:1003C00000F001000028EED11F48006840F0010055
:1003D0001D4908601C481C30006820F001001A49C3
:1003E0001C31086018480C30006840F001001649C4
:1003F0000C3108601448001D00681349091D08608D
:1004000011481430006810491431086000200E496A
:100410004031086000210C48443001600A481C301B
:10042000006840F0010008491C3108600648006877
:1004300000200549086000BF37E70000303802405F
:10044000000002400064004000660040014621B9FF
:100450000748006800F003007047012905D10448EF
:10046000001D006800F00300F6E70020F4E700003C
:100470000C64004010B586B004460020FFF7E6FF8C
:1004800010B9002006B010BD02A803AB04AA05A94C
:10049000CDE90004002000F00FF80598122805D1DE
:1004A0009DF8100010B99DF80C0008B100200290D2
:1004B0009DF80800E6E70000F0B5DDE90554324E8E
:1004C00006EB0016366806F004061670167836B984
:1004D0002D4E06EB00163668760D0E6005E02A4EAE
:1004E00006EB00163668F6080E60274E06EB00167F
:1004F000366806F002061E70234E06EB001676687C
:1005000006F00F062E70204E06EB0016B668267019
:100510001D4E06EB0016B668360A66701A4E06EBDC
:100520000016B668360CA670174E06EB0016B668B5
:10053000360EE670144E06EB0016F6682671124E63
:1005400006EB0016F668360A66710F4E06EB0016CB
:10055000F668360CA6710C4E06EB0016F668360EE1
:10056000E67130B9094E366846F02006074F3E6006
:1005700009E0012807D1054E361D366846F02006F1
:10058000024F3F1D3E60F0BDB06500400C6400406E
:10059000F8B505460E4600243346002211461220C7
:1005A000009500F015F8074601E0601C84B238465B
:1005B00000F094F8072803D040F6FF708442F4DB83
:1005C00040F6FF70844201DB0120F8BD0020FCE70B
:1005D000F0B505460E46059C3E48006800F0806078
:1005E00008B100210FE03B48006800F0006008B14E
:1005F000012108E03748006800F0805008B102216E
:1006000001E0FF20F0BD0027334800EB0110076038
:100610001EB9C5F30A056D0502E025F06045ED0041
:100620002D4800EB0110006828432B4F07EB011702
:100630003860294800EB0110006840EA8607264828
:1006400000EB01100760244800EB0110006840EA4D
:100650004207214800EB0110076003F00F031E481A
:1006600000EB0110406820F00F071B4800EB011061
:100670004760194800EB011040681843164F07EB1C
:1006800001177860E0790006A77940EA07406779AA
:1006900040EA0727207907430F4800EB0110C760A5
:1006A000E0780006A77840EA0740677840EA07202C
:1006B00027783843084F07EB0117B860064800EB6E
:1006C0000110006840F00107034800EB01100760CB
:1006D000084697E708640040806500400146002016
:1006E00021B1012913D0022933D121E01B4A12681C
:1006F00002F001021043194A126802F0020210438C
:10070000164A126802F0806240EA126023E0134A3F
:10071000126802F001021043104A126802F002024D
:1007200010430E4A126802F0006240EA526012E082
:100730000A4A126802F001021043084A126802F0E5
:1007400002021043054A126802F0805240EA9260A9
:1007500001E0052000BF00BF7047000008640040B2
:10076000704710B50A2000F091FE00F0AFFC02289F
:1007700001D100F0D7FD042000F034F810BD10B511
:100780000A2000F083FE00F0A1FC042805D101201E
:1007900000F0C8FD022000F0C5FD082000F022F89E
:1007A00010BD10B50A2000F071FE00F08FFC082883
:1007B00005D1012000F0A2FD022000F09FFD1020D5
:1007C00000F010F810BD10B50A2000F05FFE00F038
:1007D0007DFC012801D100F0A5FD402000F002F8C9
:1007E00010BD00000149086070470000143C014042
:1007F00030B5CC1000F1200353F824304C07E50E3F
:100800000F24AC40A343CD1000F1200444F8253060
:10081000CC1000F1200353F824304C07E40E02FA08
:1008200004F42343CD1000F1200444F8253030BDFA
:10083000F0B50A4600210023002400BF3DE0012559
:1008400005FA01F3156805EA03049C4234D10568F2
:100850004F000326BE40B543056015794E00B540F4
:100860000668354305601579012D02D01579022DF2
:1008700016D185684F000326BE40B5438560557983
:100880004E00B540866835438560456801268E4038
:10089000B5434560456896798E40B6B235434560AC
:1008A000C5684F000326BE40B543C560D5794E00EC
:1008B000B540C6683543C560491C1029BFD3F0BD9B
:1008C000F0B5002300244D07ED0E02FA05F3CE101B
:1008D00000F1200555F826504E07F70E0F26BE40B2
:1008E000B543CF1000F1200646F82750CE1000F196
:1008F000200555F8265045EA0304CE1000F12005E6
:1009000045F82640F0BD0246002013690B400BB1AC
:10091000012000E000207047418370472DE9F04737
:100920000C46DDE90867002100258C4600BF60E029
:100930004FF0010808FA01F504EA050CAC4557D15F
:10094000D0F800804FEA410A4FF0030909FA0AF98A
:1009500028EA0908C0F80080D0F800804FEA410971
:1009600002FA09F948EA0908C0F80080012A01D012
:10097000022A27D1D0F808804FEA410A4FF0030934
:1009800009FA0AF928EA0908C0F80880D0F80880AE
:100990004FEA410906FA09F948EA0908C0F808804F
:1009A000D0F804904FF0010808FA01F829EA080984
:1009B000C0F80490D0F8048003FA01F948EA090865
:1009C000C0F80480D0F80C804FEA410A4FF00309C8
:1009D00009FA0AF928EA0908C0F80C80D0F80C8056
:1009E0004FEA410907FA09F948EA0908C0F80C80FA
:1009F000491C10299CD3BDE8F0870183704700BFD4
:100A0000FEE700BFFEE770477047000029B1064AC5
:100A100012680243044B1A6004E0034A12688243DE
:100A2000014B1A60704700003038024029B1064A75
:100A300012680243044B1A6004E0034A12688243BE
:100A4000014B1A607047000044380240F0B50021A5
:100A500000220024022500260223324F3F6807F0BF
:100A60000C0121B1042905D0082937D105E02E4F0A
:100A7000076036E02D4F076033E02A4F3F1F3F6885
:100A8000C7F38056274F3F1F3F6807F03F036EB103
:100A9000264FB7FBF3F7DFF88CC0ACF1040CDCF8A1
:100AA00000C0CCF3881C07FB0CF40CE01E4FB7FB16
:100AB000F3F7DFF870C0ACF1040CDCF800C0CCF345
:100AC000881C07FB0CF4174F3F1F3F68C7F3014713
:100AD0007F1C7D00B4FBF5F7076002E0124F076052
:100AE00000BF00BF0F4F3F6807F0F0010909104F2A
:100AF0007A5C0768D74047600A4F3F6807F4E051C7
:100B0000890A0B4F7A5C4768D7408760054F3F687A
:100B100007F46041490B064F7A5C4768D740C760CD
:100B2000F0BD0000083802400024F40000127A00F2
:100B300014000020704700000CB5002001900090C8
:100B40003448006840F480303249086000BF3148C2
:100B5000006800F4003000900198401C019000985B
:100B600018B90198B0F5A04FF1D12A48006800F4F7
:100B7000003010B10120009001E0002000900098AA
:100B8000012846D123484030006840F08050214978
:100B9000403108602048006840F440401E49086029
:100BA0001C48083000681B49083108600846006886
:100BB00040F4004008600846006840F4A050086017
:100BC0001648091F0860081F006840F08070091F60
:100BD000086000BF0F48006800F000700028F9D0DE
:100BE00040F205700E4908600A480830006820F09D
:100BF00003000849083108600846006840F0020018
:100C0000086000BF03480830006800F00C000828A6
:100C1000F8D10CBD00380240007000400854400775
:100C2000003C024010B500F035F810BD10B5154875
:100C3000006840F47000134908601348006840F0F1
:100C400001001149086000200F49083108600E4872
:100C500000680E4908400C4908600D48091D0860ED
:100C6000081F006820F48020091F08600020064942
:100C70000C310860FFF760FF4FF0006001498039D8
:100C8000086010BD88ED00E000380240FFFFF6FE6E
:100C9000103000240448006820B103480068401E5A
:100CA00001490860704700002400002001F4007230
:100CB000B2F5007F00D100BFCA430280704721B166
:100CC000828942F40052828104E082894DF6FF73EA
:100CD0001A408281704702460020B1F5007F00D1A2
:100CE00000BF13880B400BB1012000E000207047CB
:100CF0002DE9FF4705460E460024A14600BFA04649
:100D0000B08900B100BF2C8A24F44054F088044319
:100D10002C82AC8941F20C608443B088318908434D
:100D2000718908430443AC81AC8A24F44074B089CF
:100D30000443AC826846FFF789FE2048854202D012
:100D40001F48854202D1DDF80C9001E0DDF80890E3
:100D5000A88900F4004040B109EBC90000EB09107C
:100D600031684900B0FBF1F707E009EBC90000EB7F
:100D7000091031688900B0FBF1F76420B7FBF0F08F
:100D800004012009642101FB1078A88900F40040C7
:100D900040B1322000EBC800B0FBF1F000F00700DA
:100DA000044308E0322000EB08106421B0FBF1F0AE
:100DB00000F00F0004432C81BDE8FF8700100140C4
:100DC00000140140C1F308028280704700BFFEE7B3
:100DD0000FB4054B10B503A9044A029800F018F8A7
:100DE00010BC5DF814FB0000291100082800002049
:100DF00002E008C8121F08C1002AFAD170477047E4
:100E0000002001E001C1121F002AFBD17047000041
:100E10002DE9FF4F8DB09B460F460446002606E0A5
:100E200025280BD05A460F999047641C761C2078D1
:100E30000028F5D111B03046BDE8F08F0025A84656
:100E40000122974900E0054314F8013F203B02FAD4
:100E500003F00842F7D120782E2817D114F8010F9B
:100E600045F004052A280ED06FF02F022078A0F15B
:100E7000300109290AD808EB880102EB410100EB97
:100E80000108641CF2E757F8048B641C20786C2876
:100E90000DD004DC4C2812D06A2811D104E074284B
:100EA0000DD07A280CD10AE045F4001507E06178EE
:100EB00045F48015814202D1641C05F58015641C3F
:100EC0002278692A45D008DC002AB3D0582A67D096
:100ED000632A10D0642A08D13BE0702A65D0732AB7
:100EE00013D0752A5AD0782A5AD010465A460F99EC
:100EF0009047761CD1E017F8040B8DF80000002015
:100F00008DF80100E946012003E057F8049B4FF0FB
:100F1000FF3069074FF0000501D40AE06D1C45451C
:100F20000DDA8542FADB19F805100029F6D106E042
:100F30006D1C8542FCDB19F805100029F8D12E4400
:100F400004E019F8010B5A460F9990476D1EF8D22C
:100F5000A3E00A200021CDE90801C5F302500228D0
:100F60000BD001CFC11700290DDA4FF0000CD0EBE8
:100F70000C006CEB01012D2308E0FF1D27F0070793
:100F8000F7E80201EFE72B0504D52B238DF8283075
:100F900001233BE0EB0739D02023F7E70A2000E0EC
:100FA00010200021CDE9080107E01020002145F0C4
:100FB0000405CDE908014FF00808C5F302500228E6
:100FC0000FD001CF00214FF0000A2B071FD5702A48
:100FD0000DD0DDE908C38CF0100C5CEA030C0CD0DA
:100FE00015E0FF1D27F00707F7E80201EBE74022B5
:100FF0008DF828204FF0010A0BE050EA010306D0DB
:1010000030238DF828308DF8292002239A46582A5B
:1010100004D024A20DF120090B9209E026A2F9E7E1
:10102000DDE90823FFF7CCF80B9B9B5C09F8013D39
:1010300050EA0102F4D1ADEB0900203008906807B6
:1010400001D44FF001080899884502DDA8EB0100A2
:1010500000E000208046002506E00AA85A46405DD0
:101060000F9990476D1C761C5545F6DB04E0302047
:101070005A460F999047761CB8F10001A8F1010873
:10108000F5DC05E019F8010B5A460F999047761CDC
:101090000899481E08900029F4DC641CC7E600008B
:1010A000092801003031323334353637383961623E
:1010B0006364656600000000303132333435363702
:1010C00038394142434445460000000070B50024D1
:1010D00010210C48FFF717FCC50008210948FFF74D
:1010E00012FC45EA800504210648FFF70CFC45EA9E
:1010F000400540210448FFF706FC45EA00040F20A4
:10110000A04370BD00100240000C02404FF47A7101
:101110004143044A116000BF024909680029FBD11C
:10112000704700002400002070B504460D46E1B26F
:101130000548FFF747FE00BF40210348FFF7CBFDFE
:101140000028F9D0204670BD001001401CB50121D7
:101150000820FFF75BFC01211020FFF757FC40201F
:10116000009000208DF8040001208DF80700032076
:101170008DF8050069460548FFF75AFB1C200090D2
:1011800069460348FFF754FB1CBD0000000C0240F9
:101190000010024030B515480068154AB0FBF2F166
:1011A000481EB0F1807F01D301201BE0481E4FF0A4
:1011B000E022506150170F22002807DA13071D0E96
:1011C0000C4B00F00F04241F1D5503E013071C0EE9
:1011D000094B1C5400BF00204FF0E0229061072013
:1011E0001061002008B100BFFEE730BD0000002004
:1011F00040420F0018ED00E000E400E01CB50121C2
:101200000846FFF703FC01210220FFF7FFFB4FF424
:101210008070009001208DF8040000208DF80600F9
:1012200001208DF8070003208DF805006946094864
:10123000FFF7FEFA69460848FFF7FAFA4FF48071A3
:101240000448FFF7DAFB4FF480710348FFF7D5FB42
:101250001CBD0000000002400004024000B587B041
:1012600001210846FFF7D2FB01211020FFF7DEFB2A
:10127000072209211F48FFF723FB07220A211D48E7
:10128000FFF71EFB00208DF81A0001208DF81B00CF
:1012900002208DF818000002059002208DF8190038
:1012A00005A91448FFF7C4FA02208DF8180040027F
:1012B000059005A90F48FFF7BBFA4FF4E130019004
:1012C0000020ADF80800ADF80A00ADF80C00ADF84C
:1012D00010000C20ADF80E0001A90748FFF708FD2B
:1012E00001210548FFF7EBFC40210348FFF7DEFC36
:1012F00007B000BD000002400010014010B50446D8
:10130000012C03D101020548FFF777FB022C03D122
:10131000E1010348FFF771FB10BD0000000002402F
:101320000004024010B50446012C03D10102054817
:10133000FFF7F2FA022C03D1E1010348FFF7ECFAC0
:1013400010BD000000000240000402400EB5002461
:10135000A046A146A2460127FFF71CFFFFF77EFF2C
:10136000FFF74CFFFFF7F2FE012006230722194684
:101370000090FEF78BFF5FE0FFF7A8FEC5B2012DDE
:101380001CD100240AE00AEB040001A9085501A8B9
:10139000015D2AA0FFF71CFD601CC4B2082CF2DB23
:1013A000082101A8FFF7F4F806461EB127A0FFF7B1
:1013B0000FFD19E028A0FFF70BFD15E0022D13D15A
:1013C0000FB9012000E00020074606230722194636
:1013D00001200097FEF75AFF1FB921A0FFF7F8FC84
:1013E00002E023A0FFF7F4FC01A8FFF743F805464D
:1013F00055B1002406E001A8015D21A0FFF7E8FC3B
:10140000601CC4B2AC42F6DB08F1010000F0FF083A
:101410000A20FFF77BFEB8F1140F0DD189F0010906
:10142000B9F1000F02D00120FFF77CFF4FF0000858
:101430000AF1010000F0FF0A9EE7000073656E7478
:10144000446174613A307825780000004661696C27
:1014500065640D0A000000004F4B0D0A00000000FB
:101460004E6E6F726D616C204D6F6465200D0A00C9
:101470004C6F6F704261636B204D6F64650D0A00A5
:10148000726576203A25640D0A00000000B5034617
:101490001846FFF73BFE00BDB8140008000000200E
:1014A0002C000000F00D0008E41400082C000020BF
:1014B00004400000000E0008007A030A000000004B
:1014C00000000000010203040607080900000000F4
:1014D00001020304010203040607080900000000DA
:0414E0000000000008
:040000050800018965
:00000001FF
