:020000040800F2
:10000000504000209D010008A5010008A70100083C
:10001000A9010008AB010008AD01000800000000C4
:10002000000000000000000000000000AF01000818
:10003000B101000800000000B3010008B50100088C
:10004000B7010008B7010008B7010008B7010008B0
:10005000B7010008B7010008B7010008B7010008A0
:10006000B7010008B7010008B7010008B701000890
:10007000B7010008B7010008B7010008B701000880
:10008000B7010008B7010008B7010008B701000870
:10009000B7010008B7010008B7010008B701000860
:1000A000B7010008B7010008B7010008B701000850
:1000B000B7010008B7010008B7010008B701000840
:1000C000B7010008B7010008B7010008B701000830
:1000D000B7010008B7010008B7010008B701000820
:1000E000B7010008B7010008B7010008B701000810
:1000F000B7010008B7010008B7010008B701000800
:10010000B7010008B7010008B7010008B7010008EF
:10011000B7010008B7010008B7010008B7010008DF
:10012000B7010008B7010008B7010008B7010008CF
:10013000B7010008B7010008B7010008B7010008BF
:10014000B7010008B7010008B7010008B7010008AF
:10015000B7010008B7010008B7010008B70100089F
:10016000B7010008B7010008B7010008B70100088F
:10017000B7010008B7010008B7010008B70100087F
:10018000B7010008B7010008DFF80CD002F026F82C
:1001900000480047C91E000850400020064880471C
:1001A00006480047FEE7FEE7FEE7FEE7FEE7FEE75C
:1001B000FEE7FEE7FEE7FEE79D0200088901000872
:1001C0000CB50020019000907648006840F4803023
:1001D0007449086000BF7348006800F40030009064
:1001E0000198401C0190009818B90198B0F5A04FF3
:1001F000F1D16C48006800F4003010B1012000908B
:1002000001E0002000900098012846D16548403068
:10021000006840F0805063494031086062480068DF
:1002200040F44040604908605E48083000685D491D
:10023000083108600846006840F40040086008463D
:10024000006840F4A05008605848091F0860081F63
:10025000006840F08070091F086000BF51480068C6
:1002600000F000700028F9D040F205705049086095
:100270004C480830006820F003004A490831086003
:100280000846006840F00200086000BF454808309A
:10029000006800F00C000828F8D10CBD10B54548E6
:1002A000006840F47000434908603E48006840F030
:1002B00001003C49086000203A490831086039488B
:1002C00000683D490840374908603C48091D0860FE
:1002D000081F006820F48020091F086000203149B1
:1002E0000C310860FFF76CFF4FF000603149803936
:1002F000086010BD70B500200022022300240221F6
:10030000284D08352D6805F00C0020B1042806D0D2
:10031000082834D107E02A4D2A4E356033E02A4DB3
:10032000284E35602FE01F4D2D1D2D68C5F38054DC
:100330001C4D2D1D2D6805F03F0154B1224DB5FB1C
:10034000F1F5184E361D3668C6F3881605FB06F221
:1003500009E01B4DB5FBF1F5124E361D3668C6F3AC
:10036000881605FB06F20F4D2D1D2D68C5F30145BE
:100370006D1C6B00B2FBF3F5124E356003E0104DBF
:10038000104E356000BF00BF064D08352D68C5F31F
:1003900003150E4E705D0B4D2D68C540094E35603E
:1003A00070BD000000380240007000400854400753
:1003B000003C024088ED00E0FFFFF6FE1030002414
:1003C0000024F4000000002000127A000400002045
:1003D00010B504469848844208D10121084600F02F
:1003E00086FB0021012000F082FB76E093488442E6
:1003F00008D10121022000F07AFB0021022000F048
:1004000076FB6AE08E48844208D10121042000F086
:100410006EFB0021042000F06AFB5EE08948844204
:1004200008D10121082000F062FB0021082000F023
:100430005EFB52E08448844208D10121102000F084
:1004400056FB0021102000F052FB46E07F4884421A
:1004500008D10121202000F04AFB0021202000F0DB
:1004600046FB3AE07A48844208D10121402000F05E
:100470003EFB0021402000F03AFB2EE0754884420C
:1004800008D10121802000F032FB0021802000F003
:100490002EFB22E07048844208D10121801500F033
:1004A00026FB0021A01500F022FB16E06B488442D9
:1004B00008D10121401500F01AFB0021601500F061
:1004C00016FB0AE06648844207D10121001500F0BE
:1004D0000EFB0021201500F00AFB10BDF0B50A4606
:1004E00000210023002400BF3DE0012505FA01F3AF
:1004F000156805EA03049C4234D105684F000326C1
:10050000BE40B543056015794E00B54006683543D9
:1005100005601579012D02D01579022D16D1856857
:100520004F000326BE40B543856055794E00B54067
:10053000866835438560456801268E40B543456031
:10054000456896798E40B6B235434560C5684F0020
:100550000326BE40B543C560D5794E00B540C66898
:100560003543C560491C1029BFD3F0BD4FF6FF715C
:1005700001600021017141718171C171704708B53D
:100580004FF480320092009A0A430092009AC261AE
:10059000C161009AC261C2690092C269009208BD3D
:1005A0000246002013690B400BB1012000E000203F
:1005B00070470146086980B27047024600205369BF
:1005C0000B400BB1012000E0002070470146486954
:1005D00080B2704701837047418370470AB101833D
:1005E00000E0418370474161704742694A4042617F
:1005F0007047F0B5002300244D07ED0E02FA05F315
:10060000CE1000F1200555F826504E07F70E0F26A4
:10061000BE40B543CF1000F1200646F82750CE105B
:1006200000F1200555F8265045EA0304CE1000F1EC
:10063000200545F82640F0BD0000024000040240BD
:1006400000080240000C024000100240001402406A
:1006500000180240001C024000200240002402401A
:1006600000280240F948006840F00100F74908609E
:100670000020F64908310860F4480068F449084051
:10068000F2490860F348091D0860F348EF498431D6
:100690000860F0481038091D0860EC48006820F434
:1006A0008020EA4908600020E8490C310860E749E9
:1006B0008C31086070470021E44A921C1170114689
:1006C0000870704710B501460022002300204A112F
:1006D000012A02D1DD4C236808E0022A03D1DB4C59
:1006E0007034236802E0D94C7434236801F01F028F
:1006F000012494401C400CB1012000E0002010BDFA
:1007000038B5002000900024002500BF3120FFF7FD
:10071000D9FF05460098401C00900098B0F5A04F06
:1007200001D0002DF2D03120FFF7CCFF08B1012419
:1007300000E00024204638BD01460020C34A10686E
:1007400020F0F80040EAC10010607047C34908601B
:1007500070470021BD4A703211701170012802D01B
:1007600004280AD104E00121B84A7032117005E072
:100770000521B64A7032117000E000BF00BF70471B
:10078000B7490860704770B5049C41EA821501269C
:10079000C6EB530645EA0645054345EA0465AB4EFC
:1007A000361D356070BDAD4908667047820142EA6A
:1007B0000172A64B84331A607047A8498866704757
:1007C00010B5830143EA016343EA02739F4C883406
:1007D000236010BDA14908677047A049C8647047ED
:1007E00002460020994B0833186820F0EC6042EA7A
:1007F00001031843954B08331860704702460020E8
:10080000924B0833186820F0784042EA01031843FD
:100810008E4B083318607047014600208B4A08321F
:10082000106820F0030008431060704787480830C4
:10083000006800F00C00704701460020834A08322F
:10084000106820F0F0000843106070470146002057
:100850007E4A0832106820F4E05008431060704768
:1008600001460020794A0832106820F4604040EACE
:10087000C10010607047F0B500210022002402255D
:1008800000260223714F08373F6807F00C0121B1A1
:10089000042905D0082937D105E0724F076036E0FA
:1008A000714F076033E0694F3F1D3F68C7F38056C3
:1008B000664F3F1D3F6807F03F036EB16A4FB7FBBD
:1008C000F3F7DFF888C10CF1040CDCF800C0CCF3BE
:1008D000881C07FB0CF40CE0624FB7FBF3F7DFF862
:1008E0006CC10CF1040CDCF800C0CCF3881C07FBD5
:1008F0000CF4564F3F1D3F68C7F301477F1C7D0036
:10090000B4FBF5F7076002E0564F076000BF00BF79
:100910004E4F08373F6807F0F0010909534F7A5CE2
:100920000768D7404760494F08373F6807F4E051F0
:10093000890A4E4F7A5C4768D7408760434F083733
:100940003F6807F46041490B484F7A5C4768D740DD
:10095000C760F0BD002100F44072B2F5407F0AD1BB
:100960003A4A0832116821F4F811414A0240114311
:10097000364A08321160354A70321268C0F30B03F0
:100980001A43324B70331A60704735494439086056
:1009900070473349403908607047364908607047EE
:1009A00001460020294A8C32106820F44010084388
:1009B0001060704701460020244A8C32106820F4F1
:1009C0004000084310607047014600201F4A8C32E7
:1009D000106820F01F004A1E10431C4A8C32106021
:1009E000704701460020194A8C32106820F4F850F4
:1009F0004A1E40EA0220154A8C32106070470146B8
:100A00000020124A8C32106820F4403008431060F5
:100A1000704719490860704739B10C4A3032126882
:100A200002430A4B30331A6006E0084A303212683B
:100A30008243064B30331A607047F9B1034A3432AF
:100A400012680243014B34331A601CE00038024044
:100A5000FFFFF6EA1030002400300020000047427B
:100A6000800E47420024F40000127A001400002097
:100A7000FFFCFF0F5C014742E01147428F4A1268BA
:100A800082438E4B1A60704739B18C4A121D12682E
:100A900002438A4B1B1D1A6006E0884A121D126829
:100AA0008243864B1B1D1A60704739B1834A0C3252
:100AB00012680243814B0C331A6006E07F4A0C3205
:100AC000126882437D4B0C331A60704739B17B4A00
:100AD000103212680243794B10331A6006E0774AED
:100AE000103212688243754B10331A60704739B167
:100AF000724A243A12680243704B243B1A6006E0A3
:100B00006E4A243A126882436C4B243B1A60704749
:100B100039B16A4A203A12680243684B203B1A6096
:100B200006E0664A203A12688243644B203B1A6012
:100B3000704739B1614A1C3A126802435F4B1C3B53
:100B40001A6006E05D4A1C3A126882435B4B1C3B0C
:100B50001A60704739B1594A143A12680243574B28
:100B6000143B1A6006E0554A143A12688243534B0C
:100B7000143B1A60704739B1504A103A1268024368
:100B80004E4B103B1A6006E04C4A103A1268824302
:100B90004A4B103B1A60704739B1484A1C32126800
:100BA0000243464B1C331A6006E0444A1C3212686A
:100BB0008243424B1C331A60704739B13F4A20329E
:100BC000126802433D4B20331A6006E03B4A203254
:100BD00012688243394B20331A60704739B1374A63
:100BE000243212680243354B24331A6006E0334A3C
:100BF000243212688243314B24331A60704739B172
:100C00002E4A2C32126802432C4B2C331A6006E019
:100C10002A4A2C3212688243284B2C331A607047C0
:100C200039B1264A303212680243244B30331A60FD
:100C300006E0224A303212688243204B30331A6079
:100C40007047012808D11D493C31096841F008016D
:100C50001A4A3C32116007E018493C31096821F01A
:100C60000801164A3C321160704739B1134A273ADD
:100C700012780243114B273B1A7006E00F4A273ABD
:100C8000127882430D4B273B1A7070470B48403057
:100C9000006840F0807009494031086070470146A3
:100CA0000020064A283A12680A400AB1012000E0F2
:100CB00000207047014926390870704734380240D7
:100CC00032490143324A1160704770B50021002358
:100CD0000F22C4781CB32E4C246804F4E064C4F5DD
:100CE000E064C4F30721C1F10404E3B20A4144788B
:100CF0009C40E1B28478144021430C07210E254C1E
:100D000005786155047804F01F050124AC4005788E
:100D10006D11AD0005F1E025C5F8004109E004784A
:100D200004F01F050124AC401B4D0678761145F8F0
:100D3000264070BD194A0A400243154B1B1F1A601A
:100D4000704739B1124A121D12680243104B1B1D25
:100D50001A6006E00E4A121D126882430C4B1B1DDE
:100D60001A607047042808D14FF0E021096941F06A
:100D700004014FF0E022116107E04FF0E021096922
:100D800021F004014FF0E022116170470000FA05E4
:100D90000CED00E000E400E080E100E080FFFF1FD8
:100DA00010B50446FA48844208D101211020FFF70B
:100DB000E2FE00211020FFF7DEFE57E0F5488442F6
:100DC00009D101214804FFF7C5FE00214FF400308E
:100DD000FFF7C0FE4AE0F048844209D101218804AF
:100DE000FFF7B8FE00214FF48020FFF7B3FE3DE08F
:100DF000EA48844209D10121C804FFF7ABFE002173
:100E00004FF40020FFF7A6FE30E0E548844209D108
:100E100001210805FFF79EFE00214FF48010FFF727
:100E200099FE23E0DF48844208D101212020FFF70A
:100E3000A2FE00212020FFF79EFE17E0DA48844240
:100E400009D101218807FFF785FE00214FF080407E
:100E5000FFF780FE0AE0D548844207D10121400512
:100E6000FFF778FE00216005FFF774FE10BD2DE945
:100E7000FF4705460E460024A14600BFA046B089A4
:100E800000B100BF2C8A24F44054F08804432C8223
:100E9000AC8941F20C608443B08831890843718980
:100EA00008430443AC81AC8A24F44074B089044301
:100EB000AC826846FFF7DFFCB548854202D0B948EE
:100EC000854202D1DDF80C9001E0DDF80890A88998
:100ED00000F4004040B109EBC90000EB0910316893
:100EE0004900B0FBF1F707E009EBC90000EB09107E
:100EF00031688900B0FBF1F76420B7FBF0F0040122
:100F00002009642101FB1078A88900F4004040B159
:100F1000322000EBC800B0FBF1F000F00700044302
:100F200008E0322000EB08106421B0FBF1F000F083
:100F30000F0004432C81BDE8FF874FF41651016078
:100F400000218180C18001810C21418100218181AA
:100F5000704710B502460020108A20F470600B889C
:100F60004C8823438C882343CC8823431843108226
:100F700010BD0021018041808180C180704721B176
:100F8000828942F40052828104E082894DF6FF7327
:100F90001A4082817047028B02F47F420283028BE7
:100FA0000A430283704721B1828942F40042828160
:100FB00003E08289C2F30E028281704721B1828AE6
:100FC00042F40062828204E0828A4FF2FF731A4088
:100FD00082827047C1F30802828070470146888888
:100FE000C0F308007047028A4FF6F0731A4002827D
:100FF000028A0A430282704721B1828942F00202CA
:10100000828104E082894FF6FD731A408281704725
:1010100082894FF2FF731A40828182890A4382815A
:101020007047028A4FF6DF731A400282028A0A432F
:101030000282704721B1028A42F48042028204E0B7
:10104000028A4BF6FF731A4002827047818941F091
:1010500001018181704721B1828A42F008028282B7
:1010600004E0828A4FF6F7731A4082827047028B3F
:10107000D2B20283028B42EA01220283704721B17D
:10108000828A42F02002828204E0828A4FF6DF7375
:101090001A408282704721B1828A42F01002828215
:1010A00004E0828A4FF6EF731A4082827047828A88
:1010B0004FF6FB731A408282828A0A43828270470B
:1010C00021B1828A42F00202828204E0828A4FF6D3
:1010D000FD731A40828270471AB1838A0B43838260
:1010E00002E0838A8B4383827047F0B50346002475
:1010F00000260025002040F66A17B94200D100BF43
:101100001846C1F3421401F01F06012707FA06F53D
:10111000012C01D10C3004E0022C01D1103000E090
:1011200014301AB107682F43076002E00768AF4325
:101130000760F0BD02460020B1F5007F00D100BF7E
:1011400013880B400BB1012000E00020704701F430
:101150000072B2F5007F00D100BFCA430280704721
:1011600070B50246002400230025002040F66A16D0
:10117000B14200D100BFC1F3421501F01F030126A7
:1011800006FA03F3012D13D19689334017E00000CE
:10119000001001400044004000480040004C004066
:1011A000005000400014014000780040007C0040E6
:1011B000022D02D1168A334001E0968A33400C1288
:1011C000012606FA04F41688344013B10CB101204C
:1011D00000E0002070BD10B50022002340F66A1424
:1011E000A14200D100BF0A1201249440A3B2DC4303
:1011F000048010BD10B50446FB48844208D101218B
:101200008014FFF7B8FC0021A014FFF7B4FC3CE009
:10121000F648844208D101210014FFF79BFC00210D
:101220002014FFF797FC30E0F148844208D10121F7
:10123000C013FFF78FFC0021E013FFF78BFC24E0C5
:10124000EC48844208D101214014FFF794FC0021AE
:101250006014FFF790FC18E0E748844209D10121AF
:101260000805FFF788FC00214FF48010FFF783FC8E
:101270000BE0E248844208D101214805FFF77BFCDE
:1012800000214FF40010FFF776FC10BD10B50022CE
:10129000028802F441520B884C8823438C882343F4
:1012A000CC8823430C8923434C8923438C892343D3
:1012B000CC8923431A430280838B4FF2FF7423406F
:1012C00083830B8A038210BD2DE9F04F0025022392
:1012D00000244FF001090022002600279446904682
:1012E000B0F81CA04FF2400B0AEA0B0AA0F81CA0B1
:1012F0004FF0020AA0F820A0858BD1F808A0BAF11F
:10130000020F01D100BF82E0B1F804A0BAF1000FD2
:1013100002D14FF0010901E04FF00209DFF8E0A22D
:10132000DAF800A00AF4000ABAF1000F09D0DFF8D9
:10133000D0A2DAF800A02AF4000ADFF8C4B2CBF891
:1013400000A0DFF8BCA20AF17C0ADAF800A0CAF318
:10135000881CDFF8ACA20AF17C0ADAF800A0CAF314
:101360000278DFF89CA2AAF1040ADAF800A00AF0D9
:101370003F07DFF88CA2AAF1040ADAF800A00AF409
:10138000800ABAF5800F08D1DFF878A2BAFBF7FA25
:101390000AFB0CFABAFBF8F607E0DFF86CA2BAFB1E
:1013A000F7FA0AFB0CFABAFBF8F6B1F806A0BAF5A0
:1013B000007F0ED14FEA162A0AEB8A0A4FEA4A0A40
:1013C000D1F808B0BAFBFBFA0AF1050A1FFA8AF253
:1013D0000FE04FEA491AB6FBFAFA0AEB8A0A4FEA1B
:1013E0004A0AD1F808B0BAFBFBFA0AF1050A1FFA5B
:1013F0008AF24FF00A0AB2FBFAF202F00104A2EB01
:10140000040ACAF34F034FF6FF7A0AEA0424022BB8
:1014100001DBFF2B01DD02230024B1F806A04AEA1C
:10142000040A4AEA030AA0F820A0B1F804A0B1F81F
:101430000CB04AEA0B0AB1F802B04AEA0B0AB1F85A
:1014400000B04AEA0B0A4AF4006A4AEA05058583B5
:10145000BDE8F08F0021018041808180C180018141
:1014600041818181C1810721018270470021018072
:1014700041808180C180022181600021818170478B
:1014800021B1028842F04002028004E002884FF657
:10149000BF731A400280704721B1828B42F4806290
:1014A000828304E0828B4FF6FF331A4082837047B9
:1014B00002884FF2FF731A40028002880A430280BA
:1014C0007047B1F5804F04D1028842F48042028017
:1014D00004E002884BF6FF731A40028070474FF613
:1014E000FF62914204D0028842F48072028004E0DC
:1014F00002884FF6FF631A400280704721B182884C
:1015000042F00402828004E082884FF6FB731A40A6
:101510008280704721B1828842F01002828004E00C
:1015200082884FF6EF731A408280704730B50022F0
:101530000023848B4FF240052C40848302240484D2
:10154000828B0C88B4F5007F01D00C8814B94FF45D
:10155000807308E00C88B4F5407F03D00C88B4F5A4
:10156000807F00D100238C888D892C434D882C43AB
:101570001C4344F400642243828330BD01468889C1
:1015800070478181704721B1028842F40052028085
:1015900004E002884DF6FF731A400280704701880C
:1015A00041F480510180704702460020012901D09A
:1015B000108B00E0908A70470146088A70471AB184
:1015C00083880B43838002E083888B43838070474A
:1015D00030B5002400230C110125A540ABB2AAB1FF
:1015E00085881D43858014E00030014000380040AC
:1015F000003C0040003401400050014000540140D4
:101600000838024000127A000024F40085889D43C7
:10161000858030BD0246002013890B400BB10120AC
:1016200000E000207047CA4302817047F0B50246CF
:10163000002000240023002501F00F070126BE40F2
:10164000B4B20B1101269E40B3B2968806EA030598
:101650001689264016B10DB1012000E00020F0BD32
:1016600010B5002201F00F040123A3409AB2D34326
:10167000038110BD10B5044600BF0221F848FFF7F2
:10168000C9FF0028F9D02146F548FFF77AFF00BFCF
:101690000121F348FFF7BEFF0028F9D0F048FFF71B
:1016A0006DFFC0B210BD10B54FF40041ED48FEF71C
:1016B00093FF8020FFF7DEFF4FF40041E948FEF77B
:1016C00089FF10BD10B54FF40041E648FEF784FFD6
:1016D0005020FFF7CFFF4FF40041E248FEF77AFFBA
:1016E00010BD10B50446FFF7EDFF4FF40041DD4893
:1016F000FEF772FF0120FFF7BDFF2046FFF7BAFF9C
:101700004FF40041D748FEF765FF10BD10B54FF408
:101710000041D448FEF75EFF0220FFF7E2FFFFF72B
:10172000C2FF10BD10B5A520FFF7A4FF10BD70B516
:10173000044600254FF40041CA48FEF74DFF032040
:10174000FFF798FFC4F30740FFF794FFC4F30720A7
:10175000FFF790FFE0B2FFF78DFFFFF7E3FF0546CD
:101760004FF40041BF48FEF735FF284670BD70B505
:1017700005460C4616464FF40041BA48FEF72CFFCA
:101780000320FFF777FFC4F30740FFF773FFC4F3AD
:101790000720FFF76FFFE0B2FFF76CFF03E0FFF7F2
:1017A000C1FF28706D1C3000A6F101018EB2F6D188
:1017B0004FF40041AB48FEF70DFF70BD70B5044615
:1017C00000254FF40041A748FEF706FF0B20FFF766
:1017D00051FFC4F30740FFF74DFFC4F30720FFF7A5
:1017E00049FFE0B2FFF746FFA520FFF743FFFFF7F1
:1017F00099FF05464FF400419A48FEF7EBFE284654
:1018000070BD70B505460C4616464FF4004195482C
:10181000FEF7E2FE0B20FFF72DFFC4F30740FFF7B2
:1018200029FFC4F30720FFF725FFE0B2FFF722FFEF
:10183000A520FFF71FFF03E0FFF774FF28706D1C62
:101840003000A6F101018EB2F6D14FF40041854877
:10185000FEF7C0FE70BD10B500244FF40041814872
:10186000FEF7BAFE0520FFF705FFFFF75BFF044612
:101870004FF400417B48FEF7ADFE204610BD10B589
:1018800000244FF400417748FEF7A6FE00BFFFF7A3
:10189000E2FF044604F001000028F8D14FF40041B3
:1018A0007048FEF797FE10BD10B54FF400416D482B
:1018B000FEF792FE0620FFF7DDFE4FF40041694877
:1018C000FEF788FE10BD70B505460C46FFF7ECFF2D
:1018D0004FF400416348FEF77FFE0220FFF7CAFE87
:1018E000C4F30740FFF7C6FEC4F30720FFF7C2FEAC
:1018F000E0B2FFF7BFFE2846FFF7BCFE4FF4004101
:101900005848FEF767FEFFF7BAFF70BD70B5044692
:101910000D46164605E020782946FFF7D4FF641CE3
:101920006D1C3000A6F101018EB2F4D170BD70B50E
:1019300006460C46154604E021463046FFF7C3FF35
:10194000641C2800A5F10105F6D170BD10B54FF457
:1019500000414448FEF740FE0420FFF78BFE4FF4A1
:1019600000414048FEF736FE10BD2DE9F041064625
:101970000C46154600270120C0EB5507FFF794FFE2
:101980004FF400413748FEF727FEAD20FFF772FE07
:10199000C4F30740FFF76EFEC4F30720FFF76AFEAB
:1019A000E0B2FFF767FE3046FFF764FE3046FFF710
:1019B00061FE4FF400412B48FEF70CFEFFF75FFF7E
:1019C00014E04FF400412748FEF706FEAD20FFF774
:1019D00051FE3046FFF74EFE3046FFF74BFE4FF408
:1019E00000412048FEF7F6FDFFF749FF3800A7F158
:1019F0000107E6D1FFF7AAFFBDE8F0812DE9F0412C
:101A000004460D4616460027304606EBD0714910B5
:101A1000491E8FB2FFF748FF4FF400411148FEF70F
:101A2000DBFDAD20FFF726FEC5F30740FFF722FEE2
:101A3000C5F30720FFF71EFEE8B2FFF71BFE207874
:101A4000FFF718FE641C2078FFF714FE641C4FF4A7
:101A500000410448FEF7BEFDFFF711FF1BE0000048
:101A600000300140000002404FF40041DC48FEF726
:101A7000B3FDAD20FFF7FEFD2078FFF7FBFD641CF2
:101A80002078FFF7F7FD641C4FF40041D448FEF7BF
:101A9000A1FDFFF7F4FE3800A7F101018FB2E3D1F9
:101AA000FFF754FFBDE8F08170B506460D461446B9
:101AB000FFF7FAFE4FF40041C948FEF78DFDAD2057
:101AC000FFF7D8FDC4F30740FFF7D4FDC4F30720A8
:101AD000FFF7D0FDE0B2FFF7CDFD3046FFF7CAFDBE
:101AE0002846FFF7C7FD4FF40041BD48FEF772FDE1
:101AF000FFF7C5FE70BD70B506460C4615464FF49F
:101B00000041B748FEF768FDAD20FFF7B3FD204662
:101B1000FFF7B0FD2846FFF7ADFD4FF40041B04898
:101B2000FEF758FDFFF7ABFE012E01D1FFF70EFFC8
:101B300070BD10B50446FFF7B7FE4FF40041A8484A
:101B4000FEF74AFD2020FFF795FDC4F30740FFF79D
:101B500091FDC4F30720FFF78DFDE0B2FFF78AFD8A
:101B60004FF400419E48FEF735FDFFF788FE10BD9B
:101B700010B50446FFF798FE4FF400419848FEF771
:101B80002BFD5220FFF776FDC4F30740FFF772FDEF
:101B9000C4F30720FFF76EFDE0B2FFF76BFD4FF4D3
:101BA00000418F48FEF716FDFFF769FE10BD10B526
:101BB0000446FFF779FE4FF400418948FEF70CFD1B
:101BC000D820FFF757FDC4F30740FFF753FDC4F3D8
:101BD0000720FFF74FFDE0B2FFF74CFD4FF4004147
:101BE0007F48FEF7F7FCFFF74AFE10BD10B5FFF780
:101BF0005BFE4FF400417A48FEF7EEFCC720FFF78A
:101C000039FD4FF400417648FEF7E4FCFFF737FE5C
:101C100010BD2DE9F04100240025002600274FF4D7
:101C200000416F48FEF7D8FC9F20FFF723FDFFF728
:101C300079FD0546FFF776FD0646FFF773FD07467B
:101C40004FF400416648FEF7C5FC280440EA062030
:101C500040EA07042046BDE8F0812DE9F041044642
:101C60000025002600274FF400415D48FEF7B4FC34
:101C7000AB20FFF7FFFCC4F30740FFF7FBFCC4F306
:101C80000720FFF7F7FCE0B2FFF7F4FC012C06D1C8
:101C9000FFF748FD0746FFF745FD064605E0FFF75D
:101CA00041FD0646FFF73EFD074647EA06254FF48D
:101CB00000414B48FEF78EFC2846BDE8F08110B588
:101CC0004FF400414648FEF787FC7020FFF7D2FC36
:101CD0004FF400414248FEF77DFC10BD10B50121D4
:101CE0000803FEF7F3FE01210320FEF795FE10BD69
:101CF0001CB52020009002208DF805008DF804000E
:101D000000208DF8060069463548FEF7E7FB3020D5
:101D1000009002208DF8040000208DF806000220BB
:101D20008DF8050069462F48FEF7D8FB05221146BD
:101D30002B48FEF75EFC052204212A48FEF759FCD9
:101D4000052211462748FEF754FC4FF4004000904E
:101D500002208DF8050001208DF8040000208DF888
:101D6000060069461E48FEF7B9FB1CBD00B585B0EC
:101D70000020ADF800004FF48270ADF802000020A2
:101D8000ADF804000220ADF806000120ADF808000F
:101D90004002ADF80A000820ADF80C000020ADF8B4
:101DA0000E000720ADF8100069460F48FFF76EFAE5
:101DB00001210D48FFF764FB05B000BD10B50021FF
:101DC0004FF00060FEF7B6FF10BD10B5FFF786FFBD
:101DD000FFF78EFFFFF7CAFFFFF7F0FF10BD00000F
:101DE00000000240000402400030014000B587B00E
:101DF00001210846FEF710FE01211020FEF766FEC5
:101E0000072209212E48FEF7F4FB07220A212C485D
:101E1000FEF7EFFB00208DF81A0001208DF81B0063
:101E200002208DF818000002059002208DF819009C
:101E300005A92348FEF752FB02208DF81800400246
:101E4000059005A91E48FEF749FB4FF4E1300190CB
:101E50000020ADF80800ADF80A00ADF80C00ADF8B0
:101E600010000C20ADF80E0001A91648FEF7FFFF88
:101E700001211448FFF783F840211248FFF767F962
:101E800007B000BD70B504460D46E1B20D48FFF73E
:101E9000A1F800BF40210B48FFF74CF90028F9D00A
:101EA000204670BD10B5044600BF20210548FFF74D
:101EB00041F90028F9D00348FFF790F810BD000061
:101EC000000002400010014010B5FFF78FFFFFF740
:101ED0007CFFFFF71BFCFFF789FEFFF79AFE044625
:101EE000214666A000F0ACF90020FFF720FC67490E
:101EF00008700846017866A000F0A2F91020FFF7EC
:101F000016FC624908700846017864A000F098F950
:101F10004FF48070FFF70BFC5C49087008460178AD
:101F200061A000F08DF94FF48050FFF700FC574995
:101F30000870084601785FA000F082F94FF4803005
:101F4000FFF7F5FB51490870084601785CA000F0E6
:101F500077F94FF48010FFF7EAFB4C490870084608
:101F600001785AA000F06CF94FF4C000FFF7DFFBD6
:101F7000464908700846017857A000F061F94FF40F
:101F80007000FFF7D4FB414908700846017855A05E
:101F900000F056F96FF07F40FFF7C9FB3B4908702E
:101FA0000846017852A000F04BF94FF48052534993
:101FB0007220FFF7DAFC0020FFF7B9FB3349087005
:101FC000084601784EA000F03BF90120FFF7AFFB77
:101FD0002E490870084601784CA000F031F9022023
:101FE000FFF7A5FB294908700846017847A000F0D3
:101FF00027F94248FFF79BFB2449087008460178FF
:1020000045A000F01DF93D48EE30FFF790FB1F4959
:1020100008700846017843A000F012F94448FFF721
:1020200086FB1A4908700846017842A000F008F9BA
:102030006FF07F40FFF77BFB14490870FFF7D6FD78
:102040000C222E493E48FFF7D9FC3D493DA000F047
:10205000F7F80C2229493F48FFF789FB3D493EA08C
:1020600000F0EEF84048FFF762FB084908700846A8
:1020700001783EA000F0E4F8002010BD4A45444538
:10208000435F49443D25780D0A00000031000020DF
:1020900064617461313D25780D0A000064617461EA
:1020A000323D25780D0A000064617461343D257865
:1020B0000D0A000064617461353D25780D0A000049
:1020C00064617461363D25780D0A000064617461B5
:1020D000373D25780D0A000064617461383D25782C
:1020E0000D0A000064617461393D25780D0A000015
:1020F0006461746131303D25780D0A0000F0FF0005
:102100006461746131313D25780D0A006461746148
:1021100031323D25780D0A006461746131333D250B
:10212000780D0A006461746131343D25780D0A0030
:10213000EEFEFF006461746131353D25780D0A00C3
:102140002400002074785F6275666665723D2573B1
:102150000D0A00003800002072785F6275666665BF
:10216000723D25730D0A0000EEEEFF00646174619C
:1021700031363D25640D0A002DE9F05F054600204B
:1021800092469B4688460646814640241BE02846E8
:1021900041464746224600F042F853465A46C01A86
:1021A000914110D311461846224600F029F82D1A05
:1021B00067EB01084F4622460120002100F020F87D
:1021C00017EB00094E41201EA4F10104DFDC484654
:1021D00031462A464346BDE8F09F0000064C074DB5
:1021E00006E0E06840F0010394E8070098471034E7
:1021F000AC42F6D3FDF7CCFF3C2500085C25000877
:10220000202A04DB203A00FA02F1002070479140B6
:10221000C2F1200320FA03F3194390407047202AAB
:1022200004DB203A21FA02F00021704721FA02F380
:10223000D040C2F120029140084319467047000087
:102240000FB4054B10B503A9044A029800F018F822
:1022500010BC5DF814FB0000851E0008340000204F
:1022600002E008C8121F08C1002AFAD1704770475F
:10227000002001E001C1121F002AFBD170470000BD
:102280002DE9FF4F8DB09B460F460446002606E021
:1022900025280BD05A460F999047641C761C20784D
:1022A0000028F5D111B03046BDE8F08F0025A846D2
:1022B0000122974900E0054314F8013F203B02FA50
:1022C00003F00842F7D120782E2817D114F8010F17
:1022D00045F004052A280ED06FF02F022078A0F1D7
:1022E000300109290AD808EB880102EB410100EB13
:1022F0000108641CF2E757F8048B641C20786C28F2
:102300000DD004DC4C2812D06A2811D104E07428C6
:102310000DD07A280CD10AE045F4001507E0617869
:1023200045F48015814202D1641C05F58015641CBA
:102330002278692A45D008DC002AB3D0582A67D011
:10234000632A10D0642A08D13BE0702A65D0732A32
:1023500013D0752A5AD0782A5AD010465A460F9967
:102360009047761CD1E017F8040B8DF80000002090
:102370008DF80100E946012003E057F8049B4FF077
:10238000FF3069074FF0000501D40AE06D1C454598
:102390000DDA8542FADB19F805100029F6D106E0BE
:1023A0006D1C8542FCDB19F805100029F8D12E447C
:1023B00004E019F8010B5A460F9990476D1EF8D2A8
:1023C000A3E00A200021CDE90801C5F3025002284C
:1023D0000BD001CFC11700290DDA4FF0000CD0EB64
:1023E0000C006CEB01012D2308E0FF1D27F007070F
:1023F000F7E80201EFE72B0504D52B238DF82830F1
:1024000001233BE0EB0739D02023F7E70A2000E067
:1024100010200021CDE9080107E01020002145F03F
:102420000405CDE908014FF00808C5F30250022861
:102430000FD001CF00214FF0000A2B071FD5702AC3
:102440000DD0DDE908C38CF0100C5CEA030C0CD055
:1024500015E0FF1D27F00707F7E80201EBE7402230
:102460008DF828204FF0010A0BE050EA010306D056
:1024700030238DF828308DF8292002239A46582AD7
:1024800004D024A20DF120090B9209E026A2F9E75D
:10249000DDE90823FFF770FE0B9B9B5C09F8013D0B
:1024A00050EA0102F4D1ADEB090020300890680732
:1024B00001D44FF001080899884502DDA8EB01001E
:1024C00000E000208046002506E00AA85A46405D4C
:1024D0000F9990476D1C761C5545F6DB04E03020C3
:1024E0005A460F999047761CB8F10001A8F10108EF
:1024F000F5DC05E019F8010B5A460F999047761C58
:102500000899481E08900029F4DC641CC7E6000006
:1025100009280100303132333435363738396162B9
:10252000636465660000000030313233343536377D
:102530003839414243444546000000005C2500080C
:1025400000000020380000006022000894250008E8
:10255000380000201840000070220008007A030AAA
:102560000000000000000000010203040607080943
:102570000000000001020304010203040607080929
:102580006162626262626764736773680000000080
:042590000000000047
:040000050800018965
:00000001FF
