:020000040800F2
:10000000208200209D010008E5170008EB1400087D
:10001000E1170008630800086D1C000800000000DC
:100020000000000000000000000000004D19000862
:100030006708000800000000E7170008711A0008B0
:10004000C1010008C1010008C1010008C101000888
:10005000C1010008C1010008C1010008C101000878
:10006000C1010008C1010008C1010008C101000868
:10007000C1010008C1010008C1010008C101000858
:10008000C1010008C1010008C1010008C101000848
:10009000C1010008C1010008C1010008C101000838
:1000A000C1010008C1010008C1010008C101000828
:1000B000C1010008E11A0008C1010008C1010008DF
:1000C000C1010008C1010008C1010008C101000808
:1000D000C1010008C1010008C1010008C1010008F8
:1000E000C1010008C1010008C1010008C1010008E8
:1000F000C1010008C1010008C1010008C1010008D8
:10010000C1010008C1010008C1010008C1010008C7
:10011000C1010008C1010008C1010008C1010008B7
:10012000C1010008C1010008C1010008C1010008A7
:10013000C1010008C1010008C1010008C101000897
:10014000C1010008C1010008C1010008C101000887
:10015000C1010008C1010008C1010008C101000877
:10016000C1010008C1010008C1010008C101000867
:10017000C1010008C1010008C1010008C101000857
:10018000C1010008C1010008DFF80CD000F0AAF995
:1001900000480047195500082082002009480168DE
:1001A00041F4700101600848804708480047FEE7B5
:1001B000FEE7FEE7FEE7FEE7FEE7FEE7FEE7FEE717
:1001C000FEE7000088ED00E0791A000889010008C8
:1001D00040EA01039B0703D009E008C9121F08C0C9
:1001E000042AFAD203E011F8013B00F8013B521E49
:1001F000F9D27047D2B201E000F8012B491EFBD2C0
:1002000070470022F6E710B513460A460446194621
:10021000FFF7F0FF204610BD30B505462A460B46D5
:1002200012F8010B13F8014B08B1A042F8D01CB131
:10023000002802D06D1CF1E7284630BDCAB2401E2E
:1002400010F8011F8A4202D00029F9D1002070471E
:10025000421C10F8011B0029FBD1801A704710B511
:10026000002200E0521C835C8C5CA34201D1002B75
:10027000F8D1D8B2E1B2401A10BD30B50446002022
:10028000034600E05B1C934203D2E05CCD5C401B64
:10029000F8D030BD30B505460020034600E05B1CB9
:1002A000934205D2EC5CC85C201A01D1002CF6D137
:1002B00030BD2DE9FE4F81EA030404F0004421F033
:1002C000004100944FF0000B23F0004350EA01047A
:1002D0005ED052EA03045BD0C3F30A54C1F30A555B
:1002E0002C44A4F2F3340194A0FB0254C1F3130193
:1002F00041F48011C3F3130343F4801301FB024460
:1003000000FB034E840A970A44EA815447EA835764
:10031000A4FB076802958D0A05FB07854FEA932C1D
:1003200004FB0C542705029D4FEA065847EA16378E
:10033000B5EB08056EEB070C870E920E47EA8117A6
:1003400042EA8312A7FB0201B6EB0B0164EB000447
:100350002B0D43EA0C335E1844EB1C50DA46514631
:10036000E7FB0201C5F313044FEA0B3343EA1453CE
:100370004FEA0432019C43EA0603A4F10C04029400
:10038000009CCDE900B400F05FF803B0BDE8F08F49
:1003900000200146F9E70EB540F2334102910021F9
:1003A000CDE900110A460B4600F04EF803B000BD3F
:1003B000C1F30A5210B5C1F3130140F2FF3341F407
:1003C00080119A4201DA002010BD40F233439A4274
:1003D000A2F2334203DC524200F019F810BD904003
:1003E00010BD30B50B46014600202022012409E053
:1003F00021FA02F59D4205D303FA02F5491B04FADE
:1004000002F52844151EA2F10102F1DC30BD202ABC
:1004100004DB203A21FA02F00021704721FA02F3AE
:10042000D040C2F12002914008431946704710B5F0
:10043000002B08DA401C41F1000192185B411A437D
:1004400001D120F0010010BD2DE9F04D92469B46F0
:1004500011B1B1FA81F202E0B0FA80F22032904696
:1004600000F052F804460F4640EA0A0041EA0B0148
:1004700053465A46084313D0114653EA010019D097
:10048000C8F140025046FFF7C2FF05460E465046EF
:100490005946424600F038F8084305D0012004E0F0
:1004A00020463946BDE8F08D0020054346EAE07657
:1004B0002C4337430A986305E40AA0EB08000022A6
:1004C000FD0A44EA47540A3002D500200146E9E714
:1004D000010510196941DDE9084500196941BDE8C8
:1004E000F04DA4E7064C074D06E0E06840F001033C
:1004F00094E8070098471034AC42F6D3FFF748FE63
:10050000305B0108505B0108202A04DB203A00FA26
:1005100002F1002070479140C2F1200320FA03F35A
:1005200019439040704770B58C1810F8015B15F0B6
:10053000070301D110F8013B2A1106D110F8012B55
:1005400003E010F8016B01F8016B5B1EF9D12B077A
:1005500005D40023521E0DD401F8013BFAE710F830
:10056000013BCB1A921C03E013F8015B01F8015B1D
:10057000521EF9D5A142D8D3002070BD21B18268A6
:1005800042F00102826003E0826822F00102826090
:10059000704700000021084A1168084A1140D0E95C
:1005A00000231A4383681A43C3681A431143044A59
:1005B000C2F804137047000004230140E030FCFF40
:1005C0000020014000B58DB00121880201F02CF916
:1005D0004FF40070019003208DF8080000208DF882
:1005E0000B0001A9184800F011FF002003904FF400
:1005F0000030049000200590069003A8FFF7CAFF82
:1006000007A800F024F9002007908DF820000120B1
:100610008DF82100002009900B9001208DF830000A
:1006200007A90A4800F088F8032301220721074898
:1006300000F0ACF801210548FFF7A0FF034800F0E7
:1006400001F90DB000BD000000140240002201407D
:100650000146C86C80B270472DE9F05F2DED048B28
:1006600082460C469346BAF1000F5AD100BF00BF34
:1006700000BF00BF00BF2C480068012804D1FFF76D
:10068000A1FF0020284908602848FFF7E1FF06463F
:100690003046FFF780FE9FED260B53EC102BFFF743
:1006A00008FEFFF785FE06464FF47A70B6FBF0F0C1
:1006B000C5B205EB4500C0EBC510A6EBC000642138
:1006C000B0FBF1F0C7B24FF47A7015FB00F007EB06
:1006D000C70101EB071100EB8100301A0A21B0FBC2
:1006E000F1F8E82015FB00F007EBC70101EB07115B
:1006F00000EB810008EB880100EB4100A6EB00094C
:1007000005F13000207007F13000607008F1300012
:10071000A07009F13000E0700420BDEC048BBDE84E
:10072000F09F0020F9E70000640000200022014053
:100730009A9999999999E93F30B50246002000238A
:100740005068104C20400D790C6844EA0524204381
:10075000506090680C4C2040D1E903542C438D68C4
:100760002C434D7944EA450420439060D06A20F43C
:1007700070000C7D641EE4B2234340EA0350D06253
:1007800030BD0000FFFEFFFCFDF7FFC0F0B50446E2
:100790000D4600200021092D11DDE068A5F10A06B3
:1007A00006EB4607072606FA07F18843A5F10A0675
:1007B00006EB460603FA06F10843E0600CE0206908
:1007C00005EB4507072606FA07F1884305EB4506C2
:1007D00003FA06F108432061072A0FDA606B561E00
:1007E00006EB86071F2606FA07F18843561E06EB1E
:1007F000860605FA06F10843606322E00D2A0FDA47
:10080000206BD61F06EB86071F2606FA07F18843E2
:10081000D61F06EB860605FA06F10843206310E0B2
:10082000E06AA2F10D0606EB86071F2606FA07F11D
:100830008843A2F10D0606EB860605FA06F1084389
:10084000E062F0BD816841F0804181607047002125
:100850000160017141718160C16001610121017517
:10086000704700BFFEE7704730B585B000F0E2F991
:1008700000F012FC51480068002872D1009050A08E
:1008800001F0F6F968E00021084600F0E1FC534968
:1008900008600121002000F0DBFC514908600221C2
:1008A000002000F0D5FC4F4908600321002000F033
:1008B000CFFC4D4908600421002000F0C9FC4B49E1
:1008C00008600521002000F0C3FC494908600621AA
:1008D000002000F0BDFC474908601121002000F015
:1008E000B7FC454908601221002000F0B1FC4349E3
:1008F00008601A21002000F0ABFC414908601B2170
:10090000002000F0A5FC3F4908601D21002000F0F8
:100910009FFC3D4908601E21002000F099FC3B49E6
:1009200008601F21002000F093FC394908604FF453
:10093000A2420021084600F035FD00BF0098401C8F
:1009400000900121002000F083FC00F0040018B9A1
:10095000304900988842F1D318480068002892D0A6
:1009600000BF042001F070F801A800F06DFF6422C0
:100970000298B0FBF2F1481EB0F1807F00D31BE07B
:10098000481E4FF0E022506150170F22002807DA6E
:1009900013071D0E204B00F00F04241F1D5503E00C
:1009A00013071C0E1D4B1C5400BF00204FF0E0220B
:1009B00090610720106100BF05B030BD200000200D
:1009C0000A0D2045746865726E657420496E6974FD
:1009D000206661696C65640A0D0000002800002033
:1009E0002C000020300000203400002038000020BF
:1009F0003C0000204000002044000020480000206F
:100A00004C0000205000002054000020580000201E
:100A10005C000020FFFF040018ED00E000E400E0AF
:100A20002F480068006800F0004098B92C48006822
:100A3000006800F4807068B1294800682949096895
:100A40004860284800688068401C2649096888601A
:100A50000120704722480068006800F00040F0B9AB
:100A60001F480068006800F40070C0B11C480068AE
:100A7000006800F4807090B9194800681949096845
:100A80000860002017490968486001201549096875
:100A9000886013480068C068114908601DE010486C
:100AA0000068006800F00040B8B90D4800680068B0
:100AB00000F4007088B90A480068006800F480708B
:100AC00058B9084800688068401C06490968886071
:100AD00003480068C068024908600020B9E70000C8
:100AE000B0000020B400002030B10749896941F00E
:100AF0000201054A916105E00349896921F002017B
:100B0000014A9161704700000090024070B50C46A8
:100B100013460021124D286000BF18E000EB41127F
:100B20004FF00045156044F2F4555560C1EBC11516
:100B300005EB450504EB850595605D1E8D4204D9E6
:100B400000EB41152035D56000E0D060491C99428A
:100B5000E4D3044DE860044D044E356070BD0000E0
:100B6000B000002000900240082B0020B4000020BC
:100B700030B10749896941F40051054A916105E0A6
:100B80000349896921F40051014A916170470000CD
:100B90000090024030B50C46134600210F4D2860EE
:100BA00000BF15E000EB41124FF480151560C1EB5A
:100BB000C11505EB450504EB850595605D1E8D426D
:100BC00004D900EB41152035D56000E0D060491C08
:100BD0009942E7D3024D286130BD0000AC000020EF
:100BE0000090024002680A430260704710B501217C
:100BF000480600F009FE00214FF0007000F004FEEE
:100C000010BD01B581B0002000900198009002E075
:100C10000098401E009000980028F9D10CBD0000FB
:100C20000348806940F480100149886170470000E2
:100C3000009002401CB50121072000F0D5FD0121E4
:100C4000880300F0F1FD4FF48070009003208DF8D0
:100C5000050002208DF8040000208DF806008DF8B4
:100C600007006946384800F0D1FB012000F070FE13
:100C70004FF0A0614FF4C00000F05AFE86200090B3
:100C80006946314800F0C2FB0B2201212E4800F0DA
:100C900005FC0B2202212C4800F000FC0B2207214E
:100CA000294800F0FBFB322000906946274800F0FD
:100CB000ADFB0B220121254800F0F0FB0B220421A3
:100CC000224800F0EBFB0B220521204800F0E6FB58
:100CD0004FF46050009069461D4800F097FB0B22CE
:100CE00011461B4800F0DAFB0B220C21184800F0DB
:100CF000D5FB0B220D21164800F0D0FB01200090FF
:100D000003208DF8050001208DF8040000208DF8E7
:100D100006008DF8070069460C4800F077FB0121BA
:100D20000A4800F0DEFB002400E0641C094884420D
:100D3000FBDB0121054800F0D6FB002400E0641C29
:100D400004488442FBDB1CBD000002400008024056
:100D50000004024040420F0000200449096801F0ED
:100D6000010109B1012000E000207047009002401D
:100D70001EB500210022009201920292114A1268CF
:100D80001268C2F30D42111F00910F4A1268926857
:100D9000012A05D90C4A126812689268019203E090
:100DA000084A126892680192064A12680292054A3D
:100DB0001268D268034B1A609DE81C0080E81C0092
:100DC0001EBD0000B0000020B40000202DE9F0415D
:100DD00086B004460F464FF000080025002005901D
:100DE000954E00909548056925F01C0501A800F076
:100DF0002BFD029E9248864205D39248864202D23B
:100E000045F008051AE08F48864205D38A48864295
:100E100002D245F00C0511E08748864203D38A4888
:100E2000864200D20AE08848864205D38748864237
:100E300002D245F0040501E045F010057F48056148
:100E40004FF400420021384600F0ACFA18B90020F7
:100E500006B0BDE8F0817E48FFF7D3FE2068002889
:100E60004ED000BF0098401C00900121384600F091
:100E7000EFF900F0040018B9764900988842F1D3E0
:100E800074490098884201D10020E1E700200090D9
:100E90004FF480520021384600F084FA08B900204F
:100EA000D6E700BF0098401C00900121384600F0B2
:100EB000CFF900F0200018B9664900988842F1D3B4
:100EC00064490098884201D10020C1E700200090C9
:100ED0001F21384600F0BCF9804608F0100018B118
:100EE0004FF40060206201E00020206208F004005E
:100EF00010B10020606116E04FF48040606112E0A4
:100F0000206AC0F3CF006169C1F34F0140EA0102DA
:100F10000021384600F046FA08B9002098E76FF043
:100F20007F40FFF76EFE454805684B480540D4E911
:100F300001010843E16808432169084361690843E6
:100F4000A1690843E1690843216A0843616A0843CB
:100F5000A16A0843E16A0843216B0843616B0843B7
:100F6000054336480560D4E90E010843216C084367
:100F7000616C0843A16C0843E16C0843216D084390
:100F8000616D08432D494860A06D8860E06DC860C0
:100F9000084685694FF641700540B4F86010606EF0
:100FA00040EA0140A16E0843E16E0843216F084307
:100FB000616F0843054321488561D4E91E01084358
:100FC0001E49C8612548856925480540D4E92001A6
:100FD0000843D4F888100843D4F88C100843D4F898
:100FE00090100843D4F894100843D4F8981008439C
:100FF000D4F89C100843D4F8A010084305431748C0
:101000008561D4E929010843D4F8AC100843D4F829
:10101000B0100843D4F8B41040EA8100D4F8B810F6
:10102000084340F400000D4908600846006840F09D
:101030008000086001200BE70087930300800240D6
:10104000002D3101C00E160200E1F50580D1F00837
:10105000FFFF0F00FFFF04000F8120FF0090024000
:10106000233FDEF810B50B794C7943EA0422094B93
:1010700003441A64CB781B068C7843EA04434C780B
:1010800043EA04230C7843EA0402024B03445A6403
:1010900010BD00000080024000B5AFB001214FF04C
:1010A000606000F0A1FBFFF7A1FD00F007F900BFB1
:1010B000FFF752FE0128FBD0684600F019F9012025
:1010C0000090002007904FF400700A9000200B90D1
:1010D0000E9011901390149015904FF48060099029
:1010E000002020904FF000702190001123900020EC
:1010F0002590269004202890C005299040122A901F
:1011000080012B9040122C9040002E9000216846C8
:10111000FFF75CFE014908602FB000BD20000020F1
:1011200030B10749096841F00401054A116005E042
:101130000349096821F00401014A11607047000069
:101140000080024030B10749096841F00801054AB2
:10115000116005E00349096821F00801014A1160A6
:10116000704700000080024070B502460023002551
:10117000002435480068006800F0004008B10020F5
:1011800070BD3148016840F2F450824208DD92FBA4
:10119000F0F392FBF0F600FB162010B15B1C00E0B0
:1011A0000123012B1AD128480068006840F0405004
:1011B000254E36683060C2F30C00234E36687060EE
:1011C00021480068006840F000401F4E36683060DB
:1011D0001D480068C0681C4E306028E0002422E0F2
:1011E0003CB919480068006840F08050164E3668D7
:1011F000306040F2F4504860581EA0420DD108689B
:1012000040F000500860581EC0EBC01000EB4000DA
:10121000A2EB8005C5F30C004860086840F0004070
:101220000860C968641C9C42DAD30748016007481B
:10123000406900F0040020B10420044E70610020D9
:10124000706001209CE70000AC000020009002408C
:1012500018B502460B460021002000901548016990
:1012600001F01C014FF4784000EAC22001434FF422
:10127000F86000EA8310014321F0020141F001010E
:101280000C48016100BF0098401C009009480169AA
:1012900001F0010018B1084C0098A042F3D3064CAD
:1012A0000098A04201D1002018BD0248406980B2D8
:1012B000FAE7000000800240FFFF040003480068D6
:1012C00040F00100014908607047000000900240B2
:1012D00000B50120FFF736FFFFF7A2FC0120FFF762
:1012E0001FFF0120FFF744FC0120FFF7FDFB00BDBD
:1012F00001210160002141608160C16001614FF402
:101300008041416100218161C1614FF4006101624E
:10131000002141628162C162016341638163C163F3
:10132000402101642021416400218164C164016580
:1013300041658165C1650166802141660021816644
:10134000C166016741678167C1674FF08061C0F87E
:1013500080104910C0F884100021C0F888104FF4A4
:101360000011C0F88C100021C0F89010C0F8941043
:10137000C0F89810C0F89C10C0F8A0104FF0007191
:10138000C0F8A4104912C0F8A8108901C0F8AC1028
:101390004912C0F8B0100021C0F8B410C0F8B8105D
:1013A0007047000038B503460C460021002000902D
:1013B0001448016901F01C014FF4784000EAC32091
:1013C00001434FF4F86000EA8410014341F0020148
:1013D00041F001010B484261016100BF0098401CCF
:1013E00000900848016901F0010018B1064D00980D
:1013F000A842F3D3044D0098A84201D1002038BD83
:101400000120FCE700800240FFFF0400F0B50A461F
:1014100000210023002400BF3DE0012505FA01F36F
:10142000156805EA03049C4234D105684F00032681
:10143000BE40B543056015794E00B540066835439A
:1014400005601579012D02D01579022D16D1856818
:101450004F000326BE40B543856055794E00B54028
:10146000866835438560456801268E40B5434560F2
:10147000456896798E40B6B235434560C5684F00E1
:101480000326BE40B543C560D5794E00B540C66859
:101490003543C560491C1029BFD3F0BDF0B500230A
:1014A00000244D07ED0E02FA05F3CE1000F12005E1
:1014B00055F826504E07F70E0F26BE40B543CF1005
:1014C00000F1200646F82750CE1000F1200555F80F
:1014D000265045EA0304CE1000F1200545F82640C9
:1014E000F0BD418370470183704700BFFEE70000F5
:1014F0002DE9F04105460E461746984600244DB9A1
:1015000000BF05E057F8240004A1FEF7A8FE641C04
:10151000B442F7D302A0BDE8F08100006C6564001E
:101520002F53544D3332463478374C45442E68742B
:101530006D6C000000B58BB04548007810B10128F3
:101540007CD10CE0434801F015FC002042490860C2
:1015500001203F49087041A000F08AFB74E03D483B
:1015600040683D4908600846006800282BD00220EA
:1015700037490870374801F05FFC37480068000EB3
:101580008DF81C0034480068000C8DF81D003248AE
:101590000088000A8DF81E002F4800788DF81F0083
:1015A0009DF81C009DF81D10CDE900109DF81E301F
:1015B0009DF81F2035A102A800F06AFB02A937A000
:1015C00000F056FB3EE02348006AC07C042839DD69
:1015D00003201F4908701F4801F02EFC3A4802F012
:1015E0009BFA0A906FF0FF0002F096FA09903648D5
:1015F000093802F091FA089008AB09AA0AA915481F
:1016000004F09CF90A208DF81C0001208DF81D00C3
:10161000A8208DF81E00C0208DF81F009DF81C002A
:101620009DF81D10CDE900109DF81E309DF81F207B
:1016300026A102A800F02CFB02A900E003E027A0ED
:1016400000F016FB00E000BF00BF0BB000BD0000C3
:101650001C00002068010020100000200A0D206CF2
:101660006F6F6B696E6720666F72200A0D204448A9
:10167000435020736572766572200A0D20706C6588
:1016800061736520776169742E2E2E002025642EEB
:1016900025642E25642E2564000000000A0D2069B3
:1016A0007020616464726573732061737369676E1F
:1016B00065642062792061206468637020736572BC
:1016C00076657220257300000A01A8C020202564D9
:1016D0002E25642E25642E25640000000A0D20733B
:1016E00074617469632069702061646472657373E6
:1016F00073203A202573000000B587B003F04AFF3D
:1017000004F098F8002006900590049009480A49D2
:10171000002204ABCDE90021029005AA06A90748E2
:1017200004F0D0F8054804F01DF9044804F074F9F9
:1017300007B000BDA9350008153600086801002073
:1017400001B51E4900980968401AFA2804D31B49BC
:101750000098086006F0EEFF194900980968401AE1
:1017600041F28831884204D315490098086001F09D
:10177000CBFE144900980968401AB0F5FA7F0ED3E1
:1017800010490098086000F0D3FE0F480078022846
:1017900005D00D480078032801D0FFF7CBFE0B4998
:1017A00000980968401A4EF66021884204D3074920
:1017B0000098086000F032FD08BD0000080000201D
:1017C0000C000020140000201C0000201800002045
:1017D00010B5024801F036FF10BD0000680100207E
:1017E00000BFFEE77047704729B1064A12680243FE
:1017F000044B1A6004E0034A12688243014B1A60EA
:10180000704700003038024029B1064A126802438E
:10181000044B1A6004E0034A12688243014B1A60C9
:10182000704700001038024029B1064A126802438E
:10183000044B1A6004E0034A12688243014B1A60A9
:101840007047000044380240F0B500210022002417
:10185000022500260223324F3F6807F00C0121B118
:10186000042905D0082937D105E02E4F076036E05E
:101870002D4F076033E02A4F3F1F3F68C7F3805664
:10188000274F3F1F3F6807F03F036EB1264FB7FB5E
:10189000F3F7DFF88CC0ACF1040CDCF800C0CCF33B
:1018A000881C07FB0CF40CE01E4FB7FBF3F7DFF8C6
:1018B00070C0ACF1040CDCF800C0CCF3881C07FB52
:1018C0000CF4174F3F1F3F68C7F301477F1C7D0093
:1018D000B4FBF5F7076002E0124F076000BF00BFDE
:1018E0000F4F3F6807F0F0010909104F7A5C076855
:1018F000D74047600A4F3F6807F4E051890A0B4F11
:101900007A5C4768D7408760054F3F6807F46041BD
:10191000490B064F7A5C4768D740C760F0BD0000AE
:10192000083802400024F40000127A009C000020D5
:1019300002460020044B186820F0EC6042EA0103E4
:101940001843014B18607047083802407047000088
:101950000149086070470000DC0027420CB50020F8
:10196000019000903448006840F4803032490860AB
:1019700000BF3148006800F4003000900198401C1E
:101980000190009818B90198B0F5A04FF1D12A48FC
:10199000006800F4003010B10120009001E0002048
:1019A00000900098012846D123484030006840F05C
:1019B00080502149403108602048006840F4404090
:1019C0001E4908601C48083000681B49083108603F
:1019D0000846006840F4004008600846006840F48B
:1019E000A05008601648091F0860081F006840F0F2
:1019F0008070091F086000BF0F48006800F0007089
:101A00000028F9D040F205600E4908600A48083005
:101A1000006820F0030008490831086008460068A3
:101A200040F00200086000BF03480830006800F082
:101A30000C000828F8D10CBD0038024000700040AE
:101A4000084B4007003C0240042808D14FF0E02139
:101A5000096941F004014FF0E022116107E04FF005
:101A6000E021096921F004014FF0E0221161704783
:101A700010B500F063F810BD10B51548006840F4CB
:101A80007000134908601348006840F001001149D4
:101A9000086000200F49083108600E4800680E49B0
:101AA00008400C4908600D48091D0860081F0068BF
:101AB00020F48020091F0860002006490C310860CE
:101AC000FFF74CFF4FF0006001498039086010BDFE
:101AD00088ED00E000380240FFFFF6FE10300024E1
:101AE00010B50121064800F018F8012802D105A020
:101AF00000F0BEF80121024800F00CF810BD000013
:101B00000004004074696D6572206F757420210DAA
:101B10000A000000CA430282704730B50246002026
:101B200000230024158A05EA0103958905EA0104CA
:101B300013B10CB1012000E0002030BD0248006864
:101B40000A300149086070470400002001F4007267
:101B5000B2F5007F00D100BFCA430280704721B1B7
:101B6000828942F40052828104E082894DF6FF733B
:101B70001A408281704702460020B1F5007F00D1F3
:101B800000BF13880B400BB1012000E0002070471C
:101B90002DE9FF4705460E460024A14600BFA0469A
:101BA000B08900B100BF2C8A24F44054F08804436B
:101BB0002C82AC8941F20C608443B088318908439F
:101BC000718908430443AC81AC8A24F44074B08921
:101BD0000443AC826846FFF737FE2048854202D0B6
:101BE0001F48854202D1DDF80C9001E0DDF8089035
:101BF000A88900F4004040B109EBC90000EB0910CE
:101C000031684900B0FBF1F707E009EBC90000EBD0
:101C1000091031688900B0FBF1F76420B7FBF0F0E0
:101C200004012009642101FB1078A88900F4004018
:101C300040B1322000EBC800B0FBF1F000F007002B
:101C4000044308E0322000EB08106421B0FBF1F0FF
:101C500000F00F0004432C81BDE8FF870010014015
:101C600000140140C1F308028280704700BFFEE704
:101C70000FB4054B10B503A9044A029800F02CF8E4
:101C800010BC5DF814FB0000DD3800086401002082
:101C90000FB4084B10B504A902AA039800F01CF871
:101CA000044602A9002000F0F3F8204610BC5DF8BD
:101CB00014FB0000911E000802E008C8121F08C1B2
:101CC000002AFAD170477047002001E001C1121FBD
:101CD000002AFBD1704700002DE9FF4F8BB09A46D8
:101CE0000F460546002606E025280BD052460D99E2
:101CF00090476D1C761C28780028F5D10FB030462F
:101D0000BDE8F08F0024A0460122604900E00443B2
:101D100015F8013F203B02FA03F00842F7D128787A
:101D20002E2817D115F8010F44F004042A280ED0EC
:101D30006FF02F022878A0F1300109290AD808EBAA
:101D4000880102EB410100EB01086D1CF2E757F836
:101D5000048B6D1C287869283ED006DC0028CDD085
:101D600063280BD0642804D136E0732810D075287E
:101D70004BD052460D999047761C85E017F8040B1E
:101D80008DF8000000208DF80100E946012003E0F5
:101D900057F8049B4FF0FF3061074FF0000401D467
:101DA0000AE0641C44450DDA8442FADB19F8041099
:101DB0000029F6D106E0641C8442FCDB19F804100B
:101DC0000029F8D1264404E019F8010B52460D9978
:101DD0009047641EF8D257E001CF4FF00A0B00285D
:101DE00002DA40422D2102E0210504D52B218DF895
:101DF0002410012103E0E10705D02021F7E70DF1D0
:101E0000200908910CE00021F9E701CF4FF00A0BFF
:101E1000F9E75946FEF7E5FA01F1300209F8012D1C
:101E20000028F6D1ADEB090000F1200B600701D4CA
:101E30004FF00108D84502DDA8EB0B0000E00020C0
:101E40008046002406E009A85246005D0D9990479F
:101E5000641C761C08988442F5DB04E0302052466E
:101E60000D999047761CB8F10001A8F10108F5DC46
:101E700005E019F8010B52460D999047761CBBF10D
:101E80000001ABF1010BF4DC6D1C34E70928010003
:101E90000A68531C0B601070704700001FB50446A1
:101EA0000122074B606ACDE9000304F12B03CDE961
:101EB0000202044A1946204601F082FA04B010BD1D
:101EC000365A0108305A01087FB504460D46606A4B
:101ED000002850D0606A007900284CD094F82B007C
:101EE0008DF800002C20005D8DF801002D20005D94
:101EF0008DF802002E20005D8DF803002F20005D7C
:101F00008DF804003020005D8DF80500D5F80E0036
:101F10000390A8690290606A0079012806D0606A7F
:101F20000079022817D1606A4079A0B90398616AE4
:101F3000096888420BD00298616A0968884219D101
:101F4000062205F108016846FEF797F990B1204690
:101F500000F05BF80EE00398616A0968884209D1D5
:101F6000062205F108016846FEF787F910B1204600
:101F700000F034F800BF7FBD2DE9F04105460E4664
:101F80002F214A5D3021495D42EA0121104A88181B
:101F900001F0C2FD074603F055FD0446686A407A29
:101FA0000444A0B20B4940EA01040948844201D22A
:101FB00004F57E440848844201D9A4F57E4400BF5C
:101FC00000BF204601F0A8FD3060BDE8F0810000B0
:101FD0000001FEA90000FEA9FFFEFEA970B504469F
:101FE000012575B1606A007A002803DD204600F003
:101FF0000CF809E02046FFF751FF6420616A08727F
:1020000002E0204600F001F870BD70B505466C6A2C
:102010000026284603F08CFC10B1284603F0A8FCEB
:1020200000206860A860E8606CB90A2003F0E4FA58
:10203000044614B94FF0FF3070BD0020206060608E
:1020400020816C6205E000202071E08060712060DA
:10205000207221462846FFF78FFF607A401C60728D
:10206000284600F002F83046E6E710B5416A012242
:102070000A7100224A713022125C13062E22125C71
:1020800043EA02432D22125C43EA02222F231B5C07
:102090001A43436A13B1436A5B7A00E000231A448F
:1020A0000A23B2FBF3F403FB1422CA804A7A0A2AF9
:1020B00002DD4FF41672CA8010BD70B504460D469D
:1020C00000BF04B970BD00BF206A58B1206A807C8F
:1020D000082807D12868216A896A884202D12046E7
:1020E00000F054F900BFEDE72DE9FC41064600BFC2
:1020F0000EB9BDE8FC8100BF346A00BF04B9F8E73F
:1021000000BFA06C401C70B1A06C1E303C21B0FB25
:10211000F1F5B5F5803F01D34FF6FF752584208C8E
:1021200008B901202084E06C401C70B1E06C1E30C6
:102130003C21B0FBF1F5B5F5803F01D34FF6FF75BB
:102140006584608C08B90120608404F12C0008B912
:10215000002000E0E06A01900198C0B9019803F006
:1021600071FC070E7F2F05DC4FF07F4001F0D4FC9F
:1021700001900BE0C02F05DB6FF0FF0001F0CCFCFD
:10218000019003E0164801F0C7FC019000BF04F184
:10219000300008B9002000E0206B0090009848B99A
:1021A000A06A019908400090012001F0B5FC009957
:1021B0000843009004F12801304603F0EBFB01A92D
:1021C000304603F023FC6946304603F0DDFB304621
:1021D00003F022FC0A21204600F0C4FD00BF88E77E
:1021E0000000FFFF2DE9F04105462C6A082120463A
:1021F00000F0B8FD002204F12801284601F01CF887
:102200000746E07C401CE0744FF4FA7606F2F310C7
:10221000314690FBF1F0E083BDE8F08110B50F4846
:10222000046817E0206AA0B1206A418C481E226A27
:102230005084012903D1204600F02CFE09E0206AD9
:10224000018C481E226A1084012902D1204600F028
:1022500011FE2468002CE5D110BD0000D000002044
:1022600070B5064600BF16B96FF0090070BD00BF1B
:10227000346A00BF14B96FF00800F7E700BF00BF71
:1022800000BF00BF00BF00224FF49A71104603F058
:10229000E5FB6061606910B94FF0FF30E6E700BF11
:1022A00000BFE07C20B937480068401C3549086011
:1022B00034480068206060694068A0610120A1691D
:1022C0000870A16948700620A16988700020A16982
:1022D000C870206801F020FCA16948600020A16955
:1022E0000881A1694881A169C860A07C0A2805D03D
:1022F000A07C052802D0A07C042802D17068A169C6
:10230000C8600020A1690861A1694861A16988616C
:1023100000250DE096F82A00A84203DD06F12B0007
:10232000405D00E00020A1691C314855681C85B261
:10233000102DEFD3002505E00021A0692C30415578
:10234000681C85B2402DF7D3002505E00021A06967
:102350006C304155681C85B2802DF7D30A4801F0D6
:10236000DBFBA169C1F8EC000020A083002504E09C
:10237000A069F0304555681C85B2442DF8D3002083
:1023800074E70000BC000020635382632DE9F8432A
:1023900005462C6A00260C21204600F0E3FC284666
:1023A000FFF75EFF064646BB01223521204600F0BE
:1023B00015FA0421204600F021FA04223221204699
:1023C00000F00CFAA06A03F03DFB8046414620462F
:1023D00000F01DFA204600F04CFAA28BF03291B2C8
:1023E000606903F054FD009543230B4A61696068FE
:1023F00006F0CEFB284600F011F8E07C401CE074AB
:1024000042F2107707F2F3104FF4FA7190FBF1F0FB
:10241000E0833046BDE8F8832C5A010870B50546C4
:1024200000BF05B970BD00BF2C6A00BF04B9F9E751
:1024300000BF00BF00BF00BF00BF606910B160698E
:1024400003F0AFFC00206061A06100BFEAE700007C
:10245000F8B505462C6A0026334808B9002001E08B
:1024600031480068A0620621204600F07BFC284627
:10247000FFF7F6FE0646002E39D10122352120460F
:1024800000F0ACF90121204600F0B8F90222392110
:10249000204600F0A3F9298D204600F0D9F9042246
:1024A0003721204600F09AF90121204600F0A6F9D4
:1024B0000321204600F0A2F91C21204600F09EF9DD
:1024C0000621204600F09AF9204600F0D2F9A28BAE
:1024D000F03291B2606903F0DAFC00954323134AAD
:1024E0006169606806F054FB2846FFF797FFE07CBF
:1024F000401CE074E07C062803DAE17C012088407F
:1025000000E03C2000EB4001C1EBC0104FF6FF7132
:1025100001EAC00707F2F3104FF4FA7190FBF1F0F3
:10252000E0833046F8BD0000285A01082C5A010803
:1025300010B50F48046818E0206AA8B1206AC08B63
:10254000012805DD206AC08B401E216AC8830BE08C
:10255000206AC08B012807D1206AC08B401E216AE7
:10256000C883204600F0A6FC2468002CE4D110BDEE
:10257000D000002010B50446A06820B1A06802F089
:10258000E1FF0020A060E06828B1E06802F0DAFF17
:102590000020E060208210BD0146087870470146A7
:1025A00011F8013B180611F8013B40EA034011F80D
:1025B000013B40EA032011F8012B1043704770B52E
:1025C00003460D460026D868002847D0188A002800
:1025D00044DDDA68002114E0505C342806D1881C00
:1025E00081B208464C1CA1B2165C0AE0505CA842BD
:1025F00001D1501870BD481C81B2505C401C084489
:1026000081B2188A884202DD505CFF28E4D126B3EB
:10261000012E04D1986800F16C0280240AE0022E99
:1026200004D1986800F12C02402403E0986800F17E
:102630002C02C02400210AE0505CA84201D15018AD
:10264000D8E7481C81B2505C401C084481B2A142CA
:1026500002DA505CFF28EFD100BF00BF0020C9E7BD
:102660002DE9F04107463C6A0020E0622063606388
:1026700033212046FFF7A3FF05461DB1A81CFFF735
:102680008EFF60643A212046FFF799FF054625B189
:10269000A81CFFF784FFA06402E0606C4008A064FF
:1026A0003B212046FFF78BFF054625B1A81CFFF70D
:1026B00076FFE06401E0606CE064A068103008B967
:1026C000002001E0A0680069A06201212046FFF718
:1026D00076FF054635B1A81CFFF761FF064601F0FD
:1026E0001BFAE06203212046FFF769FF054635B17A
:1026F000A81CFFF754FF064601F00EFA20631C21C8
:102700002046FFF75CFF054635B1A81CFFF747FFE1
:10271000064601F001FA606306212046FFF74FFFED
:102720000546F5B1681CFFF737FF8008A063A06B72
:10273000022801D90220A06300260EE0022101EB4D
:1027400086014819FFF72BFF804601F0E5F904F1F7
:102750003C0141F82600701CC6B2A06BB042EDD817
:1027600000BFBDE8F081000070B50446256A204630
:1027700003F0FEF80949204603F00CF9074920460A
:1027800003F002F90549204603F040F90C212846E0
:1027900000F0E8FA2046FFF75BFE70BD285A0108FA
:1027A0002DE9F04105462C6A36212046FFF707FF48
:1027B00006468EB1B01CFFF7F2FE074601F0ACF9F9
:1027C0006062A068103008B9002001E0A0680069CC
:1027D000A062284600F044FABDE8F08110B500BFC1
:1027E00000BF848B631C83838369F0331955848B0A
:1027F000631C83838369F0331A5510BD00BF00BF8B
:10280000838B5A1C82838269F032D154704710B591
:1028100000BF00BF0B0E848B621C82838269F03282
:102820001355C1F30743848B621C82838269F032A3
:102830001355C1F30723848B621C82838269F032B3
:102840001355848B621C82838269F032115510BD4E
:1028500010B500BF00BF0B0A848B621C82838269A3
:10286000F0321355848B621C82838269F0321155D9
:1028700010BD00BF00B9704700BF00BF00BF00BF60
:1028800000BFFF22838B591C81838169F031CA54B8
:1028900008E000BF00BF0022838B591C818381693F
:1028A000F031CA54818B4429F3D3017F01F0030135
:1028B0000029EED100BFDEE7F8B505462C6A0421F9
:1028C000204600F04FFA2846FFF7CAFC064626BB12
:1028D000012235212046FFF781FF03212046FFF723
:1028E0008DFF022239212046FFF778FF298D2046EF
:1028F000FFF7AEFF2046FFF7BCFFA28BF03291B28C
:10290000606903F0C4FA00954323104A6169606866
:1029100006F03EF92846FFF781FDE07C401CE0749C
:10292000E07C0A2805DAE07C4FF47A7110FB01F0B4
:1029300001E042F2107087B207F2F3104FF4FA711F
:1029400090FBF1F0E0833046F8BD00002C5A0108FE
:102950002DE9F84305462C6A0321204600F002FACF
:102960002846FFF77DFC0646002E32D10122352194
:102970002046FFF733FF03212046FFF73FFF0222E7
:1029800039212046FFF72AFF4FF410712046FFF748
:102990005FFF042232212046FFF720FFA06A03F0E8
:1029A00051F8804641462046FFF731FF2046FFF7A9
:1029B00060FFA28BF03291B2606903F068FA009573
:1029C0004323104A6169606806F0E2F82846FFF781
:1029D00025FDE07C401CE074E07C0A2805DAE07C00
:1029E0004FF47A7110FB01F001E042F2107087B2EF
:1029F00007F2F3104FF4FA7190FBF1F0E0833046E8
:102A0000BDE8F8832C5A01082DE9F05F824615468F
:102A1000D046D8F82040D5F804B000BF00BF688980
:102A20002C2800DA6DE09BF80000022800D068E056
:102A300000270AE008F12B00C15D0BF11C00C05D0E
:102A4000814200D05DE0781CC7B298F82A00B842F5
:102A5000F0DCDBF8040002F0F5FF2168884200D0CA
:102A60004FE02946204600F077FA00B149E03521D1
:102A70002046FFF7A4FD8146B9F1000F00D140E0E8
:102A800009F10200FFF788FD0646052E1AD1A07C49
:102A9000012808D14046FFF7E3FD0020E0834046CF
:102AA000FFF7A0FB2CE0A07C032805D0A07C042825
:102AB00002D0A07C052823D10020E0834046FFF708
:102AC00013FB1DE0062E11D1A07C032808D0A07CAA
:102AD000012805D0A07C042802D0A07C052805D1BF
:102AE0000020E0834046FFF73FFE09E0022E07D1B9
:102AF000A07C062804D10020E0834046FFF750FE6A
:102B000000BF2046FFF736FD284603F04AF9BDE82E
:102B1000F09F0000F8B505462C6A0D21204600F014
:102B200021F900206062E062A06260632063E064DB
:102B3000A0646064A0632846FFF792FB0646E6B9EE
:102B4000012235212046FFF749FE07212046FFF7E5
:102B500055FE2046FFF78DFEA28BF03291B26069E0
:102B600003F095F90095432304F12402616960683C
:102B700006F00EF82846FFF751FCE07C401CE0749C
:102B8000E07C0A2805DAE07C4FF47A7110FB01F052
:102B900001E042F2107087B207F2F3104FF4FA71BD
:102BA00090FBF1F0E083284602F0E2FE0649284659
:102BB00002F0F0FE0449284602F0E6FE02492846EB
:102BC00002F024FF3046F8BD285A0108F8B5054642
:102BD0002C6A0521204600F0C5F82846FFF740FB87
:102BE00006462EBB012235212046FFF7F7FD0321C3
:102BF0002046FFF703FE022239212046FFF7EEFDB3
:102C0000298D2046FFF724FE2046FFF732FEA28BD7
:102C1000F03291B2606903F03AF90095432304F170
:102C200024026169606805F0B3FF2846FFF7F6FBF0
:102C3000E07C401CE074E07C0A2805DAE07C4FF47C
:102C4000FA6110FB01F001E044F6206087B207F260
:102C5000F3104FF4FA7190FBF1F0E0833046F8BDC9
:102C60002DE9F84305462C6A0121204600F07AF848
:102C70002846FFF7F5FA0646002E53D101223521EA
:102C80002046FFF7ABFD03212046FFF7B7FD0222E8
:102C900039212046FFF7A2FD298D2046FFF7D8FDF8
:102CA000042232212046FFF799FDA06A02F0CAFEF5
:102CB000804641462046FFF7AAFD042236212046E1
:102CC000FFF78CFD606A02F0BDFE8046414620465B
:102CD000FFF79DFD042237212046FFF77FFD0121EC
:102CE0002046FFF78BFD03212046FFF787FD1C21BF
:102CF0002046FFF783FD06212046FFF77FFD204693
:102D0000FFF7B7FDA28BF03291B2606903F0BFF814
:102D100000954323124A6169606805F039FF28462F
:102D2000FFF77CFBE07C401CE074E07C062803DAC3
:102D3000E17C0120884000E03C2000EB4001C1EB39
:102D4000C0104FF6FF7101EAC00707F2F3104FF40D
:102D5000FA7190FBF1F0E0833046BDE8F8830000A3
:102D60002C5A0108827C8A4202D081740022C274EB
:102D70007047000070B50546002600BF15B96FF01A
:102D8000090070BD00BF2C6A95F8310020F00800E2
:102D900085F83100288DB0F5107F02DA4FF0FF3052
:102DA000EFE74CB9502002F027FC044614B94FF06D
:102DB000FF30E6E72C6208E0606810B1606805F05B
:102DC000C7FE00BF00BF00BF00BF50212046FDF777
:102DD00018FA05F0ABFE6060606838B9204602F072
:102DE000B1FB002004462862401ECAE74422104975
:102DF000606805F04DFD43220D49606805F080FDD7
:102E00002A460C49606805F09FFE2846FFF720FB24
:102E100006462EB1284600F00FF84FF0FF30B0E71D
:102E200095F8310040F0080085F831003046A8E7F9
:102E3000285A0108092A000870B50446256A00BF0F
:102E400004B970BD00BF94F8310020F0080084F888
:102E500031006DB1686820B1686805F079FE002026
:102E6000686000BF00BF284602F06CFB00202062B3
:102E700000BFE6E770B505462C6AA07C012805D0A6
:102E8000A07C0A2802D0A07C052802D12846FFF7A2
:102E90009DFE70BD70B505462C6AA07C012805D04A
:102EA000A07C0A2802D0A07C052802D12846FFF782
:102EB00003FD70BD70B505462C6AA07C0C2802D0BD
:102EC000A07C062803D12846FFF7C2FA43E0A07C85
:102ED00001280DD1E07C052803DC2846FFF7C0FE61
:102EE00039E02846FFF716FE2846FFF7B1FA32E030
:102EF000A07C08280AD1E07C012803DC2846FFF7E3
:102F000071F928E02846FFF7EFF824E0A07C0528B7
:102F100003D12846FFF75AFE1DE0A07C04280DD1FE
:102F2000E07C082803DC2846FFF7C6FC13E02846AF
:102F3000FFF7F0FD2846FFF78BFA0CE0A07C032892
:102F400009D1E07C022803DA2846FFF701FD02E000
:102F50002846FFF77DFA70BD70B504460D4600BFE8
:102F600014B96FF0090070BD00BF2046FFF702FBE7
:102F70002889F0280CD92889F0382082208A02F08C
:102F80003BFBE060E06818B900202082401EEAE7C1
:102F9000F02002F031FBA060A06850B9E06828B1D1
:102FA000E06802F0CFFA0020E06020824FF0FF30AE
:102FB000D9E70023F0222846A16802F0A9FE0646C0
:102FC00000BF00BFE06840B1228AF0232846E168D4
:102FD00002F09EFE064600BF00BF0020C3E70000CF
:102FE0002DE9FC5F06468946174600BF0EB9BDE8CD
:102FF000FC9F00BF78892A2803DA384602F0D1FE08
:10300000F5E7D7F8048008F10E04012000F091FDE7
:103010002188884215D140F2046000F08AFDA18821
:1030200088420ED14FF4006000F083FD6188884231
:1030300007D140F6060000F07CFDB8F80C1088427D
:1030400003D0384602F0ADFED1E721463046FEF708
:103050003BFFD4F80E000190A0690090706810B991
:103060004FF0000A07E000987168884201D1012002
:1030700000E000208246BAF1000F07D0012304F1DE
:10308000080201A9304605F0E9FD06E0002304F13D
:10309000080201A9304605F0E1FDE08800F049FD95
:1030A000012802D002283ED138E0BAF1000F33D017
:1030B000022000F03EFDE080D4F80E00A0617068B0
:1030C000C4F80E0000BF00BF0625706A20B1706A08
:1030D000007908B1174801E004F10800834614E0C4
:1030E000681EC5B204F10800415D0A3041551BF865
:1030F000050008F8050019F8051004F1080041550D
:1031000019F8051008F106004155002DE8DC394694
:103110003046B269904700E000BF05E001A93046A3
:10312000FEF7CBFF00E000BF00BF384602F039FEDB
:1031300000BF5CE7305A01082DE9F04104460F4614
:1031400000BF0CB9BDE8F08100BF7D6805F10E0637
:10315000F068A1680840D4E901121140884200D00B
:10316000F0E70023AA1D06F10C01204605F076FDCC
:1031700000BFE7E72DE9FC4104460E4615460E2147
:10318000304602F045FE18B16FF00100BDE8FC8149
:1031900000272146284601F031FC08B1254F40E0C8
:1031A0004FF0704002F04EFC296800EA01084FF031
:1031B000604002F047FC80451DD101208DF80000E1
:1031C00000208DF801005E208DF80200286802F0D2
:1031D00039FCC0F306408DF80300286802F032FC89
:1031E000000A8DF80400286802F02CFCC0B28DF8AB
:1031F00005006F4615E02868A1680840D4E901126F
:103200001140884207D0E06810B104F10C0502E0DB
:103210006FF00300BAE732462946204600F00CF86A
:10322000B4E73B4604F12B023146204600F04AF950
:10323000ACE70000305A01082DE9F84F81460F46EF
:10324000164609F12B0A4FF0FF30009049463846E8
:1032500001F0D4FB78B94FF0704002F0F3FB39680D
:1032600000EA01054FF0604002F0ECFB854202D01D
:103270000FB1386818B96FF00900BDE8F88F012167
:10328000384600F035FA0446002C01DA2046F4E70F
:1032900004EB8400494901EB8000807B30B90120B8
:1032A00004EB8401454A02EB8101887300BF00BF33
:1032B00004EB8400414901EB8000807B012800D0B1
:1032C0002EB93946484600F0E7F8009000BF002EBE
:1032D00071D004EB8400394901EB8000807B022827
:1032E0000CD104EB840001EB800000F1080352468E
:1032F0003146484600F0E6F800905CE004EB8400BC
:103300002E4901EB8000807B012854D14FF0000B47
:10331000354608E000BF00BF287B012802D04FF0EF
:10332000010B02E02D68002DF4D100BFBBF1000FAE
:1033300010D029890022032002F090FB05466DB1D0
:103340003146284602F089FC40B1284602F029FDAA
:10335000002503E03546284602F0D5FD55B306208A
:1033600002F09AFA8046B8F1000F1FD00020C8F88A
:103370000000C8F8045004EB8400104951F8200004
:1033800060B104EB84010D4A52F8210000E00068AE
:1033900001680029FBD1C0F8008004E004EB840040
:1033A000064941F820800020009002E0284602F003
:1033B000F8FC00BF00BF00985FE70000547D0020CC
:1033C0002DE9FF4F83B0074689469A46DDF840B0A5
:1033D0000020029000222A21032002F03FFB8046B9
:1033E000B8F1000F04D14FF0FF3007B0BDE8F08F07
:1033F00000BF00BFD8F8046006F10E05139800F076
:1034000098FBE88000BF00BF0624786A20B1786A84
:10341000007908B11F4800E00598019012E0601E95
:10342000C4B21AF8041005F1080001551198015DA5
:1034300005F1120001550198005D305519F804108E
:10344000B01D0155002CEADCDBF80000C5F80E00C9
:1034500012980068A861012000F06BFB28804FF4EF
:10346000006000F066FB688040F2046000F061FBE1
:10347000A88040F6060000F05CFBB081414638466B
:10348000BA6990470290404602F08BFC4FF000086A
:103490000298AAE7305A01087FB504460D4601217B
:1034A000064A201D04F12B038DE825000391044AF0
:1034B00019462046FFF784FF04B070BD365A010854
:1034C000305A01082DE9F04706460F4690469946C6
:1034D0007D6800BF00BF062408E0601EC4B219F872
:1034E0000400285518F80410A81D0155002CF4DC20
:1034F0004FF4006000F01DFBA88139463046B269E8
:103500009047BDE8F087000010B5002446E004EBCA
:103510008400244901EB8000C07B401C04EB840143
:10352000204A02EB8101C87304EB8400114601EBD1
:103530008000807B022806D104EB840001EB800030
:10354000C07BF0280EDA04EB8400164901EB800002
:10355000807B012820D104EB840001EB8000C07B3C
:10356000022819DB04EB84000E4951F8200060B1F9
:1035700004EB84010B4A52F8210000F0C1F900204D
:1035800004EB8401074A42F82100002004EB840187
:10359000044A02EB81018873601CC4B20A2CB6DBBA
:1035A00010BD0000547D00202DE9F04104460D4679
:1035B0006668B08900F0BDFA0746B7F5006F03D022
:1035C000A7F60600E8B915E021462846FFF7B4FD46
:1035D0006FF00D01204602F01BFC30B100BF00BFB0
:1035E000204602F0DEFB002403E02946204601F0DD
:1035F000D3FA0BE0224605F12B012846FFF7F0FC39
:1036000004E0204602F0CDFB002400BF00BF0020F4
:10361000BDE8F08110B5044600BF00BF732084F8F8
:103620003200742133200155044860610448A061D0
:10363000204601F099FE002010BD00007531000801
:103640009554000870B50446204601F0CDFE0646AC
:1036500016B94FF0FF3070BD2146304622699047C1
:1036600005461DB1304602F09CFB00262846F2E7D5
:103670002DE9F04180460E460EB1307810B9002099
:10368000BDE8F081344600252BE008F1F40040F855
:103690002540274626212046FCF7D0FD04461CB1D4
:1036A00000202070641C08E020213846FCF7C6FD8D
:1036B00004460CB10020207000243D213846FCF760
:1036C000BDFD07463FB100203870781C08F59A719F
:1036D00041F8250004E0002108F59A7040F8251013
:1036E0006D1C102D01DA002CCFD12846C8E7000050
:1036F0002DE9FC5F05460F464FF00A08C1460A2631
:103700000024A34600200190B2460090CDB171483C
:10371000007800EB8000704901EB8000807B02287C
:103720000FD128686B49097801EB81016A4A02EBE5
:1037300081014968884204D16648007840B2BDE8FA
:10374000FC9F002473E00A2E08D104EB8400624938
:1037500001EB8000807B08B966B266E004EB840070
:103760005D4901EB8000807B012836D165B1286876
:1037700004EB8401584A02EB81014968884203D175
:103780005448047060B2DAE704EB8400524951F8FF
:10379000200088B104EB840001EB8000C17B00981D
:1037A000814242DB4FFA84FA04EB84004A4901EB80
:1037B0008000C07B009038E004EB8400464901EBB8
:1037C0008000C07B584530DB4FFA84F804EB84005E
:1037D00001EB800090F80FB027E004EB84003E4935
:1037E00001EB8000807B02281FD165B1286804EBC3
:1037F0008401394A02EB81014968884203D1354886
:10380000047060B29BE704EB8400334901EB800055
:10381000C17B0198814208DB4FFA84F904EB8400F4
:103820002D4901EB8000C07B0190601CC4B20A2CC2
:1038300089DB0A2E02D107F0010010B107F0020067
:1038400010B14FF0FF307AE70A2E01DAF4B222E02D
:10385000B9F10A0F03DA09F0FF0400BF1BE0B8F169
:103860000A0F02DA08F0FF0415E0BAF10A0F0FDAC6
:103870000AF0FF0404EB8401174A52F8210000F01B
:103880003FF8002004EB8401134A42F8210002E0D3
:103890004FF0FF3053E700BF00BF002004EB84016E
:1038A0000D4A02EB8101887345B105B900E0286833
:1038B00004EB8401084A02EB81014860002004EB1C
:1038C0008401054A02EB8101C8730248047060B2AA
:1038D00035E7000062010020547D002070B50446E9
:1038E0000D46E1B20548FEF7BDF900BF402103488F
:1038F000FEF741F90028F9D0204670BD00100140C4
:1039000070B5044600BF00BF00BF00BF0AE02546F7
:10391000246800BF00BF686802F043FA2946062009
:1039200001F078FF002CF2D170BD0146D1E901020F
:10393000801A704710B50446204600F001F810BD0B
:1039400010B5014600200FE000EB4002084B03EBEE
:10395000C2028A4207D1002200EB4003044C04EB70
:10396000C3031A7502E0401C0A28EDDB00BF10BD3E
:10397000A0010020002114E001EB41000B4A02EB02
:10398000C000007D60B9012001EB4102074B03EB51
:10399000C202107501EB41001A4602EBC0007047ED
:1039A000491C0A29E8DB0020F9E70000A0010020FB
:1039B00070B50646FFF7DEFF05460DB9002070BD65
:1039C0000D4C11E030466168FCF749FC58B9A0681D
:1039D0002860E0686860E068A8600020E860207CFB
:1039E00028742846EBE72468002CEBD12846FFF723
:1039F000A7FF0020E3E70000A45901082DE9F041EA
:103A000004460F461646D4E90110884203D14FF010
:103A1000FF30BDE8F081D4E90101451AB54200DD6F
:103A20003546A268206881182A463846FCF7D0FB44
:103A3000A0682844A0602846EBE7000070B5044663
:103A40002B480068F0B12B480068D8B12A480068BC
:103A5000C0B1002512E02748006850F8251004F195
:103A60002E00FCF7FCFB40B9C02204F130012846CF
:103A70001F4B1B689847608570BD6D1C1E48006811
:103A80008542E8DB04F12E00FCF7E2FBA72804D214
:103A900004F12E00FCF7DCFB00E0A7200646122212
:103AA00016A104F13000FCF793FB324604F12E011D
:103AB00004F14200FCF78CFB06F1120004F1300126
:103AC000084413A10A6802608A888280897981711A
:103AD000002206F1190004F130010A540846FCF7EF
:103AE000B7FB064600BF00BF668500BFC4E7000005
:103AF00088000020900000208C0000203C623E2ABC
:103B00002A2A554E4B4E4F574E2054414720000015
:103B10002A2A2A3C2F623E000146080601F47F4211
:103B200040EA022001F47F0240EA122040EA1160DC
:103B3000704701460806000C40EA1120704700005B
:103B40002DE9F04104460D469046274601212846BE
:103B500004F023FC00F034FD06461EB94FF0FF30A0
:103B6000BDE8F0813146284602F020FB094928468D
:103B700004F0A4FA0849284602F024FE042207496A
:103B8000284603F0BBFC0649284604F003FC00204D
:103B9000E6E70000A93F0008F53B0008613F000888
:103BA0005945000870B505460C460021284602F02C
:103BB000FDFA0021284604F081FA0021284602F08F
:103BC00001FE00221146284603F098FC00212846F9
:103BD00004F0E0FB204600F001FD284602F062FB05
:103BE000064626B104220249284603F087FC70BD30
:103BF000613F000870B504460E46254615B12846BB
:103C000000F0ECFC70BD00002DE9F74F0646914630
:103C10004FF00008002086F82C00019800782F282B
:103C200027D10198407820BB002414E0434951F883
:103C30003400FFF7BDFE8046404850F83400019044
:103C4000B8F1000F06D03D4800EBC400007986F8BB
:103C50002C0002E0641C052CE8D300BFB8F1000F73
:103C600064D101A800F072F88046002086F82C008C
:103C70005CE03F210198FCF7E1FA054615B1002010
:103C800028706D1C2E48006870B32E48006858B329
:103C900000271CE02B48006850F837100198FCF70B
:103CA000DEFA98B929463046FFF7E2FC82462548FD
:103CB000006800EBC70006F59A7306F1F40251465E
:103CC000D0F804C03846E047019004E07F1C1C484F
:103CD00000688742DEDB00BF19480068874203D1D5
:103CE00015B16D1E3F2028700198FFF761FE8046D8
:103CF000B8F1000F03D101A800F028F88046B8F110
:103D0000000F13D0002086F82C0000240BE00E4892
:103D100050F824100198FCF77FFA18B1012086F8BA
:103D20002C0002E0641C042CF1D300BF4A4641463B
:103D30003046019B00F038F8BDE8FE8FC0590108FD
:103D400098000020940000207800002070B5044600
:103D50000CA020602068FFF72BFE05467DB90CA063
:103D600020602068FFF724FE054645B90BA02060BF
:103D70002068FFF71DFE05460DB90020206028468B
:103D800070BD00002F3430342E68746D6C0000005C
:103D90002F3430342E68746D000000002F3430341E
:103DA0002E7368746D6C00002DE9F04104460D46D9
:103DB00016469846002D2AD00020208584F8F10070
:103DC0002868E06168686062286820622560286869
:103DD000606000BF00BF686860610020207600BF9F
:103DE00000BF2068007CB8B1B6B10DA162696068FF
:103DF00002F006F907464FB1391D6268881A6168FA
:103E0000014461606169091A616100BF04E000203A
:103E100020606060606120760020BDE8F0810000D5
:103E20000D0A0D0A000000002DE9F74F84B00C4682
:103E30000498D0F8009000BF00BF00BF00BF20680A
:103E400008B9606820B16FF00A0007B0BDE8F08FD4
:103E5000A06810B9C4F8089003E04946A06801F0D2
:103E6000CCFEA068006898B1A068008940F2FF31DC
:103E7000884202DAA068008901E040F2FF30804603
:103E8000002342463149A06801F042FF2F4E04E072
:103E9000D9F80460B9F80A8000BFB8F1070F42DB17
:103EA00042462BA1304602F0ABF88246BAF1000F31
:103EB00039D000200390042226A13046FCF7EAF90D
:103EC00008B9F51C04E0002030716FF00900BCE770
:103ED000681C801BA8EB000080B202901FA1681C28
:103EE000029A02F08DF807463FB919A1681C029AA0
:103EF00002F086F8074601200390681C381A80B249
:103F000001907FB1AF420DD9681C0090002028704D
:103F10000022DDE9000142542046039A0099FFF790
:103F200073FE92E700BFA06801F08EFE8346A06892
:103F30000089B0F5806F05DABBF10A0F02DC6FF083
:103F40000D0082E76FF009007FE70000900200207B
:103F50000D0A00004745542000000000200000002A
:103F600070B505460E462C462CB921463046FFF763
:103F700019FE002070BD207E401C2076207E042883
:103F800005D121463046FFF70DFE0020F2E74CB187
:103F9000206838B12146304600F04EF810B1304666
:103FA00003F04CF80020E5E72DE9FF4107460D46F8
:103FB00098466FF004063C46B8F1000F02D1029813
:103FC00000B18CB9029838B102980189284604F0F2
:103FD0008FF8029801F0E5FE21462846FFF7E2FD42
:103FE000002004B0BDE8F08102980189284604F061
:103FF0007FF8206838B92A46214602A8FFF714FF47
:10400000064600BF00BF06F10E0030B1A06820B127
:10401000A06801F0C6FE0020A06026B9214628460F
:1040200000F00AF806E006F10A0018B92146284611
:10403000FFF7B8FD0020D4E72DE9F84305460C460C
:104040004FF0000900276069002842D1206830B98C
:1040500021462846FFF7A6FD0020BDE8F88320682A
:10406000FFF763FC002805DC21462846FFF79AFD90
:104070000020F2E7E06808B1266915E0288F4600C5
:1040800000BFB0B201F0B8FAE060E06808B12661A4
:1040900005E0304606EBD0714E10642EF1DC00BF17
:1040A000E06808B90020D8E73246E1682068FFF7E9
:1040B000A5FC0646002E05DA21462846FFF772FDCC
:1040C0000120CAE76661E06860606662E068E061FE
:1040D00000BF94F82C00A8BBB5F86E006169884257
:1040E00003D2B5F86E00009004E0A08A80B2009080
:1040F00000BF00BFB5F838804FEA4800BDF8001097
:10410000884203DA4FEA4840000C009094F82C00F3
:1041100008B1012000E0002003466A462846616895
:1041200000F071FA0746002F0BD14FF00109BDF8DE
:104130000010606808446060BDF800106069401AB3
:104140006061F6E1FFE7B5F86E0000906168E06934
:1041500088423CD96168E069401AB5F86E1088421F
:1041600003DDB5F86E00009006E000BF00BFA08B35
:10417000A188401A80B20090B5F838804FEA480014
:10418000BDF80010884203DA4FEA4840000C009066
:1041900094F82C0008B1012000E0002003466A4694
:1041A0002846616800F02FFA07465FB94FF0010911
:1041B000BDF80010606808446060BDF800106069D8
:1041C000401A6061B5F86E0008B9484645E76DE1F0
:1041D000BDF8000008B948463FE794F8F10005280B
:1041E00015D2DFE800F00315349BFA00E06900788F
:1041F000D74909680978884203D1012084F8F10081
:104200002085606A401E6062E069401CE0614CE10C
:10421000208D052805D100202085022084F8F1009A
:1042200014E0E0690078218DC94A1268515C884227
:1042300003D1208D401C208502E0002084F8F1008D
:10424000606A401E6062E069401CE0612DE1208DE3
:10425000B0B9E069007820280BD0E069007809281F
:1042600007D0E06900780A2803D0E06900780D28BB
:1042700006D1606A401E6062E069401CE06114E1A2
:10428000E0690078B3490968097888420FD0E0698D
:10429000007820280BD0E0690078092807D0E06971
:1042A00000780A2803D0E06900780D2820D1208DFD
:1042B00018B9002084F8F10029E0032084F8F10007
:1042C00000BF00BF94F8280084F82D000021228D43
:1042D00004F12E008154E06900789E49096809784C
:1042E000884202D10120208511E0002020850EE0C7
:1042F000208D012808DAE0690178228D501C208584
:1043000004F12E00815402E0002084F8F100606A7C
:10431000401E6062E069401CE061C6E0208DB0B9DB
:10432000E069007820280BD0E0690078092807D0E0
:10433000E06900780A2803D0E06900780D2806D1EA
:10434000606A401E6062E069401CE061ADE0E069C7
:104350000078218D7F4A1268515C884242D1606AA0
:10436000401E6062E069401CE061208D022835D16A
:104370002046FFF763FB00202085042084F8F1002D
:10438000E06920626168206A884234D96168206AE5
:10439000401ABDF80010884204DA208CA188401A27
:1043A00080B2009094F82C0008B1012000E00020B9
:1043B00003466A462846616800F025F90746D7B9E2
:1043C0004FF00109BDF80010606808446060BDF856
:1043D00000106069401A60610DE00DE0208D401C06
:1043E000208508E0606A401E6062E069401CE06170
:1043F000002084F8F10058E06168206A88422BD9D7
:104400006168206A401ABDF80010884204DA208CE6
:10441000A188401A80B20090BDF8000068B194F8FD
:104420002C0008B1012000E0002003466A4628461F
:10443000616800F0E8F8074600E000277FBB4FF016
:104440000109BDF80010606808446060BDF8001004
:104450006069401A606128E0208D618D88421FDA12
:10446000608D218D401ABDF80010884204DA608DFD
:10447000218D401A80B20090228D04F13000111875
:1044800001236A46284600F0BEF8074667B94FF098
:104490000109208DBDF800100844208504E004E0E7
:1044A0000020208584F8F10000BF00BF606A10B1D1
:1044B000002F3FF48DAE94F8F100042839D06168E4
:1044C000E069884235D96168E069401AB5F86E1034
:1044D000884203DDB5F86E00009006E000BF00BF23
:1044E000A08BA188401A80B20090288F4000BDF8B0
:1044F0000010884203DA288F4004000C009094F8E2
:104500002C0008B1012000E0002003466A4628463E
:10451000616800F078F807465FB94FF00109BDF80F
:104520000010606808446060BDF800106069401ABF
:104530006061606950B92068FFF7F7F9002805DC71
:1045400021462846FFF72EFB002086E5484684E5F5
:10455000E8590108EC5901082DE9F04104460E46DE
:104560001746254615B90020BDE8F08100202876C1
:1045700029463046FFF760FD0020F5E700BF00BF89
:1045800000BF00BF024A1060024A1160704700007D
:10459000940000209800002000BF00BF00BF00BFB3
:1045A00000BF00BF034B1860034B1960034B1A6038
:1045B0007047000088000020900000208C00002040
:1045C00010B54FF4BA7001F017F8044624B14FF457
:1045D000BA712046FBF715FE204610BD10B5044603
:1045E00084B1206820B12068FFF7A4F90020206082
:1045F000E06820B1E06800F0A5FF0020E060204600
:1046000000F0A0FF10BD2DE9F0470646884617468A
:10461000994600BF00BF3C8800BF4B46224641463A
:10462000304604F0BDF80546681C68B9B6F86E005F
:1046300018B1B6F87000082801DB012404E0204618
:1046400004EBD071C1F34F04681C08B9012CE4DC01
:104650003C802846BDE8F08710B50448044A06CAE5
:1046600006C001210838FFF789FF10BD7000002047
:10467000B859010810B500F02FF8FFF7EDFF024818
:1046800000F004F810BD0000285A010870B5044677
:1046900002F084FC054600BF00BF0121284603F05C
:1046A0007CFE50222146284601F082FD064600BFCE
:1046B00000BFFF21284602F009FC054600BF00BFED
:1046C0002946284601F072FD0249284601F00CFDFA
:1046D00070BD0000413B000810B50122024801688E
:1046E0000248FFF759FF10BD6C0000205906000872
:1046F00070B505460C4622460321284600F0B9F85D
:1047000070BD2DE9FF5F054689466C68208801F081
:104710009FF9C0F303204FEA8008C8F10001284642
:1047200001F076FB10B92889042800D298E0686867
:1047300090F800A0BAF1080F7CD101264FF070402C
:1047400001F080F9216900EA010B4FF0604001F0AF
:1047500079F9834500D10026494604F1100000F0A4
:104760004DF900B1002626B9284601F01AFBBDE834
:10477000FF9F2889082800D272E0284600F0C2F87E
:1047800018B1284601F00DFBF1E72221284601F07F
:104790003FFB48B34146284601F03AFB10B100BF49
:1047A00000BF61E029890022022001F057F9064686
:1047B00006B959E000BF00BF2946304601F04DFA66
:1047C00010B100BF00BF4FE07468C8F1000001B233
:1047D000304601F01DFB10B100BF00BF44E0284689
:1047E00001F0DFFA354608E06FF02101284601F0BC
:1047F0000FFB10B100BF00BF36E06F68E0680390A8
:104800002069E0600398206100203870788020895A
:1048100001F01EF9C0B240F47F463046FFF789F937
:104820002081002060814146284601F0F1FA10B154
:1048300000BF0EE00EE001200021FF230A46CDE973
:104840000109009104F10C01284600F0A5FA064682
:1048500000BF00E000BF00BF284601F0A2FA86E7D3
:10486000284601F09EFA82E7284601F09AFA00BF36
:104870007DE72DE9FC4706460F469046002224219D
:10488000012001F0EBF805460DB9BDE8FC8700BF3B
:1048900000BFD6F804906C68277084F8018000206F
:1048A000A080E08071686A6802F108001C22FBF7B2
:1048B0008FFC002060806989204600F019F8608034
:1048C00001200021FF2309F10C02CDE90010284648
:1048D00000F048FA284601F064FA00BFD5E770B549
:1048E00005460C4622460B212846FFF7C2FF70BD45
:1048F00070B504460D462946204600F0E7FDC0434A
:1049000080B270BD2DE9F0410646002400273546EF
:1049100017E06989686800F0D9FD0444A0B200EB93
:104920001444688900EBD0714910A0EB410139B102
:10493000C7F10100C7B2E0B2C4F3072141EA002485
:104940002D68002DE5D127B1E0B2C4F3072141EA7B
:104950000024E04380B2BDE8F081000000B587B0DC
:1049600001210846FCF740FF01211020FCF75CFF05
:10497000072209211F48FCF791FD07220A211D4843
:10498000FCF78CFD00208DF81A0001208DF81B002B
:1049900002208DF818000002059002208DF8190001
:1049A00005A91448FCF732FD02208DF818004002DA
:1049B000059005A90F48FCF729FD4FF4E13001905F
:1049C0000020ADF80800ADF80A00ADF80C00ADF815
:1049D00010000C20ADF80E0001A90748FDF7D8F82B
:1049E00001210548FDF7BBF840210348FDF7AEF86B
:1049F00007B000BD000002400010014030B5034682
:104A00001A68D04300B10AB9012030BD91F83100D5
:104A100000F0020008B90020F7E74868904201D191
:104A20000020F2E718688C682040D1E901452C404D
:104A3000A04208D1886822EA00008D68EC43A042B9
:104A400001D10120E1E70020DFE700002DE9F74F69
:104A500086B08846B8F828000590142001900222FC
:104A60000021104600F0FAFF054625B94FF0FF304F
:104A700009B0BDE8F08F059868812881454820F08D
:104A8000030068606C680698142241682046FBF7B2
:104A90009FFBE08800F0DCFF0746C7F30C000490A2
:104AA00007F40050039006980089143886B20599DF
:104AB000A1F11400C11700EB5171C1F3CF0B61E0FC
:104AC00005981438B04201DB012000E0002002907C
:104AD0000498C0F30C00039940EA0107029808B952
:104AE00047F40057029808B1304601E04FEACB0086
:104AF0001FFA80FA524604F11401019B069801F056
:104B000007F90199084480B201903846FFF711F87F
:104B1000E0800AF1140188B2FFF70BF860800020F2
:104B2000608114212046FFF7E3FE6081029828B1DE
:104B300006F1140081B2284601F0A9F900221146BD
:104B4000022000F08BFF8146B9F1000F0DD02946FD
:104B5000484601F06EF8D8F8143049464046089AA5
:104B60009847484601F01DF905E0284601F019F97B
:104B70004FF0FF307CE7A6EB0A0086B20498584459
:104B800080B20490002E9BD1284601F00AF9002043
:104B90006EE70000777700202DE9F05F06460F46AC
:104BA0004FF0010A7468208800F052FF0421B1EB35
:104BB000203F05D0304601F0F4F80020BDE8F09F1A
:104BC000208800F045FFC0F303284FF6FF7000EA8D
:104BD0008808608800F03CFF81467089404502DB10
:104BE0003089484504DA304601F0DBF80020E5E77B
:104BF0004946304601F04BF94FF0010B3D4600BFEE
:104C0000284600F095FE70B1281D60B1686850B16B
:104C100020696968884205D0294604F11000FFF731
:104C2000EDFE00B10DE0BBF1000F04D04FF0000B22
:104C30004948056800E02D68BD4200D12D68002D6F
:104C4000DED100BF7DB9208900F002FFC0B211287B
:104C500009D104EB0801488800F0FAFE442802D18B
:104C60003D464FF0000ABAF1000F19D0E068B8B124
:104C7000394604F10C00FFF7C1FE60B94FF07040F7
:104C800000F0E0FEE16800EA010B4FF0604000F048
:104C9000D9FE834504D1304601F083F800208DE72A
:104CA00025B9304601F07DF8002087E743F6FF7014
:104CB000FEF73FFFE188084038B1304600F0EAF8DF
:104CC00006460EB9002079E7746824480760244836
:104CD00004603946304601F05FF9A8BB208900F036
:104CE000B7FEC0B201280DD0062806D011280ED17B
:104CF0003946304603F036FE25E03946304601F0AD
:104D0000A1FD20E039463046FFF7FBFC1BE03946A9
:104D100004F11000FFF772FE88B94FF0704000F008
:104D200091FE216900EA010B4FF0604000F08AFE1D
:104D3000834504D0746002213046FFF7D9FC304629
:104D400001F02FF800BF00BF0020044908600449AB
:104D5000086000BF32E70000D000002050010020B2
:104D6000540100202DE9FE4F05460E4614461F460D
:104D7000DDE90C89204600F0CFFA5FEA000A02D193
:104D8000001FBDE8FE8F3B462246314628468DE88F
:104D9000000700F001F8F4E72DE9F05F06460F4642
:104DA00090469A460C9DB8F1000F5BD04FF0140965
:104DB0001421304601F02CF818B16FF00100BDE865
:104DC000F09F746800BF00BF208900F041FE6AF3C5
:104DD0001F208346FEF7ADFE2081208900F038FEBB
:104DE00001120B9840EA012B5846FEF7A2FE2081E3
:104DF000B8F1000F01D1002001E0D8F800002061D7
:104E0000CB464FEAE97109EB917189104FF480426A
:104E100042EA01210A9A114388B2FEF78AFE2080F5
:104E20003089FEF786FE60800020E0801848008808
:104E3000FEF77FFEA08016480088401C14490880B9
:104E40000FB1386830B9281D08B9002000E0686843
:104E5000E06004E00FB9002000E03868E060002066
:104E6000608102E0746804F11008288D48B130892F
:104E7000298D884205DD424629463046FFF7E6FD8A
:104E80009DE74246314628466B69984797E7000000
:104E9000580100202DE9FC5F804600200090D8F8E2
:104EA0000450288800F0D4FDC0F303201421B1EB96
:104EB000800F00D0B1E0E88800F0CAFDC0F30C001C
:104EC0004FF6FF7101EAC00A688800F0C1FD834611
:104ED000288800F0BDFDC0F30320ABEB800080B25A
:104EE0000190404600F0B0FE06464E480188881901
:104EF0000A280ADD3146284600F0D0F920B1494899
:104F0000008830440A2800DD87E04748046812E042
:104F10006069E968884209D1A0692969884205D198
:104F2000A089A988884201D1012000E0002000B1B9
:104F300003E000942468002CEAD100BF34B9314664
:104F4000284600F03DF9044694B966E0E88800F090
:104F50007FFDC0F30C0058B9E08900F079FDC0F383
:104F60000C0028B11422294604F10800FBF730F99F
:104F70002C48008830442B490880E88800F068FD00
:104F800000F4005030B9A07F40F00100A0770198F4
:104F90005044A0834146204600F048F8D0B3A08B8F
:104FA0001430A08360684068076860684568142210
:104FB00004F108012846FBF70BF9A08BFEF7B9FDB9
:104FC00068800020E880688114212846FFF790FC63
:104FD0006881D4F804800CE0D7F804906FF01301D6
:104FE000384600F015FF3946404600F006FED9F875
:104FF0000070002FF0D12046009900F0CBF8404619
:1050000000F022FE07490988081A06490880404630
:10501000BDE8FC9FFFE70020FAE7404600F0C1FE34
:105020000020F5E7600100205C0100202DE9FE4F23
:1050300081460E46002501200090D6F804A0BAF85B
:10504000020000F005FD8346BAF8000000F000FD04
:10505000C0F30320ABEB800080B20190BAF80600E9
:1050600000F0F6FCC0F30C004FF6FF7101EAC0003F
:10507000029000BF00BF7468002020600298A080EA
:10508000DDE901100844E080D9F804802AE0D8F86E
:105090000470A088B988884210DAC4F8008055B13D
:1050A000A088E988884203DBE088B988884200DD6F
:1050B00060E02E6001E0C9F8046016E0A088B988BD
:1050C000884200D156E0A088F988884200DA51E091
:1050D0002DB1E888B988884201D000200090D7F827
:1050E00000803D46B8F1000FD1D100BFB8F1000FEC
:1050F0000ED14DB100BF00BF2E60E888A188884264
:1051000006D00020009003E000BF00BFC9F8046093
:1051100099F81E0000F0010050B3009828B3D9F8A8
:1051200004004068808810B1002000901DE02546F2
:10513000D4F800800BE0D8F80440E888A1888842C1
:1051400002D00020009005E02546D4F80080B8F198
:10515000000FF0D100BF009838B100BF00BF00BF02
:1051600000BF00BF00BF00BF00BF0098BDE8FE8FBA
:105170000020FBE7304600F067FD05490988081A62
:1051800003490880304600F00CFE0020EEE70000E6
:105190006001002070B504460D4608480068A04232
:1051A00003D106492068086003E000BF00BF206803
:1051B00028602146052000F02DFB70BD5C01002019
:1051C00070B505460E46052000F066FB044664B93E
:1051D0003146284600F062F8B04203DB052000F0BB
:1051E0005BFB04460CB9002070BD20212046FBF774
:1051F00008F80320E077064800682060044804604F
:105200001422294604F10800FAF7E2FF2046EBE7F2
:105210005C0100202DE9F04704468846002600BFC7
:1052200000BFB8F1000F01D000BF00BF6068476841
:10523000B88898B9656838686060142204F108017C
:105240006868FAF7C5FF01212846FFF748FB2846A2
:1052500000F0FAFC0644284600F0A3FD65680AE069
:105260006F68A9463D68484600F0EEFC0644484693
:1052700000F097FD00BF002DF2D141462046FFF718
:1052800089FF00BF00BF04480088801B02490880D6
:105290003046BDE8F0870000600100202DE9F05F96
:1052A00005468946002700BF0026B346B246194886
:1052B00004681DE06069E968884207D1A06929692E
:1052C000884203D1A089A988884201D0012000E04A
:1052D000002048B10AF1010A0EB9264604E0E07F39
:1052E000F17F884200DC2646206800B1A34624688E
:1052F000002CDFD12EB159463046FFF78BFF804698
:1053000047444F4502DABAF1010FCDDC3846BDE81B
:10531000F09F00005C01002070B50546104804684D
:105320000EE0204600F004FB48B12868A168084060
:10533000D4E901121140884201D1204670BD246891
:10534000002CEED10748006820B10648006800F044
:10535000EFFA08B90020F1E702480068EEE7000024
:10536000D0000020D400002070B50446062084F848
:105370002A00022084F82B0000212C2001552D202A
:1053800001552E2001552F2001553020015504F1E3
:105390002B010020FBF766FE40F2DC502085322016
:1053A00084F8310002220C490C48FBF7F3FB04227D
:1053B0000B490C48FBF7AAFB002507E0074901EB66
:1053C00045104FF44001FBF70DFC6D1C022DF5DB81
:1053D000FBF77EFF70BD0000201F0020100700209B
:1053E00050070020900600202DE9F04F87B083463B
:1053F0000027B846002601A8FBF7BAFC01A807C899
:1054000004AB07C304981FFA80F9DDF814A0032247
:105410004946104600F022FB064666B1344608E0D5
:1054200062890AEB07016068FAF7D2FE60890744D7
:105430002468002CF4D1154800688068012803D93D
:1054400012480068056800E0069D4FF0000805E07E
:105450004FF000402860ED6808F101080B48006833
:1054600080684045F4D800200849096888600848E9
:10547000406900F0800020B180200549486100208B
:105480008860304607B0BDE8F08F0000B40000200F
:10549000009002402DE9F04180460E4600250A4862
:1054A00000688768344607E0628978196168FAF70E
:1054B0008FFE608905442468002CF5D1A8B2FBF763
:1054C00053FE0020BDE8F081AC0000202DE9F04142
:1054D00080460E460024454608E0287807026D1CE9
:1054E000287807436D1C3C44B01E86B2012EF4DCC4
:1054F000002E02DD287807023C44A0B200EB1444E1
:10550000200C000410B1A0B200EB1444A0B2FEF7CE
:1055100010FBBDE8F0810000FFF720FAFBF7A4F9CB
:10552000FCF7EAF8FFF7A6F808E0FBF779FA08B10C
:10553000FCF74EF902480068FCF702F9F5E70000B5
:105540000400002070B5054605B970BD00BF00BF5E
:1055500000BF00BF0C480068854203D30B480068B9
:10556000854200D3F1E7A5F1080400BF00BF002089
:10557000207107480068844201D205480460204633
:1055800000F0C6FC00BFE0E7C0000020C40000201F
:10559000C800002000BF00BF124921F00301124AD9
:1055A0001160114608684FF42051018000214180AC
:1055B00001711146096801F520510C4A1160012161
:1055C000126811714FF42051084A12681180074A7D
:1055D000126851800121064A117003490968054A81
:1055E00011607047172B0020C0000020C40000206D
:1055F000CC000020C800002070B502460AB9002087
:1056000070BDD01C20F0030082B20C2A00DA0C22FC
:10561000B2F5205F01DD0020F2E730480088304E0F
:105620003688801B83B253E02D480068C118087982
:1056300000284AD10E8803F10800301A904244D362
:105640000E8803F10800361A02F11400864218D3BE
:1056500003F10800104485B2214800684419002075
:1056600020710888208063800D80012008712088C7
:10567000B0F5205F07D02088194E36683044458049
:1056800001E00120087115480068814214D107E04B
:10569000124800680088124E366830440F4E306061
:1056A0000E480068007928B10C4800680D4E366835
:1056B000B042EDD100BF00BF00BF00BF00BF00BFC0
:1056C00000BF00BF01F108009AE705480068C35A0F
:1056D000C2F520509842A7DC002091E7C8000020C6
:1056E000C0000020C40000202DE9F04106460A4613
:1056F000D01C20F0030082B20C2A00DA0C22B2F592
:10570000205F02DD0020BDE8F08100BF00BF3E4801
:105710000068864203D33D480068864201D3304684
:10572000F1E7A6F1080438480088201A85B22088DD
:10573000401B083887B200BF00BFBA4201DD00201D
:10574000E1E7BA4201D13046DDE72088DFF8B8C092
:10575000DCF800C000EB0C01087980BB088805F17B
:10576000080C94441FFA8CF3DFF8A4C0DCF800C0E6
:105770008C4508D1DFF890C0DCF800C09C44DFF80D
:105780009080C8F800C0DFF880C0DCF800C00CEBE7
:1057900003014FF0000C81F804C008804D80238085
:1057A000B1F800C0BCF5205F08D0B1F800C0DFF848
:1057B0005880D8F80080C444ACF8023022E0FFE7FB
:1057C00002F11400B8421DD805F10800104483B25C
:1057D0000D480068C1180E480068814201D20C488B
:1057E000016000200871208808804D80238008888F
:1057F000B0F5205F06D00888DFF80CC0DCF800C0E8
:105800006044438030467EE7C0000020C400002092
:10581000C800002001B9704700BF00BF0A46044B12
:1058200053F820301360024B43F8202000BFF2E70A
:105830002853002010B5002001E0431C98B209282D
:10584000FBDB114B23F00301002019E000230F4C78
:1058500044F8203000220CE00C4B53F820300B6051
:105860000A4B43F820100A4B33F810301944531CEC
:105870009AB2084B33F810309342EDDC431C98B2D7
:105880000928E3DB10BD00004F53002028530020FF
:10589000F0590108025A0108024600BF092A01DB3B
:1058A0000020704700BF064850F8221031B1044B69
:1058B000086843F8220000BF00BF00BF0846F0E7B9
:1058C000285300202DE9F04704460D4616461F4692
:1058D000DDE909A9DDF8208000206060A060E060BB
:1058E00084F8310020626062C4F81C800E480078A1
:1058F00084F834000C480078401C0B490870C4F848
:1059000010903B4632462946204600F017F82046C4
:10591000D04710B10020BDE8F0870448006820603F
:10592000024804602046F6E7D8000020D00000209E
:10593000014691F8310000F0010070472DE9F04177
:1059400006460F4614461D463946304600F022F8FA
:105950002146304600F05AF82946304600F014F847
:10596000BDE8F0810149086070470000D4000020C4
:1059700090F8311001F0010129B190F8311021F0B7
:10598000010180F83110704709B9002200E00A686F
:10599000C26070472DE9F04107460D4628687968D6
:1059A000884201D1012000E0002018BB154806689C
:1059B0000CE030687968884207D1D6F80C80012164
:1059C000304600F043FB464600E0F668002EF0D17A
:1059D0000D4804680CE054B1206840B12068796833
:1059E000884204D10DB9002000E028682060E468F6
:1059F000002CF0D10DB9002000E028687860BDE8E7
:105A0000F0810000180100201401002009B90022D3
:105A100000E00A688260704710B5044694F83100CF
:105A200000F0010068B914F8310F40F00100207057
:105A300014F8310900F0200018B1211D2046FDF7AF
:105A40002BFD10BD00B503461846FEF765F800BDF6
:105A500000B502461046FEF76CF800BD2DE9F05F78
:105A600083460F4690460026BBF1000F09D0BBF1DC
:105A7000010F0AD0BBF1020F0BD0BBF1030F0DD108
:105A80000BE006F1140086B200BF06F1140086B2E6
:105A900000BF06F10E0086B205E004E000BF00BFC3
:105AA0000020BDE8F09F00BFB8F1000F68D0B8F14A
:105AB000010F74D0B8F1020F72D0B8F1030F70D19A
:105AC0000820FFF7E9FE04460CB90020E9E784F856
:105AD0000C800020206006F110002044C01C20F043
