:020000040800F2
:10000000D042002029020008830500087B05000873
:100010007F050008DB020008190B00080000000043
:10002000000000000000000000000000650800085B
:10003000DF020008000000008505000855090008DF
:10004000430200084302000843020008430200087C
:10005000430200084302000843020008430200086C
:10006000E1020008FD020008210300084302000825
:10007000430200084302000843020008430200084C
:10008000430200084302000843020008430200083C
:100090004302000843020008430200084503000829
:1000A000430200084302000843020008430200081C
:1000B000430200084302000843020008430200080C
:1000C00043020008430200084302000843020008FC
:1000D000430200084302000843020008DD0900084B
:1000E00043020008430200084302000843020008DC
:1000F00043020008430200084302000843020008CC
:1001000043020008430200084302000843020008BB
:1001100043020008430200084302000843020008AB
:10012000430200084302000843020008430200089B
:10013000430200084302000843020008430200088B
:10014000430200084302000843020008430200087B
:10015000430200084302000843020008430200086B
:10016000430200084302000843020008430200085B
:10017000430200084302000843020008430200084B
:10018000430200084302000800F002F800F03CF8C7
:100190000AA090E8000C82448344AAF10107DA45E2
:1001A00001D100F031F8AFF2090EBAE80F0013F0F8
:1001B000010F18BFFB1A43F001031847700C000031
:1001C000900C0000103A24BF78C878C1FAD85207C2
:1001D00024BF30C830C144BF04680C6070470000C1
:1001E0000023002400250026103A28BF78C1FBD840
:1001F000520728BF30C148BF0B6070471FB500F0E1
:1002000010FE1FBD10B510BD00F031F81146FFF70C
:10021000F5FF00F0B1FD00F04FF803B4FFF7F2FF77
:1002200003BC00F053F80000094880470948004724
:10023000FEE7FEE7FEE7FEE7FEE7FEE7FEE7FEE796
:10024000FEE7FEE704480549054A064B70470000F3
:100250005D09000889010008D0000020D04200207C
:10026000D0020020D00200207047704770477546CA
:1002700000F028F8AE4605006946534620F0070016
:10028000854618B020B5FFF7DDFFBDE820404FF0F0
:1002900000064FF000074FF000084FF0000B21F070
:1002A0000701AC46ACE8C009ACE8C009ACE8C0093D
:1002B000ACE8C0098D4670470446AFF30080204685
:1002C000FFF7ABFF004870476C0000200149182081
:1002D000ABBEFEE726000200704700BFFEE7704796
:1002E00010B50A2000F097FD00F018FC022801D19B
:1002F00000F02EFD042000F033F810BD10B50A20E8
:1003000000F089FD00F00AFC042805D1012000F06E
:100310001FFD022000F01CFD082000F021F810BD98
:1003200010B50A2000F077FD00F0F8FB082805D191
:10033000012000F0F9FC022000F0F6FC102000F093
:100340000FF810BD10B50A2000F065FD00F0E6FBC7
:10035000012801D100F0FCFC402000F001F810BDA4
:100360000149086070470000143C014030B5CC10D2
:1003700000F1200353F824304C07E50E0F24AC4065
:10038000A343CD1000F1200444F82530CC1000F137
:10039000200353F824304C07E40E02FA04F42343FC
:1003A000CD1000F1200444F8253030BDF0B50A46E8
:1003B00000210023002400BF3DE0012505FA01F3E0
:1003C000156805EA03049C4234D105684F000326F2
:1003D000BE40B543056015794E00B540066835430B
:1003E00005601579012D02D01579022D16D1856889
:1003F0004F000326BE40B543856055794E00B54099
:10040000866835438560456801268E40B543456062
:10041000456896798E40B6B235434560C5684F0051
:100420000326BE40B543C560D5794E00B540C668C9
:100430003543C560491C1029BFD3F0BDF0B500237A
:1004400000244D07ED0E02FA05F3CE1000F1200551
:1004500055F826504E07F70E0F26BE40B543CF1075
:1004600000F1200646F82750CE1000F1200555F87F
:10047000265045EA0304CE1000F1200545F8264039
:10048000F0BD0246002013690B400BB1012000E0D3
:1004900000207047418370472DE9F0470C46DDE9A5
:1004A0000867002100258C4600BF60E04FF001087E
:1004B00008FA01F504EA050CAC4557D1D0F80080E4
:1004C0004FEA410A4FF0030909FA0AF928EA090834
:1004D000C0F80080D0F800804FEA410902FA09F91B
:1004E00048EA0908C0F80080012A01D0022A27D171
:1004F000D0F808804FEA410A4FF0030909FA0AF9D7
:1005000028EA0908C0F80880D0F808804FEA4109B5
:1005100006FA09F948EA0908C0F80880D0F80490FA
:100520004FF0010808FA01F829EA0809C0F8049018
:10053000D0F8048003FA01F948EA0908C0F80480F9
:10054000D0F80C804FEA410A4FF0030909FA0AF982
:1005500028EA0908C0F80C80D0F80C804FEA41095D
:1005600007FA09F948EA0908C0F80C80491C102963
:100570009CD3BDE8F0870183704700BFFEE700BF52
:10058000FEE770477047000029B1064A126802432F
:10059000044B1A6004E0034A12688243014B1A605C
:1005A000704700003038024029B1064A1268024301
:1005B000044B1A6004E0034A12688243014B1A603C
:1005C0007047000044380240F0B5002100220024AA
:1005D000022500260223324F3F6807F00C0121B1AB
:1005E000042905D0082937D105E02E4F076036E0F1
:1005F0002D4F076033E02A4F3F1F3F68C7F38056F7
:10060000274F3F1F3F6807F03F036EB1264FB7FBF0
:10061000F3F7DFF88CC0ACF1040CDCF800C0CCF3CD
:10062000881C07FB0CF40CE01E4FB7FBF3F7DFF858
:1006300070C0ACF1040CDCF800C0CCF3881C07FBE4
:100640000CF4174F3F1F3F68C7F301477F1C7D0025
:10065000B4FBF5F7076002E0124F076000BF00BF70
:100660000F4F3F6807F0F0010909104F7A5C0768E7
:10067000D74047600A4F3F6807F4E051890A0B4FA3
:100680007A5C4768D7408760054F3F6807F4604150
:10069000490B064F7A5C4768D740C760F0BD000041
:1006A000083802400024F40000127A0014000020F0
:1006B000F0B52DED028B83B005460E463A4905FB99
:1006C00001F000EE100AF8EE400A300100EE100AC8
:1006D000B8EE400A80EE801AB0EE418ABCEEC80A3D
:1006E00010EE100A84B200EE104AB8EE400A38EE5E
:1006F000400AF3EE000A20EE200ABCEEC00A10EE1B
:10070000107A4FF6FF7000EA0414E01984B227480B
:10071000006840F002002549086001200321002301
:100720000246CDE9001001022148FFF7B5FE012085
:10073000022100230A46CDE900104FF440611C4815
:10074000FFF7AAFE07220B211948FFF70FFE072229
:100750000A211748FFF70AFE14481030006840F4D9
:10076000802012491031086010481038006840F4A9
:1007700080200E49103908600846006820F4802067
:1007800008600C480480001D008842F20C010843F8
:100790000849091D088089150548FFF77BFE03B04D
:1007A000BDEC028BF0BD000040420F00303802402B
:1007B00000040240084800402DE9F04107460D467C
:1007C0000E4806780024002028700A2000F0C6F9A0
:1007D0000A48007886420FD176B100BF04E008488D
:1007E000005D3855601CC4B2B442F8DB03480078A1
:1007F0002870002001490870BDE8F0812800002021
:100800002C00002070B505460E464FF4807112484A
:10081000FFF740FE00240CE000BF1048008800F005
:1008200040000028F9D0285D0C49091D0880601C93
:10083000C4B2B442F0DB00BF0848008800F04000BA
:100840000028F9D00020064908704FF48071024852
:10085000FFF720FE70BD0000000402400048004089
:1008600028000020704700000CB500200190009087
:100870003448006840F480303249086000BF314895
:10088000006800F4003000900198401C019000982E
:1008900018B90198B0F5A04FF1D12A48006800F4CA
:1008A000003010B10120009001E00020009000987D
:1008B000012846D123484030006840F0805021494B
:1008C000403108602048006840F440401E490860FC
:1008D0001C48083000681B49083108600846006859
:1008E00040F4004008600846006840F4A0500860EA
:1008F0001648091F0860081F006840F08070091F33
:10090000086000BF0F48006800F000700028F9D0B0
:1009100040F205700E4908600A480830006820F06F
:1009200003000849083108600846006840F00200EA
:10093000086000BF03480830006800F00C00082879
:10094000F8D10CBD00380240007000400854400748
:10095000003C024010B500F035F810BD10B5154848
:10096000006840F47000134908601348006840F0C4
:1009700001001149086000200F49083108600E4845
:1009800000680E4908400C4908600D48091D0860C0
:10099000081F006820F48020091F08600020064915
:1009A0000C310860FFF760FF4FF0006001498039AB
:1009B000086010BD88ED00E000380240FFFFF6FE41
:1009C000103000240448006820B103480068401E2D
:1009D0000149086070470000240000200B49098885
:1009E00001F0200181B10949091D0988C8B20849EF
:1009F0000978402908DA0749054A127888540449D9
:100A00000978491C024A11707047000000480040F4
:100A1000280000202C00002001F40072B2F5007FB5
:100A200000D100BFCA430280704721B1828942F4DD
:100A30000052828104E082894DF6FF731A40828160
:100A4000704700002DE9FF4705460E460024A146E9
:100A500000BFA046B08900B100BF2C8A24F44054E6
:100A6000F08804432C82AC8941F20C608443B08846
:100A700031890843718908430443AC81AC8A24F46A
:100A80004074B0890443AC826846FFF79DFD20485E
:100A9000854202D01F48854202D1DDF80C9001E06A
:100AA000DDF80890A88900F4004040B109EBC900C6
:100AB00000EB091031684900B0FBF1F707E009EBE2
:100AC000C90000EB091031688900B0FBF1F7642020
:100AD000B7FBF0F004012009642101FB1078A8891C
:100AE00000F4004040B1322000EBC800B0FBF1F050
:100AF00000F00700044308E0322000EB08106421F6
:100B0000B0FBF1F000F00F0004432C81BDE8FF873B
:100B1000001001400014014000BFFEE770B5002442
:100B200010210C48FFF7ADFCC50008210948FFF76C
:100B3000A8FC45EA800504210648FFF7A2FC45EA27
:100B4000400540210448FFF79CFC45EA00040F20C3
:100B5000A04370BD00100240000C02404FF47A71B7
:100B60004143044A116000BF024909680029FBD1D2
:100B700070470000240000201CB501210820FFF769
:100B800003FD01211020FFF7FFFC40200090002012
:100B90008DF8040001208DF8070003208DF8050072
:100BA00069460548FFF702FC1C200090694603488F
:100BB000FFF7FCFB1CBD0000000C024000100240CF
:100BC00030B515480068154AB0FBF2F1481EB0F187
:100BD000807F01D301201BE0481E4FF0E0225061CE
:100BE00050170F22002807DA13071D0E0C4B00F0D8
:100BF0000F04241F1D5503E013071C0E094B1C5442
:100C000000BF00204FF0E02290610720106100201B
:100C100008B100BFFEE730BD0000002040420F00D9
:100C200018ED00E000E400E01CB501210846FFF7E4
:100C3000ABFC01210220FFF7A7FC4FF4807000906D
:100C400001208DF8040000208DF8060001208DF8A9
:100C5000070003208DF8050069460948FFF7A6FB49
:100C600069460848FFF7A2FB4FF480710448FFF77C
:100C700082FC4FF480710348FFF77DFC1CBD00002F
:100C8000000002400004024000B587B00121084680
:100C9000FFF77AFC01211020FFF786FC07220921CB
:100CA0001F48FFF7CBFB07220A211D48FFF7C6FBB1
:100CB00000208DF81A0001208DF81B0002208DF80D
:100CC00018000002059002208DF8190005A91448AB
:100CD000FFF76CFB02208DF818004002059005A973
:100CE0000F48FFF763FB4FF4E13001900020ADF8AF
:100CF0000800ADF80A00ADF80C00ADF810000C20AB
:100D0000ADF80E0001A90748FFF79CFE0121054838
:100D1000FFF78BFE40210348FFF77EFE07B000BDC2
:100D2000000002400010014010B50446012C03D120
:100D300001020548FFF71FFC022C03D1E101034823
:100D4000FFF719FC10BD0000000002400004024043
:100D500010B50446012C03D101020548FFF79AFBA8
:100D6000022C03D1E1010348FFF794FB10BD000002
:100D700000000240000402400EB5002400250027B8
:100D80000026FFF71DFFFFF77FFFFFF74DFFFFF77F
:100D9000F3FE4FF416512A20FFF78AFC3AE0FFF7E2
:100DA000BDFEC0B202909DF8080001280DD10024BC
:100DB00005E03019C0B20DF80400601CC4B2052C67
:100DC000F7DB05216846FFF71DFD02A96846FFF71E
:100DD000F3FC9DF8080068B19DF80800052801DDC6
:100DE00005200290002401E0601CC4B29DF80800B8
:100DF0008442F9DB681CC5B20A20FFF7AFFE142D50
:100E000008D187F0010717B10120FFF7A1FF0025E6
:100E1000701CC6B2C3E700B503461846FFF79EFE36
:100E200000BD4FF04070E1EE100A70474C0E000814
:100E3000000000202C000000C4010008780E00080B
:100E40002C000020A4420000E0010008007A030A00
:100E5000000000000000000001020304060708096A
:100E60000000000001020304010203040607080950
:080E700000000000000000007A
:040000050800018965
:00000001FF
