:020000040800F2
:10000000280400209D010008C1010008C301000868
:10001000C7010008CB010008CF0100080000000064
:10002000000000000000000000000000D3010008F4
:10003000D501000800000000D7010008D901000820
:10004000B7010008B7010008B7010008B7010008B0
:10005000B7010008B7010008B7010008B7010008A0
:10006000B7010008B7010008B7010008B701000890
:10007000B7010008B7010008B7010008B701000880
:10008000B7010008B7010008B7010008B701000870
:10009000B7010008B7010008B7010008B701000860
:1000A000B7010008B7010008B7010008B701000850
:1000B000B7010008B7010008B7010008B701000840
:1000C000B7010008B7010008B7010008B701000830
:1000D000B7010008B7010008B7010008B701000820
:1000E000B7010008B7010008B7010008B701000810
:1000F000B7010008B7010008B7010008B701000800
:10010000B7010008B7010008B7010008B7010008EF
:10011000B7010008B7010008B7010008B7010008DF
:10012000B7010008B7010008B7010008B7010008CF
:10013000B7010008B7010008B7010008B7010008BF
:10014000B7010008B7010008B7010008B7010008AF
:10015000B7010008B7010008B7010008B70100089F
:10016000B7010008B7010008B7010008B70100088F
:10017000B7010008B7010008B7010008B70100087F
:10018000B7010008B7010008DFF80CD001F038FC17
:1001900000480047D9190008280400200648804775
:1001A00006480047FEE7FEE7FEE7FEE7FEE7FEE75C
:1001B000FEE7FEE7FEE7FEE7BD0200088901000852
:1001C000704700BFFEE700BFFEE700BFFEE700BFCD
:1001D000FEE770477047704710B501F0FAF810BDA0
:1001E0000CB50020019000907648006840F4803003
:1001F0007449086000BF7348006800F40030009044
:100200000198401C0190009818B90198B0F5A04FD2
:10021000F1D16C48006800F4003010B1012000906A
:1002200001E0002000900098012846D16548403048
:10023000006840F0805063494031086062480068BF
:1002400040F44040604908605E48083000685D49FD
:10025000083108600846006840F40040086008461D
:10026000006840F4A05008605848091F0860081F43
:10027000006840F08070091F086000BF51480068A6
:1002800000F000700028F9D040F205705049086075
:100290004C480830006820F003004A4908310860E3
:1002A0000846006840F00200086000BF454808307A
:1002B000006800F00C000828F8D10CBD10B54548C6
:1002C000006840F47000434908603E48006840F010
:1002D00001003C49086000203A490831086039486B
:1002E00000683D490840374908603C48091D0860DE
:1002F000081F006820F48020091F08600020314991
:100300000C310860FFF76CFF4FF000603149803915
:10031000086010BD70B500200022022300240221D5
:10032000284D08352D6805F00C0020B1042806D0B2
:10033000082834D107E02A4D2A4E356033E02A4D93
:10034000284E35602FE01F4D2D1D2D68C5F38054BC
:100350001C4D2D1D2D6805F03F0154B1224DB5FBFC
:10036000F1F5184E361D3668C6F3881605FB06F201
:1003700009E01B4DB5FBF1F5124E361D3668C6F38C
:10038000881605FB06F20F4D2D1D2D68C5F301459E
:100390006D1C6B00B2FBF3F5124E356003E0104D9F
:1003A000104E356000BF00BF064D08352D68C5F3FF
:1003B00003150E4E705D0B4D2D68C540094E35601E
:1003C00070BD00000038024000700040085A40072D
:1003D000003C024088ED00E0FFFFF6FE10300024F4
:1003E0000024F4000000002000127A000400002025
:1003F00010B504469848844208D10121084600F00F
:1004000086FB0021012000F082FB76E093488442C5
:1004100008D10121022000F07AFB0021022000F027
:1004200076FB6AE08E48844208D10121042000F066
:100430006EFB0021042000F06AFB5EE089488442E4
:1004400008D10121082000F062FB0021082000F003
:100450005EFB52E08448844208D10121102000F064
:1004600056FB0021102000F052FB46E07F488442FA
:1004700008D10121202000F04AFB0021202000F0BB
:1004800046FB3AE07A48844208D10121402000F03E
:100490003EFB0021402000F03AFB2EE075488442EC
:1004A00008D10121802000F032FB0021802000F0E3
:1004B0002EFB22E07048844208D10121801500F013
:1004C00026FB0021A01500F022FB16E06B488442B9
:1004D00008D10121401500F01AFB0021601500F041
:1004E00016FB0AE06648844207D10121001500F09E
:1004F0000EFB0021201500F00AFB10BDF0B50A46E6
:1005000000210023002400BF3DE0012505FA01F38E
:10051000156805EA03049C4234D105684F000326A0
:10052000BE40B543056015794E00B54006683543B9
:1005300005601579012D02D01579022D16D1856837
:100540004F000326BE40B543856055794E00B54047
:10055000866835438560456801268E40B543456011
:10056000456896798E40B6B235434560C5684F0000
:100570000326BE40B543C560D5794E00B540C66878
:100580003543C560491C1029BFD3F0BD4FF6FF713C
:1005900001600021017141718171C171704708B51D
:1005A0004FF480320092009A0A430092009AC2618E
:1005B000C161009AC261C2690092C269009208BD1D
:1005C0000246002013690B400BB1012000E000201F
:1005D00070470146086980B270470246002053699F
:1005E0000B400BB1012000E0002070470146486934
:1005F00080B2704701837047418370470AB101831D
:1006000000E0418370474161704742694A4042615E
:100610007047F0B5002300244D07ED0E02FA05F3F4
:10062000CE1000F1200555F826504E07F70E0F2684
:10063000BE40B543CF1000F1200646F82750CE103B
:1006400000F1200555F8265045EA0304CE1000F1CC
:10065000200545F82640F0BD00000240000402409D
:1006600000080240000C024000100240001402404A
:1006700000180240001C02400020024000240240FA
:1006800000280240F948006840F00100F74908607E
:100690000020F64908310860F4480068F449084031
:1006A000F2490860F348091D0860F348EF498431B6
:1006B0000860F0481038091D0860EC48006820F414
:1006C0008020EA4908600020E8490C310860E749C9
:1006D0008C31086070470021E44A921C1170114669
:1006E0000870704710B501460022002300204A110F
:1006F000012A02D1DD4C236808E0022A03D1DB4C39
:100700007034236802E0D94C7434236801F01F026E
:10071000012494401C400CB1012000E0002010BDD9
:1007200038B5002000900024002500BF3120FFF7DD
:10073000D9FF05460098401C00900098B0F5A04FE6
:1007400001D0002DF2D03120FFF7CCFF08B10124F9
:1007500000E00024204638BD01460020C34A10684E
:1007600020F0F80040EAC10010607047C3490860FB
:1007700070470021BD4A703211701170012802D0FB
:1007800004280AD104E00121B84A7032117005E052
:100790000521B64A7032117000E000BF00BF7047FB
:1007A000B7490860704770B5049C41EA821501267C
:1007B000C6EB530645EA0645054345EA0465AB4EDC
:1007C000361D356070BDAD4908667047820142EA4A
:1007D0000172A64B84331A607047A8498866704737
:1007E00010B5830143EA016343EA02739F4C8834E6
:1007F000236010BDA14908677047A049C8647047CD
:1008000002460020994B0833186820F0EC6042EA59
:1008100001031843954B08331860704702460020C7
:10082000924B0833186820F0784042EA01031843DD
:100830008E4B083318607047014600208B4A0832FF
:10084000106820F0030008431060704787480830A4
:10085000006800F00C00704701460020834A08320F
:10086000106820F0F0000843106070470146002037
:100870007E4A0832106820F4E05008431060704748
:1008800001460020794A0832106820F4604040EAAE
:10089000C10010607047F0B500210022002402253D
:1008A00000260223714F08373F6807F00C0121B181
:1008B000042905D0082937D105E0724F076036E0DA
:1008C000714F076033E0694F3F1D3F68C7F38056A3
:1008D000664F3F1D3F6807F03F036EB16A4FB7FB9D
:1008E000F3F7DFF888C10CF1040CDCF800C0CCF39E
:1008F000881C07FB0CF40CE0624FB7FBF3F7DFF842
:100900006CC10CF1040CDCF800C0CCF3881C07FBB4
:100910000CF4564F3F1D3F68C7F301477F1C7D0015
:10092000B4FBF5F7076002E0564F076000BF00BF59
:100930004E4F08373F6807F0F0010909534F7A5CC2
:100940000768D7404760494F08373F6807F4E051D0
:10095000890A4E4F7A5C4768D7408760434F083713
:100960003F6807F46041490B484F7A5C4768D740BD
:10097000C760F0BD002100F44072B2F5407F0AD19B
:100980003A4A0832116821F4F811414A02401143F1
:10099000364A08321160354A70321268C0F30B03D0
:1009A0001A43324B70331A60704735494439086036
:1009B00070473349403908607047364908607047CE
:1009C00001460020294A8C32106820F44010084368
:1009D0001060704701460020244A8C32106820F4D1
:1009E0004000084310607047014600201F4A8C32C7
:1009F000106820F01F004A1E10431C4A8C32106001
:100A0000704701460020194A8C32106820F4F850D3
:100A10004A1E40EA0220154A8C3210607047014697
:100A20000020124A8C32106820F4403008431060D5
:100A3000704719490860704739B10C4A3032126862
:100A400002430A4B30331A6006E0084A303212681B
:100A50008243064B30331A607047F9B1034A34328F
:100A600012680243014B34331A601CE00038024024
:100A7000FFFFF6EA1030002400300020000047425B
:100A8000800E47420024F40000127A001400002077
:100A9000FFFCFF0F5C014742E01147428F4A12689A
:100AA00082438E4B1A60704739B18C4A121D12680E
:100AB00002438A4B1B1D1A6006E0884A121D126809
:100AC0008243864B1B1D1A60704739B1834A0C3232
:100AD00012680243814B0C331A6006E07F4A0C32E5
:100AE000126882437D4B0C331A60704739B17B4AE0
:100AF000103212680243794B10331A6006E0774ACD
:100B0000103212688243754B10331A60704739B146
:100B1000724A243A12680243704B243B1A6006E082
:100B20006E4A243A126882436C4B243B1A60704729
:100B300039B16A4A203A12680243684B203B1A6076
:100B400006E0664A203A12688243644B203B1A60F2
:100B5000704739B1614A1C3A126802435F4B1C3B33
:100B60001A6006E05D4A1C3A126882435B4B1C3BEC
:100B70001A60704739B1594A143A12680243574B08
:100B8000143B1A6006E0554A143A12688243534BEC
:100B9000143B1A60704739B1504A103A1268024348
:100BA0004E4B103B1A6006E04C4A103A12688243E2
:100BB0004A4B103B1A60704739B1484A1C321268E0
:100BC0000243464B1C331A6006E0444A1C3212684A
:100BD0008243424B1C331A60704739B13F4A20327E
:100BE000126802433D4B20331A6006E03B4A203234
:100BF00012688243394B20331A60704739B1374A43
:100C0000243212680243354B24331A6006E0334A1B
:100C1000243212688243314B24331A60704739B151
:100C20002E4A2C32126802432C4B2C331A6006E0F9
:100C30002A4A2C3212688243284B2C331A607047A0
:100C400039B1264A303212680243244B30331A60DD
:100C500006E0224A303212688243204B30331A6059
:100C60007047012808D11D493C31096841F008014D
:100C70001A4A3C32116007E018493C31096821F0FA
:100C80000801164A3C321160704739B1134A273ABD
:100C900012780243114B273B1A7006E00F4A273A9D
:100CA000127882430D4B273B1A7070470B48403037
:100CB000006840F080700949403108607047014683
:100CC0000020064A283A12680A400AB1012000E0D2
:100CD00000207047014926390870704734380240B7
:100CE00030B943F2DB028100A1F1C0410A6005E0A6
:100CF00043F2D2028100A1F1C0410A606FF070425C
:100D0000411C8900A1F1C0410A608100A1F1C041EC
:100D1000C1F80421704730B5002100220023046887
:100D2000A400A4F1C0442168FE4C2140D0E9014553
:100D30002C43C5682C4305692C4345692C438569C0
:100D40002C43C5692C43056A2C43456A2C43856AAC
:100D50002C43C56A2C43056B2C4321430468A40033
:100D6000A4F1C04421608468082C0BD10468A4005D
:100D7000A4F1C044246844F040050468A400A4F130
:100D8000C04425600468641CA400A4F1C044226827
:100D900002F04042446B2468456B6D6844EA0514D8
:100DA000456BAD6844EA0524456BAD8944EA0544CA
:100DB000456B2D8A44EA0554456B2D7D44EA056454
:100DC000456BAD692C4322430468641CA400A4F164
:100DD000C0442260C46AB4F5804F24D10468A400E2
:100DE000A4F1C044D4F8043103F04043846B246878
:100DF000856B6D6844EA0514856BAD6844EA05248B
:100E0000856B2D8A44EA0554856B2D7D44EA056483
:100E1000856BAD692C4323430468A400A4F1C0444E
:100E2000C4F8043107E06FF070450468A400A4F131
:100E3000C044C4F8045130BD00210160022141606A
:100E400000218160C160016141618161C161016214
:100E50004FF480514162490081620021C162016307
:100E6000B14941638163704751B18200A2F1C04230
:100E7000126842F001038200A2F1C042136009E04F
:100E80008200A2F1C0421268A84B1A408300A3F16D
:100E9000C0431A60704710280AD118214FF0204231
:100EA0001166402151664FF0FC319166D16610E029
:100EB00018219F4A116040214FF02042C2F884104F
:100EC0004FF0FC319A4A083211604FF02042C2F8CC
:100ED0008C10704730B50021002200230468102CCC
:100EE00003D14FF02044216E01E0914C2168914CD8
:100EF0002140446844F0080485682C43C5682C43AD
:100F000005692C43456944EA4524856944EA45342A
:100F100021430468102C03D14FF02044A26E02E05C
:100F2000834C083422680022C4692468C5696D684E
:100F300044EA0524C5692D8944EA0544C5692D7B29
:100F400044EA056422430468102C03D14FF0204486
:100F5000E36E02E04FF02044E36E0023046A24684D
:100F6000056A6D6844EA0524056A2D8944EA05444A
:100F7000056A2D7B44EA056423430468102C05D1DF
:100F80004FF020442166A266E36608E0684C2160C9
:100F90004FF02044C4F88820654C0C34236030BDE9
:100FA00010210160002141608160C16001614161E7
:100FB0008161FC21C2691160C2695160C26991609E
:100FC000C269D160026A1160026A5160026A91606E
:100FD000026AD160704799B1102808D14FF02042C1
:100FE000126E42F004024FF020431A661DE0504A90
:100FF000126842F004024FF02043C3F8802014E04E
:10100000102809D14FF02042126E484BDB1E1A40C7
:101010004FF020431A6608E0454A1268434BDB1E36
:101020001A404FF02043C3F88020704799B1102830
:1010300008D14FF02042126E42F040024FF02043A0
:101040001A661DE03A4A126842F040024FF020430F
:10105000C3F8802014E0102809D14FF02042126E0E
:10106000324B3F3B1A404FF020431A6608E0304AAB
:1010700012682E4B3F3B1A404FF02043C3F88020AC
:10108000704701460020102903D14FF02042506FD5
:1010900002E0274A14321068704718202449203192
:1010A000086000200906C1F8A4004FF0FC30204978
:1010B00028310860091D0860091D0860704770B577
:1010C0000021002200230024194D203529681A4DE3
:1010D0002940056845F01005466845EA46258668BA
:1010E00045EA463529434FF02045C5F8A010104D7C
:1010F00028352A680022C5682D68C668766845EAE2
:101100000625C668368945EA0645C668367B45EA3F
:1011100006652A434FF02045C5F8A820044D2C351C
:101120002B680BE08000F7FF441A0008FEFF0F0059
:10113000800000A08101F0FFCD01FEFF00230569C2
:101140002D680669766845EA06250669368945EA06
:1011500006450669367B45EA06652B434FF0204578
:10116000C5F8AC30824D2C68002445692D6846696D
:10117000766845EA06254669368945EA06454669A0
:10118000367B45EA06652C434FF02045C5F8B04054
:1011900070BD0021016041608160FC21C268116066
:1011A000C2685160C2689160C268D1600269116012
:1011B00002695160026991600269D16042691160FF
:1011C00042695160426991604269D160704748B19B
:1011D00067491039096841F004014FF02042C2F814
:1011E000A01008E0624910390968624A11404FF0C6
:1011F0002042C2F8A010704710B5F2B1102807D1F4
:101200004FF020435B6E0B434FF02044636632E0A7
:10121000B0F5807F08D1564B2C3B1B680B434FF039
:101220002044C4F8843026E0514B0C3B1B680B4330
:101230004FF02044C4F8A4301DE0102807D14FF02F
:1012400020435B6E8B434FF02044636613E0B0F5A0
:10125000807F08D1464B2C3B1B688B434FF02044CA
:10126000C4F8843007E0424B0C3B1B688B434FF0C3
:101270002044C4F8A43010BD10B50246002000235D
:10128000102A03D14FF02044636E09E0B2F5807F4D
:1012900003D1374C2C3C236802E0354C0C3C2368CE
:1012A00003EA01040CB1012000E0002010BD102869
:1012B00007D14FF02042526E8A434FF020435A66C6
:1012C00013E0B0F5807F08D1294A2C3A12688A438E
:1012D0004FF02043C3F8842007E0254A0C3A1268F7
:1012E0008A434FF02043C3F8A420704770B50246EC
:1012F0000020002300240025102A03D14FF02046AF
:10130000736E09E0B2F5807F03D1194E2C3E33682D
:1013100002E0174E0C3E336803EA010403EAD105EC
:1013200014B10DB1012000E0002070BD102808D1DB
:101330004FF02042526E22EAD1024FF020435A660B
:1013400015E0B0F5807F09D1094A2C3A126822EAEB
:10135000D1024FF02043C3F8842008E0044A0C3A3D
:10136000126822EAD1024FF02043C3F8A42070474C
:10137000B00000A0FBFF0F0030B5214800684FF41B
:101380007A72B0FBF2F1481EB0F1807F01D30120E8
:101390001BE0481E4FF0E022506150170F2200283A
:1013A00007DA13071D0E174B00F00F04241F1D55FD
:1013B00003E013071C0E144B1C5400BF00204FF019
:1013C000E022906107201061002008B100BFFEE715
:1013D00030BD0E48006820B10C480068401E0B4923
:1013E000086070470949086000BF0849096800297A
:1013F000FBD1704700B502461046FFF7F3FF00BD72
:101400000000002018ED00E000E400E024000020CF
:101410001CB501211820FFF70FFB4CF6B3700090AC
:1014200002208DF8040003208DF8050000208DF8BF
:1014300006008DF807006946FE48FFF75FF80C22AA
:101440000021FC48FFF7E5F80C220121F948FFF7DD
:10145000E0F80C220421F748FFF7DBF80C22052105
:10146000F448FFF7D6F80C220721F248FFF7D1F82D
:101470000C220821EF48FFF7CCF80C220921ED4897
:10148000FFF7C7F80C220A21EA48FFF7C2F80C223E
:101490000B21E848FFF7BDF80C220E21E548FFF7C5
:1014A000B8F80C220F21E348FFF7B3F84FF680702D
:1014B00000906946E048FFF721F80C220721DE483A
:1014C000FFF7A7F80C220821DB48FFF7A2F80C224F
:1014D0000921D948FFF79DF80C220A21D648FFF7C9
:1014E00098F80C220B21D448FFF793F80C221146F0
:1014F000D148FFF78EF80C220D21CF48FFF789F86D
:101500000C220E21CC48FFF784F80C220F21CA4888
:10151000FFF77FF84FF40050009001208DF8040091
:1015200000208DF806008DF805008DF8070069464B
:10153000C048FEF7E3FF4FF40051BE48FFF75AF8EA
:10154000082000906946BB48FEF7D8FF0821B9483B
:10155000FFF752F8002400E0641CB8488442FBDB2B
:101560000821B448FFF746F81CBD00B597B001212B
:101570000846FFF799FA0520019000200290092003
:101580000390002004900590069007900890099021
:101590000A9010200B9000200C900D900E900F9050
:1015A00010904FF4805011900020129013901490DE
:1015B00001A81590169008A8FFF7ADFB01210020A7
:1015C000FFF752FC17B000BD4FF0C04210809C4A9C
:1015D0001180704710B5FFF71BFFFFF7C6FF3220E1
:1015E000FFF700FF002140F20660FFF7EDFF0A2041
:1015F000FFF7F8FE01210720FFF7E6FF0520FFF7C0
:10160000F1FE01214FF48870FFF7DEFF0520FFF7A0
:10161000E9FE41F2B0714FF48070FFF7D5FF40F260
:10162000471140F20110FFF7CFFF4FF4CC714FF498
:101630008170FFF7C9FF4FF4585140F20310FFF7D4
:10164000C3FF102140F28120FFF7BEFF0520FFF706
:10165000C9FE40F2BD114FF48170FFF7B5FF0520C0
:10166000FFF7C0FE00210846FFF7AEFF0021012072
:10167000FFF7AAFF4FF480710220FFF7A5FF41F2A8
:1016800030010320FFF7A0FF40F203510820FFF7CD
:101690009BFF01210920FFF797FF10210B20FFF787
:1016A00093FF01210C20FFF78FFF00210F20FFF790
:1016B0008BFF01210720FFF787FF15211020FFF77F
:1016C00083FF40F202211120FFF77EFF4FF44071AB
:1016D0001220FFF779FF40F21E212020FFF774FF50
:1016E00040F202212120FFF76FFF4FF400419020CC
:1016F000FFF76AFF00219220FFF766FF41F2B01169
:101700004FF48070FFF760FF0A20FFF76BFE40F296
:10171000471140F20110FFF757FF0A20FFF762FE62
:1017200040F28D114FF48170FFF74EFF0A20FFF752
:1017300059FE4FF4B85140F20310FFF745FF0A205D
:10174000FFF750FE002140F20710FFF73DFF0A208F
:10175000FFF748FE01214FF48870FFF735FF0A209C
:10176000FFF740FE00214FF40470FFF72DFFEF213B
:1017700040F21120FFF728FF002140F21220FFF76E
:1017800023FF40F28F1140F21320FFF71DFF0021CD
:101790004FF40070FFF718FF002140F20120FFF71F
:1017A00013FF00214FF42070FFF70EFF002140F2DD
:1017B0008120FFF709FF002140F28220FFF704FF9C
:1017C0000A20FFF70FFE41F204014FF44070FFF7CB
:1017D000FBFE42F21E3140F20130FFF7F5FE42F20D
:1017E000215140F20230FFF7EFFE42F2251140F2A4
:1017F0000330FFF7E9FE41F623614FF44170FFF734
:10180000E3FE4FF4826140F20530FFF7DDFE41F266
:10181000060140F20630FFF7D7FE4FF4C26140F2F6
:101820000730FFF7D1FE40F205214FF44270FFF779
:10183000CBFE07E0000C02400010024040420F00C7
:10184000000002604FF4827140F20930FFF7BCFEE5
:1018500040F6055140F20A30FFF7B6FE40F601515E
:1018600040F20B30FFF7B0FE40F20D114FF4437021
:10187000FFF7AAFE40F20D5140F20D30FFF7A4FE33
:1018800040F2014140F20E30FFF79EFE40F202515D
:1018900040F20F30FFF798FE4BF204114FF48060D6
:1018A000FFF792FE012140F20140FFF78DFE00217B
:1018B00040F20440FFF788FE00214FF4A060FFF7DC
:1018C00083FE002140F20150FFF77EFE002140F22E
:1018D0000250FFF779FE002140F20350FFF774FE3B
:1018E000002140F20450FFF76FFE002140F2055046
:1018F000FFF76AFE00214FF4C060FFF765FE00218C
:1019000040F20660FFF760FE00214FF4DE60FFF753
:101910005BFE45F220414FF4FE60FFF755FE42F6B4
:101920000F0140F2F370FFF74FFE222140F2F470F6
:10193000FFF74AFE312140F2F570FFF745FE002126
:101940004FF4FE60FFF740FE40F273110720FFF7EF
:101950003BFE0520FFF746FD61210720FFF734FE1F
:101960000520FFF73FFD40F273110720FFF72CFE23
:101970000A20FFF737FD00BF40F202204FF0C041C0
:10198000088000BF10BD10B503460C4619464FF441
:101990000070FFF719FE214640F20120FFF714FE08
:1019A00010BD30B50446002500210846FFF7EBFFC7
:1019B00000BF40F202204FF0C041088000BF00BFCE
:1019C00002E0034804806D1C02488542F9D330BD13
:1019D0000000026000770100FFF7FCFD0FE04FF40C
:1019E0007840FFF7DEFF4FF47A70FFF7FBFC4FF60D
:1019F000FF70FFF7D6FF4FF47A70FFF7F3FCEEE7C6
:101A0000064C074D06E0E06840F0010394E807004B
:101A100098471034AC42F6D3FEF7BAFB601A0008C0
:101A2000801A000802E008C8121F08C1002AFAD173
:101A300070477047002001E001C1121F002AFBD14E
:101A4000704700000F0000000F000000FF000000C2
:101A50000F0000000F0000000F0000000000000059
:101A6000801A00080000002028000000241A000846
:101A7000A81A00082800002000040000341A0008FA
:101A8000007A030A000000000000000001020304C5
:101A90000607080900000000010203040102030414
:081AA000060708090000000020
:040000050800018965
:00000001FF
