:020000040800F2
:10000000280400209D010008C1010008C301000868
:10001000C7010008CB010008CF0100080000000064
:10002000000000000000000000000000D3010008F4
:10003000D501000800000000D7010008D901000820
:10004000B7010008B7010008B7010008B7010008B0
:10005000B7010008B7010008B7010008B7010008A0
:10006000B7010008B7010008B7010008B701000890
:10007000B7010008B7010008B7010008B701000880
:10008000B7010008B7010008B7010008B701000870
:10009000B7010008B7010008B7010008B701000860
:1000A000B7010008B7010008B7010008B701000850
:1000B000B7010008B7010008B7010008B701000840
:1000C000B7010008B7010008B7010008B701000830
:1000D000B7010008B7010008B7010008B701000820
:1000E000B7010008B7010008B7010008B701000810
:1000F000B7010008B7010008B7010008B701000800
:10010000B7010008B7010008B7010008B7010008EF
:10011000B7010008B7010008B7010008B7010008DF
:10012000B7010008B7010008B7010008B7010008CF
:10013000B7010008B7010008B7010008B7010008BF
:10014000B7010008B7010008B7010008B7010008AF
:10015000B7010008B7010008B7010008B70100089F
:10016000B7010008B7010008B7010008B70100088F
:10017000B7010008B7010008B7010008B70100087F
:10018000B7010008B7010008DFF80CD001F08AFEC3
:1001900000480047DD1C000828040020064880476E
:1001A00006480047FEE7FEE7FEE7FEE7FEE7FEE75C
:1001B000FEE7FEE7FEE7FEE7BD0200088901000852
:1001C000704700BFFEE700BFFEE700BFFEE700BFCD
:1001D000FEE770477047704710B501F0F9F810BDA1
:1001E0000CB50020019000907648006840F4803003
:1001F0007449086000BF7348006800F40030009044
:100200000198401C0190009818B90198B0F5A04FD2
:10021000F1D16C48006800F4003010B1012000906A
:1002200001E0002000900098012846D16548403048
:10023000006840F0805063494031086062480068BF
:1002400040F44040604908605E48083000685D49FD
:10025000083108600846006840F40040086008461D
:10026000006840F4A05008605848091F0860081F43
:10027000006840F08070091F086000BF51480068A6
:1002800000F000700028F9D040F205705049086075
:100290004C480830006820F003004A4908310860E3
:1002A0000846006840F00200086000BF454808307A
:1002B000006800F00C000828F8D10CBD10B54548C6
:1002C000006840F47000434908603E48006840F010
:1002D00001003C49086000203A490831086039486B
:1002E00000683D490840374908603C48091D0860DE
:1002F000081F006820F48020091F08600020314991
:100300000C310860FFF76CFF4FF000603149803915
:10031000086010BD70B500200022022300240221D5
:10032000284D08352D6805F00C0020B1042806D0B2
:10033000082834D107E02A4D2A4E356033E02A4D93
:10034000284E35602FE01F4D2D1D2D68C5F38054BC
:100350001C4D2D1D2D6805F03F0154B1224DB5FBFC
:10036000F1F5184E361D3668C6F3881605FB06F201
:1003700009E01B4DB5FBF1F5124E361D3668C6F38C
:10038000881605FB06F20F4D2D1D2D68C5F301459E
:100390006D1C6B00B2FBF3F5124E356003E0104D9F
:1003A000104E356000BF00BF064D08352D68C5F3FF
:1003B00003150E4E705D0B4D2D68C540094E35601E
:1003C00070BD00000038024000700040085A40072D
:1003D000003C024088ED00E0FFFFF6FE10300024F4
:1003E0000024F4000000002000127A000400002025
:1003F00010B504469848844208D10121084600F00F
:1004000086FB0021012000F082FB76E093488442C5
:1004100008D10121022000F07AFB0021022000F027
:1004200076FB6AE08E48844208D10121042000F066
:100430006EFB0021042000F06AFB5EE089488442E4
:1004400008D10121082000F062FB0021082000F003
:100450005EFB52E08448844208D10121102000F064
:1004600056FB0021102000F052FB46E07F488442FA
:1004700008D10121202000F04AFB0021202000F0BB
:1004800046FB3AE07A48844208D10121402000F03E
:100490003EFB0021402000F03AFB2EE075488442EC
:1004A00008D10121802000F032FB0021802000F0E3
:1004B0002EFB22E07048844208D10121801500F013
:1004C00026FB0021A01500F022FB16E06B488442B9
:1004D00008D10121401500F01AFB0021601500F041
:1004E00016FB0AE06648844207D10121001500F09E
:1004F0000EFB0021201500F00AFB10BDF0B50A46E6
:1005000000210023002400BF3DE0012505FA01F38E
:10051000156805EA03049C4234D105684F000326A0
:10052000BE40B543056015794E00B54006683543B9
:1005300005601579012D02D01579022D16D1856837
:100540004F000326BE40B543856055794E00B54047
:10055000866835438560456801268E40B543456011
:10056000456896798E40B6B235434560C5684F0000
:100570000326BE40B543C560D5794E00B540C66878
:100580003543C560491C1029BFD3F0BD4FF6FF713C
:1005900001600021017141718171C171704708B51D
:1005A0004FF480320092009A0A430092009AC2618E
:1005B000C161009AC261C2690092C269009208BD1D
:1005C0000246002013690B400BB1012000E000201F
:1005D00070470146086980B270470246002053699F
:1005E0000B400BB1012000E0002070470146486934
:1005F00080B2704701837047418370470AB101831D
:1006000000E0418370474161704742694A4042615E
:100610007047F0B5002300244D07ED0E02FA05F3F4
:10062000CE1000F1200555F826504E07F70E0F2684
:10063000BE40B543CF1000F1200646F82750CE103B
:1006400000F1200555F8265045EA0304CE1000F1CC
:10065000200545F82640F0BD00000240000402409D
:1006600000080240000C024000100240001402404A
:1006700000180240001C02400020024000240240FA
:1006800000280240F948006840F00100F74908607E
:100690000020F64908310860F4480068F449084031
:1006A000F2490860F348091D0860F348EF498431B6
:1006B0000860F0481038091D0860EC48006820F414
:1006C0008020EA4908600020E8490C310860E749C9
:1006D0008C31086070470021E44A921C1170114669
:1006E0000870704710B501460022002300204A110F
:1006F000012A02D1DD4C236808E0022A03D1DB4C39
:100700007034236802E0D94C7434236801F01F026E
:10071000012494401C400CB1012000E0002010BDD9
:1007200038B5002000900024002500BF3120FFF7DD
:10073000D9FF05460098401C00900098B0F5A04FE6
:1007400001D0002DF2D03120FFF7CCFF08B10124F9
:1007500000E00024204638BD01460020C34A10684E
:1007600020F0F80040EAC10010607047C3490860FB
:1007700070470021BD4A703211701170012802D0FB
:1007800004280AD104E00121B84A7032117005E052
:100790000521B64A7032117000E000BF00BF7047FB
:1007A000B7490860704770B5049C41EA821501267C
:1007B000C6EB530645EA0645054345EA0465AB4EDC
:1007C000361D356070BDAD4908667047820142EA4A
:1007D0000172A64B84331A607047A8498866704737
:1007E00010B5830143EA016343EA02739F4C8834E6
:1007F000236010BDA14908677047A049C8647047CD
:1008000002460020994B0833186820F0EC6042EA59
:1008100001031843954B08331860704702460020C7
:10082000924B0833186820F0784042EA01031843DD
:100830008E4B083318607047014600208B4A0832FF
:10084000106820F0030008431060704787480830A4
:10085000006800F00C00704701460020834A08320F
:10086000106820F0F0000843106070470146002037
:100870007E4A0832106820F4E05008431060704748
:1008800001460020794A0832106820F4604040EAAE
:10089000C10010607047F0B500210022002402253D
:1008A00000260223714F08373F6807F00C0121B181
:1008B000042905D0082937D105E0724F076036E0DA
:1008C000714F076033E0694F3F1D3F68C7F38056A3
:1008D000664F3F1D3F6807F03F036EB16A4FB7FB9D
:1008E000F3F7DFF888C10CF1040CDCF800C0CCF39E
:1008F000881C07FB0CF40CE0624FB7FBF3F7DFF842
:100900006CC10CF1040CDCF800C0CCF3881C07FBB4
:100910000CF4564F3F1D3F68C7F301477F1C7D0015
:10092000B4FBF5F7076002E0564F076000BF00BF59
:100930004E4F08373F6807F0F0010909534F7A5CC2
:100940000768D7404760494F08373F6807F4E051D0
:10095000890A4E4F7A5C4768D7408760434F083713
:100960003F6807F46041490B484F7A5C4768D740BD
:10097000C760F0BD002100F44072B2F5407F0AD19B
:100980003A4A0832116821F4F811414A02401143F1
:10099000364A08321160354A70321268C0F30B03D0
:1009A0001A43324B70331A60704735494439086036
:1009B00070473349403908607047364908607047CE
:1009C00001460020294A8C32106820F44010084368
:1009D0001060704701460020244A8C32106820F4D1
:1009E0004000084310607047014600201F4A8C32C7
:1009F000106820F01F004A1E10431C4A8C32106001
:100A0000704701460020194A8C32106820F4F850D3
:100A10004A1E40EA0220154A8C3210607047014697
:100A20000020124A8C32106820F4403008431060D5
:100A3000704719490860704739B10C4A3032126862
:100A400002430A4B30331A6006E0084A303212681B
:100A50008243064B30331A607047F9B1034A34328F
:100A600012680243014B34331A601CE00038024024
:100A7000FFFFF6EA1030002400300020000047425B
:100A8000800E47420024F40000127A001400002077
:100A9000FFFCFF0F5C014742E01147428F4A12689A
:100AA00082438E4B1A60704739B18C4A121D12680E
:100AB00002438A4B1B1D1A6006E0884A121D126809
:100AC0008243864B1B1D1A60704739B1834A0C3232
:100AD00012680243814B0C331A6006E07F4A0C32E5
:100AE000126882437D4B0C331A60704739B17B4AE0
:100AF000103212680243794B10331A6006E0774ACD
:100B0000103212688243754B10331A60704739B146
:100B1000724A243A12680243704B243B1A6006E082
:100B20006E4A243A126882436C4B243B1A60704729
:100B300039B16A4A203A12680243684B203B1A6076
:100B400006E0664A203A12688243644B203B1A60F2
:100B5000704739B1614A1C3A126802435F4B1C3B33
:100B60001A6006E05D4A1C3A126882435B4B1C3BEC
:100B70001A60704739B1594A143A12680243574B08
:100B8000143B1A6006E0554A143A12688243534BEC
:100B9000143B1A60704739B1504A103A1268024348
:100BA0004E4B103B1A6006E04C4A103A12688243E2
:100BB0004A4B103B1A60704739B1484A1C321268E0
:100BC0000243464B1C331A6006E0444A1C3212684A
:100BD0008243424B1C331A60704739B13F4A20327E
:100BE000126802433D4B20331A6006E03B4A203234
:100BF00012688243394B20331A60704739B1374A43
:100C0000243212680243354B24331A6006E0334A1B
:100C1000243212688243314B24331A60704739B151
:100C20002E4A2C32126802432C4B2C331A6006E0F9
:100C30002A4A2C3212688243284B2C331A607047A0
:100C400039B1264A303212680243244B30331A60DD
:100C500006E0224A303212688243204B30331A6059
:100C60007047012808D11D493C31096841F008014D
:100C70001A4A3C32116007E018493C31096821F0FA
:100C80000801164A3C321160704739B1134A273ABD
:100C900012780243114B273B1A7006E00F4A273A9D
:100CA000127882430D4B273B1A7070470B48403037
:100CB000006840F080700949403108607047014683
:100CC0000020064A283A12680A400AB1012000E0D2
:100CD00000207047014926390870704734380240B7
:100CE00030B943F2DB028100A1F1C0410A6005E0A6
:100CF00043F2D2028100A1F1C0410A606FF070425C
:100D0000411C8900A1F1C0410A608100A1F1C041EC
:100D1000C1F80421704730B5002100220023046887
:100D2000A400A4F1C0442168FE4C2140D0E9014553
:100D30002C43C5682C4305692C4345692C438569C0
:100D40002C43C5692C43056A2C43456A2C43856AAC
:100D50002C43C56A2C43056B2C4321430468A40033
:100D6000A4F1C04421608468082C0BD10468A4005D
:100D7000A4F1C044246844F040050468A400A4F130
:100D8000C04425600468641CA400A4F1C044226827
:100D900002F04042446B2468456B6D6844EA0514D8
:100DA000456BAD6844EA0524456BAD8944EA0544CA
:100DB000456B2D8A44EA0554456B2D7D44EA056454
:100DC000456BAD692C4322430468641CA400A4F164
:100DD000C0442260C46AB4F5804F24D10468A400E2
:100DE000A4F1C044D4F8043103F04043846B246878
:100DF000856B6D6844EA0514856BAD6844EA05248B
:100E0000856B2D8A44EA0554856B2D7D44EA056483
:100E1000856BAD692C4323430468A400A4F1C0444E
:100E2000C4F8043107E06FF070450468A400A4F131
:100E3000C044C4F8045130BD00210160022141606A
:100E400000218160C160016141618161C161016214
:100E50004FF480514162490081620021C162016307
:100E6000B14941638163704751B18200A2F1C04230
:100E7000126842F001038200A2F1C042136009E04F
:100E80008200A2F1C0421268A84B1A408300A3F16D
:100E9000C0431A60704710280AD118214FF0204231
:100EA0001166402151664FF0FC319166D16610E029
:100EB00018219F4A116040214FF02042C2F884104F
:100EC0004FF0FC319A4A083211604FF02042C2F8CC
:100ED0008C10704730B50021002200230468102CCC
:100EE00003D14FF02044216E01E0914C2168914CD8
:100EF0002140446844F0080485682C43C5682C43AD
:100F000005692C43456944EA4524856944EA45342A
:100F100021430468102C03D14FF02044A26E02E05C
:100F2000834C083422680022C4692468C5696D684E
:100F300044EA0524C5692D8944EA0544C5692D7B29
:100F400044EA056422430468102C03D14FF0204486
:100F5000E36E02E04FF02044E36E0023046A24684D
:100F6000056A6D6844EA0524056A2D8944EA05444A
:100F7000056A2D7B44EA056423430468102C05D1DF
:100F80004FF020442166A266E36608E0684C2160C9
:100F90004FF02044C4F88820654C0C34236030BDE9
:100FA00010210160002141608160C16001614161E7
:100FB0008161FC21C2691160C2695160C26991609E
:100FC000C269D160026A1160026A5160026A91606E
:100FD000026AD160704799B1102808D14FF02042C1
:100FE000126E42F004024FF020431A661DE0504A90
:100FF000126842F004024FF02043C3F8802014E04E
:10100000102809D14FF02042126E484BDB1E1A40C7
:101010004FF020431A6608E0454A1268434BDB1E36
:101020001A404FF02043C3F88020704799B1102830
:1010300008D14FF02042126E42F040024FF02043A0
:101040001A661DE03A4A126842F040024FF020430F
:10105000C3F8802014E0102809D14FF02042126E0E
:10106000324B3F3B1A404FF020431A6608E0304AAB
:1010700012682E4B3F3B1A404FF02043C3F88020AC
:10108000704701460020102903D14FF02042506FD5
:1010900002E0274A14321068704718202449203192
:1010A000086000200906C1F8A4004FF0FC30204978
:1010B00028310860091D0860091D0860704770B577
:1010C0000021002200230024194D203529681A4DE3
:1010D0002940056845F01005466845EA46258668BA
:1010E00045EA463529434FF02045C5F8A010104D7C
:1010F00028352A680022C5682D68C668766845EAE2
:101100000625C668368945EA0645C668367B45EA3F
:1011100006652A434FF02045C5F8A820044D2C351C
:101120002B680BE08000F7FF88200008FEFF0F000F
:10113000800000A08101F0FFCD01FEFF00230569C2
:101140002D680669766845EA06250669368945EA06
:1011500006450669367B45EA06652B434FF0204578
:10116000C5F8AC30824D2C68002445692D6846696D
:10117000766845EA06254669368945EA06454669A0
:10118000367B45EA06652C434FF02045C5F8B04054
:1011900070BD0021016041608160FC21C268116066
:1011A000C2685160C2689160C268D1600269116012
:1011B00002695160026991600269D16042691160FF
:1011C00042695160426991604269D160704748B19B
:1011D00067491039096841F004014FF02042C2F814
:1011E000A01008E0624910390968624A11404FF0C6
:1011F0002042C2F8A010704710B5F2B1102807D1F4
:101200004FF020435B6E0B434FF02044636632E0A7
:10121000B0F5807F08D1564B2C3B1B680B434FF039
:101220002044C4F8843026E0514B0C3B1B680B4330
:101230004FF02044C4F8A4301DE0102807D14FF02F
:1012400020435B6E8B434FF02044636613E0B0F5A0
:10125000807F08D1464B2C3B1B688B434FF02044CA
:10126000C4F8843007E0424B0C3B1B688B434FF0C3
:101270002044C4F8A43010BD10B50246002000235D
:10128000102A03D14FF02044636E09E0B2F5807F4D
:1012900003D1374C2C3C236802E0354C0C3C2368CE
:1012A00003EA01040CB1012000E0002010BD102869
:1012B00007D14FF02042526E8A434FF020435A66C6
:1012C00013E0B0F5807F08D1294A2C3A12688A438E
:1012D0004FF02043C3F8842007E0254A0C3A1268F7
:1012E0008A434FF02043C3F8A420704770B50246EC
:1012F0000020002300240025102A03D14FF02046AF
:10130000736E09E0B2F5807F03D1194E2C3E33682D
:1013100002E0174E0C3E336803EA010403EAD105EC
:1013200014B10DB1012000E0002070BD102808D1DB
:101330004FF02042526E22EAD1024FF020435A660B
:1013400015E0B0F5807F09D1094A2C3A126822EAEB
:10135000D1024FF02043C3F8842008E0044A0C3A3D
:10136000126822EAD1024FF02043C3F8A42070474C
:10137000B00000A0FBFF0F0030B526480068264AE9
:10138000B0FBF2F1481EB0F1807F01D301201BE0D9
:10139000481E4FF0E022506150170F22002807DA54
:1013A00013071D0E1D4B00F00F04241F1D5503E0F5
:1013B00013071C0E1A4B1C5400BF00204FF0E022F4
:1013C000906107201061002008B100BFFEE730BD2A
:1013D0001448006820B113480068401E1149086095
:1013E00070474FF47A7141430E4A116000BF0D49B6
:1013F00009680029FBD170470A49086000BF094904
:1014000009680029FBD1704700B503461846FFF76D
:10141000E8FF00BD0000002040420F0018ED00E092
:1014200000E400E0240000201CB501211820FFF793
:1014300003FB4CF6B370009002208DF804000320EB
:101440008DF8050000208DF806008DF8070069462C
:10145000F948FFF753F80C220021F748FFF7D9F8B5
:101460000C220121F448FFF7D4F80C220421F248A1
:10147000FFF7CFF80C220521EF48FFF7CAF80C223E
:101480000721ED48FFF7C5F80C220821EA48FFF7CD
:10149000C0F80C220921E848FFF7BBF80C220A210A
:1014A000E548FFF7B6F80C220B21E348FFF7B1F847
:1014B0000C220E21E048FFF7ACF80C220F21DE4889
:1014C000FFF7A7F84FF6807000906946DB48FFF7FA
:1014D00015F80C220721D948FFF79BF80C220821A8
:1014E000D648FFF796F80C220921D448FFF791F867
:1014F0000C220A21D148FFF78CF80C220B21CF488F
:10150000FFF787F80C221146CC48FFF782F80C222F
:101510000D21CA48FFF77DF80C220E21C748FFF7BE
:1015200078F80C220F21C548FFF773F84FF40050EC
:10153000009001208DF8040000208DF806008DF841
:1015400005008DF807006946BB48FEF7D7FF4FF44A
:101550000051B948FFF74EF8082000906946B64898
:10156000FEF7CCFF0821B448FFF746F8002400E05E
:10157000641CB3488442FBDB0821AF48FFF73AF80C
:101580001CBD00B597B001210846FFF78DFA052074
:101590000190002002900920039000200490059003
:1015A00006900790089009900A9010200B90002058
:1015B0000C900D900E900F9010904FF48050119061
:1015C000002012901390149001A81590169008A86E
:1015D000FFF7A1FB01210020FFF746FC17B000BD7B
:1015E0004FF0C0421080974A1180704710B5FFF746
:1015F0001BFFFFF7C6FF0A20FFF7F3FE02211A20A8
:10160000FFF7EEFF88211B20FFF7EAFF00212320D0
:10161000FFF7E6FF64212420FFF7E2FF15212520D4
:10162000FFF7DEFF03212D20FFF7DAFF0A20FFF787
:10163000D8FE6021E820FFF7D3FF04211820FFF730
:10164000CFFF01211920FFF7CBFF00210120FFF779
:10165000C7FF88211F20FFF7C3FF0A20FFF7C1FE45
:1016600080211F20FFF7BCFF0A20FFF7BAFE902160
:101670001F20FFF7B5FF0A20FFF7B3FED0211F2080
:10168000FFF7AEFF0A20FFF7ACFE05211720FFF79A
:10169000A7FF03213620FFF7A3FF31212920FFF701
:1016A0009FFF1A217120FFF79BFF00214020FFF7C9
:1016B00097FF45214120FFF793FF45214220FFF787
:1016C0008FFF04214320FFF78BFF00214420FFF709
:1016D00087FF08214520FFF783FF23214620FFF7DE
:1016E0007FFF23214720FFF77BFF77214820FFF76B
:1016F00077FF40214920FFF773FF04214A20FFF7BD
:101700006FFF00214B20FFF76BFF88214C20FFF774
:1017100067FF88214D20FFF763FF88214E20FFF7E8
:101720005FFF00210220FFF75BFF00210320FFF78E
:1017300057FF00210420FFF753FFEF210520FFF79B
:101740004FFF00210620FFF74BFF00210720FFF786
:1017500047FF01210820FFF743FF8F210920FFF7F2
:101760003FFF38212820FFF73BFF2820FFF739FEF5
:101770003F212820FFF734FF22204FF0C04108808E
:1017800000BF10BD00B540F273110720FFF728FF1E
:1017900000BD00B500210720FFF722FF00BD10B5F6
:1017A00003460C46190A0220FFF71AFFD9B203209C
:1017B000FFF716FF210A0620FFF712FFE1B207200C
:1017C000FFF70EFF10BD70B504460D461646002DFE
:1017D00006DBB5F5C87F03DA002C01DBEF2C00DD5A
:1017E00070BDA9B2A0B2FFF7DAFF00F073FB30467C
:1017F00000F06AFB00BFF3E770B505460E461446DD
:1018000031462846FFF7CBFF00F064FB204600F08E
:101810005BFB70BD70B50446002500210846FFF74C
:10182000BEFF00F057FB00BF02E0064804806D1CBD
:1018300005488542F9D370BD000C024000100240FB
:1018400040420F0000000260007701002DE9F047E0
:1018500080460E4615461F46DDF82090002431468E
:101860004046FFF79CFFB9F1000F0AD100F032FBB0
:1018700000BF03E0384600F027FB641CAC42F9D3FC
:101880000FE000240BE000F025FB384600F01CFBC5
:10189000701C86B231464046FFF781FF641CAC42A3
:1018A000F1D3BDE8F0872DE9F04F89B005460E462B
:1018B00091469A460027B846BB46002008900790FC
:1018C00006900590049000240390029001900090EF
:1018D000A9EB0500002802DDA9EB050001E0A5EB5E
:1018E000090007B2AAEB0600002802DDAAEB0600F9
:1018F00001E0A6EB0A000FFA80F80FFA85FB30B280
:101900000890A94503DB01200790069003E04FF003
:10191000FF3007900690B24503DB0120059004904C
:1019200003E04FF0FF300590049047450DDB0020A9
:10193000079004903C46384607EBD071491009B235
:101940000391CDF8088001970CE0002006900590E7
:101950004446404608EBD071491009B20391029702
:10196000CDF804800020009026E05846129A08998D
:10197000FFF729FFDDE90210084400B20390039845
:10198000A0420CDB0398001B00B203900798584458
:101990000FFA80FB05990898084400B20890069851
:1019A00058440FFA80FB04990898084400B2089044
:1019B0000098401C00B20090DDE900018842D4DDAF
:1019C00009B0BDE8F08F2DE9F84305460E461746ED
:1019D0001C46DDF820800120434622463146009017
:1019E0002846FFF760FF002043463A463146009004
:1019F0002846FFF758FF01200090F01981B24346B6
:101A000022462846FFF74FFF00202919009088B290
:101A100043463A463146FFF746FFBDE8F8832DE9D5
:101A2000F04706460F4690469A460320A0EB480929
:101A30000024454666E07A1991B2321990B2FFF758
:101A4000AEFE00F047FA504600F03EFA7A1B91B223
:101A5000321990B2FFF7A3FE00F03CFA504600F0B6
:101A600033FA7A1991B2321B90B2FFF798FE00F068
:101A700031FA504600F028FA7A1B91B2321B90B22C
:101A8000FFF78DFE00F026FA504600F01DFA3A19D5
:101A900091B2721990B2FFF782FE00F01BFA504625
:101AA00000F012FA3A1B91B2721990B2FFF777FE6A
:101AB00000F010FA504600F007FA3A1991B2721B82
:101AC00090B2FFF76CFE00F005FA504600F0FCF90A
:101AD0003A1B91B2721B90B2FFF761FE00F0FAF967
:101AE000504600F0F1F9B9F1000F04DA062000EBDE
:101AF0008400814405E0601B0A2101EB80008144E1
:101B00006D1E641CAC4296D9BDE8F0872DE9F04704
:101B100006460C4617469846DDF820A0002512E040
:101B2000601981B23046FFF73AFE00F0D3F94FF06A
:101B3000000904E06748A0F800A009F10109B81BFA
:101B40004845F7D86D1CA8EB0400A842E8D8BDE8CA
:101B5000F0872DE9FF5F894616469A460E9F0025BD
:101B600021E009EB050081B20098FFF718FE00F0B4
:101B7000B1F94FF0000813E04FF0000B05FB0680B1
:101B800000EB4004395D601C385C41EA0021A01C78
:101B9000385C41EA004B4F49A1F800B008F1010858
:101BA000B045E9D36D1C5545DBD3BDE8FF9F2DE95A
:101BB000F05F81468A4614461F46002C4AD02069B1
:101BC000002847D0002F45D0002640E0002539E00E
:101BD0006068704305EBD000216911F800B04FF048
:101BE00000082BE00BF0800078B10AEB060291B2FE
:101BF00009EBC502424490B2FFF7D1FD00F06AF94B
:101C0000398888B200F060F912E0387900F00100FC
:101C100070B10AEB060291B209EBC502424490B2E0
:101C2000FFF7BDFD00F056F9798888B200F04CF955
:101C30004FEA4B604FEA106B08F10108B8F1080F4A
:101C4000D0DB6D1C6068B5EBD00FC1D3761CA068EB
:101C5000B042BBD8BDE8F09F2DE9F04186B0064602
:101C60000D4614469846374619E0214601A800F073
:101C7000C7F898B1A9B2B8B2434601AAFFF797FFD7
:101C800002980744F02F06D3374603980544B5F56C
:101C9000C87F00D306E00498044400E0641C207868
:101CA0000028E2D100BF06B0BDE8F0812DE9FF4178
:101CB00004460D4616461F46324607A1684600F008
:101CC0000FF93B466A4629462046FFF7C5FFBDE8A7
:101CD000FF81000000000260256400000EB54FF493
:101CE0007840ADF804001F20ADF8060000200290F7
:101CF000FFF742FBFFF77AFC77E04FF47840FFF7FD
:101D000089FD4FF47A70FFF76CFB4FF6FF70FFF719
:101D100081FD4FF47A70FFF764FB0022C821782020
:101D2000FFF751FD4FF47A70FFF75BFB012047F698
:101D3000FF7364226E2100901046FFF787FD4FF479
:101D40007A70FFF74EFB4FF4FC6014231E225021E3
:101D500000900846FFF737FE4FF47A70FFF741FB1B
:101D60004FF6E070C8231A460A2100900846FFF794
:101D70009AFD4FF47A70FFF734FB1F23322264215F
:101D80000846FFF74CFE4FF47A70FFF72AFB00205D
:101D90004FF49673B422642100903C20FFF7B6FE06
:101DA0004FF47A70FFF71DFB01AB10A2002108462B
:101DB000FFF752FF4FF47A70FFF713FB01AB642279
:101DC00050210020FFF772FF4FF47A70FFF709FBF4
:101DD0000A484FF4C8737E22002100903C20FFF790
:101DE000B8FE4FF47A70FFF7FCFA86E7C4E3BAC393
:101DF00020456C696E6B343037000000A420000869
:101E000070B5024601B3FAB1087880281DDB087866
:101E1000A0F1A1044878A0F1A105C4EB041000EBE7
:101E2000441005EB4000430110481844104EB042E6
:101E30000AD20220D0601020506090600B481844F5
:101E400010610A48184470BD0EE00120D0600820DF
:101E50005060102090600878064C04EB0010106170
:101E6000087804EB0010EEE70020ECE7446F02086E
:101E7000448506084485060830B50B460146002017
:101E80002022012409E021FA02F59D4205D303FA3C
:101E900002F5491B04FA02F52844151EA2F10102BD
:101EA000F1DC30BD064C074D06E0E06840F0010370
:101EB00094E8070098471034AC42F6D3FEF768F96F
:101EC000449506086495060801490880704700009B
:101ED0000000026022204FF0C041088070470000DF
:101EE0000FB4084B10B504A902AA039800F01CF81F
:101EF000044602A9002000F0C1F8204610BC5DF89D
:101F000014FB00007D20000802E008C8121F08C171
:101F1000002AFAD170477047002001E001C1121F6A
:101F2000002AFBD1704700002DE9FF4F89B09B4686
:101F30000446002506E025280BD05A460B99904709
:101F4000641C6D1C20780028F5D10DB02846BDE832
:101F5000F08F0027B8460122474900E0074314F8F4
:101F6000013F203B02FA03F00842F7D120782E28E7
:101F700019D114F8010F47F004072A280ED06FF08A
:101F80002F022078A0F1300109290CD808EB880134
:101F900002EB410100EB0108641CF2E70A98641CA3
:101FA00050F8048B0A9020780028CED0642808D0FE
:101FB000692806D075281ED05A460B9990476D1C8B
:101FC00058E00A994FF00A0901C90A91002802DA7B
:101FD00040422D2102E0390504D52B218DF8201037
:101FE000012103E0F90704D02021F7E78A4608AE73
:101FF0000DE00021FAE70A994FF00A0901C90A9198
:10200000F7E74946FFF738FF303106F8011D002891
:10201000F7D1ADEB060000F12009780701D44FF0AD
:102020000108C84502DDA8EB090000E00020804659
:10203000002706E008A85A46C05D0B9990476D1C22
:102040007F1C5745F6DB04E030205A460B99904739
:102050006D1CB8F10001A8F10108F5DC05E016F8E7
:10206000010B5A460B9990476D1CB9F10001A9F17B
:102070000109F4DC641C65E7092801000A68531CA7
:102080000B601070704700000F0000000F00000090
:10209000FF0000000F0000000F0000000F00000014
:1020A00000000000FFFFFFFFFFFFFFFFFFFFFFFF3C
:1020B000FFFFFFFFFFFFFFFFFFFFFFFFFFFFFFFF30
:1020C000FFFFFFFFFFFFFFFFFFFFFFFFFFFFFFFF20
:1020D000FFFFFFFFFFFFFFFFFFFFFFFFFFFFFFFF10
:1020E000FFFFFFFFFFFFFFFFFFFFFFFFFFFFFFFF00
:1020F000FFFFFFFFFFFFFFFFFFFFFFFFFFFFFFFFF0
:10210000FFFFFFFFFFFFFFFFFFFFFFFFFFFFFFFFDF
:10211000FFFFFFFFFFFFFFFFFFFFFFFFFFFFFFFFCF
:10212000FFFFFFFFFFFFFFFFFFFFFFFFFFFFFFFFBF
:10213000FFFFFFFFFFFFFFFFFFFFFFFFFFFFFFFFAF
:10214000FFFFFFFFFFFFFFFFFFFFFFFFFFFFFFFF9F
:10215000FFFFFFFFFFFFFFFFFFFFFFFFFFFFFFFF8F
:10216000FFFFFFFFFFFFFFFFFFFFFFFFFFFFFFFF7F
:10217000FFFFFFFFFFFFFFFFFFFFFFFFFFFFFFFF6F
:10218000FFFFFFFFFFFFFFFFFFFFFFFFFFFFFFFF5F
:10219000FFFFFFFFFFFFFFFFFFFFFFFFFFFFFFFF4F
:1021A000FFFFFFFFFFFFFFFFFFFFFFFFFFFFFFFF3F
:1021B000FFFFFFFFFFFFFFFFFFFFFFFFFFFFFFFF2F
:1021C000FFFFFFFFFFFFFFFFFFFFFFFFFFFFFFFF1F
:1021D000FFFFFFFFFFFFFFFFFFFFFFFFFFFFFFFF0F
:1021E000FFFFFFFFFFFFFFFFFFFFFFFFFFFFFFFFFF
:1021F000FFFFFFFFFFFFFFFFFFFFFFFFFFFFFFFFEF
:10220000FFFFFFF8F8F8EEEEEEE5E5E5DFDFDFE1F2
:10221000E1E1E6E6E6F0F0F0FAFAFAFFFFFFFFFF91
:10222000FFFFFFFFFFFFFFFFFFFFFFFFFFFFFFFFBE
:10223000FFFFFFFFFFFFFFFFFFFFFFFFFFFFFFFFAE
:10224000FFFFFFFFFFFFFFFFFFFFFFFFFFFFFFFF9E
:10225000FFFFFFFFFFFFFFFFFFFFFFFFFFFFFFFF8E
:10226000FFFFFFFFFFFFFFFFFFFFFFFFFFFFFFFF7E
:10227000FFFFFFFFFFFFFFFFFFFFFFFFFFFFFFFF6E
:10228000FFFFFFFFFFFFFFFFFFFFFFFFFFFFFFFF5E
:10229000FFFFFFFFFFFFFFFFFFFFFFFFFFFFFFFF4E
:1022A000FFFFFFFFFFFFFFFFFFFFFFFFFFFFFFFF3E
:1022B000FFFFFFFFFFFFFFFFFFFFFFFFFFFFFFFF2E
:1022C000FFFFFFFFFFFFFFFFFFFFFFFFFFFFFFFF1E
:1022D000FFFFFFFFFFFFFFFFFFFFFFFFFFFFFFFF0E
:1022E000FFFFFFFFFFFFFFFFFFFFFFFFFFFFFFFFFE
:1022F000FFFFFFFFFFFFFFFFFFFFFFFFFFFFFFFFEE
:10230000FFFFFFFFFFFFFFFFFFFFFFFFFFFFFFFFDD
:10231000FFFFFFFFFFFFFFFFFFFFFFFFFFFFFFFFCD
:10232000FFFFFFFFFFFFFFFFFFFFFFFFFFFFFFFFBD
:10233000FFFFFFFFFFFFFFFFFFFFFFFFFFFFFFFFAD
:10234000FFFFFFFFFFFFFFFFFFFFFFFFFFFFFFFF9D
:10235000FFFFFFFFFFFFFFFFFFFFFFFFFFFFFFFF8D
:10236000FFFFFFFFFFFFFFFFFFFFFFFFFFFFFFFF7D
:10237000FFFFFFFFFEFEFEF3F3F3E9E9E9D7D7D74E
:10238000C1C1C1AFAFAFA9A9A9B5B5B5CACACAE1A4
:10239000E1E1F5F5F5FEFEFEFFFFFFFFFFFFFFFFAA
:1023A000FFFFFFFFFFFFFFFFFFFFFFFFFFFFFFFF3D
:1023B000FFFFFFFFFFFFFFFFFFFFFFFFFFFFFFFF2D
:1023C000FFFFFFFFFFFFFFFFFFFFFFFFFFFFFFFF1D
:1023D000FFFFFFFFFFFFFFFFFFFFFFFFFFFFFFFF0D
:1023E000FFFFFFFFFFFFFFFFFFFFFFFFFFFFFFFFFD
:1023F000FFFFFFFFFFFFFFFFFFFFFFFFFFFFFFFFED
:10240000FFFFFFFFFFFFFFFFFFFFFFFFFFFFFFFFDC
:10241000FFFFFFFFFFFFFFFFFFFFFFFFFFFFFFFFCC
:10242000FFFFFFFFFFFFFFFFFFFFFFFFFFFFFFFFBC
:10243000FFFFFFFFFFFFFFFFFFFFFFFFFFFFFFFFAC
:10244000FFFFFFFFFFFFFFFFFFFFFFFFFFFFFFFF9C
:10245000FFFFFFFFFFFFFFFFFFFFFFFFFFFFFFFF8C
:10246000FFFFFFFFFFFFFFFFFFFFFFFFFFFFFFFF7C
:10247000FFFFFFFFFFFFFFFFFFFFFFFFFFFFFFFF6C
:10248000FFFFFFFFFFFFFFFFFFFFFFFFFFFFFFFF5C
:10249000FFFFFFFFFFFFFFFFFFFFFFFFFFFFFFFF4C
:1024A000FFFFFFFFFFFFFFFFFFFFFFFFFFFFFFFF3C
:1024B000FFFFFFFFFFFFFFFFFFFFFFFFFFFFFFFF2C
:1024C000FFFFFFFFFFFFFFFFFFFFFFFFFFFFFFFF1C
:1024D000FFFFFFFFFFFFFFFFFFFFFFFFFFFFFFFF0C
:1024E000FFFFFFFFFFFFFFFFFFFFFFFDFDFDECEC28
:1024F000ECDEDEDEDFDFDFCDCDCDADADAD9090909B
:102500007D7D7D797979A2A2A2D1D1D1EFEFEFFDC6
:10251000FDFDFFFFFFFFFFFFFFFFFFFFFFFFFFFFCF
:10252000FFFFFFFFFFFFFFFFFFFFFFFFFFFFFFFFBB
:10253000FFFFFFFFFFFFFFFFFFFFFFFFFFFFFFFFAB
:10254000FFFFFFFFFFFFFFFFFFFFFFFFFFFFFFFF9B
:10255000FFFFFFFFFFFFFFFFFFFFFFFFFFFFFFFF8B
:10256000FFFFFFFFFFFFFFFFFFFFFFFFFFFFFFFF7B
:10257000FFFFFFFFFFFFFFFFFFFFFFFFFFFFFFFF6B
:10258000FFFFFFFFFFFFFFFFFFFFFFFFFFFFFFFF5B
:10259000FFFFFFFFFFFFFFFFFFFFFFFFFFFFFFFF4B
:1025A000FFFFFFFFFFFFFFFFFFFFFFFFFFFFFFFF3B
:1025B000FFFFFFFFFFFFFFFFFFFFFFFFFFFFFFFF2B
:1025C000FFFFFFFFFFFFFFFFFFFFFFFFFFFFFFFF1B
:1025D000FFFFFFFFFFFFFFFFFFFFFFFFFFFFFFFF0B
:1025E000FFFFFFFFFFFFFFFFFFFFFFFFFFFFFFFFFB
:1025F000FFFFFFFFFFFFFFFFFFFFFFFFFFFFFFFFEB
:10260000FFFFFFFFFFFFFFFFFFFFFFFFFFFFFFFFDA
:10261000FFFFFFFFFFFFFFFFFFFFFFFFFFFFFFFFCA
:10262000FFFFFFFFFFFFFFFFFFFFFFFFFFFFFFFFBA
:10263000FFFFFFFFFFFFFFFFFFFFFFFFFFFFFFFFAA
:10264000FFFFFFFFFFFFFFFFFFFFFFFFFFFFFFFF9A
:10265000FFFFFFFFFFFFFFFFFFFFFFFFFFFFFFFF8A
:10266000FFFFFFFFFFF3F3F3DDDDDDD0D0D0A8A83F
:10267000A87D7D7D575757363636363636616161CF
:10268000828282C4C4C4EEEEEEFCFCFCFFFFFFFFBE
:10269000FFFFFFFFFFFFFFFFFFFFFFFFFFFFFFFF4A
:1026A000FFFFFFFFFFFFFFFFFFFFFFFFFFFFFFFF3A
:1026B000FFFFFFFFFFFFFFFFFFFFFFFFFFFFFFFF2A
:1026C000FFFFFFFFFFFFFFFFFFFFFFFFFFFFFFFF1A
:1026D000FFFFFFFFFFFFFFFFFFFFFFFFFFFFFFFF0A
:1026E000FFFFFFFFFFFFFFFFFFFFFFFFFFFFFFFFFA
:1026F000FFFFFFFFFFFFFFFFFFFFFFFFFFFFFFFFEA
:10270000FFFFFFFFFFFFFFFFFFFFFFFFFFFFFFFFD9
:10271000FFFFFFFFFFFFFFFFFFFFFFFFFFFFFFFFC9
:10272000FFFFFFFFFFFFFFFFFFFFFFFFFFFFFFFFB9
:10273000FFFFFFFFFFFFFFFFFFFFFFFFFFFFFFFFA9
:10274000FFFFFFFEFEFEFEFEFEFFFFFFFFFFFFFF9F
:10275000FFFFFFFFFFFFFFFFFFFFFFFFFFFFFFFF89
:10276000FFFFFFFFFFFFFFFFFFFFFFFFFFFFFFFF79
:10277000FFFFFFFFFFFFFFFFFFFFFFFFFFFFFFFF69
:10278000FFFFFFFFFFFFFFFFFFFFFFFFFFFFFFFF59
:10279000FFFFFFFFFFFFFFFFFFFFFFFFFFFFFFFF49
:1027A000FFFFFFFFFFFFFFFFFFFFFFFFFFFFFFFF39
:1027B000FFFFFFFFFFFFFFFFFFFFFFFFFFFFFFFF29
:1027C000FFFFFFFFFFFFFFFFFFFFFFFFFFFFFFFF19
:1027D000FFFFFFFFFFFFFFFFFFFFFFFFFFFFFFEA1E
:1027E000EAEAE3E3E3B6B6B62424240101010000DB
:1027F00000000000060606616161767676BFBFBF05
:10280000EEEEEEFDFDFDFFFFFFFFFFFFFFFFFFFF11
:10281000FFFFFFFFFFFFFFFFFFFFFFFFFFFFFFFFC8
:10282000FFFFFFFFFFFFFFFFFFFFFFFFFFFFFFFFB8
:10283000FFFFFFFFFFFFFFFFFFFFFFFFFFFFFFFFA8
:10284000FFFFFFFFFFFFFFFFFFFFFFFFFFFFFFFF98
:10285000FFFFFFFFFFFFFFFFFFFFFFFFFFFFFFFF88
:10286000FFFFFFFFFFFFFFFFFFFFFFFFFFFFFFFF78
:10287000FFFFFFFFFFFFFFFFFFFFFFFFFFFFFFFF68
:10288000FFFFFFFFFFFFFFFFFFFFFFFFFFFFFFFF58
:10289000FFFFFFFFFFFFFFFFFFFFFFFFFFFFFFFF48
:1028A000FFFFFFFFFFFFFFFFFFFFFFFFFFFFFFFF38
:1028B000FFFFFFFFFEFEFEFAFAFAF6F6F6F3F3F379
:1028C000F4F4F4F7F7F7FCFCFCFEFEFEFFFFFFFF5D
:1028D000FFFFFFFFFFFFFFFFFFFFFFFFFFFFFFFF08
:1028E000FFFFFFFFFFFFFFFFFFFFFFFFFFFFFFFFF8
:1028F000FFFFFFFFFFFFFFFFFFFFFFFFFFFFFFFFE8
:10290000FFFFFFFFFFFFFFFFFFFFFFFFFFFFFFFFD7
:10291000FFFFFFFFFFFFFFFFFFFFFFFFFFFFFFFFC7
:10292000FFFFFFFFFFFFFFFFFFFFFFFFFFFFFFFFB7
:10293000FFFFFFFFFFFFFFFFFFFFFFFFFFFFFFFFA7
:10294000FFFFFFFFFFFFFFFFFFFFFFFFFFFFFFFF97
:10295000FFFFFFFFFFFFFEFEFEE4E4E4EAEAEA9881
:102960009898000000000000000000000000121213
:1029700012616161757575BDBDBDEFEFEFFDFDFDC8
:10298000FFFFFFFFFFFFFFFFFFFFFFFFFFFFFFFF57
:10299000FFFFFFFFFFFFFFFFFFFFFFFFFFFFFFFF47
:1029A000FFFFFFFFFFFFFFFFFFFFFFFFFFFFFFFF37
:1029B000FFFFFFFFFFFFFFFFFFFFFFFFFFFFFFFF27
:1029C000FFFFFFFFFFFFFFFFFFFFFFFFFFFFFFFF17
:1029D000FFFFFFFFFFFFFFFFFFFFFFFFFFFFFFFF07
:1029E000FFFFFFFFFFFFFFFFFFFFFFFFFFFFFFFFF7
:1029F000FFFFFFFFFFFFFFFFFFFFFFFFFFFFFFFFE7
:102A0000FFFFFFFFFFFFFFFFFFFFFFFFFFFFFFFFD6
:102A1000FFFFFFFFFFFFFFFFFFFFFFFFFFFFFFFFC6
:102A2000FFFFFFFFFFFFFFFFFFFFFFFDFDFDF5F5D0
:102A3000F5E8E8E8DDDDDDD7D7D7DADADAE3E3E396
:102A4000F0F0F0FBFBFBFFFFFFFFFFFFFFFFFFFFCF
:102A5000FFFFFFFFFFFFFFFFFFFFFFFFFFFFFFFF86
:102A6000FFFFFFFFFFFFFFFFFFFFFFFFFFFFFFFF76
:102A7000FFFFFFFFFFFFFFFFFFFFFFFFFFFFFFFF66
:102A8000FFFFFFFFFFFFFFFFFFFFFFFFFFFFFFFF56
:102A9000FFFFFFFFFFFFFFFFFFFFFFFFFFFFFFFF46
:102AA000FFFFFFFFFFFFFFFFFFFFFFFFFFFFFFFF36
:102AB000FFFFFFFFFFFFFFFFFFFFFFFFFFFFFFFF26
:102AC000FFFFFFFFFFFFFFFFFFFFFFFFFFFFFFFF16
:102AD000F9F9F9E0E0E0F0F0F08282820000000015
:102AE00000000000000000001212126161617575A3
:102AF00075BDBDBDEFEFEFFDFDFDFFFFFFFFFFFF6C
:102B0000FFFFFFFFFFFFFFFFFFFFFFFFFFFFFFFFD5
:102B1000FFFFFFFFFFFFFFFFFFFFFFFFFFFFFFFFC5
:102B2000FFFFFFFFFFFFFFFFFFFFFFFFFFFFFFFFB5
:102B3000FFFFFFFFFFFFFFFFFFFFFFFFFFFFFFFFA5
:102B4000FFFFFFFFFFFFFFFFFFFFFFFFFFFFFFFF95
:102B5000FFFFFFFFFFFFFFFFFFFFFFFFFFFFFFFF85
:102B6000FFFFFFFFFFFFFFFFFFFFFFFFFFFFFFFF75
:102B7000FFFFFFFFFFFFFFFFFFFFFFFFFFFFFFFF65
:102B8000FFFFFFFFFFFFFFFFFFFFFFFFFFFFFFFF55
:102B9000FFFFFFFFFFFFFFFFFFFFFFFFFFFFFFFA4A
:102BA000FAFAECECECE0E0E0CFCFCFB7B7B7A3A3F5
:102BB000A39B9B9BACACACC8C8C8DFDFDFF3F3F3CF
:102BC000FEFEFEFFFFFFFFFFFFFFFFFFFFFFFFFF18
:102BD000FFFFFFFFFFFFFFFFFFFFFFFFFFFFFFFF05
:102BE000FFFFFFFFFFFFFFFFFFFFFFFFFFFFFFFFF5
:102BF000FFFFFFFFFFFFFFFFFFFFFFFFFFFFFFFFE5
:102C0000FFFFFFFFFFFFFFFFFFFFFFFFFFFFFFFFD4
:102C1000FFFFFFFFFFFFFFFFFFFFFFFFFFFFFFFFC4
:102C2000FFFFFFFFFFFFFFFFFFFFFFFFFFFFFFFFB4
:102C3000FFFFFFFFFFFFFFFFFFFFFFFFFFFFFFFFA4
:102C4000FFFFFFFFFFFFFFFFFFFFF2F2F2DCDCDC24
:102C5000E3E3E3646464000000000000000000009F
:102C60000000121212616161757575BDBDBDEFEF97
:102C7000EFFDFDFDFFFFFFFFFFFFFFFFFFFFFFFF7A
:102C8000FFFFFFFFFFFFFFFFFFFFFFFFFFFFFFFF54
:102C9000FFFFFFFFFFFFFFFFFFFFFFFFFFFFFFFF44
:102CA000FFFFFFFFFFFFFFFFFFFFFFFFFFFFFFFF34
:102CB000FFFFFFFFFFFFFFFFFFFFFFFFFFFFFFFF24
:102CC000FFFFFFFFFFFFFFFFFFFFFFFFFFFFFFFF14
:102CD000FFFFFFFFFFFFFFFFFFFFFFFFFFFFFFFF04
:102CE000FFFFFFFFFFFFFFFFFFFFFFFFFFFFFFFFF4
:102CF000FFFFFFFFFFFFFFFFFFFFFFFFFFFFFFFFE4
:102D0000FFFFFFFFFFFFFFFFFFFFFFFFFFFFFFFFD3
:102D1000FFFFFFFFFFFFFCFCFCE3E3E3DEDEDEE999
:102D2000E9E9D3D3D3AEAEAE8A8A8A73737376766B
:102D300076A4A4A4CFCFCFECECECFCFCFCFFFFFF0F
:102D4000FFFFFFFFFFFFFFFFFFFFFFFFFFFFFFFF93
:102D5000FFFFFFFFFFFFFFFFFFFFFFFFFFFFFFFF83
:102D6000FFFFFFFFFFFFFFFFFFFFFFFFFFFFFFFF73
:102D7000FFFFFFFFFFFFFFFFFFFFFFFFFFFFFFFF63
:102D8000FFFFFFFFFFFFFFFFFFFFFFFFFFFFFFFF53
:102D9000FFFFFFFFFFFFFFFFFFFFFFFFFFFFFFFF43
:102DA000FFFFFFFFFFFFFFFFFFFFFFFFFFFFFFFF33
:102DB000FFFFFFFFFFFFFFFFFFFFFFFFFFFFFFFF23
:102DC000FFFFFFFFEBEBEBE0E0E0BEBEBE262626FA
:102DD000000000000000000000000000121212615C
:102DE0006161757575BDBDBDEFEFEFFDFDFDFFFFC9
:102DF000FFFFFFFFFFFFFFFFFFFFFFFFFFFFFFFFE3
:102E0000FFFFFFFFFFFFFFFFFFFFFFFFFFFFFFFFD2
:102E1000FFFFFFFFFFFFFFFFFFFFFFFFFFFFFFFFC2
:102E2000FFFFFFFFFFFFFFFFFFFFFFFFFFFFFFFFB2
:102E3000FFFFFFFFFFFFFFFFFFFFFFFFFFFFFFFFA2
:102E4000FFFFFFFFFFFFFFFFFFFFFFFFFFFFFFFF92
:102E5000FFFFFFFFFFFFFFFFFFFFFFFFFFFFFFFF82
:102E6000FFFFFFFFFFFFFFFFFFFFFFFFFFFFFFFF72
:102E7000FFFFFFFFFFFFFFFFFFFFFFFFFFFFFFFF62
:102E8000FFFFFFFFFFFFFFFFFFFFFFFFFFFFFFFF52
:102E9000EFEFEFE0E0E0BDBDBD7E7E7E6A6A6A5581
:102EA0005555424242414141606060808080BDBDD5
:102EB000BDE4E4E4F8F8F8FFFFFFFFFFFFFFFFFFCA
:102EC000FFFFFFFFFFFFFFFFFFFFFFFFFFFFFFFF12
:102ED000FFFFFFFFFFFFFFFFFFFFFFFFFFFFFFFF02
:102EE000FFFFFFFFFFFFFFFFFFFFFFFFFFFFFFFFF2
:102EF000FFFFFFFFFFFFFFFFFFFFFFFFFFFFFFFFE2
:102F0000FFFFFFFFFFFFFFFFFFFFFFFFFFFFFFFFD1
:102F1000FFFFFFFFFFFFFFFFFFFFFFFFFFFFFFFFC1
:102F2000FFFFFFFFFFFFFFFFFFFFFFFFFFFFFFFFB1
:102F3000FFFFFFFFFFFFFFFFFFFFFFF9F9F9DFDFF3
:102F4000DFE4E4E49999990000000000000000002B
:102F5000000000000000121212616161757575BDFC
:102F6000BDBDEFEFEFFDFDFDFFFFFFFFFFFFFFFF2B
:102F7000FFFFFFFFFFFFFFFFFFFFFFFFFFFFFFFF61
:102F8000FFFFFFFFFFFFFFFFFFFFFFFFFFFFFFFF51
:102F9000FFFFFFFFFFFFFFFFFFFFFFFFFFFFFFFF41
:102FA000FFFFFFFFFFFFFFFFFFFFFFFFFFFFFFFF31
:102FB000FFFFFFFFFFFFFFFFFFFFFFFFFFFFFFFF21
:102FC000FFFFFFFFFFFFFFFFFFFFFFFFFFFFFFFF11
:102FD000FFFFFFFFFFFFFFFFFFFFFFFFFFFFFFFF01
:102FE000FFFFFFFFFFFFFFFFFFFFFFFFFFFFFFFFF1
:102FF000FFFFFFFFFFFFFFFFFFFFFFFFFFFFFFFFE1
:10300000FFFFFFFFFFFFFFFEFEFEE5E5E5E9E9E963
:1030100094949400000000000000000000000012E2
:1030200012126767676B6B6BA9A9A9DADADAF2F299
:10303000F2FEFEFEFFFFFFFFFFFFFFFFFFFFFFFFB0
:10304000FFFFFFFFFFFFFFFFFFFFFFFFFFFFFFFF90
:10305000FFFFFFFFFFFFFFFFFFFFFFFFFFFFFFFF80
:10306000FFFFFFFFFFFFFFFFFFFFFFFFFFFFFFFF70
:10307000FFFFFFFFFFFFFFFFFFFFFFFFFFFFFFFF60
:10308000FFFFFFFFFFFFFFFFFFFFFFFFFFFFFFFF50
:10309000FFFFFFFFFFFFFFFFFFFFFFFFFFFFFFFF40
:1030A000FFFFFFFFFFFFFFFFFFFFFFFFFFFFFFFF30
:1030B000FFFFFEFEFEE9E9E9D2D2D2C5C5C55050F8
:1030C00050000000000000000000000000000000B0
:1030D000121212616161757575BDBDBDEFEFEFFD37
:1030E000FDFDFFFFFFFFFFFFFFFFFFFFFFFFFFFFF4
:1030F000FFFFFFFFFFFFFFFFFFFFFFFFFFFFFFFFE0
:10310000FFFFFFFFFFFFFFFFFFFFFFFFFFFFFFFFCF
:10311000FFFFFFFFFFFFFFFFFFFFFFFFFFFFFFFFBF
:10312000FFFFFFFFFFFFFFFFFFFFFFFFFFFFFFFFAF
:10313000FFFFFFFFFFFFFFFFFFFFFFFFFFFFFFFF9F
:10314000FFFFFFFFFFFFFFFFFFFFFFFFFFFFFFFF8F
:10315000FFFFFFFFFFFFFFFFFFFFFFFFFFFFFFFF7F
:10316000FFFFFFFFFFFFFFFFFFFFFFFFFFFFFFFF6F
:10317000FFFFFFFFFFFFFFFFFFFFFFFFFFFFFFFF5F
:10318000FFFEFEFEE3E3E3E7E7E79898980606060E
:103190000000000000000000000C0C0C4E4E4E66BB
:1031A0006666919191CBCBCBECECECFBFBFBFFFF8C
:1031B000FFFFFFFFFFFFFFFFFFFFFFFFFFFFFFFF1F
:1031C000FFFFFFFFFFFFFFFFFFFFFFFFFFFFFFFF0F
:1031D000FFFFFFFFFFFFFFFFFFFFFFFFFFFFFFFFFF
:1031E000FFFFFFFFFFFFFFFFFFFFFFFFFFFFFFFFEF
:1031F000FFFFFFFFFFFFFFFFFFFFFFFFFFFFFFFFDF
:10320000FFFFFFFFFFFFFFFFFFFFFFFFFFFFFFFFCE
:10321000FFFFFFFFFFFFFFFFFFFFFFFFFFFFFFFFBE
:10322000FFFFFFFFFFFFFFFFFFFEFEFEEAEAEACD22
:10323000CDCDC3C3C3878787020202000000000010
:103240000000000000000000000012121261616125
:10325000757575BDBDBDEFEFEFFDFDFDFFFFFFFF18
:10326000FFFFFFFFFFFFFFFFFFFFFFFFFFFFFFFF6E
:10327000FFFFFFFFFFFFFFFFFFFFFFFFFFFFFFFF5E
:10328000FFFFFFFFFFFFFFFFFFFFFFFFFFFFFFFF4E
:10329000FFFFFFFFFFFFFFFFFFFFFFFFFFFFFFFF3E
:1032A000FFFFFFFFFFFFFFFFFFFFFFFFFFFFFFFF2E
:1032B000FFFFFFFFFFFFFFFFFFFFFFFFFFFFFFFF1E
:1032C000FFFFFFFFFFFFFFFFFFFFFFFFFFFFFFFF0E
:1032D000FFFFFFFFFFFFFFFFFFFFFFFFFFFFFFFFFE
:1032E000FFFFFFFFFFFFFFFFFFFFFFFFFFFFFFFFEE
:1032F000FFFFFFFFFFFFFFFFFFFFFFFEFEFEE3E319
:10330000E3E7E7E799999907070700000000000045
:103310000000000000002828286868687F7F7FBDC3
:10332000BDBDE3E3E3F7F7F7FFFFFFFFFFFFFFFF9D
:10333000FFFFFFFFFFFFFFFFFFFFFFFFFFFFFFFF9D
:10334000FFFFFFFFFFFFFFFFFFFFFFFFFFFFFFFF8D
:10335000FFFFFFFFFFFFFFFFFFFFFFFFFFFFFFFF7D
:10336000FFFFFFFFFFFFFFFFFFFFFFFFFFFFFFFF6D
:10337000FFFFFFFFFFFFFFFFFFFFFFFFFFFFFFFF5D
:10338000FFFFFFFFFFFFFFFFFFFFFFFFFFFFFFFF4D
:10339000FFFFFFFFFFFFFFFFFFFFFFFFFFFFFFFF3D
:1033A000FBFBFBE4E4E4C7C7C7B8B8B89090901340
:1033B00013130000000000000000000000000000E7
:1033C00000000000121212616161757575BDBDBD0E
:1033D000EFEFEFFDFDFDFFFFFFFFFFFFFFFFFFFF33
:1033E000FFFFFFFFFFFFFFFFFFFFFFFFFFFFFFFFED
:1033F000FFFFFFFFFFFFFFFFFFFFFFFFFFFFFFFFDD
:10340000FFFFFFFFFFFFFFFFFFFFFFFFFFFFFFFFCC
:10341000FFFFFFFFFFFFFFFFFFFFFFFFFFFFFFFFBC
:10342000FFFFFFFFFFFFFFFFFFFFFFFFFFFFFFFFAC
:10343000FFFFFFFFFFFFFFFFFFFFFFFFFFFFFFFF9C
:10344000FFFFFFFFFFFFFFFFFFFFFFFFFFFFFFFF8C
:10345000FFFFFFFFFFFFFFFFFFFFFFFFFFFFFFFF7C
:10346000FFFFFFFFFFFFFFFFFFFFFFFFFFFFFFFF6C
:10347000FFFFFFFFFFFEFEFEE3E3E3E7E7E79999C7
:10348000990707070000000000000000000000008E
:103490002222226767676F6F6FA8A8A8D7D7D7F2D5
:1034A000F2F2FEFEFEFFFFFFFFFFFFFFFFFFFFFF49
:1034B000FFFFFFFFFFFFFFFFFFFFFFFFFFFFFFFF1C
:1034C000FFFFFFFFFFFFFFFFFFFFFFFFFFFFFFFF0C
:1034D000FFFFFFFFFFFFFFFFFFFFFFFFFFFFFFFFFC
:1034E000FFFFFFFFFFFFFFFFFFFFFFFFFFFFFFFFEC
:1034F000FFFFFFFFFFFFFFFFFFFFFFFFFFFFFFFFDC
:10350000FFFFFFFFFFFFFFFFFFFFFFFFFFFFFFFFCB
:10351000FFFFFFFFFFFFFFF3F3F3D9D9D9C3C3C305
:10352000B0B0B086868616161600000000000000B7
:103530000000000000000000000000000000121267
:1035400012616161757575BDBDBDEFEFEFFDFDFDEC
:10355000FFFFFFFFFFFFFFFFFFFFFFFFFFFFFFFF7B
:10356000FFFFFFFFFFFFFFFFFFFFFFFFFFFFFFFF6B
:10357000FFFFFFFFFFFFFFFFFFFFFFFFFFFFFFFF5B
:10358000FFFFFFFFFFFFFFFFFFFFFFFFFFFFFFFF4B
:10359000FFFFFFFFFFFFFFFFFFFFFFFFFFFFFFFF3B
:1035A000FFFFFFFFFFFFFFFFFFFFFFFFFFFFFFFF2B
:1035B000FFFFFFFFFFFFFFFFFFFFFFFFFFFFFFFF1B
:1035C000FFFFFFFFFFFFFFFFFFFFFFFFFFFFFFFF0B
:1035D000FFFFFFFFFFFFFFFFFFFFFFFFFFFFFFFFFB
:1035E000FFFFFFFFFFFFFFFFFFFFFFFFFFFFFFFEEC
:1035F000FEFEE3E3E3E7E7E7999999070707000091
:10360000000000000000000000000F0F0F4D4D4DA6
:10361000696969919191C9C9C9EAEAEAFBFBFBFFB3
:10362000FFFFFFFFFFFFFFFFFFFFFFFFFFFFFFFFAA
:10363000FFFFFFFFFFFFFFFFFFFFFFFFFFFFFFFF9A
:10364000FFFFFFFFFFFFFFFFFFFFFFFFFFFFFFFF8A
:10365000FFFFFFFFFFFFFFFFFFFFFFFFFFFFFFFF7A
:10366000FFFFFFFFFFFFFFFFFFFFFFFFFFFFFFFF6A
:10367000FFFFFFFFFFFFFFFFFFFFFFFFFFFFFFFF5A
:10368000FFFFFFFFFFFFFFFFFFFFFFFCFCFCE7E783
:10369000E7CDCDCDC0C0C0A5A5A56969690E0E0E48
:1036A000000000000000000000000000000000001A
:1036B00000000000000000001212126161617575C7
:1036C00075BDBDBDEFEFEFFDFDFDFFFFFFFFFFFF90
:1036D000FFFFFFFFFFFFFFFFFFFFFFFFFFFFFFFFFA
:1036E000FFFFFFFFFFFFFFFFFFFFFFFFFFFFFFFFEA
:1036F000FFFFFFFFFFFFFFFFFFFFFFFFFFFFFFFFDA
:10370000FFFFFFFFFFFFFFFFFFFFFFFFFFFFFFFFC9
:10371000FFFFFFFFFFFFFFFFFFFFFFFFFFFFFFFFB9
:10372000FFFFFFFFFFFFFFFFFFFFFFFFFFFFFFFFA9
:10373000FFFFFFFFFFFFFFFFFFFFFFFFFFFFFFFF99
:10374000FFFFFFFFFFFFFFFFFFFFFFFFFFFFFFFF89
:10375000FFFFFFFFFFFFFFFFFFFFFFFFFFFFFFFF79
:10376000FFFFFFFFFFFFFFFFFFFEFEFEE3E3E3E7D8
:10377000E7E799999907070700000000000000009B
:10378000000000000000003333336B6B6B7D7D7DE8
:10379000B8B8B8DEDEDEF5F5F5FFFFFFFFFFFFFF8F
:1037A000FFFFFFFFFFFFFFFFFFFFFFFFFFFFFFFF29
:1037B000FFFFFFFFFFFFFFFFFFFFFFFFFFFFFFFF19
:1037C000FFFFFFFFFFFFFFFFFFFFFFFFFFFFFFFF09
:1037D000FFFFFFFFFFFFFFFFFFFFFFFFFFFFFFFFF9
:1037E000FFFFFFFFFFFFFFFFFFFFFFFFFFFFFFFFE9
:1037F000FFFFFFFFFFFFFFFFFFFFFFFFFFFFFFFFD9
:10380000FFFFF3F3F3D9D9D9C4C4C4BDBDBD9191B1
:10381000913D3D3D00000000000000000000000060
:103820000000000000000000000000000000000098
:103830000000121212616161757575BDBDBDEFEFBB
:10384000EFFDFDFDFFFFFFFFFFFFFFFFFFFFFFFF9E
:10385000FFFFFFFFFFFFFFFFFFFFFFFFFFFFFFFF78
:10386000FFFFFFFFFFFFFFFFFFFFFFFFFFFFFFFF68
:10387000FFFFFFFFFFFFFFFFFFFFFFFFFFFFFFFF58
:10388000FFFFFFFFFFFFFFFFFFFFFFFFFFFFFFFF48
:10389000FFFFFFFFFFFFFFFFFFFFFFFFFFFFFFFF38
:1038A000FFFFFFFFFFFFFFFFFFFFFFFFFFFFFFFF28
:1038B000FFFFFFFFFFFFFFFFFFFFFFFFFFFFFFFF18
:1038C000FFFFFFFFFFFFFFFFFFFFFFFFFFFFFFFF08
:1038D000FFFFFFFFFFFFFFFFFFFFFFFFFFFFFFFFF8
:1038E000FFFFFFFEFEFEE3E3E3E7E7E799999907B1
:1038F00007070000000000000000000000000000BA
:10390000002727275F5F5F6B6B6B9F9F9FD0D0D097
:10391000EDEDEDFCFCFCFFFFFFFFFFFFFFFFFFFFF6
:10392000FFFFFFFFFFFFFFFFFFFFFFFFFFFFFFFFA7
:10393000FFFFFFFFFFFFFFFFFFFFFFFFFFFFFFFF97
:10394000FFFFFFFFFFFFFFFFFFFFFFFFFFFFFFFF87
:10395000FFFFFFFFFFFFFFFFFFFFFFFFFFFFFFFF77
:10396000FFFFFFFFFFFFFFFFFFFFFFFFFFFFFFFF67
:10397000FFFFFFFFFFFFFCFCFCEAEAEACCCCCCB97E
:10398000B9B9AEAEAE6B6B6B171717000000000035
:103990000000000000000000000000000000000027
:1039A0000000000000000000000000001212126180
:1039B0006161757575BDBDBDEFEFEFFDFDFDFFFFED
:1039C000FFFFFFFFFFFFFFFFFFFFFFFFFFFFFFFF07
:1039D000FFFFFFFFFFFFFFFFFFFFFFFFFFFFFFFFF7
:1039E000FFFFFFFFFFFFFFFFFFFFFFFFFFFFFFFFE7
:1039F000FFFFFFFFFFFFFFFFFFFFFFFFFFFFFFFFD7
:103A0000FFFFFFFFFFFFFFFFFFFFFFFFFFFFFFFFC6
:103A1000FFFFFFFFFFFFFFFFFFFFFFFFFFFFFFFFB6
:103A2000FFFFFFFFFFFFFFFFFFFFFFFFFFFFFFFFA6
:103A3000FFFFFFFFFFFFFFFFFFFFFFFFFFFFFFFF96
:103A4000FFFFFFFFFFFFFFFFFFFFFFFFFFFFFFFF86
:103A5000FFFFFFFFFFFFFFFFFFFFFFFFFFFEFEFE79
:103A6000E3E3E3E7E7E79999990707070000000018
:103A700000000000000000000000000303034343B7
:103A800043666666858585BABABAE0E0E0F7F7F77F
:103A9000FFFFFFFFFFFFFFFFFFFFFFFFFFFFFFFF36
:103AA000FFFFFFFFFFFFFFFFFFFFFFFFFFFFFFFF26
:103AB000FFFFFFFFFFFFFFFFFFFFFFFFFFFFFFFF16
:103AC000FFFFFFFFFFFFFFFFFFFFFFFFFFFFFFFF06
:103AD000FFFFFFFFFFFFFFFFFFFFFFFFFFFFFFFFF6
:103AE000FFFFFFFFFFFFFFFFFFFFFFFFFFF4F4F407
:103AF000DBDBDBBEBEBEB0B0B0959595353535008D
:103B000000000000000000000000000000000000B5
:103B100000000000000000000000000000000000A5
:103B2000000000000000121212616161757575BD20
:103B3000BDBDEFEFEFFDFDFDFFFFFFFFFFFFFFFF4F
:103B4000FFFFFFFFFFFFFFFFFFFFFFFFFFFFFFFF85
:103B5000FFFFFFFFFFFFFFFFFFFFFFFFFFFFFFFF75
:103B6000FFFFFFFFFFFFFFFFFFFFFFFFFFFFFFFF65
:103B7000FFFFFFFFFFFFFFFFFFFFFFFFFFFFFFFF55
:103B8000FFFFFFFFFFFFFFFFFFFFFFFFFFFFFFFF45
:103B9000FFFFFFFFFFFFFFFFFFFFFFFFFFFFFFFF35
:103BA000FFFFFFFFFFFFFFFFFFFFFFFFFFFFFFFF25
:103BB000FFFFFFFFFFFFFFFFFFFFFFFFFFFFFFFF15
:103BC000FFFFFFFFFFFFFFFFFFFFFFFFFFFFFFFF05
:103BD000FFFFFFFFFFFFFFFEFEFEE3E3E3E7E7E794
:103BE00099999907070700000000000000000000F5
:103BF00000000000000000003535356161616E6E27
:103C00006EA0A0A0D0D0D0EDEDEDFCFCFCFFFFFF3E
:103C1000FFFFFFFFFFFFFFFFFFFFFFFFFFFFFFFFB4
:103C2000FFFFFFFFFFFFFFFFFFFFFFFFFFFFFFFFA4
:103C3000FFFFFFFFFFFFFFFFFFFFFFFFFFFFFFFF94
:103C4000FFFFFFFFFFFFFFFFFFFFFFFFFFFFFFFF84
:103C5000FFFFFFFFFFFFFFFFFFFFFFFFFFFFFFFF74
:103C6000FFFBFBFBEAEAEAD0D0D0B7B7B7A8A8A819
:103C70006C6C6C1A1A1A00000000000000000000B2
:103C80000000000000000000000000000000000034
:103C90000000000000000000000000000000000024
:103CA000121212616161757575BDBDBDEFEFEFFD5B
:103CB000FDFDFFFFFFFFFFFFFFFFFFFFFFFFFFFF18
:103CC000FFFFFFFFFFFFFFFFFFFFFFFFFFFFFFFF04
:103CD000FFFFFFFFFFFFFFFFFFFFFFFFFFFFFFFFF4
:103CE000FFFFFFFFFFFFFFFFFFFFFFFFFFFFFFFFE4
:103CF000FFFFFFFFFFFFFFFFFFFFFFFFFFFFFFFFD4
:103D0000FFFFFFFFFFFFFFFFFFFFFFFFFFFFFFFFC3
:103D1000FFFFFFFFFFFFFFFFFFFFFFFFFFFFFFFFB3
:103D2000FFFFFFFFFFFFFFFFFFFFFFFFFFFFFFFFA3
:103D3000FFFFFFFFFFFFFFFFFFFFFFFFFFFFFFFF93
:103D4000FFFFFFFFFFFFFFFFFFFFFFFFFFFFFFFF83
:103D5000FFFEFEFEE3E3E3E7E7E79999990707072C
:103D60000000000000000000000000000000000053
:103D700000000707074E4E4E646464848484BABA18
:103D8000BAE0E0E0F7F7F7FEFEFEFFFFFFFFFFFF00
:103D9000FFFFFFFFFFFFFFFFFFFFFFFFFFFFFFFF33
:103DA000FFFFFFFFFFFFFFFFFFFFFFFFFFFFFFFF23
:103DB000FFFFFFFFFFFFFFFFFFFFFFFFFFFFFFFF13
:103DC000FFFFFFFFFFFFFFFFFFFFFFFFFFFFFFFF03
:103DD000FFFFFFFFFFFFFFFFF4F4F4DCDCDCC5C5F1
:103DE000C5B4B4B49C9C9C3B3B3B0606060000005B
:103DF00000000000000000000000000000000000C3
:103E000000000000000000000000000000000000B2
:103E10000000000000000000000012121261616149
:103E2000757575BDBDBDEFEFEFFDFDFDFFFFFFFF3C
:103E3000FFFFFFFFFFFFFFFFFFFFFFFFFFFFFFFF92
:103E4000FFFFFFFFFFFFFFFFFFFFFFFFFFFFFFFF82
:103E5000FFFFFFFFFFFFFFFFFFFFFFFFFFFFFFFF72
:103E6000FFFFFFFFFFFFFFFFFFFFFFFFFFFFFFFF62
:103E7000FFFFFFFFFFFFFFFFFFFFFFFFFFFFFFFF52
:103E8000FFFFFFFFFFFFFFFFFFFFFFFFFFFFFFFF42
:103E9000FFFFFFFFFFFFFFFFFFFFFFFFFFFFFFFF32
:103EA000FFFFFFFFFFFFFFFFFFFFFFFFFFFFFFFF22
:103EB000FFFFFFFFFFFFFFFFFFFFFFFFFFFFFFFF12
:103EC000FFFFFFFFFFFFFFFFFFFFFFFEFEFEE3E33D
:103ED000E3E7E7E79999990707070000000000006A
:103EE000000000000000000000000000000000379B
:103EF00037375C5C5C6D6D6DA0A0A0CECECEEBEBD9
:103F0000EBFBFBFBFFFFFFFFFFFFFFFFFFFFFFFFE1
:103F1000FFFFFFFFFFFFFFFFFFFFFFFFFFFFFFFFB1
:103F2000FFFFFFFFFFFFFFFFFFFFFFFFFFFFFFFFA1
:103F3000FFFFFFFFFFFFFFFFFFFFFFFFFFFFFFFF91
:103F4000FFFFFFFFFFFFFFFFFFFFFFFFFCFCFCE9A0
:103F5000E9E9D0D0D0BFBFBFACACAC727272202048
:103F60002000000000000000000000000000000031
:103F70000000000000000000000000000000000041
:103F80000000000000000000000000000000000031
:103F900000000000121212616161757575BDBDBD32
:103FA000EFEFEFFDFDFDFFFFFFFFFFFFFFFFFFFF57
:103FB000FFFFFFFFFFFFFFFFFFFFFFFFFFFFFFFF11
:103FC000FFFFFFFFFFFFFFFFFFFFFFFFFFFFFFFF01
:103FD000FFFFFFFFFFFFFFFFFFFFFFFFFFFFFFFFF1
:103FE000FFFFFFFFFFFFFFFFFFFFFFFFFFFFFFFFE1
:103FF000FFFFFFFFFFFFFFFFFFFFFFFFFFFFFFFFD1
:10400000FFFFFFFFFFFFFFFFFFFFFFFFFFFFFFFFC0
:10401000FFFFFFFFFFFFFFFFFFFFFFFFFFFFFFFFB0
:10402000FFFFFFFFFFFFFFFFFFFFFFFFFFFFFFFFA0
:10403000FFFFFFFFFFFFFFFFFFFFFFFFFFFFFFFF90
:10404000FFFFFFFFFFFEFEFEE3E3E3E7E7E79999EB
:1040500099070707000000000000000000000000B2
:104060000000000000000000000000005454545FF5
:104070005F5F818181B8B8B8DDDDDDF4F4F4FEFE68
:10408000FEFFFFFFFFFFFFFFFFFFFFFFFFFFFFFF41
:10409000FFFFFFFFFFFFFFFFFFFFFFFFFFFFFFFF30
:1040A000FFFFFFFFFFFFFFFFFFFFFFFFFFFFFFFF20
:1040B000FFFFFFFFFFFFFFFFFFFFFFFFFFFFFFFF10
:1040C000FFFFFFF9F9F9DFDFDFC4C4C4BCBCBC9B50
:1040D0009B9B4A4A4A0000000000000000000000CC
:1040E00000000000000000000000000000000000D0
:1040F00000000000000000000000000000000000C0
:10410000000000000000000000000000000012128B
:1041100012616161757575BDBDBDEFEFEFFDFDFD10
:10412000FFFFFFFFFFFFFFFFFFFFFFFFFFFFFFFF9F
:10413000FFFFFFFFFFFFFFFFFFFFFFFFFFFFFFFF8F
:10414000FFFFFFFFFFFFFFFFFFFFFFFFFFFFFFFF7F
:10415000FFFFFFFFFFFFFFFFFFFFFFFFFFFFFFFF6F
:10416000FFFFFFFFFFFFFFFFFFFFFFFFFFFFFFFF5F
:10417000FFFFFFFFFFFFFFFFFFFFFFFFFFFFFFFF4F
:10418000FFFFFFFFFFFFFFFFFFFFFFFFFFFFFFFF3F
:10419000FFFFFFFFFFFFFFFFFFFFFFFFFFFFFFFF2F
:1041A000FFFFFFFFFFFFFFFFFFFFFFFFFFFFFFFF1F
:1041B000FFFFFFFFFFFFFFFFFFFFFFFFFFFFFFFE10
:1041C000FEFEE3E3E3E7E7E79999990707070000B5
:1041D00000000000000000000000000000000000DF
:1041E0000000000000002F2F2F5C5C5C6868689C5A
:1041F0009C9CC9C9C9E6E6E6F8F8F8FFFFFFFFFF97
:10420000FFFFFFFFFFFFFFFFFFFFFFFFFFFFFFFFBE
:10421000FFFFFFFFFFFFFFFFFFFFFFFFFFFFFFFFAE
:10422000FFFFFFFFFFFFFFFFFFFFFFFFFFFFFFFF9E
:10423000FFFFFFFFFFFFFFFDFDFDEEEEEED4D4D448
:10424000BBBBBBB6B6B66E6E6E2828280000000059
:10425000000000000000000000000000000000005E
:10426000000000000000000000000000000000004E
:10427000000000000000000000000000000000003E
:1042800000000000000000001212126161617575EB
:1042900075BDBDBDEFEFEFFDFDFDFFFFFFFFFFFFB4
:1042A000FFFFFFFFFFFFFFFFFFFFFFFFFFFFFFFF1E
:1042B000FFFFFFFFFFFFFFFFFFFFFFFFFFFFFFFF0E
:1042C000FFFFFFFFFFFFFFFFFFFFFFFFFFFFFFFFFE
:1042D000FFFFFFFFFFFFFFFFFFFFFFFFFFFFFFFFEE
:1042E000FFFFFFFFFFFFFFFFFFFFFFFFFFFFFFFFDE
:1042F000FFFFFFFFFFFFFFFFFFFFFFFFFFFFFFFFCE
:10430000FFFFFFFFFFFFFFFFFFFFFFFFFFFFFFFFBD
:10431000FFFFFFFFFFFFFFFFFFFFFFFFFFFFFFFFAD
:10432000FFFFFFFFFFFFFFFFFFFFFFFFFFFFFFFF9D
:10433000FFFFFFFFFFFFFFFFFFFEFEFEE3E3E3E7FC
:10434000E7E79999990707070000000000000000BF
:10435000000000000000000000000000000000005D
:10436000000000505050595959777777B0B0B0D508
:10437000D5D5EDEDEDFBFBFBFFFFFFFFFFFFFFFFE3
:10438000FFFFFFFFFFFFFFFFFFFFFFFFFFFFFFFF3D
:10439000FFFFFFFFFFFFFFFFFFFFFFFFFFFFFFFF2D
:1043A000FFFFFFFFFFFFFFFFFFFFFFFFFFFFF8F82B
:1043B000F8E2E2E2C5C5C5BABABAA2A2A253535303
:1043C00000000000000000000000000000000000ED
:1043D00000000000000000000000000000000000DD
:1043E00000000000000000000000000000000000CD
:1043F00000000000000000000000000000000000BD
:104400000000121212616161757575BDBDBDEFEFDF
:10441000EFFDFDFDFFFFFFFFFFFFFFFFFFFFFFFFC2
:10442000FFFFFFFFFFFFFFFFFFFFFFFFFFFFFFFF9C
:10443000FFFFFFFFFFFFFFFFFFFFFFFFFFFFFFFF8C
:10444000FFFFFFFFFFFFFFFFFFFFFFFFFFFFFFFF7C
:10445000FFFFFFFFFFFFFFFFFFFFFFFFFFFFFFFF6C
:10446000FFFFFFFFFFFFFFFFFFFFFFFFFFFFFFFF5C
:10447000FFFFFFFFFFFFFFFFFFFFFFFFFFFFFFFF4C
:10448000FFFFFFFFFFFFFFFFFFFFFFFFFFFFFFFF3C
:10449000FFFFFFFFFFFFFFFFFFFFFFFFFFFFFFFF2C
:1044A000FFFFFFFFFFFFFFFFFFFFFFFFFFFFFFFF1C
:1044B000FFFFFFFEFEFEE3E3E3E7E7E799999907D5
:1044C00007070000000000000000000000000000DE
:1044D000000000000000000000000000002020207C
:1044E0006060605D5D5D8B8B8BBCBCBCDCDCDCF23A
:1044F000F2F2FCFCFCFFFFFFFFFFFFFFFFFFFFFFEF
:10450000FFFFFFFFFFFFFFFFFFFFFFFFFFFFFFFFBB
:10451000FFFFFFFFFFFFFFFFFFFFFFFFFFFFFFFFAB
:10452000FFFFFFFFFFEEEEEED4D4D4BDBDBDB5B5A9
:10453000B57F7F7F262626000000000000000000D7
:10454000000000000000000000000000000000006B
:10455000000000000000000000000000000000005B
:10456000000000000000000000000000000000004B
:1045700000000000000000000000000012121261A4
:104580006161757575BDBDBDEFEFEFFDFDFDFFFF11
:10459000FFFFFFFFFFFFFFFFFFFFFFFFFFFFFFFF2B
:1045A000FFFFFFFFFFFFFFFFFFFFFFFFFFFFFFFF1B
:1045B000FFFFFFFFFFFFFFFFFFFFFFFFFFFFFFFF0B
:1045C000FFFFFFFFFFFFFFFFFFFFFFFFFFFFFFFFFB
:1045D000FFFFFFFFFFFFFFFFFFFFFFFFFFFFFFFFEB
:1045E000FFFFFFFFFFFFFFFFFFFFFFFFFFFFFFFFDB
:1045F000FFFFFFFFFFFFFFFFFFFFFFFFFFFFFFFFCB
:10460000FFFFFFFFFFFFFFFFFFFFFFFFFFFFFFFFBA
:10461000FFFFFFFFFFFFFFFFFFFFFFFFFFFFFFFFAA
:10462000FFFFFFFFFFFFFFFFFFFFFFFFFFFEFEFE9D
:10463000E3E3E3E7E7E7999999070707000000003C
:10464000000000000000000000000000000000006A
:1046500000000000000000000000333333606060A1
:104660006A6A6A9D9D9DC7C7C7E5E5E5F6F6F6FE51
:10467000FEFEFFFFFFFFFFFFFFFFFFFFFFFFFFFF4C
:10468000FFFFFFFFFFFFFFFFFFFFFFFFFFFFFFFF3A
:10469000FFFFFFFFFFFFFFFFFFFAFAFAE3E3E3C8C4
:1046A000C8C8B5B5B59F9F9F5C5C5C0B0B0B000049
:1046B00000000000000000000000000000000000FA
:1046C00000000000000000000000000000000000EA
:1046D00000000000000000000000000000000000DA
:1046E00000000000000000000000000000000000CA
:1046F000000000000000121212616161757575BD45
:10470000BDBDEFEFEFFDFDFDFFFFFFFFFFFFFFFF73
:10471000FFFFFFFFFFFFFFFFFFFFFFFFFFFFFFFFA9
:10472000FFFFFFFFFFFFFFFFFFFFFFFFFFFFFFFF99
:10473000FFFFFFFFFFFFFFFFFFFFFFFFFFFFFFFF89
:10474000FFFFFFFFFFFFFFFFFFFFFFFFFFFFFFFF79
:10475000FFFFFFFFFFFFFFFFFFFFFFFFFFFFFFFF69
:10476000FFFFFFFFFFFFFFFFFFFFFFFFFFFFFFFF59
:10477000FFFFFFFFFFFFFFFFFFFFFFFFFFFFFFFF49
:10478000FFFFFFFFFFFFFFFFFFFFFFFFFFFFFFFF39
:10479000FFFFFFFFFFFFFFFFFFFFFFFFFFFFFFFF29
:1047A000FFFFFFFFFFFFFFFEFEFEE3E3E3E7E7E7B8
:1047B0009999990707070000000000000000000019
:1047C00000000000000000000000000000000000E9
:1047D0000000000011111158585860606079797913
:1047E000AEAEAED1D1D1EBEBEBFAFAFAFFFFFFFFA1
:1047F000FFFFFFFFFFFFFFFFFFFFFFFFFFFFFFFFC9
:10480000FFFFFFFFFFFFFFFFFFFFFFFFFFFFFFFFB8
:10481000F1F1F1D7D7D7C1C1C1AEAEAE8484842A3D
:104820002A2A000000000000000000000000000034
:104830000000000000000000000000000000000078
:104840000000000000000000000000000000000068
:104850000000000000000000000000000000000058
:104860000000000000000000000000000000000048
:10487000121212616161757575BDBDBDEFEFEFFD7F
:10488000FDFDFFFFFFFFFFFFFFFFFFFFFFFFFFFF3C
:10489000FFFFFFFFFFFFFFFFFFFFFFFFFFFFFFFF28
:1048A000FFFFFFFFFFFFFFFFFFFFFFFFFFFFFFFF18
:1048B000FFFFFFFFFFFFFFFFFFFFFFFFFFFFFFFF08
:1048C000FFFFFFFFFFFFFFFFFFFFFFFFFFFFFFFFF8
:1048D000FFFFFFFFFFFFFFFFFFFFFFFFFFFFFFFFE8
:1048E000FFFFFFFFFFFFFFFFFFFFFFFFFFFFFFFFD8
:1048F000FFFFFFFFFFFFFFFFFFFFFFFFFFFFFFFFC8
:10490000FFFFFFFFFFFFFFFFFFFFFFFFFFFFFFFFB7
:10491000FFFFFFFFFFFFFFFFFFFFFFFFFFFFFFFFA7
:10492000FFFEFEFEE3E3E3E7E7E799999907070750
:104930000000000000000000000000000000000077
:104940000000000000000000000000000000000067
:1049500000232323606060656565898989BABABAD6
:10496000DADADAF1F1F1FDFDFDFFFFFFFFFFFFFFF6
:10497000FFFFFFFFFFFFFFFFFFFFFFFFFFFFFFFF47
:10498000FFFFFFFFFCFCFCE6E6E6CCCCCCBFBFBFE4
:104990009F9F9F6565650C0C0C00000000000000E7
:1049A0000000000000000000000000000000000007
:1049B00000000000000000000000000000000000F7
:1049C00000000000000000000000000000000000E7
:1049D00000000000000000000000000000000000D7
:1049E000000000000000000000001212126161616E
:1049F000757575BDBDBDEFEFEFFDFDFDFFFFFFFF61
:104A0000FFFFFFFFFFFFFFFFFFFFFFFFFFFFFFFFB6
:104A1000FFFFFFFFFFFFFFFFFFFFFFFFFFFFFFFFA6
:104A2000FFFFFFFFFFFFFFFFFFFFFFFFFFFFFFFF96
:104A3000FFFFFFFFFFFFFFFFFFFFFFFFFFFFFFFF86
:104A4000FFFFFFFFFFFFFFFFFFFFFFFFFFFFFFFF76
:104A5000FFFFFFFFFFFFFFFFFFFFFFFFFFFFFFFF66
:104A6000FFFFFFFFFFFFFFFFFFFFFFFFFFFFFFFF56
:104A7000FFFFFFFFFFFFFFFFFFFFFFFFFFFFFFFF46
:104A8000FFFFFFFFFFFFFFFFFFFFFFFFFFFFFFFF36
:104A9000FFFFFFFFFFFFFFFFFFFFFFFEFEFEE3E361
:104AA000E3E7E7E79999990707070000000000008E
:104AB00000000000000000000000000000000000F6
:104AC00000000000000000000000000000003A3A72
:104AD0003A6565656B6B6B989898C2C2C2E1E1E17B
:104AE000F6F6F6FEFEFEFFFFFFFFFFFFFFFFFFFFF4
:104AF000FFFFFFFFFFFFFFFFFFFFFFF4F4F4DBDB2F
:104B0000DBC4C4C4BDBDBD8D8D8D383838000000F8
:104B10000000000000000000000000000000000095
:104B20000000000000000000000000000000000085
:104B30000000000000000000000000000000000075
:104B40000000000000000000000000000000000065
:104B50000000000000000000000000000000000055
:104B600000000000121212616161757575BDBDBD56
:104B7000EEEEEEFDFDFDFFFFFFFFFFFFFFFFFFFF7E
:104B8000FFFFFFFFFFFFFFFFFFFFFFFFFFFFFFFF35
:104B9000FFFFFFFFFFFFFFFFFFFFFFFFFFFFFFFF25
:104BA000FFFFFFFFFFFFFFFFFFFFFFFFFFFFFFFF15
:104BB000FFFFFFFFFFFFFFFFFFFFFFFFFFFFFFFF05
:104BC000FFFFFFFFFFFFFFFFFFFFFFFFFFFFFFFFF5
:104BD000FFFFFFFFFFFFFFFFFFFFFFFFFFFFFFFFE5
:104BE000FFFFFFFFFFFFFFFFFFFFFFFFFFFFFFFFD5
:104BF000FFFFFFFFFFFFFFFFFFFFFFFFFFFFFFFFC5
:104C0000FFFFFFFFFFFFFFFFFFFFFFFFFFFFFFFFB4
:104C1000FFFFFFFFFFFEFEFEE3E3E3E7E7E799990F
:104C200099070707000000000000000000000000D6
:104C30000000000000000000000000000000000074
:104C40000000000000000000141414595959626259
:104C500062727272A2A2A2CCCCCCE7E7E7F9F9F9B2
:104C6000FEFEFEFFFFFFFFFFFFFFFFFFFFFFFFFC5A
:104C7000FCFCEAEAEACDCDCDBDBDBDB0B0B06E6EF4
:104C80006E12121200000000000000000000000080
:104C90000000000000000000000000000000000014
:104CA0000000000000000000000000000000000004
:104CB00000000000000000000000000000000000F4
:104CC00000000000000000000000000000000000E4
:104CD00000000000000000000000000000001212B0
:104CE00012616161777777BEBEBEEEEEEEFDFDFD2F
:104CF000FFFFFFFFFFFFFFFFFFFFFFFFFFFFFFFFC4
:104D0000FFFFFFFFFFFFFFFFFFFFFFFFFFFFFFFFB3
:104D1000FFFFFFFFFFFFFFFFFFFFFFFFFFFFFFFFA3
:104D2000FFFFFFFFFFFFFFFFFFFFFFFFFFFFFFFF93
:104D3000FFFFFFFFFFFFFFFFFFFFFFFFFFFFFFFF83
:104D4000FFFFFFFFFFFFFFFFFFFFFFFFFFFFFFFF73
:104D5000FFFFFFFFFFFFFFFFFFFFFFFFFFFFFFFF63
:104D6000FFFFFFFFFFFFFFFFFFFFFFFFFFFFFFFF53
:104D7000FFFFFFFFFFFFFFFFFFFFFFFFFFFFFFFF43
:104D8000FFFFFFFFFFFFFFFFFFFFFFFFFFFFFFFE34
:104D9000FEFEE3E3E3E7E7E79999990707070000D9
:104DA0000000000000000000000000000000000003
:104DB00000000000000000000000000000000000F3
:104DC00000000000001818185959596060607C7C78
:104DD0007CADADADD3D3D3ECECECFAFAFAFFFFFF28
:104DE000FFFFFFFFFFFFF5F5F5DCDCDCC0C0C0B462
:104DF000B4B49595953535350000000000000000ED
:104E000000000000000000000000000000000000A2
:104E10000000000000000000000000000000000092
:104E20000000000000000000000000000000000082
:104E30000000000000000000000000000000000072
:104E40000000000000000000000000000000000062
:104E500000000000000000001313136767677C7CEC
:104E60007CC2C2C2F1F1F1FDFDFDFFFFFFFFFFFFBC
:104E7000FFFFFFFFFFFFFFFFFFFFFFFFFFFFFFFF42
:104E8000FFFFFFFFFFFFFFFFFFFFFFFFFFFFFFFF32
:104E9000FFFFFFFFFFFFFFFFFFFFFFFFFFFFFFFF22
:104EA000FFFFFFFFFFFFFFFFFFFFFFFFFFFFFFFF12
:104EB000FFFFFFFFFFFFFFFFFFFFFFFFFFFFFFFF02
:104EC000FFFFFFFFFFFFFFFFFFFFFFFFFFFFFFFFF2
:104ED000FFFFFFFFFFFFFFFFFFFFFFFFFFFFFFFFE2
:104EE000FFFFFFFFFFFFFFFFFFFFFFFFFFFFFFFFD2
:104EF000FFFFFFFFFFFFFFFFFFFFFFFFFFFFFFFFC2
:104F0000FFFFFFFFFFFFFFFFFFFEFEFEE3E3E3E720
:104F1000E7E79999990707070000000000000000E3
:104F20000000000000000000000000000000000081
:104F30000000000000000000000000000000000071
:104F400000002F2F2F5B5B5B606060858585B6B6A8
:104F5000B6D8D8D8EFEFEFFCFCFCFAFAFAECECECA0
:104F6000D0D0D0B7B7B7A9A9A97070701A1A1A0013
:104F70000000000000000000000000000000000031
:104F80000000000000000000000000000000000021
:104F90000000000000000000000000000000000011
:104FA0000000000000000000000000000000000001
:104FB00000000000000000000000000000000000F1
:104FC00000000000000000000000000000000000E1
:104FD00000001616167777778E8E8ECFCFCFF5F529
:104FE000F5FEFEFEFFFFFFFFFFFFFFFFFFFFFFFFDE
:104FF000FFFFFFFFFFFFFFFFFFFFFFFFFFFFFFFFC1
:10500000FFFFFFFFFFFFFFFFFFFFFFFFFFFFFFFFB0
:10501000FFFFFFFFFFFFFFFFFFFFFFFFFFFFFFFFA0
:10502000FFFFFFFFFFFFFFFFFFFFFFFFFFFFFFFF90
:10503000FFFFFFFFFFFFFFFFFFFFFFFFFFFFFFFF80
:10504000FFFFFFFFFFFFFFFFFFFFFFFFFFFFFFFF70
:10505000FFFFFFFFFFFFFFFFFFFFFFFFFFFFFFFF60
:10506000FFFFFFFFFFFFFFFFFFFFFFFFFFFFFFFF50
:10507000FFFFFFFFFFFFFFFFFFFFFFFFFFFFFFFF40
:10508000FFFFFFFEFEFEE3E3E3E7E7E799999907F9
:105090000707000000000000000000000000000002
:1050A0000000000000000000000000000000000000
:1050B0000000000000000000000000000505054899
:1050C00048485C5C5C646464919191BEBEBEDCDC6B
:1050D000DCE4E4E4DADADAC6C6C6B3B3B39D9D9D78
:1050E0003A3A3A07070700000000000000000000FD
:1050F00000000000000000000000000000000000B0
:10510000000000000000000000000000000000009F
:10511000000000000000000000000000000000008F
:10512000000000000000000000000000000000007F
:10513000000000000000000000000000000000006F
:105140000000000000000000000000001A1A1A967B
:105150009696A9A9A9E0E0E0FCFCFCFFFFFFFFFF99
:10516000FFFFFFFFFFFFFFFFFFFFFFFFFFFFFFFF4F
:10517000FFFFFFFFFFFFFFFFFFFFFFFFFFFFFFFF3F
:10518000FFFFFFFFFFFFFFFFFFFFFFFFFFFFFFFF2F
:10519000FFFFFFFFFFFFFFFFFFFFFFFFFFFFFFFF1F
:1051A000FFFFFFFFFFFFFFFFFFFFFFFFFFFFFFFF0F
:1051B000FFFFFFFFFFFFFFFFFFFFFFFFFFFFFFFFFF
:1051C000FFFFFFFFFFFFFFFFFFFFFFFFFFFFFFFFEF
:1051D000FFFFFFFFFFFFFFFFFFFFFFFFFFFFFFFFDF
:1051E000FFFFFFFFFFFFFFFFFFFFFFFFFFFFFFFFCF
:1051F000FFFFFFFFFFFFFFFFFFFFFFFFFFFEFEFEC2
:10520000E3E3E3E7E7E79999990707070000000060
:10521000000000000000000000000000000000008E
:10522000000000000000000000000000000000007E
:105230000000000000000000000F0F0F5555555EE4
:105240005E5E6D6D6D969696B2B2B2B7B7B7B7B7F0
:10525000B7ABABAB7A7A7A242424000000000000BC
:10526000000000000000000000000000000000003E
:10527000000000000000000000000000000000002E
:10528000000000000000000000000000000000001E
:10529000000000000000000000000000000000000E
:1052A00000000000000000000000000000000000FE
:1052B00000000000000000000000000000000000EE
:1052C0000000000000001B1B1BBABABAC3C3C3EF27
:1052D000EFEFFFFFFFFFFFFFFFFFFFFFFFFFFFFFFE
:1052E000FFFFFFFFFFFFFFFFFFFFFFFFFFFFFFFFCE
:1052F000FFFFFFFFFFFFFFFFFFFFFFFFFFFFFFFFBE
:10530000FFFFFFFFFFFFFFFFFFFFFFFFFFFFFFFFAD
:10531000FFFFFFFFFFFFFFFFFFFFFFFFFFFFFFFF9D
:10532000FFFFFFFFFFFFFFFFFFFFFFFFFFFFFFFF8D
:10533000FFFFFFFFFFFFFFFFFFFFFFFFFFFFFFFF7D
:10534000FFFFFFFFFFFFFFFFFFFFFFFFFFFFFFFF6D
:10535000FFFFFFFFFFFFFFFFFFFFFFFFFFFFFFFF5D
:10536000FFFFFFFFFFFFFFFFFFFFFFFFFFFFFFFF4D
:10537000FFFFFFFFFFFFFFFEFEFEE3E3E3E7E7E7DC
:10538000999999070707000000000000000000003D
:1053900000000000000A0A0A323232474747313122
:1053A00031060606000000000000000000000000BA
:1053B0000000000000001313135D5D5D6363636B09
:1053C0006B6B7F7F7F9595959292924F4F4F000028
:1053D00000000000000000000000000000000000CD
:1053E00000000000000000000000000000000000BD
:1053F00000000000000000000000000000000000AD
:10540000000000000000000000000000000000009C
:10541000000000000000000000000000000000008C
:10542000000000000000000000000000000000007C
:105430000000000000000000000000000011111139
:105440005D5D5DCECECED7D7D7FAFAFAFFFFFFFF6C
:10545000FFFFFFFFFFFFFFFFFFFFFFFFFFFFFFFF5C
:10546000FFFFFFFFFFFFFFFFFFFFFFFFFFFFFFFF4C
:10547000FFFFFFFFFFFFFFFFFFFFFFFFFFFFFFFF3C
:10548000FFFFFFFFFFFFFFFFFFFFFFFFFFFFFFFF2C
:10549000FFFFFFFFFFFFFFFFFFFFFFFFFFFFFFFF1C
:1054A000FFFFFFFFFFFFFFFFFFFFFFFFFFFFFFFF0C
:1054B000FFFFFFFFFFFFFFFFFFFFFFFFFFFFFFFFFC
:1054C000FFFFFFFFFFFFFFFFFFFFFFFFFFFFFFFFEC
:1054D000FFFFFFFFFFFFFFFFFFFFFFFFFFFFFFFFDC
:1054E000FFFFFFFFFFFFFFFFFFFFFFFFFFFFFFFFCC
:1054F000FFFEFEFEE3E3E3E7E7E799999907070775
:10550000000000000000000000000000000000415A
:1055100041419F9F9FBCBCBCD9D9D9939393171786
:105520001700000000000000000000000000000064
:105530000000001818186565656363636F6F6F542A
:10554000545427272700000000000000000000003E
:10555000000000000000000000000000000000004B
:10556000000000000000000000000000000000003B
:10557000000000000000000000000000000000002B
:10558000000000000000000000000000000000001B
:10559000000000000000000000000000000000000B
:1055A00000000000000000000000000000000000FB
:1055B000000000003B3B3BA5A5A5D8D8D8D2D2D24D
:1055C000EDEDEDFFFFFFFFFFFFFFFFFFFFFFFFFF21
:1055D000FFFFFFFFFFFFFFFFFFFFFFFFFFFFFFFFDB
:1055E000FFFFFFFFFFFFFFFFFFFFFFFFFFFFFFFFCB
:1055F000FFFFFFFFFFFFFFFFFFFFFFFFFFFFFFFFBB
:10560000FFFFFFFFFFFFFFFFFFFFFFFFFFFFFFFFAA
:10561000FFFFFFFFFFFFFFFFFFFFFFFFFFFFFFFF9A
:10562000FFFFFFFFFFFFFFFFFFFFFFFFFFFFFFFF8A
:10563000FFFFFFFFFFFFFFFFFFFFFFFFFFFFFFFF7A
:10564000FFFFFFFFFFFFFFFFFFFFFFFFFFFFFFFF6A
:10565000FFFFFFFFFFFFFFFFFFFFFFFFFFFFFFFF5A
:10566000FFFFFFFFFFFFFFFFFFFFFFFEFEFEE3E385
:10567000E3E7E7E7999999070707000000000000B2
:10568000000000000000111111696969999999B829
:10569000B8B8CFCFCFECECECB9B9B91F1F1F0000E1
:1056A00000000000000000000000000000000000FA
:1056B000343434676767393939000000000000006E
:1056C00000000000000000000000000000000000DA
:1056D00000000000000000000000000000000000CA
:1056E00000000000000000000000000000000000BA
:1056F00000000000000000000000000000000000AA
:105700000000000000000000000000000000000099
:105710000000000000000000000000000000000089
:1057200000000000000000002F2F2F8A8A8ADCDC96
:10573000DCDDDDDDD5D5D5E4E4E4FCFCFCFFFFFFDA
:10574000FFFFFFFFFFFFFFFFFFFFFFFFFFFFFFFF69
:10575000FFFFFFFFFFFFFFFFFFFFFFFFFFFFFFFF59
:10576000FFFFFFFFFFFFFFFFFFFFFFFFFFFFFFFF49
:10577000FFFFFFFFFFFFFFFFFFFFFFFFFFFFFFFF39
:10578000FFFFFFFFFFFFFFFFFFFFFFFFFFFFFFFF29
:10579000FFFFFFFFFFFFFFFFFFFFFFFFFFFFFFFF19
:1057A000FFFFFFFFFFFFFFFFFFFFFFFFFFFFFFFF09
:1057B000FFFFFFFFFFFFFFFFFFFFFFFFFFFFFFFFF9
:1057C000FFFFFFFFFFFFFFFFFFFFFFFFFFFFFFFFE9
:1057D000FFFFFFFFFFFFFFFFFFFFFFFFFFFFFFFFD9
:1057E000FFFFFFFFFFFEFEFEE3E3E3E7E7E7999934
:1057F00099070707000000000000000000000000FB
:105800002D2D2D8B8B8BA2A2A2D4D4D4DEDEDED89C
:10581000D8D8EDEDEDC1C1C1232323000000000065
:10582000000000000000000000000505051B1B1B18
:105830000000000000000000000000000000000068
:105840000000000000000000000000000000000058
:105850000000000000000000000000000000000048
:105860000000000000000000000000000000000038
:105870000000000000000000000000000000000028
:105880000000000000000000000000000000000018
:105890000000000000000000000000000505057089
:1058A0007070C6C6C6E9E9E9D8D8D8DDDDDDEEEE10
:1058B000EEFCFCFCFFFFFFFFFFFFFFFFFFFFFFFF12
:1058C000FFFFFFFFFFFFFFFFFFFFFFFFFFFFFFFFE8
:1058D000FFFFFFFFFFFFFFFFFFFFFFFFFFFFFFFFD8
:1058E000FFFFFFFFFFFFFFFFFFFFFFFFFFFFFFFFC8
:1058F000FFFFFFFFFFFFFFFFFFFFFFFFFFFFFFFFB8
:10590000FFFFFFFFFFFFFFFFFFFFFFFFFFFFFFFFA7
:10591000FFFFFFFFFFFFFFFFFFFFFFFFFFFFFFFF97
:10592000FFFFFFFFFFFFFFFFFFFFFFFFFFFFFFFF87
:10593000FFFFFFFFFFFFFFFFFFFFFFFFFFFFFFFF77
:10594000FFFFFFFFFFFFFFFFFFFFFFFFFFFFFFFF67
:10595000FFFFFFFFFFFFFFFFFFFFFFFFFFFFFFFE58
:10596000FEFEE3E3E3E7E7E79A9A9A0707070000FA
:10597000000000000000000000003D3D3D939393B7
:10598000B7B7B7EFEFEFFBFBFBE8E8E8D7D7D7E90E
:10599000E9E9BCBCBC26262600000000000000008F
:1059A00000000000000000000000000000000000F7
:1059B00000000000000000000000000000000000E7
:1059C00000000000000000000000000000000000D7
:1059D00000000000000000000000000000000000C7
:1059E00000000000000000000000000000000000B7
:1059F00000000000000000000000000000000000A7
:105A00000000000000000000000000000000000096
:105A10000000004E4E4EA6A6A6E1E1E1DEDEDEDA93
:105A2000DADAE9E9E9F6F6F6FFFFFFFFFFFFFFFF2D
:105A3000FFFFFFFFFFFFFFFFFFFFFFFFFFFFFFFF76
:105A4000FFFFFFFFFFFFFFFFFFFFFFFFFFFFFFFF66
:105A5000FFFFFFFFFFFFFFFFFFFFFFFFFFFFFFFF56
:105A6000FFFFFFFFFFFFFFFFFFFFFFFFFFFFFFFF46
:105A7000FFFFFFFFFFFFFFFFFFFFFFFFFFFFFFFF36
:105A8000FFFFFFFFFFFFFFFFFFFFFFFFFFFFFFFF26
:105A9000FFFFFFFFFFFFFFFFFFFFFFFFFFFFFFFF16
:105AA000FFFFFFFFFFFFFFFFFFFFFFFFFFFFFFFF06
:105AB000FFFFFFFFFFFFFFFFFFFFFFFFFFFFFFFFF6
:105AC000FFFFFFFFFFFFFFFFFFFFFFFFFFFFFFFFE6
:105AD000FFFFFFFFFFFFFFFFFFFEFEFEE3E3E3E745
