:020000040800F2
:10000000280400209D010008C1010008C301000868
:10001000C7010008CB010008CF0100080000000064
:10002000000000000000000000000000D3010008F4
:10003000D501000800000000D7010008D901000820
:10004000B7010008B7010008B7010008B7010008B0
:10005000B7010008B7010008B7010008B7010008A0
:10006000B7010008B7010008B7010008B701000890
:10007000B7010008B7010008B7010008B701000880
:10008000B7010008B7010008B7010008B701000870
:10009000B7010008B7010008B7010008B701000860
:1000A000B7010008B7010008B7010008B701000850
:1000B000B7010008B7010008B7010008B701000840
:1000C000B7010008B7010008B7010008B701000830
:1000D000B7010008B7010008B7010008B701000820
:1000E000B7010008B7010008B7010008B701000810
:1000F000B7010008B7010008B7010008B701000800
:10010000B7010008B7010008B7010008B7010008EF
:10011000B7010008B7010008B7010008B7010008DF
:10012000B7010008B7010008B7010008B7010008CF
:10013000B7010008B7010008B7010008B7010008BF
:10014000B7010008B7010008B7010008B7010008AF
:10015000B7010008B7010008B7010008B70100089F
:10016000B7010008B7010008B7010008B70100088F
:10017000B7010008B7010008B7010008B70100087F
:10018000B7010008B7010008DFF80CD000F06EFEE0
:1001900000480047030E0008280400200648804756
:1001A00006480047FEE7FEE7FEE7FEE7FEE7FEE75C
:1001B000FEE7FEE7FEE7FEE7B90200088901000856
:1001C000704700BFFEE700BFFEE700BFFEE700BFCD
:1001D000FEE7704770477047704700000CB500207D
:1001E000019000907648006840F4803074490860BF
:1001F00000BF7348006800F4003000900198401C74
:100200000190009818B90198B0F5A04FF1D16C4851
:10021000006800F4003010B10120009001E00020DF
:1002200000900098012846D165484030006840F0B1
:1002300080506349403108606248006840F44040A3
:10024000604908605E48083000685D490831086010
:100250000846006840F4004008600846006840F422
:10026000A05008605848091F0860081F006840F047
:100270008070091F086000BF5148006800F00070DE
:100280000028F9D040F20570504908604C48083009
:10029000006820F003004A490831086008460068F9
:1002A00040F00200086000BF45480830006800F0D8
:1002B0000C000828F8D10CBD10B54548006840F482
:1002C0007000434908603E48006840F001003C4926
:1002D000086000203A4908310860394800683D4903
:1002E0000840374908603C48091D0860081F00683D
:1002F00020F48020091F0860002031490C3108607B
:10030000FFF76CFF4FF0006031498039086010BD85
:1003100070B500200022022300240221284D083558
:100320002D6805F00C0020B1042806D0082834D12F
:1003300007E02A4D2A4E356033E02A4D284E3560BD
:100340002FE01F4D2D1D2D68C5F380541C4D2D1D14
:100350002D6805F03F0154B1224DB5FBF1F5184E63
:10036000361D3668C6F3881605FB06F209E01B4DFC
:10037000B5FBF1F5124E361D3668C6F3881605FB3F
:1003800006F20F4D2D1D2D68C5F301456D1C6B0048
:10039000B2FBF3F5124E356003E0104D104E3560A0
:1003A00000BF00BF064D08352D68C5F303150E4E7E
:1003B000705D0B4D2D68C540094E356070BD000065
:1003C0000038024000700040195A4007003C0240CB
:1003D00088ED00E0FFFFF6FE103000240024F4005A
:1003E0000000002040787D010400002010B5044684
:1003F0009848844208D10121084600F086FB00217C
:10040000012000F082FB76E09348844208D101216C
:10041000022000F07AFB0021022000F076FB6AE067
:100420008E48844208D10121042000F06EFB002197
:10043000042000F06AFB5EE08948844208D1012173
:10044000082000F062FB0021082000F05EFB52E073
:100450008448844208D10121102000F056FB00217D
:10046000102000F052FB46E07F48844208D1012171
:10047000202000F04AFB0021202000F046FB3AE05B
:100480007A48844208D10121402000F03EFB00213F
:10049000402000F03AFB2EE07548844208D101214B
:1004A000802000F032FB0021802000F02EFB22E0B3
:1004B0007048844208D10121801500F026FB0021FC
:1004C000A01500F022FB16E06B48844208D1012100
:1004D000401500F01AFB0021601500F016FB0AE041
:1004E0006648844207D10121001500F00EFB00216F
:1004F000201500F00AFB10BDF0B50A4600210023CC
:10050000002400BF3DE0012505FA01F3156805EA66
:1005100003049C4234D105684F000326BE40B54316
:10052000056015794E00B5400668354305601579BC
:10053000012D02D01579022D16D185684F000326B2
:10054000BE40B543856055794E00B5408668354359
:100550008560456801268E40B543456045689679BB
:100560008E40B6B235434560C5684F000326BE4095
:10057000B543C560D5794E00B540C6683543C56002
:10058000491C1029BFD3F0BD4FF6FF710160002157
:10059000017141718171C171704708B54FF48032AA
:1005A0000092009A0A430092009AC261C161009AC7
:1005B000C261C2690092C269009208BD0246002071
:1005C00013690B400BB1012000E000207047014689
:1005D000086980B270470246002053690B400BB196
:1005E000012000E0002070470146486980B2704752
:1005F00001837047418370470AB1018300E0418362
:1006000070474161704742694A4042617047F0B5A6
:10061000002300244D07ED0E02FA05F3CE1000F181
:10062000200555F826504E07F70E0F26BE40B5435D
:10063000CF1000F1200646F82750CE1000F120051B
:1006400055F8265045EA0304CE1000F1200545F880
:100650002640F0BD000002400004024000080240B5
:10066000000C02400010024000140240001802403A
:10067000001C0240002002400024024000280240EA
:10068000F948006840F00100F74908600020F64989
:1006900008310860F4480068F4490840F2490860ED
:1006A000F348091D0860F348EF4984310860F048B9
:1006B0001038091D0860EC48006820F48020EA49E1
:1006C00008600020E8490C310860E7498C31086077
:1006D00070470021E44A921C11701146087070475F
:1006E00010B501460022002300204A11012A02D140
:1006F000DD4C236808E0022A03D1DB4C7034236808
:1007000002E0D94C7434236801F01F0201249440A4
:100710001C400CB1012000E0002010BD38B50020C5
:1007200000900024002500BF3120FFF7D9FF0546C7
:100730000098401C00900098B0F5A04F01D0002D0B
:10074000F2D03120FFF7CCFF08B1012400E00024F3
:10075000204638BD01460020C34A106820F0F8004A
:1007600040EAC10010607047C3490860704700212B
:10077000BD4A703211701170012802D004280AD1CC
:1007800004E00121B84A7032117005E00521B64A33
:100790007032117000E000BF00BF7047B7490860B9
:1007A000704770B5049C41EA82150126C6EB5306DA
:1007B00045EA0645054345EA0465AB4E361D3560FE
:1007C00070BDAD4908667047820142EA0172A64BCE
:1007D00084331A607047A8498866704710B5830152
:1007E00043EA016343EA02739F4C8834236010BDDF
:1007F000A14908677047A049C864704702460020B5
:10080000994B0833186820F0EC6042EA0103184362
:10081000954B08331860704702460020924B08330E
:10082000186820F0784042EA010318438E4B0833E1
:1008300018607047014600208B4A0832106820F08B
:10084000030008431060704787480830006800F0D4
:100850000C00704701460020834A0832106820F0DF
:10086000F000084310607047014600207E4A0832BD
:10087000106820F4E05008431060704701460020E3
:10088000794A0832106820F4604040EAC1001060E4
:100890007047F0B500210022002402250026022323
:1008A000714F08373F6807F00C0121B1042905D0CA
:1008B000082937D105E0724F076036E0714F0760B5
:1008C00033E0694F3F1D3F68C7F38056664F3F1DB9
:1008D0003F6807F03F036EB16A4FB7FBF3F7DFF8ED
:1008E00088C10CF1040CDCF800C0CCF3881C07FBB9
:1008F0000CF40CE0624FB7FBF3F7DFF86CC10CF1BE
:10090000040CDCF800C0CCF3881C07FB0CF4564F39
:100910003F1D3F68C7F301477F1C7D00B4FBF5F71F
:10092000076002E0564F076000BF00BF4E4F083718
:100930003F6807F0F0010909534F7A5C0768D74018
:100940004760494F08373F6807F4E051890A4E4F26
:100950007A5C4768D7408760434F08373F6807F4A1
:100960006041490B484F7A5C4768D740C760F0BD8B
:10097000002100F44072B2F5407F0AD13A4A0832B1
:10098000116821F4F811414A02401143364A0832F5
:100990001160354A70321268C0F30B031A43324BB0
:1009A00070331A60704735494439086070473349DD
:1009B000403908607047364908607047014600209A
:1009C000294A8C32106820F44010084310607047A8
:1009D00001460020244A8C32106820F4400008436D
:1009E00010607047014600201F4A8C32106820F0CA
:1009F0001F004A1E10431C4A8C321060704701468B
:100A00000020194A8C32106820F4F8504A1E40EA3F
:100A10000220154A8C321060704701460020124AAD
:100A20008C32106820F44030084310607047194938
:100A30000860704739B10C4A3032126802430A4BE1
:100A400030331A6006E0084A303212688243064B9F
:100A500030331A607047F9B1034A343212680243E6
:100A6000014B34331A601CE000380240FFFFF6EA05
:100A7000103000240030002000004742800E474222
:100A80000024F40040787D0114000020FFFCFF0FDB
:100A90005C014742E01147428F4A126882438E4B05
:100AA0001A60704739B18C4A121D126802438A4B92
:100AB0001B1D1A6006E0884A121D12688243864B8D
:100AC0001B1D1A60704739B1834A0C321268024309
:100AD000814B0C331A6006E07F4A0C321268824365
:100AE0007D4B0C331A60704739B17B4A1032126863
:100AF0000243794B10331A6006E0774A10321268CD
:100B00008243754B10331A60704739B1724A243AE8
:100B100012680243704B243B1A6006E06E4A243A86
:100B2000126882436C4B243B1A60704739B16A4AA1
:100B3000203A12680243684B203B1A6006E0664A7E
:100B4000203A12688243644B203B1A60704739B1E7
:100B5000614A1C3A126802435F4B1C3B1A6006E074
:100B60005D4A1C3A126882435B4B1C3B1A6070471B
:100B700039B1594A143A12680243574B143B1A6070
:100B800006E0554A143A12688243534B143B1A60EC
:100B9000704739B1504A103A126802434E4B103B2D
:100BA0001A6006E04C4A103A126882434A4B103BE6
:100BB0001A60704739B1484A1C3212680243464BEA
:100BC0001C331A6006E0444A1C3212688243424BCE
:100BD0001C331A60704739B13F4A20321268024311
:100BE0003D4B20331A6006E03B4A203212688243B4
:100BF000394B20331A60704739B1374A24321268B2
:100C00000243354B24331A6006E0334A243212681B
:100C10008243314B24331A60704739B12E4A2C324B
:100C2000126802432C4B2C331A6006E02A4A2C32FD
:100C300012688243284B2C331A60704739B1264A18
:100C4000303212680243244B30331A6006E0224AE5
:100C5000303212688243204B30331A6070470128CB
:100C600008D11D493C31096841F008011A4A3C325B
:100C7000116007E018493C31096821F00801164A63
:100C80003C321160704739B1134A273A1278024357
:100C9000114B273B1A7006E00F4A273A127882431D
:100CA0000D4B273B1A7070470B484030006840F0EE
:100CB0008070094940310860704701460020064AAB
:100CC000283A12680A400AB1012000E0002070476B
:100CD0000149263908707047343802401CB501219B
:100CE0000820FFF7A7FE01211020FFF7A3FE4020F8
:100CF000009000208DF8040001208DF807000320EB
:100D00008DF8050069461248FFF7F6FB1C2000909D
:100D100069461048FFF7F0FB1CBD70B50024102198
:100D20000C48FFF74BFCC50008210A48FFF746FCBA
:100D300045EA800504210748FFF740FC45EA4005E5
:100D400040210348FFF73AFC45EA0004204670BD05
:100D5000000C0240001002401CB501210846FFF7BC
:100D600069FE01210220FFF765FE4FF480700090BC
:100D700001208DF8040000208DF8060001208DF878
:100D8000070003208DF8050069461648FFF7B4FBFD
:100D90004FF480711348FFF72BFC4FF48071124819
:100DA000FFF726FC1CBD10B50446012C03D101023F
:100DB0000C48FFF71FFC022C03D1E1010A48FFF7A2
:100DC00019FC10BD10B50446012C03D101020548E1
:100DD000FFF70EFC022C03D1E1010348FFF708FCEA
:100DE00010BD0000000002400004024006E00021A7
:100DF00000E0491CB1F57A7FFBDB401E0028F6DCE1
:100E0000704710B50024FFF7A7FFFFF767FFFFF754
:100E100084FF0446002C27DD0A20FFF7E7FFFFF7D9
:100E20007CFFA04220D1012C06D0022C08D0042C3B
:100E30000AD0082C16D10EE00120FFF7B4FF12E013
:100E40000220FFF7B0FF0EE00120FFF7ACFF022009
:100E5000FFF7A9FF07E00120FFF7B4FF0220FFF72B
:100E6000B1FF00E000BF00BF002010BD064C074DE1
:100E700006E0E06840F0010394E80700984710346A
:100E8000AC42F6D3FFF784F9B00E0008D00E00088C
:100E900002E008C8121F08C1002AFAD17047704743
:100EA000002001E001C1121F002AFBD170470000A1
:100EB000D00E00080000002024000000900E000862
:100EC000F40E00082400002004040000A00E000816
:100ED000007A030A00000000000000000102030481
:100EE00006070809000000000102030401020304D0
:040EF00006070809E0
:040000050800018965
:00000001FF
