:020000040800F2
:10000000004000200D03000811030008130300083E
:10001000150300081703000819030008000000007A
:100020000000000000000000000000001B030008AA
:100030001D030008000000001F0300082103000842
:1000400023030008230300082303000823030008F8
:1000500023030008230300082303000823030008E8
:1000600023030008230300082303000823030008D8
:1000700023030008230300082303000823030008C8
:1000800023030008230300082303000823030008B8
:1000900023030008230300082303000823030008A8
:1000A0002303000823030008230300082303000898
:1000B0002303000823030008230300082303000888
:1000C0002303000823030008230300082303000878
:1000D0002303000823030008230300082303000868
:1000E0002303000823030008230300082303000858
:1000F0002303000823030008230300082303000848
:100100002303000823030008230300082303000837
:100110002303000823030008230300082303000827
:100120002303000823030008230300082303000817
:100130002303000823030008230300082303000807
:1001400023030008230300082303000823030008F7
:1001500023030008230300082303000823030008E7
:1001600023030008230300082303000823030008D7
:1001700023030008230300082303000823030008C7
:100180002303000823030008DFF80CD000F0CCF8AC
:1001900000480047DB020008004000204648006895
:1001A00040F00100444908600846006840F0020041
:1001B00008604248006820F4403040490860084622
:1001C000006840F4803008600846406820F4807081
:1001D00048600846406848600846806820F440301F
:1001E00088600846806840F4403088600846C068EF
:1001F00020F44030C8600846C068C86008464069BE
:1002000040F4807048612E48006820F440302C494A
:1002100008600846006840F480300860081D0068E7
:1002200020F48070091D0860084600680860081DF9
:10023000006820F44030091D08600846006840F45A
:1002400040300860081D006820F44030091D086037
:100250000846006808601A481430006840F480704E
:100260001749143108607047012806D113494969BC
:1002700021F48071114A516109E0022807D1104927
:100280001431096821F480710D4A143211607047ED
:10029000012806D10949496941F48071074A516131
:1002A00009E0022807D106491431096841F4807138
:1002B000034A143211607047303802400000024097
:1002C0000004024006E0002100E0491CB1F57A7FFD
:1002D000FBDB401E0028F6DC7047FFF75FFF13E0F2
:1002E0000120FFF7C1FF0220FFF7D2FF4FF47A7021
:1002F000FFF7E8FF0120FFF7CBFF0220FFF7B4FF75
:100300004FF47A70FFF7DEFFEAE700000548004788
:10031000FEE7FEE7FEE7FEE7FEE7FEE7FEE7FEE7B5
:10032000FEE7FEE789010008064C074D06E0E0689D
:1003300040F0010394E8070098471034AC42F6D32C
:10034000FFF726FF6C0300087C03000802E008C8E2
:10035000121F08C1002AFAD170477047002001E03F
:1003600001C1121F002AFBD1704700007C03000866
:0C03700000000020004000005C030008BA
:040000050800018965
:00000001FF
