:020000040800F2
:10000000701500209D010008550E0008130C000813
:10001000510E000855030008ED25000800000000FF
:100020000000000000000000000000002F23000876
:10003000A5090008000000001D0F00085524000855
:10004000C1010008C1010008C1010008C101000888
:10005000C1010008C1010008C1010008C101000878
:10006000C1010008C1010008C1010008C101000868
:10007000C1010008C1010008C101000825060008EF
:10008000C1010008C1010008C1010008C101000848
:10009000C1010008C1010008C1010008C101000838
:1000A000C1010008C1010008C1010008C101000828
:1000B000C1010008C1010008C1010008C101000818
:1000C000C1010008C1010008C1010008C101000808
:1000D00039220008C1010008C1010008C10100085F
:1000E000C1010008C1010008C1010008C1010008E8
:1000F000C1010008C1010008C1010008C1010008D8
:10010000C1010008CD120008C1010008C1010008AA
:10011000C1010008C1010008C1010008C1010008B7
:10012000C1010008C1010008C1010008F50600086E
:10013000C1010008C1010008C1010008C101000897
:10014000C1010008C1010008C1010008C101000887
:10015000C1010008C1010008C1010008C101000877
:10016000C1010008C1010008C1010008C101000867
:10017000C1010008C1010008C1010008C101000857
:10018000C1010008C1010008DFF80CD000F020F820
:10019000004800476D3A00087015002009480168C2
:1001A00041F4700101600848804708480047FEE7B5
:1001B000FEE7FEE7FEE7FEE7FEE7FEE7FEE7FEE717
:1001C000FEE7000088ED00E06524000889010008D2
:1001D000064C074D06E0E06840F0010394E8070094
:1001E00098471034AC42F6D3FFF7D2FF183D000811
:1001F000383D000810B5044600F01AFD204600F016
:100200006BF800F01BF810BD01220A4B1A600A4A75
:1002100012682AB1084A1268A2F58062064B1A6079
:10022000054A1268B2F5806F02D20022024B1A60B2
:1002300070470000040000200000002008B50121E4
:10024000480500F06DFE0021204800F071FA1F48BB
:1002500000F07AFA00201E4908601E48486000201D
:1002600088604020C8604FF6FE7008610020486139
:100270004FF4806088614000C861800008620020FF
:1002800048624FF4003088620020C8620863486307
:1002900088630E4800F05AFB012210210B4800F041
:1002A00037FB0F208DF8000000208DF801008DF83D
:1002B000020001208DF80300684600F0E9FD0122EC
:1002C000022104480C3801F0C5FF08BD70600240EF
:1002D000341100200C3800401FB50446012188036A
:1002E00000F02EFE0A4801F0BFFF02940020ADF896
:1002F0000200ADF80400ADF80C004FF40070ADF84A
:100300000000ADF806006946014800F0D5FC1FBDAD
:100310000038004070B505460C460B488560600803
:1003200009490861094800F011FB0121074800F064
:10033000FFF90748008800F4806020B901210448D3
:100340001C3800F068FC70BD341100207060024061
:100350001C38004000BFFEE770B500254FF4803424
:1003600000E0641E24B1802000F084FF0028F8D053
:1003700014B90325284670BD40F2FF5000F036FF47
:100380002846F8E72DE9F041064600274848056869
:1003900001E04748056805F045000028F9D005F060
:1003A000040030B10327042000F020FF3846BDE8E8
:1003B000F08105F0010028B10127012000F016FFAF
:1003C0003846F4E700F050FFB04202D0102738461C
:1003D000EDE740F2FF5000F009FF002000F06AFF57
:1003E00004463448204008B93846E0E704F00040AD
:1003F00008B11C20DBE704F0804008B10920D6E7F3
:1004000004F0005008B10A20D1E704F0805008B190
:100410000B20CCE704F0006008B10C20C7E704F023
:10042000806008B10D20C2E704F0807008B10E2092
:10043000BDE704F4000008B10F20B8E704F4800021
:1004400008B11020B3E704F4001008B11120AEE7A2
:1004500004F4801008B11220A9E704F4002008B1C8
:100460001320A4E704F4802008B114209FE704F4CB
:10047000003008B115209AE704F4803008B1162046
:1004800095E704F4004008B1172090E704F4804099
:1004900008B118208BE704F4005008B1192086E752
:1004A00004F0080008B11A2081E738467FE7000011
:1004B000342C014008E0FFFD70B5002510480468A9
:1004C00001E00F48046804F045000028F9D004F06A
:1004D000040028B10325042000F088FE284670BDE2
:1004E00004F0010028B10125012000F07FFE28461C
:1004F000F5E740F2FF5000F079FE2846EFE70000F4
:10050000342C014070B500250B48046801E00A480E
:10051000046804F045000028F9D004F0040028B174
:100520000325042000F062FE284670BD40F2FF5013
:1005300000F05CFE2846F8E7342C01402DE9F0413C
:1005400006460F464FF000082248056801E02148A2
:10055000056805F045000028F9D005F0040038B121
:100560004FF00308042000F041FE4046BDE8F08152
:1005700005F0010030B14FF00108012000F036FE17
:100580004046F3E700F070FEB04203D04FF0100891
:100590004046EBE740F2FF5000F028FE002000F05C
:1005A00089FE044604F4604018B9200C38804046A7
:1005B000DCE704F4005008B11320D7E704F48040CE
:1005C00008B11020D2E704F4004008B10F20CDE7B5
:1005D0004046CBE7342C014070B500264FF48035FF
:1005E0000F48046802E06D1E0D48046804F04500E1
:1005F00008B9002DF7D115B104F0040028B1032685
:10060000042000F0F3FD304670BD04F0400028B136
:100610000026402000F0EAFD3046F5E73046F3E7DB
:10062000342C014010B52E492E4800F04FF9002817
:1006300055D02D480068002844D000BF294800F05C
:100640003AF90028FAD12649264800F057F82748F9
:1006500000682749886024480068B0F5803F02D2CE
:100660002148006801E04FF6FF70214908611D48EC
:1006700000F06CF901211B4800F05AF81B48006893
:1006800019490968B1F5803F02D21749096801E0AC
:100690004FF6FF7100EB41001449086012480068F2
:1006A000B0F5803F02D21048006801E04FF6FF70BD
:1006B0000D490968081A0C4908600121094800F031
:1006C00037F80CE00021074800F032F804490548EB
:1006D00000F014F8002105480068FFF795FD10BDF3
:1006E0002000002070600240300000203400002014
:1006F0003411002010B501F0A1FA10BD0246094BDB
:100700009A4201D2084801E00648103801F000532F
:100710001BB1064B0B40C36002E0044B0B408360EF
:100720007047000010640240006002407D0F7D0FA2
:1007300021B1026842F00102026003E0026822F087
:100740000102026070470000016821F001010160B0
:100750000021016041608160C1600161212141612E
:100760004A49884204D13D21484A103A91608CE0C0
:1007700046491831884205D14FF47461434A103A12
:10078000916082E041493031884205D14FF47411C3
:100790003E4A103A916078E03C494831884205D1A0
:1007A0004FF07461394A103A91606EE03749603118
:1007B000884204D13649354A103AD16065E0334960
:1007C0007831884204D13349304A103AD1605CE034
:1007D0002E499031884204D12F492C4A103AD160D9
:1007E00053E02A49A831884205D14FF03D51274AAC
:1007F000103AD16049E02949884204D13D21274A75
:10080000083A116041E025491831884205D14FF47A
:100810007461224A083A116037E020493031884239
:1008200005D14FF474111D4A083A11602DE01B499F
:100830004831884205D14FF07461184A083A116076
:1008400023E016496031884204D11149134A121F2E
:1008500011601AE011497831884204D10D490F4ADC
:10086000121F116011E00D499031884204D10A49EC
:100870000A4A121F116008E00849A831884204D1D1
:100880004FF03D51054A121F116070471060024041
:100890003D000020400F002000003D201064024079
:1008A00021B1026842F02002026003E0026822F0F7
:1008B000200202607047014600200A6802F001022F
:1008C0000AB1012000E000207047000030B5034667
:1008D0000A46002000240B4DAB4201D20A4901E038
:1008E0000849103902F000550DB14C6800E00C6861
:1008F000064D2C4004EA02050DB1012000E0002065
:1009000030BD000010640240006002407D0F7D0F8A
:1009100010B501F080034BB122B1436943F080036D
:10092000436103E0436923F08003436180290BD0D6
:100930002AB1036801F01E042343036004E0036846
:1009400001F01E04A343036010BD000010B5002297
:100950000268134B1A40CC680B6823434C6923434D
:100960008C692343CC6923430C6A23434C6A234399
:100970008C6A23434C6B23438C6B23431A430260E2
:10098000426922F00702D1E90B3423431A43426142
:100990000B6943604B6883608B68C36010BD0000C7
:1009A0003F801CF0704700002DE9FC4107460D46D2
:1009B0000026002400200090019008205B49086078
:1009C00010204860402088600020C8604FF480609C
:1009D0000861084600F0ACFC1020FFF7D3FC044689
:1009E00014B12046BDE8FC815148008800044F49FD
:1009F000086037204860402088600020C8604FF4BD
:100A000080600861084600F093FC3720FFF7BAFCCD
:100A100004460CB12046E5E74FF0FF304549086039
:100A200008204860302088600220C86000200861EB
:100A300001204861084600F0F1FB00203B490860B6
:100A400033204860402088600020C8604FF48060F8
:100A50000861084600F06CFC3320FFF793FC044665
:100A60000CB12046BEE709E04FF4001000F002FC94
:100A700020B100F057FC4DF82600761C2E48006887
:100A800040F22A6108400028EED0082000F0F2FB76
:100A900028B1082000F0AAFB04242046A2E7022087
:100AA00000F0E8FB28B1022000F0A0FB0224204661
:100AB00098E7202000F0DEFB28B1202000F096FB14
:100AC000062420468EE74FF4007000F0D3FB30B1CF
:100AD0004FF4007000F08AFB0724204682E740F2C2
:100AE000FF5000F083FB00980006009901F47F415D
:100AF00040EA0120009901F47F0140EA11200099A9
:100B000040EA1160686001980006019901F47F4194
:100B100040EA0120019901F47F0140EA1120019986
:100B200040EA1160286020465CE7000008110020C0
:100B3000180000201C110020342C0140F0B50A469A
:100B400000210023002400BF3DE0012505FA01F348
:100B5000156805EA03049C4234D105684F0003265A
:100B6000BE40B543056015794E00B5400668354373
:100B700005601579012D02D01579022D16D18568F1
:100B80004F000326BE40B543856055794E00B54001
:100B9000866835438560456801268E40B5434560CB
:100BA000456896798E40B6B235434560C5684F00BA
:100BB0000326BE40B543C560D5794E00B540C66832
:100BC0003543C560491C1029BFD3F0BDF0B50023E3
:100BD00000244D07ED0E02FA05F3CE1000F12005BA
:100BE00055F826504E07F70E0F26BE40B543CF10DE
:100BF00000F1200646F82750CE1000F1200555F8E8
:100C0000265045EA0304CE1000F1200545F82640A1
:100C1000F0BD00BFFEE721B1828B42F48062828387
:100C200004E0828B4FF6FF331A4082837047000046
:100C30001CB50121022000F073F90121042000F00D
:100C40006FF94FF40640009002208DF804008DF8F3
:100C5000050000208DF806008DF80700694614484D
:100C6000FFF76CFF052209211148FFF7AFFF0522AE
:100C70000A210F48FFF7AAFF05220F210C48FFF7B2
:100C8000A5FF4020009002208DF804008DF805009B
:100C900000208DF806008DF8070069460548FFF72B
:100CA0004DFF052206210348FFF790FF1CBD000001
:100CB00000040240000802402DE9F04F0025022305
:100CC00000244FF001090022002600279446904698
:100CD000B0F81CA04FF2400B0AEA0B0AA0F81CA0C7
:100CE0004FF0020AA0F820A0858BD1F808A0BAF135
:100CF000020F01D100BF82E0B1F804A0BAF1000FE9
:100D000002D14FF0010901E04FF00209DFF834A1F0
:100D1000DAF800A00AF4000ABAF1000F09D0DFF8EF
:100D200024A1DAF800A02AF4000ADFF818B1CBF801
:100D300000A0DFF810A10AF17C0ADAF800A0CAF3DB
:100D4000881CDFF800A10AF17C0ADAF800A0CAF3D7
:100D50000278DFF8F0A0AAF1040ADAF800A00AF09D
:100D60003F07DFF8E0A0AAF1040ADAF800A00AF4CD
:100D7000800ABAF5800F08D1DFF8CCA0BAFBF7FAE9
:100D80000AFB0CFABAFBF8F607E0DFF8C0A0BAFBE2
:100D9000F7FA0AFB0CFABAFBF8F6B1F806A0BAF5B6
:100DA000007F0ED14FEA162A0AEB8A0A4FEA4A0A56
:100DB000D1F808B0BAFBFBFA0AF1050A1FFA8AF269
:100DC0000FE04FEA491AB6FBFAFA0AEB8A0A4FEA31
:100DD0004A0AD1F808B0BAFBFBFA0AF1050A1FFA71
:100DE0008AF24FF00A0AB2FBFAF202F00104A2EB17
:100DF000040ACAF34F034FF6FF7A0AEA0424022BCF
:100E000001DBFF2B01DD02230024B1F806A04AEA32
:100E1000040A4AEA030AA0F820A0B1F804A0B1F835
:100E20000CB04AEA0B0AB1F802B04AEA0B0AB1F870
:100E300000B04AEA0B0A4AF4006A4AEA05058583CB
:100E4000BDE8F08F0838024000127A000024F40058
:100E500000BFFEE7704708B54FF4C06000F054F8DB
:100E600031208DF8000000208DF801008DF802007F
:100E700001208DF80300684600F00AF83B208DF849
:100E8000000001208DF80100684600F001F808BD5F
:100E900070B5002100230F22C4781CB3174C2468BE
:100EA00004F4E064C4F5E064C4F30721C1F1040470
:100EB000E3B20A4144789C40E1B284781440214373
:100EC0000C07210E0E4C05786155047804F01F05BF
:100ED0000124AC4005786D11AD0005F1E025C5F8A1
:100EE000004109E0047804F01F050124AC40054DE1
:100EF0000678761145F8264070BD00000CED00E044
:100F000000E400E080E100E002490143024A116090
:100F1000704700000000FA050CED00E0704700008B
:100F200029B1064A12680243044B1A6004E0034ADE
:100F300012688243014B1A6070470000303802404B
:100F400029B1064A12680243044B1A6004E0034ABE
:100F500012688243014B1A6070470000403802401B
:100F600029B1064A12680243044B1A6004E0034A9E
:100F700012688243014B1A6070470000203802401B
:100F800029B1064A12680243044B1A6004E0034A7E
:100F900012688243014B1A607047000044380240D7
:100FA00029B1064A12680243044B1A6004E0034A5E
:100FB00012688243014B1A607047000024380240D7
:100FC000F0B5002100220024022500260223324F22
:100FD0003F6807F00C0121B1042905D0082937D159
:100FE00005E02E4F076036E02D4F076033E02A4FB3
:100FF0003F1F3F68C7F38056274F3F1F3F6807F0EA
:101000003F036EB1264FB7FBF3F7DFF88CC0ACF1AE
:10101000040CDCF800C0CCF3881C07FB0CF40CE0DB
:101020001E4FB7FBF3F7DFF870C0ACF1040CDCF82F
:1010300000C0CCF3881C07FB0CF4174F3F1F3F6820
:10104000C7F301477F1C7D00B4FBF5F7076002E0A2
:10105000124F076000BF00BF0F4F3F6807F0F0015D
:101060000909104F7A5C0768D74047600A4F3F680C
:1010700007F4E051890A0B4F7A5C4768D7408760D4
:10108000054F3F6807F46041490B064F7A5C47689B
:10109000D740C760F0BD0000083802400024F400CB
:1010A00000127A003C000020F0B504460D460021F5
:1010B000002000BF05E06E18A65DCF00BE403043A3
:1010C000491C9142F7D3012B00D100BAF0BD0000BA
:1010D0007CB50546002400200090019000F0EAF85D
:1010E00000F0007010B10E2420467CBD3D490988F7
:1010F00088B26946FFF758FC04460CB12046F4E775
:10110000012D36D1019800F4802000282ED03548DA
:101110000088000434490860372048604020886017
:101120000020C860A8020861084600F001F93720D5
:10113000FFF728F904460CB12046D6E702202A49D9
:10114000086006204860402088600020C8604FF496
:1011500080600861084600F0EBF80620FFF712F9FE
:1011600004460CB12046C0E72046BEE725242046B1
:10117000BBE7019800F4803078B31A480088000477
:101180001949086037204860402088600020C86006
:101190004FF480600861084600F0CAF83720FFF776
:1011A000F1F804460CB120469FE700200E49086084
:1011B00006204860402088600020C8604FF48060AE
:1011C0000861084600F0B4F80620FFF7DBF8044693
:1011D0000CB1204689E7204687E7FFE72524204613
:1011E00083E7000018000020081100200149086072
:1011F00070470000382C014001490860704700002A
:10120000382C01400149086070470000A080254249
:1012100001490860704700008C85254200210B4B76
:1012200002681A601B1D42681A601A1D116821F0BD
:10123000F701D0E902231A4303691A4343691A43A9
:101240001143024A0832116070470000242C01400B
:1012500010B50121C802FFF7A3FE00214FF4006082
:10126000FFF79EFE10BD000001480068C0B2704745
:10127000102C014001460020034A12680A400AB1BE
:10128000012000E000207047342C0140014600207E
:10129000034A12680A400AB1012000E000207047AA
:1012A000342C01400248006800F003007047000041
:1012B000002C014008B50146002000900248084477
:1012C00000900098006808BD142C014010B500F093
:1012D000C9FC10BD29B1064A12680243044B1A60CA
:1012E00004E0034A12688243014B1A607047000011
:1012F0003C2C014000210A4A116847F6FF629143E5
:10130000027D83681A4343681A43C3681A4303681B
:101310001A4303691A431143014A116070470000E0
:10132000042C01400148006870470000802C0140F7
:101330000021094B02681A601A1D11686FF30A0137
:10134000D0E901231A43C3681A4303691A431143BE
:10135000014A121D11607047082C014001490860C4
:1013600070470000002C014008B5012000909DF856
:10137000000008BD70B50446002520480068032819
:1013800002D12725284670BD1C48006838B11B488B
:101390000068012803D01948006802282CD1B4F550
:1013A000805F02D127252846EDE7B4F5006F13D101
:1013B0000120FFF78DFE0546F5B90020104908759C
:1013C0000860486088604FF40060C86000200861D1
:1013D0000846FFF78FFF0FE00020FFF779FE054674
:1013E00055B9002006490875086048608860C860E3
:1013F00008610846FFF77EFF2846C4E71400002076
:10140000F010002030B5014600200022AC4B1B78C4
:1014100081F84E30AB4B1B88A1F84C30AA4B1B68AF
:101420001A0E93090B70C2F383034B7002F003038F
:101430008B70A54B1B68C3F30742CA70A24B1B8875
:10144000C3F307220A71A04B1A784A715B681A0E1F
:101450001301CB809C4B5B68C3F30742CB8843EA04
:101460001213CB8002F00F030B72974B9B88C3F3D0
:101470000722D3094B72C2F380138B72C2F340135D
:10148000CB72C2F300130B7300234B738C4B1B689E
:101490001BB18B4B1B68012B3CD193071B0D0B61C0
:1014A000894B1A790B6943EA82030B61864B9B686F
:1014B0001A0E0B6943EA92130B61C2F3C2030B7558
:1014C00002F007034B75804B9B68C3F30742530937
:1014D0008B75C2F38203CB7593075B0F0B767A4B48
:1014E0001B89C3F307220B7E43EAD2130B760B69E9
:1014F0005B1C4B640C7E4B6CA41C0125A5406B430C
:101500004B640C7A0123A3408B64D1E9113463430B
:101510004B6421E06A4B1B68022B1DD16A4B1A7980
:1015200093069B0A0B61684B9B681A0E0B6943EA92
:1015300002230B61644B9B68C3F307420B6913439F
:101540000B61614B1B89C3F307220B695B1CDB0436
:101550004B644FF400738B64C2F3801301F8193F9E
:1015600093065B0E4B70584B1A7A4B7843EAD213B2
:101570004B7002F07F038B70534BDB681A0ED3095C
:10158000CB70C2F341130B71C2F382034B7193070B
:101590001B0F8B714C4BDB68C3F307428B7943EA1B
:1015A00092138B71C2F34013CB7100230B7202F0C4
:1015B00001034B72444B9B89C3F30722D3098B72FF
:1015C000C2F38013CB72C2F340130B73C2F3001348
:1015D0004B73C2F381038B7302F00303CB733A4B5B
:1015E0001A7B53080B7401234B74384B1B681A0E7B
:1015F000CA741939354B1B68C3F307421402CC85F2
:10160000324B1B88C3F30722CB8D1343CB852F4B63
:101610001A7814060C635B681A0E0B6B43EA0244DB
:101620000C632A4B5B68C3F307420B6B43EA02244B
:101630000C63264B9B88C3F307220B6B13430B638E
:10164000224B1A7934235A54204B9B681A0E3523A7
:101650005A541E4B9B68C3F3074214068C631B4B02
:101660001B89C3F307228B6B43EA02448C63174B3D
:101670001A7A8B6B43EA02248C63144BDB681A0ED4
:101680008B6B13438B63114BDB68C3F307423C2323
:101690005B5C43EA12143C235C5413071C0DCC879B
:1016A0000A4B9B89C3F30722CB8F1343CB87074B8E
:1016B0001A7B540840235C54012441235C5430BD00
:1016C000140000201800002070100020801000205E
:1016D00008B500200090FFF747FE012809D16846B1
:1016E00000F016FC08B1FF2008BD0098C0F34320AD
:1016F000FAE7FF20F8E710B50424FFF7E9FF0446F6
:10170000042C01D1002010BDFF2C01D10220FAE7EA
:101710000120F8E708B500200090FFF79CFB00F0DF
:1017200069F9FFF795FD00F0B9F900909DF8000008
:1017300010B19DF8000008BD00F030F800909DF851
:10174000000010B19DF80000F5E700201149087570
:10175000086048608860C86008610846FFF7CAFDF5
:101760000D48FFF74FFE00909DF8000030B90A4980
:10177000B1F84C10080400F0B1FB00909DF8000097
:1017800020B94FF40060FFF7F5FD00909DF80000D0
:10179000D1E70000F0100020A010002038B5002490
:1017A00001200090FFF77EFD10B92524204638BDAA
:1017B00044480068042828D00020434908600220DB
:1017C0004860C02088600020C8604FF480600861D5
:1017D0000846FFF7ADFDFEF76FFE04460CB120464C
:1017E000E5E70020FFF766FD384908600420FFF7B1
:1017F00061FD364948600820FFF75CFD3349886089
:101800000C20FFF757FD3149C8602E48006858B1D9
:101810002C480068012807D02A480068062803D011
:1018200028480068022816D10020274908600320B4
:101830004860402088600020C8604FF480600861E4
:101840000846FFF775FD69460320FEF777FE04465C
:101850000CB12046ABE71B48006804282ED0BDF829
:1018600000001B490860BDF800000004164908602C
:1018700009204860C02088600020C8604FF4806064
:1018800008610846FFF754FDFEF716FE04460CB14A
:1018900020468CE70020FFF70DFD0E49086004206C
:1018A000FFF708FD0B4948600820FFF703FD0949D1
:1018B00088600C20FFF7FEFC0649C8600024204623
:1018C00075E700001400002008110020801000209F
:1018D000180000207010002030B58FB004460D466F
:1018E0004FF0FA511D48FEF709FF00211B48FEF793
:1018F0001FFF1A48FEF728FF4FF0006000901848BD
:101900000190029400200390049005904FF48060B1
:1019100006908000079080000890002009904FF406
:1019200040300A9004200B9003200C904FF40000EC
:101930000D9080100E9069460848FFF707F80122C5
:1019400010210648FEF7E4FF20210448FEF7A8FF17
:1019500001210248FEF7ECFE0FB030BD5864024092
:10196000802C014030B58FB004460D464FF0FA513F
:101970001E48FEF7C3FE00211C48FEF7D9FE1B4897
:10198000FEF7E2FE4FF000600090194801900294CB
:10199000402003900020049005904FF48060069052
:1019A0008000079080000890002009904FF440309C
:1019B0000A9004200B9003200C904FF400000D902F
:1019C00080100E9069460948FEF7C0FF01221021E1
:1019D0000648FEF79DFF20210448FEF761FF012124
:1019E0000248FEF7A5FE0FB030BD0000586402406B
:1019F000802C01401CB501210C20FFF791FA0C222C
:101A000008212448FFF7E2F80C2209212148FFF7BA
:101A1000DDF80C220A211F48FFF7D8F80C220B2111
:101A20001C48FFF7D3F80C2211461A48FFF7CEF8EE
:101A30000C2202211848FFF7C9F84FF4706000909B
:101A400001208DF8050002208DF8040000208DF89B
:101A5000060001208DF8070069460E48FFF76EF872
:101A60000420009069460C48FFF768F84FF4805056
:101A7000009000208DF8070069460648FFF75EF8E1
:101A80000121C802FFF77CFA01218805FFF748FA17
:101A90001CBD000000080240000C0240F8B5002008
:101AA0000090002500240026002776205F49087555
:101AB0000020086048608860C86008610846FFF739
:101AC00019FC0320FFF74AFC0120FFF79BFB0020D5
:101AD0005749086048608860C8604FF480600861BA
:101AE0000846FFF725FCFEF737FC00909DF8000044
:101AF00010B19DF80000F8BD4FF4D5704C49086056
:101B000008204860402088600020C8604FF4806052
:101B100008610846FFF70CFCFEF75EFD00909DF89B
:101B2000000020B9012043490860870712E0002027
:101B30003F49086037204860402088600020C86026
:101B40004FF4806008610846FFF7F2FB3720FEF78C
:101B500019FC00900020364908603720486040207A
:101B600088600020C8604FF4806008610846FFF775
:101B7000DFFB3720FEF706FC00909DF800000028F0
:101B800051D13BE000202A490860372048604020BE
:101B900088600020C8604FF4806008610846FFF745
:101BA000C7FB3720FEF7EEFB00909DF8000010B158
:101BB0009DF800009FE7204838431D490860292010
:101BC0004860402088600020C8604FF48060086151
:101BD0000846FFF7ADFBFEF795FC00909DF800006E
:101BE00010B19DF8000086E70020FFF763FB054673
:101BF000012080EAD57080F00106641C1EB94FF602
:101C0000FF708442BED34FF6FF70844204D31B2082
:101C100000909DF800006EE705F08040050002D0BE
:101C20000220044908609DF8000064E7F0100020DD
:101C300008110020140000200000108010B5074893
:101C4000006800F0C05040B10120054908604FF025
:101C5000C25102485830FEF751FD10BD00640240E9
:101C60002800002010B54FF48070FFF70FFB50B133
:101C70000020254908704FF48070FFF7BDFA01205D
:101C80002249086037E00220FFF700FB30B1022054
:101C9000FFF7B2FA02201C4908702CE00820FFF779
:101CA000F5FA30B10820FFF7A7FA042016490870AA
:101CB00021E02020FFF7EAFA30B12020FFF79CFA5C
:101CC00006201149087016E01020FFF7DFFA30B146
:101CD0001020FFF791FA05200B4908700BE04FF434
:101CE0000070FFF7D3FA30B14FF40070FFF784FAB9
:101CF00007200549087000214CF23A30FFF7EAFA54
:101D00000148007810BD00002000002024000020C1
:101D10002DE9F04107460D461446002600202D49C6
:101D200008702D4908602D4908602D4908604C1540
:101D30002C480068022801D100BF6D0A2A480460BF
:101D4000102029494860402088600020C8604FF476
:101D5000806008610846FFF7EBFA1020FEF712FBDF
:101D6000064616B13046BDE8F0814FF0FF301F49FE
:101D7000086008464460902088600220C860002007
:101D80000861012048610846FFF748FA16480560D7
:101D9000112015494860402088600020C8604FF439
:101DA000806008610846FFF7C3FA1120FEF7EAFADF
:101DB00006460EB13046D6E7012140F22A30FFF741
:101DC00089FA0120FFF724FA21463846FFF784FDFF
:101DD0003046C8E720000020240000201C0000201E
:101DE0002C2C014014000020081100201C110020A0
:101DF0002DE9F04180460D4614461E46002700207E
:101E00002F4908702F49086001202F4908600020E1
:101E10002E4908604C152E480068022801D100BFE9
:101E20006D0A2C48046010202A49486040208860D0
:101E30000020C8604FF4806008610846FFF778FA18
:101E40001020FEF79FFA074617B13846BDE8F0812B
:101E50004FF0FF302049086006FB04F048609020F6
:101E600088600220C860002008610120486108469F
:101E7000FFF7D4F917480560122016494860402042
:101E800088600020C8604FF4806008610846FFF752
:101E90004FFA1220FEF776FA07460FB13846D5E71B
:101EA000012140F22A30FFF715FA0120FFF7B0F9BF
:101EB00006FB04F14046FFF70FFD3846C6E7000079
:101EC00020000020240000201C0000202C2C0140B9
:101ED00014000020081100201C11002070B50446D9
:101EE00000250A48046007200849486040208860AF
:101EF0000020C8604FF4806008610846FFF718FAB8
:101F00000720FEF73FFA0546284670BD081100205D
:101F100070B50446002514B92625284670BD0F4823
:101F2000008800040E4908600D2048604020886049
:101F30000020C8604FF4806008610846FFF7F8F998
:101F40000D20FEF71FFA05460DB12846E6E70020F2
:101F5000FFF7B0F920602846E0E7000018000020F5
:101F60000811002010B5002400200A4908600C2048
:101F70004860402088600020C8604FF4806008619D
:101F80000846FFF7D5F90C20FEF7FCF90446204679
:101F900010BD00000811002070B500256C1E00E087
:101FA000641E1748006838B91648006820B91648FA
:101FB000007808B9002CF3D1002011490860441EB4
:101FC00000E0641E1148006800F4005008B1002CC5
:101FD000F7D10F480068012802D1FFF7C3FF05467B
:101FE0000CB905B9042540F2FF50FFF7FFF8064889
:101FF000007810B10448007870BD2846FCE7000066
:10200000280000202400002020000020342C014063
:102010001C0000202DE9F04107460D46144600261D
:1020200000202C4908702C4908602C4908602C4974
:1020300008602C480068022801D104026D0A2A4871
:102040000460102028494860402088600020C86053
:102050004FF4806008610846FFF76AF91020FEF728
:1020600091F9064616B13046BDE8F0811E4805607C
:1020700018201D494860402088600020C8604FF447
:10208000806008610846FFF753F91820FEF77AF9D7
:1020900006460EB13046E7E74FF0FF3013490860BF
:1020A00008464460902088600020C86008610120D4
:1020B00048610846FFF7B2F8012140F22A30FFF7E5
:1020C00009F921463846FFF74DFC0120FFF7A0F83B
:1020D0003046C9E720000020240000201C0000201A
:1020E0002C2C014014000020081100201C1100209D
:1020F0002DE9F04180460F4615461E46002400207B
:10210000454908704549086001204549086000209C
:102110004449086044480068022801D105027F0A4A
:1021200042480560102041494860402088600020F6
:10213000C8604FF4806008610846FFF7F9F8102086
:10214000FEF720F9044614B12046BDE8F081384876
:1021500000880004354908603720486040208860C6
:102160000020C8604FF4806008610846FFF7E0F87F
:102170003720FEF707F904460CB12046E5E72B4867
:102180000660172029494860402088600020C86008
:102190004FF4806008610846FFF7CAF81720FEF781
:1021A000F1F804460CB12046CFE72048076019201B
:1021B0001E494860402088600020C8604FF480605D
:1021C00008610846FFF7B4F81920FEF7DBF804466B
:1021D0000CB12046B9E74FF0FF301649086006FB06
:1021E00005F04860902088600020C86008610120E8
:1021F00048610846FFF712F8012140F22A30FFF744
:1022000069F80120FFF704F806FB05F14046FFF7E7
:10221000A9FB204699E700002000002024000020B0
:102220001C0000202C2C014014000020081100206C
:10223000180000201C11002010B50221044800F0F5
:102240006BF818B10021024800F06FF810BD0000D3
:10225000003800401AB183880B43838002E08388F2
:102260008B4383807047000010B5044624488442A5
:1022700008D101218014FEF793FE0021A014FEF77F
:102280008FFE3CE01F48844208D101210014FEF774
:1022900067FE00212014FEF763FE30E01A488442F6
:1022A00008D10121C013FEF75BFE0021E013FEF709
:1022B00057FE24E01548844208D101214014FEF75E
:1022C0006FFE00216014FEF76BFE18E01048844298
:1022D00009D101210805FEF763FE00214FF48010AB
:1022E000FEF75EFE0BE00B48844208D10121480551
:1022F000FEF756FE00214FF40010FEF751FE10BD10
:102300000030014000380040003C004000340140F3
:1023100000500140005401400246002013890B4048
:102320000BB1012000E000207047818170477047A9
:102330000CB50020019000904148006840F48030C6
:102340003F49086000BF3E48006800F4003000903C
:102350000198401C0190009818B90198B0F5A04F61
:10236000F1D13748006800F4003010B1012000902E
:1023700001E0002000900098012846D1304840300C
:10238000006840F080502E49403108602D480068B8
:1023900040F440402B49086029480830006828492B
:1023A000083108600846006840F4004008600846AC
:1023B000006840F4A05008602348091F0860081F07
:1023C000006840F08070091F086000BF1C4800686A
:1023D00000F000700028F9D040F205601B49086049
:1023E00017480830006820F00300154908310860DC
:1023F0000846006840F00200086000BF104808303E
:10240000006800F00C000828F8D10D48083000687A
:1024100020F400000A49083108600D480849843159
:1024200008600748006840F080600549086000BF08
:102430000348006800F000600028F9D00CBD0000DF
:10244000003802400070004008544007003C024041
:102450008040003002480068401E01490860704713
:102460003800002010B51548006840F4700013498A
:1024700008601348006840F001001149086000201E
:102480000F49083108600E4800680E4908400C49A1
:1024900008600D48091D0860081F006820F48020AE
:1024A000091F0860002006490C310860FFF740FF53
:1024B0004FF0006001498039086010BD88ED00E0F0
:1024C00000380240FFFFF6FE1030002401F40072D5
:1024D000B2F5007F00D100BFCA430280704721B12E
:1024E000828942F40052828104E082894DF6FF73B2
:1024F0001A408281704702460020B1F5007F00D16A
:1025000000BF13880B400BB1012000E00020704792
:102510002DE9FF4705460E460024A14600BFA04610
:10252000B08900B100BF2C8A24F44054F0880443E1
:102530002C82AC8941F20C608443B0883189084315
:10254000718908430443AC81AC8A24F44074B08997
:102550000443AC826846FEF733FD2048854202D032
:102560001F48854202D1DDF80C9001E0DDF80890AB
:10257000A88900F4004040B109EBC90000EB091044
:1025800031684900B0FBF1F707E009EBC90000EB47
:10259000091031688900B0FBF1F76420B7FBF0F057
:1025A00004012009642101FB1078A88900F400408F
:1025B00040B1322000EBC800B0FBF1F000F00700A2
:1025C000044308E0322000EB08106421B0FBF1F076
:1025D00000F00F0004432C81BDE8FF87001001408C
:1025E00000140140C1F308028280704700BFFEE77B
:1025F00030B5002400250123042200215F48FEF7A6
:1026000053FD04465E48844201D0012030BD0023C2
:10261000042211465948FEF747FD5A490860012334
:10262000042208215548FEF73FFD044656488442DF
:1026300001D00220EAE7012304220C214F48FEF7D3
:1026400033FD04465148844201D00320DEE70023D5
:10265000042210214948FEF727FD0446102C00D023
:1026600001250023022214214448FEF71DFD45499F
:10267000888008468088012801D00420C6E700230E
:10268000022216213D48FEF70FFD3E49C880002377
:10269000042218213948FEF707FD3A4988600023D3
:1026A00004221C213548FEF7FFFC3649C860002390
:1026B000022220213148FEF7F7FC3249088200232C
:1026C000022222212D48FEF7EFFC2E4948820846BF
:1026D000408A102801D0052098E724202C49086062
:1026E000012D23D10023022224212448FEF7DCFC03
:1026F00004460CB1062089E70123042226211F4845
:10270000FEF7D2FC04462348844201D007207DE72F
:10271000002304222A211948FEF7C6FC044604F1CE
:102720000A001B49096808441949086018480068EC
:10273000C1B2012304221148FEF7B6FC0446144836
:102740000068001D124908601348844201D0082027
:102750005CE70F480068C1B2002304220748FEF777
:10276000A3FC084948610A480068001D0849086040
:102770000846006809490860002047E75800002023
:1027800046464952581000204556415720746D6600
:102790000800002074636166617461640C000020AD
:1027A00010B5ADF58B6D00248AA9002000F088FEDD
:1027B000012238A101A800F099FE6B464FF4806217
:1027C000384901A800F048FF02E037A000F080F887
:1027D000FFF70EFF0028F8D13748406937490860F5
:1027E00035498868FDF706FD3548016801A800F005
:1027F0008FFD6B464FF480622A4901A800F02CFF40
:102800006B464FF480622F4901A800F025FF4FF47A
:1028100080612448FDF77EFD01202B4908700020CF
:102820002A4908602EE000BF284800680028FBD035
:102830000020264908602448007878B94FF4806168
:102840001848FDF767FD6B464FF480621D4901A8EB
:1028500000F002FF01201C4908700EE04FF4806177
:102860001848FDF757FD6B464FF480620D4901A8EB
:1028700000F0F2FE002014490870601CC4B2642C01
:1028800000D100240D4800680028CCD10DF58B6DD7
:1028900010BD0000303A2F7761762F312E776176A8
:1028A000000000005800002066696C6520726561B8
:1028B00064206572726F72005810002000000020C2
:1028C0000C00002058080020100000200400002008
:1028D000014A024900F013B8C13800085400002032
:1028E00002E008C8121F08C1002AFAD170477047D9
:1028F000002001E001C1121F002AFBD170472DE921
:10290000F04116460F460446002503E03946B0471D
:10291000641C6D1C20780028F8D12846BDE8F081A1
:1029200070B504460D46607801232A4604F1300153
:1029300000F06AFC08B1032070BD94F82E1294F8E0
:102940002F0241EA00204AF65521884201D0022098
:10295000F2E794F86900010694F8680041EA004142
:1029600094F8670041EA002094F86610084320F0CC
:102970007F400E49884201D10020DDE794F88500B0
:10298000010694F8840041EA004194F8830041EA8A
:10299000002094F88210084320F07F4003498842C9
:1029A00001D10020C8E70120C6E7000046415400DD
:1029B000024600E0521C107810B110788842F9D11C
:1029C000107870472DE9F74F86B0069800680090A0
:1029D0000098007830380590059809280AD80098A2
:1029E00040783A2806D10098801C009006990098FB
:1029F000086001E000200590059818B10B2009B08F
:102A0000BDE8F08FC749059851F820400798046049
:102A10000CB90C20F3E7207878B1607800F02EFC38
:102A2000804608F0010040B9089820B108F0040081
:102A300008B10A20E3E70020E1E7002020700598B4
:102A40006070607800F0CAFB804608F0010008B1B1
:102A50000320D4E7089820B108F0040008B10A2048
:102A6000CDE74FF0000A51462046FFF759FF0546D3
:102A7000012D13D104F5F777387978B1F87A01068A
:102A8000B87A41EA0041787A41EA0020397A40EA8E
:102A9000010A51462046FFF743FF0546032D01D1A9
:102AA0000120ACE70DB10D20A9E73B20015D94F8B2
:102AB0003C0041EA0020B0F5007F01D00D209EE7E8
:102AC0004620015D94F8470041EA0029B9F1000F62
:102AD0000ED194F85700010694F8560041EA0041DF
:102AE00094F8550041EA002094F8541040EA010996
:102AF000C4F81C904020065DE670012E03D0022E23
:102B000001D00D207BE709FB06F93D20005D06465C
:102B1000A07016B1701E304008B10D206FE7412043
:102B2000015D94F8420041EA00202081207A00F003
:102B30000F0008B10D2062E74320015D94F84400C6
:102B400041EA00200490049870B994F853000106FB
:102B500094F8520041EA004194F8510041EA002003
:102B600094F85010084304903E20015D94F83F0013
:102B700041EA00200190019808B90D203FE7019833
:102B80004844218900EB11100390DDE903018142E3
:102B900001D20D2033E7DDE90310401AA178B0FB24
:102BA000F1FBBBF1000F01D10D2028E7012540F614
:102BB000F670834500D302254FF6F670834500D3A7
:102BC00003250BF10200A06103985044A062019814
:102BD00050442062032D16D1208908B10D200EE744
:102BE00094F85F00010694F85E0041EA004194F811
:102BF0005D0041EA002094F85C1008436062A0691F
:102C00008000029014E0208908B90D20F7E6206AC0
:102C100048446062022D02D1A069400007E0207E96
:102C200000F00100A16901EB410100EB51000290AD
:102C3000E169029800F2FF10B1EB502F01D20D2094
:102C4000DDE64FF0FF3020610020E060032D5CD115
:102C5000607194F8601094F8610041EA00205044DB
:102C600060616078012304F13001626900F0CCFA00
:102C7000F0BB94F82E1294F82F0241EA00204AF695
:102C80005521884241D13320005D01063220005D8C
:102C900041EA00413120005D41EA002094F8301003
:102CA00008432149884230D194F81702010694F86C
:102CB000160241EA004194F8150241EA002094F816
:102CC00014120843194988421FD194F81F020106C3
:102CD00094F81E0241EA004194F81D0241EA0020E6
:102CE00094F81C120843E06094F81B02010600E00F
:102CF0000BE094F81A0241EA004194F8190241EA03
:102D0000002094F8181208432061257008480088B4
:102D1000401C80B206490880E0800020E0622071FB
:102D200000BF6CE64C00002052526141727241615A
:102D3000500000200246891E9069801E884201D8FA
:102D4000002070479378906A01FB0300F9E72DE9B2
:102D5000F04704468946B9F1000F06D1E76817B17C
:102D6000A069B84211D801270FE04946204600F07B
:102D7000B9FD0646022E02D20120BDE8F087A06907
:102D8000B04201D93046F8E74F463D4600BF6D1CC2
:102D9000A069A84204D80225BD4201D90020ECE771
:102DA0002946204600F09EFD064606B909E0701C43
:102DB00008B1012E01D13046DFE7BD42E7D1002046
:102DC000DBE700BF6FF070422946204600F0BFFEEF
:102DD0008046B8F1000F08D1B9F1000F05D02A469E
:102DE0004946204600F0B3FE8046B8F1000F09D1F5
:102DF000E5602069401C68B12069401E2061012007
:102E0000607107E0B8F1010F02D14FF0FF3000E030
:102E1000012005462846B0E72DE9F35F0098866952
:102E20000B222021304600F04FFE00200546804650
:102E300082464FF008090198D0F800B000BF504614
:102E40000AF1010A1BF80040202C03DD2F2C01D0D1
:102E50005C2C00D152E02E2C01D0C8450ED3B9F124
:102E6000080F01D12E2C02D00620BDE8FC9F4FF0A8
:102E700008084FF00B09A806050EE0E7802C01DBDF
:102E800045F00305812C1DDBFE2C1BDC50460AF1AE
:102E9000010A1BF80070402F01DB7E2F03DD802F1D
:102EA00005DBFE2F03DCA9F10100404501D8062017
:102EB000DBE7404608F101083454404608F10108B8
:102EC00037541AE0214622A0FFF772FD08B1062010
:102ED000CBE7412C04DB5A2C02DC45F0020508E06C
:102EE000612C06DB7A2C04DC45F00105A4F12000FE
:102EF000C4B2404608F101083454A0E700BF0BEB10
:102F00000A0101980160202C01DC042000E000206F
:102F10000446B8F1000F01D10620A6E73078E52875
:102F200001D105203070B9F1080F01D1A806050EB6
:102F300005F00300012801D144F0100405F00C0055
:102F4000042801D144F00804F47200208DE7000049
:102F5000222A2B2C3A3B3C3D3E3F5B5D7C7F0000B0
:102F60002DE9F04104460021204600F0E9F805462D
:102F700015B12846BDE8F08100BF2169206800F046
:102F8000ADFD054605B116E0666937780FB9042531
:102F900011E0F07A00F0080030B90B223046A16948
:102FA00000F072FD00B906E00021204600F006F8AE
:102FB0000546002DE1D000BF2846DBE72DE9F041B2
:102FC00004468846E088401C86B20EB1206910B9DC
:102FD0000420BDE8F08106F00F0000286FD12069C1
:102FE000401C2061E06828B920680089B04266DC96
:102FF0000420EEE720688078401E00EA16100028C2
:103000005DD1E168206800F06DFC0546012D01D816
:103010000220DEE7681C08B90120DAE72068806931
:10302000A84246D8B8F1000F01D10420D1E7E168E9
:103030002068FFF78CFE05460DB90720C9E7012D72
:1030400001D10220C5E7681C08B90120C1E70021B1
:10305000206800F043FD08B10120BAE7216801F1C2
:1030600030004FF40072002100F02EFD2946206848
:10307000FFF760FE2168C862002710E00120216888
:1030800008710021206800F029FD08B10120A0E7A7
:103090002068C06A401C2168C862781CC7B22068DA
:1030A0008078B842EADC2068C06AC01B2168C86228
:1030B00000BFE56029462068FFF73CFE2061E680FE
:1030C0002068303006F00F0100EB411060610020F5
:1030D0007FE72DE9F04104460021204600F030F85A
:1030E0000546ADB900BF2169206800F0F7FC054630
:1030F00005B10CE060690678E52E00D006B906E05F
:1031000001212046FFF75AFF0546002DEBD000BFF6
:103110009DB92169206800F0E1FC05466DB9676939
:1031200020220021384600F0CFFC0B223846A1694E
:1031300000F0BDFC0120216808712846BDE8F0813F
:103140002DE9F04104460E46E680A568012D03D026
:1031500020688069A84202D80220BDE8F0812DB91C
:1031600020680078032801D12068456A65B9E560C8
:1031700020680089B04201DC0220EEE72068406A46
:1031800000EB1610206120E020688078070112E033
:103190002946206800F0A6FB0546681C08B90120F6
:1031A000DBE7022D03D320688069A84201D8022002
:1031B000D3E7F01B86B2BE42EADAE5602946206812
:1031C000FFF7B8FD00EB161020612068303006F0E4
:1031D0000F0100EB411060610020BEE770B50546AD
:1031E00025B1012D0AD0022D0CD109E0FEF792FA8B
:1031F00004460CB9002070BD0120FCE70120FAE76D
:103200000120F8E70120F6E72DE9F041074688465E
:1032100015461E4616B90420BDE8F08127B1012FDE
:1032200024D0022F24D122E0012E09D11248B0F877
:10323000480082B269024046FEF76AFD044609E092
:103240000D48B0F8480082B2690233464046FEF7A6
:10325000CFFD0446FEF7A0FE044600BFFEF74BFA82
:103260000028FBD104B9D7E70120D5E701E000E051
:1032700000BF00BF0120CFE7A0100020014621B110
:10328000012904D0022906D103E000207047002064
:10329000FCE70020FAE700BF00BF0120F6E70000CE
:1032A0002DE9F0410746884615461E4616B904200A
:1032B000BDE8F08117B1022F23D121E0012E09D101
:1032C0001248B0F8480082B269024046FEF7A2FEFA
:1032D000044609E00D48B0F8480082B2690233465E
:1032E0004046FEF705FF0446FEF756FE044600BFC3
:1032F000FEF701FA0028FBD104B9D9E70120D7E78E
:1033000000E000BF00BF0120D2E70000A0100020B5
:103310002DE9F04704460E46A188206800F0E6FC3F
:103320008246BAF1000F02D05046BDE8F087A0797E
:1033300000F0800008B10220F7E7E068B04204D254
:10334000A07900F0020000B9E668D4F808904FF0C8
:103350000008C4F80880002E77D0206880784702E3
:10336000B9F1000F11D0701EB0FBF7F1A9F1010007
:10337000B0FBF7F0814208D3A9F10100791E884320
:10338000A060A068361A656918E02569ADB900210A
:103390002068FFF7DCFC0546012D05D1A07940F03F
:1033A0008000A0710220C0E7681C28B9A07940F015
:1033B0008000A0710120B8E725616561002D44D02F
:1033C00029E0A07900F0020038B129462068FFF713
:1033D000BEFC054635B93E461FE02946206800F090
:1033E00081FA0546681C28B9A07940F08000A071D8
:1033F00001209AE7012D03D920688069A84205D8E9
:10340000A07940F08000A07102208EE76561A0687D
:103410003844A060F61BBE42D3D800BFA068304439
:10342000A060C6F3080068B129462068FFF782FC57
:103430008046B8F1000F06D1A07940F08000A0715D
:10344000022072E701E008EB56282089C0F308004B
:1034500050B3A069404527D0A07900F0400090B15A
:1034600021684878012304F12401A269FFF718FFBD
:1034700028B1A07940F08000A071012055E7A07923
:1034800020F04000A071216848780123424604F1F1
:103490002401FFF7B9FE28B1A07940F08000A071A7
:1034A000012042E7C4F81880D4E90201884205D916
:1034B000A068E060A07940F02000A071504634E799
:1034C0000246012A01DB0B207047074850F82230E2
:1034D0000BB10020187009B100200870024840F8B4
:1034E00022100020F0E700004C0000202DE9F743F7
:1034F0008AB0054616460020286006F01F0626F012
:10350000010203A90BA8FFF75DFA0746CDF824D006
:1035100027B903A80B9900F084F90746089C0FB956
:1035200004B9062706F01C00002858D04FB1042F1C
:1035300003D103A8FFF7CDFD074646F00806089C17
:1035400009E006F0040008B1082704E0E07A00F082
:10355000110000B10727002F40D106F00800002815
:103560003CD000F031FA804684F80E804FEA1821F2
:10357000E1734FEA184121744FEA18616174002029
:10358000E072207700216177A177E177A17EE07E6C
:1035900041EA0021227D607D42EA002041EA0049A3
:1035A0000020A0760021E176207561750120039945
:1035B0000871B9F1000F11D00398D0F82C8049465A
:1035C000039800F05FFB074647B9A9F10100039992
:1035D000C8604146039800F081FA07460EE06FB9D3
:1035E000E07A00F0100008B1042707E006F00200BE
:1035F00020B1E07A00F0010000B1072747B906F0DA
:10360000080008B146F020060398C06AE8612C6201
:10361000F7B9AE71A17EE07E41EA0021227D607D96
:1036200042EA002041EA00402861E07F0106A07FD5
:1036300041EA0041607F41EA0020217F0843E860C1
:103640000020A860A861039828600398C088A8801B
:1036500038460DB0BDE8F0832DE9FF4F83B0044636
:1036600015469A46DDF810B00020CAF80000A1887F
:10367000206800F03BFB0290029818B1029807B056
:10368000BDE8F08FA07900F0800008B10220F6E7D5
:10369000A07900F0010008B90720F0E7D4E9021092
:1036A000401A00900098854200D9009DB4E020891E
:1036B000C0F3080000287AD120688078401EA168F5
:1036C00000EA512000F0FF09B9F1000F1CD1A068F9
:1036D00008B9206903E06169206800F003F90190EE
:1036E0000198012805D8A07940F08000A07102203F
:1036F000C5E70198401C28B9A07940F08000A0716E
:103700000120BCE70198606161692068FFF712FB46
:1037100006462EB9A07940F08000A0710220AEE7E5
:103720004E444FEA5528B8F1000F2DD009EB0800A0
:1037300021688978884203D920688078A0EB09083D
:1037400008F0FF032168487832465946FFF75CFDD0
:1037500028B1A07940F08000A07101208FE7A07906
:1037600000F0400068B1A069801B404509D2A16902
:10377000891B0BEB41204FF4007204F1240100F08F
:1037800096F94FEA48273DE0A07900F0400098B153
:1037900021684878012304F12401A269FFF780FD24
:1037A00030B1A07940F08000A071012067E716E0F9
:1037B000A07920F04000A071A069B0420ED021682D
:1037C00048780123324604F12401FFF71DFD28B19A
:1037D000A07940F08000A071012050E7A661208907
:1037E000C0F30800C0F50077AF4200D92F4620890A
:1037F000C0F3080204F1240011183A46584600F0BC
:1038000056F900BFBB44A0683844A060DAF8000055
:103810003844CAF80000ED1B002D7FF448AF0020AB
:103820002DE72DE9F3410446019800782F2803D0B5
:10383000019800785C2802D10198401C019000207A
:10384000A06001980078202807D200212046FFF7C9
:1038500077FC0646002060612FE000BF01A92046EA
:10386000FFF7DAFA064606B126E02046FFF778FBB6
:103870000646A069C77A46B1042E00D01CE000BFFE
:1038800007F0040000B9052616E007F0040000B1B7
:1038900012E06569E87A00F0100008B905260BE02F
:1038A000A97EE87E41EA00212A7D687D42EA002067
:1038B00041EA0040A060D1E700BF3046BDE8FC818E
:1038C00070B504460D46E1B20548FEF78BFE00BF19
:1038D00040210348FEF70FFE0028F9D0204670BDB6
:1038E000001001402DE9F04105460C46022C02D3A0
:1038F000A869A04202D80120BDE8F08128780128FB
:1039000004D002282CD003285AD13DE0274607EBEB
:103910005707286A00EB5721284600F0DFF800B16E
:103920004EE0C7F3080105F1300010F801807F1C5C
:10393000286A00EB5721284600F0D0F800B13FE09C
:10394000C7F3080105F13000405C48EA002804F0A4
:10395000010010B14FEA1810CEE7C8F30B00CBE717
:10396000286A00EB1421284600F0B8F800B127E0DF
:1039700040F2FF1000EA440105F130000E183078E3
:10398000717840EA0120B7E7286A00EBD411284695
:1039900000F0A4F800B113E040F2FF1000EA840147
:1039A00005F130000E18F0780006B17840EA0140C9
:1039B000717840EA01203178084320F070409BE79D
:1039C00000BF4FF0FF3097E70020704700B587B089
:1039D00001210846FDF7A4FA01211020FDF7D0FAD5
:1039E000072209211F48FDF7F1F807220A211D4887
:1039F000FDF7ECF800208DF81A0001208DF81B006F
:103A000002208DF818000002059002208DF81900A0
:103A100005A91448FDF792F802208DF8180040021D
:103A2000059005A90F48FDF789F84FF4E1300190A2
:103A30000020ADF80800ADF80A00ADF80C00ADF8B4
:103A400010000C20ADF80E0001A90748FEF760FD3C
:103A500001210548FEF743FD40210348FEF736FDEE
:103A600007B000BD0000024000100140FFF7AEFFAC
:103A700003A0FEF72DFFFEF793FE00BFFEE7000058
:103A800074657374210D0A00F0B503461C460D469B
:103A9000002000BF1600A2F1010207D014F8017B3C
:103AA00015F801CBA7EB0C063000F3D0F0BD70B5D4
:103AB00003460C4603E014F8015B03F8015B1500B4
:103AC000A2F10102F7D170BD30B5034601E003F861
:103AD000011B1400A2F10102F9D130BD2DE9F04122
:103AE00004460D46E66AAE422FD0207908B36078CE
:103AF0000123324604F13001FFF7D2FB10B101205F
:103B0000BDE8F08100202071D4E907100844B042DC
:103B10000FD9E7780AE0E06906446078012332466D
:103B200004F13001FFF7BCFB781EC7B2012FF2DCB5
:103B300000BF55B1607801232A4604F13001FFF738
:103B400063FB08B10120DBE7E5620020D8E72DE93F
:103B5000F04705460E461746022E02D3A869B0422A
:103B600002D84FF002088AE02878012804D0022801
:103B700041D003287DD154E0B14609EB5909286AA8
:103B800000EB59212846FFF7A9FF8046B8F1000F46
:103B900000D071E0C9F3080105F130000C1806F0FF
:103BA000010020B1F9B2207861F31F1000E038461F
:103BB000207009F1010901202871286A00EB5921C0
:103BC0002846FFF78BFF8046B8F1000F00D053E086
:103BD000C9F3080105F130000C1806F0010010B11E
:103BE000C7F3071005E0207800F0F000C7F30321C9
:103BF0000843207040E0286A00EB16212846FFF7B2
:103C00006DFF8046B8F1000F00D035E040F2FF10A4
:103C100000EA460105F130000C182770380A607080
:103C20002AE0286A00EBD6112846FFF757FF8046A6
:103C3000B8F1000F00D01FE040F2FF1000EA86014B
:103C400005F130000C18E0780006A17840EA014048
:103C5000617840EA01202178084300F07040074372
:103C60002770380A6070380CA070380EE07003E0DE
:103C7000FFE74FF0020800BF00BF01202871404657
:103C8000BDE8F0872DE9F04104460E46022E02D32E
:103C9000A069B04201D8022725E000271FE0314685
:103CA0002046FFF71FFE054605B91BE0012D01D197
:103CB000022717E0681C08B9012713E000223146EB
:103CC0002046FFF744FF074607B10BE02069401C80
:103CD00020B12069401C2061012060712E46A0693E
:103CE000B042DCD800BF3846BDE8F08170B504466C
:103CF0000D4624B1207810B1E088A84201D00920F7
:103D000070BD6078FFF7BAFA00F0010008B1032037
:103D1000F6E70020F4E70000383D0008000000202E
:103D200058000000E0280008903D000858000020DE
:103D300018150000F0280008000000000000000036
:103D40000000000000000000010000000000000072
:103D50000000000000000000000000000000000063
:103D600000000000FFFF0000000000000000000055
:103D7000000000000000000001020304010203042F
:103D80000607080900000000000000000000000015
:040000050800018965
:00000001FF
